{
	"system.sol": {
		"CredentialBox": {
			"abi": [
				{
					"inputs": [],
					"stateMutability": "nonpayable",
					"type": "constructor"
				},
				{
					"anonymous": false,
					"inputs": [
						{
							"indexed": true,
							"internalType": "address",
							"name": "_issuer",
							"type": "address"
						}
					],
					"name": "AddIssuer",
					"type": "event"
				},
				{
					"anonymous": false,
					"inputs": [
						{
							"indexed": true,
							"internalType": "address",
							"name": "_issuer",
							"type": "address"
						}
					],
					"name": "DelIssuer",
					"type": "event"
				},
				{
					"anonymous": false,
					"inputs": [
						{
							"indexed": true,
							"internalType": "address",
							"name": "_from",
							"type": "address"
						},
						{
							"indexed": true,
							"internalType": "address",
							"name": "_to",
							"type": "address"
						}
					],
					"name": "OwnerTransferPropose",
					"type": "event"
				},
				{
					"inputs": [
						{
							"internalType": "address",
							"name": "_addr",
							"type": "address"
						}
					],
					"name": "addIssuer",
					"outputs": [
						{
							"internalType": "bool",
							"name": "",
							"type": "bool"
						}
					],
					"stateMutability": "nonpayable",
					"type": "function"
				},
				{
					"inputs": [
						{
							"internalType": "uint8",
							"name": "_type",
							"type": "uint8"
						},
						{
							"internalType": "string",
							"name": "_value",
							"type": "string"
						}
					],
					"name": "addStatusType",
					"outputs": [
						{
							"internalType": "bool",
							"name": "",
							"type": "bool"
						}
					],
					"stateMutability": "nonpayable",
					"type": "function"
				},
				{
					"inputs": [
						{
							"internalType": "uint8",
							"name": "_type",
							"type": "uint8"
						},
						{
							"internalType": "string",
							"name": "_value",
							"type": "string"
						}
					],
					"name": "addVaccineType",
					"outputs": [
						{
							"internalType": "bool",
							"name": "",
							"type": "bool"
						}
					],
					"stateMutability": "nonpayable",
					"type": "function"
				},
				{
					"inputs": [
						{
							"internalType": "address",
							"name": "_person",
							"type": "address"
						},
						{
							"internalType": "uint8",
							"name": "_type",
							"type": "uint8"
						}
					],
					"name": "changeStatus",
					"outputs": [
						{
							"internalType": "bool",
							"name": "",
							"type": "bool"
						}
					],
					"stateMutability": "nonpayable",
					"type": "function"
				},
				{
					"inputs": [
						{
							"internalType": "address",
							"name": "_personAddress",
							"type": "address"
						},
						{
							"internalType": "uint8",
							"name": "_vaccineType",
							"type": "uint8"
						},
						{
							"internalType": "uint8",
							"name": "_statusType",
							"type": "uint8"
						},
						{
							"internalType": "string",
							"name": "_value",
							"type": "string"
						}
					],
					"name": "claimCredential",
					"outputs": [
						{
							"internalType": "bool",
							"name": "",
							"type": "bool"
						}
					],
					"stateMutability": "nonpayable",
					"type": "function"
				},
				{
					"inputs": [
						{
							"internalType": "address",
							"name": "_addr",
							"type": "address"
						}
					],
					"name": "delIssuer",
					"outputs": [
						{
							"internalType": "bool",
							"name": "",
							"type": "bool"
						}
					],
					"stateMutability": "nonpayable",
					"type": "function"
				},
				{
					"inputs": [
						{
							"internalType": "address",
							"name": "_personAddress",
							"type": "address"
						}
					],
					"name": "getCredential",
					"outputs": [
						{
							"components": [
								{
									"internalType": "uint256",
									"name": "id",
									"type": "uint256"
								},
								{
									"internalType": "address",
									"name": "issuer",
									"type": "address"
								},
								{
									"internalType": "uint8",
									"name": "vaccineType",
									"type": "uint8"
								},
								{
									"internalType": "uint8",
									"name": "statusType",
									"type": "uint8"
								},
								{
									"internalType": "string",
									"name": "value",
									"type": "string"
								},
								{
									"internalType": "uint256",
									"name": "createDate",
									"type": "uint256"
								}
							],
							"internalType": "struct CredentialBox.Credential",
							"name": "",
							"type": "tuple"
						}
					],
					"stateMutability": "view",
					"type": "function"
				},
				{
					"inputs": [
						{
							"internalType": "uint8",
							"name": "_type",
							"type": "uint8"
						}
					],
					"name": "getStatusType",
					"outputs": [
						{
							"internalType": "string",
							"name": "",
							"type": "string"
						}
					],
					"stateMutability": "view",
					"type": "function"
				},
				{
					"inputs": [
						{
							"internalType": "uint8",
							"name": "_type",
							"type": "uint8"
						}
					],
					"name": "getVaccineType",
					"outputs": [
						{
							"internalType": "string",
							"name": "",
							"type": "string"
						}
					],
					"stateMutability": "view",
					"type": "function"
				},
				{
					"inputs": [
						{
							"internalType": "address",
							"name": "_addr",
							"type": "address"
						}
					],
					"name": "isIssuer",
					"outputs": [
						{
							"internalType": "bool",
							"name": "",
							"type": "bool"
						}
					],
					"stateMutability": "view",
					"type": "function"
				},
				{
					"inputs": [
						{
							"internalType": "address",
							"name": "",
							"type": "address"
						}
					],
					"name": "issuers",
					"outputs": [
						{
							"internalType": "bool",
							"name": "",
							"type": "bool"
						}
					],
					"stateMutability": "view",
					"type": "function"
				},
				{
					"inputs": [
						{
							"internalType": "address",
							"name": "_person",
							"type": "address"
						},
						{
							"internalType": "uint8",
							"name": "_vaccineType",
							"type": "uint8"
						},
						{
							"internalType": "uint8",
							"name": "_statusType",
							"type": "uint8"
						}
					],
					"name": "passOrNot",
					"outputs": [
						{
							"internalType": "bool",
							"name": "",
							"type": "bool"
						}
					],
					"stateMutability": "view",
					"type": "function"
				},
				{
					"inputs": [
						{
							"internalType": "address",
							"name": "_to",
							"type": "address"
						}
					],
					"name": "transferOwnership",
					"outputs": [],
					"stateMutability": "nonpayable",
					"type": "function"
				}
			],
			"devdoc": {
				"kind": "dev",
				"methods": {},
				"version": 1
			},
			"evm": {
				"assembly": "    /* \"system.sol\":1367:4173  contract CredentialBox is IssuerHelper {... */\n  mstore(0x40, 0x80)\n    /* \"system.sol\":1827:2163  constructor() {... */\n  callvalue\n  dup1\n  iszero\n  tag_1\n  jumpi\n  0x00\n  dup1\n  revert\ntag_1:\n  pop\n    /* \"system.sol\":293:303  msg.sender */\n  caller\n    /* \"system.sol\":285:290  owner */\n  0x00\n  dup1\n    /* \"system.sol\":285:303  owner = msg.sender */\n  0x0100\n  exp\n  dup2\n  sload\n  dup2\n  0xffffffffffffffffffffffffffffffffffffffff\n  mul\n  not\n  and\n  swap1\n  dup4\n  0xffffffffffffffffffffffffffffffffffffffff\n  and\n  mul\n  or\n  swap1\n  sstore\n  pop\n    /* \"system.sol\":840:844  true */\n  0x01\n    /* \"system.sol\":818:825  issuers */\n  dup1\n    /* \"system.sol\":818:837  issuers[msg.sender] */\n  0x00\n    /* \"system.sol\":826:836  msg.sender */\n  caller\n    /* \"system.sol\":818:837  issuers[msg.sender] */\n  0xffffffffffffffffffffffffffffffffffffffff\n  and\n  0xffffffffffffffffffffffffffffffffffffffff\n  and\n  dup2\n  mstore\n  0x20\n  add\n  swap1\n  dup2\n  mstore\n  0x20\n  add\n  0x00\n  keccak256\n  0x00\n    /* \"system.sol\":818:844  issuers[msg.sender] = true */\n  0x0100\n  exp\n  dup2\n  sload\n  dup2\n  0xff\n  mul\n  not\n  and\n  swap1\n  dup4\n  iszero\n  iszero\n  mul\n  or\n  swap1\n  sstore\n  pop\n    /* \"system.sol\":1861:1862  1 */\n  0x01\n    /* \"system.sol\":1851:1858  idCount */\n  0x02\n    /* \"system.sol\":1851:1862  idCount = 1 */\n  dup2\n  swap1\n  sstore\n  pop\n    /* \"system.sol\":1872:1897  vaccineEnum[0] = \"PFIZER\" */\n  mload(0x40)\n  dup1\n  0x40\n  add\n  0x40\n  mstore\n  dup1\n  0x06\n  dup2\n  mstore\n  0x20\n  add\n  0x5046495a45520000000000000000000000000000000000000000000000000000\n  dup2\n  mstore\n  pop\n    /* \"system.sol\":1872:1883  vaccineEnum */\n  0x03\n    /* \"system.sol\":1872:1886  vaccineEnum[0] */\n  0x00\n    /* \"system.sol\":1884:1885  0 */\n  dup1\n    /* \"system.sol\":1872:1886  vaccineEnum[0] */\n  0xff\n  and\n  dup2\n  mstore\n  0x20\n  add\n  swap1\n  dup2\n  mstore\n  0x20\n  add\n  0x00\n  keccak256\n    /* \"system.sol\":1872:1897  vaccineEnum[0] = \"PFIZER\" */\n  swap1\n  dup1\n  mload\n  swap1\n  0x20\n  add\n  swap1\n  tag_8\n  swap3\n  swap2\n  swap1\n  tag_9\n  jump\t// in\ntag_8:\n  pop\n    /* \"system.sol\":1907:1933  vaccineEnum[1] = \"MODERNA\" */\n  mload(0x40)\n  dup1\n  0x40\n  add\n  0x40\n  mstore\n  dup1\n  0x07\n  dup2\n  mstore\n  0x20\n  add\n  0x4d4f4445524e4100000000000000000000000000000000000000000000000000\n  dup2\n  mstore\n  pop\n    /* \"system.sol\":1907:1918  vaccineEnum */\n  0x03\n    /* \"system.sol\":1907:1921  vaccineEnum[1] */\n  0x00\n    /* \"system.sol\":1919:1920  1 */\n  0x01\n    /* \"system.sol\":1907:1921  vaccineEnum[1] */\n  0xff\n  and\n  dup2\n  mstore\n  0x20\n  add\n  swap1\n  dup2\n  mstore\n  0x20\n  add\n  0x00\n  keccak256\n    /* \"system.sol\":1907:1933  vaccineEnum[1] = \"MODERNA\" */\n  swap1\n  dup1\n  mload\n  swap1\n  0x20\n  add\n  swap1\n  tag_10\n  swap3\n  swap2\n  swap1\n  tag_9\n  jump\t// in\ntag_10:\n  pop\n    /* \"system.sol\":1943:1969  vaccineEnum[2] = \"JANSSEN\" */\n  mload(0x40)\n  dup1\n  0x40\n  add\n  0x40\n  mstore\n  dup1\n  0x07\n  dup2\n  mstore\n  0x20\n  add\n  0x4a414e5353454e00000000000000000000000000000000000000000000000000\n  dup2\n  mstore\n  pop\n    /* \"system.sol\":1943:1954  vaccineEnum */\n  0x03\n    /* \"system.sol\":1943:1957  vaccineEnum[2] */\n  0x00\n    /* \"system.sol\":1955:1956  2 */\n  0x02\n    /* \"system.sol\":1943:1957  vaccineEnum[2] */\n  0xff\n  and\n  dup2\n  mstore\n  0x20\n  add\n  swap1\n  dup2\n  mstore\n  0x20\n  add\n  0x00\n  keccak256\n    /* \"system.sol\":1943:1969  vaccineEnum[2] = \"JANSSEN\" */\n  swap1\n  dup1\n  mload\n  swap1\n  0x20\n  add\n  swap1\n  tag_11\n  swap3\n  swap2\n  swap1\n  tag_9\n  jump\t// in\ntag_11:\n  pop\n    /* \"system.sol\":1979:2009  vaccineEnum[3] = \"ASTRAZENECA\" */\n  mload(0x40)\n  dup1\n  0x40\n  add\n  0x40\n  mstore\n  dup1\n  0x0b\n  dup2\n  mstore\n  0x20\n  add\n  0x41535452415a454e454341000000000000000000000000000000000000000000\n  dup2\n  mstore\n  pop\n    /* \"system.sol\":1979:1990  vaccineEnum */\n  0x03\n    /* \"system.sol\":1979:1993  vaccineEnum[3] */\n  0x00\n    /* \"system.sol\":1991:1992  3 */\n  0x03\n    /* \"system.sol\":1979:1993  vaccineEnum[3] */\n  0xff\n  and\n  dup2\n  mstore\n  0x20\n  add\n  swap1\n  dup2\n  mstore\n  0x20\n  add\n  0x00\n  keccak256\n    /* \"system.sol\":1979:2009  vaccineEnum[3] = \"ASTRAZENECA\" */\n  swap1\n  dup1\n  mload\n  swap1\n  0x20\n  add\n  swap1\n  tag_12\n  swap3\n  swap2\n  swap1\n  tag_9\n  jump\t// in\ntag_12:\n  pop\n    /* \"system.sol\":2019:2041  statusEnum[0] = \"None\" */\n  mload(0x40)\n  dup1\n  0x40\n  add\n  0x40\n  mstore\n  dup1\n  0x04\n  dup2\n  mstore\n  0x20\n  add\n  0x4e6f6e6500000000000000000000000000000000000000000000000000000000\n  dup2\n  mstore\n  pop\n    /* \"system.sol\":2019:2029  statusEnum */\n  0x04\n    /* \"system.sol\":2019:2032  statusEnum[0] */\n  0x00\n    /* \"system.sol\":2030:2031  0 */\n  dup1\n    /* \"system.sol\":2019:2032  statusEnum[0] */\n  0xff\n  and\n  dup2\n  mstore\n  0x20\n  add\n  swap1\n  dup2\n  mstore\n  0x20\n  add\n  0x00\n  keccak256\n    /* \"system.sol\":2019:2041  statusEnum[0] = \"None\" */\n  swap1\n  dup1\n  mload\n  swap1\n  0x20\n  add\n  swap1\n  tag_13\n  swap3\n  swap2\n  swap1\n  tag_9\n  jump\t// in\ntag_13:\n  pop\n    /* \"system.sol\":2051:2079  statusEnum[1] = \"first shot\" */\n  mload(0x40)\n  dup1\n  0x40\n  add\n  0x40\n  mstore\n  dup1\n  0x0a\n  dup2\n  mstore\n  0x20\n  add\n  0x66697273742073686f7400000000000000000000000000000000000000000000\n  dup2\n  mstore\n  pop\n    /* \"system.sol\":2051:2061  statusEnum */\n  0x04\n    /* \"system.sol\":2051:2064  statusEnum[1] */\n  0x00\n    /* \"system.sol\":2062:2063  1 */\n  0x01\n    /* \"system.sol\":2051:2064  statusEnum[1] */\n  0xff\n  and\n  dup2\n  mstore\n  0x20\n  add\n  swap1\n  dup2\n  mstore\n  0x20\n  add\n  0x00\n  keccak256\n    /* \"system.sol\":2051:2079  statusEnum[1] = \"first shot\" */\n  swap1\n  dup1\n  mload\n  swap1\n  0x20\n  add\n  swap1\n  tag_14\n  swap3\n  swap2\n  swap1\n  tag_9\n  jump\t// in\ntag_14:\n  pop\n    /* \"system.sol\":2089:2118  statusEnum[2] = \"second shot\" */\n  mload(0x40)\n  dup1\n  0x40\n  add\n  0x40\n  mstore\n  dup1\n  0x0b\n  dup2\n  mstore\n  0x20\n  add\n  0x7365636f6e642073686f74000000000000000000000000000000000000000000\n  dup2\n  mstore\n  pop\n    /* \"system.sol\":2089:2099  statusEnum */\n  0x04\n    /* \"system.sol\":2089:2102  statusEnum[2] */\n  0x00\n    /* \"system.sol\":2100:2101  2 */\n  0x02\n    /* \"system.sol\":2089:2102  statusEnum[2] */\n  0xff\n  and\n  dup2\n  mstore\n  0x20\n  add\n  swap1\n  dup2\n  mstore\n  0x20\n  add\n  0x00\n  keccak256\n    /* \"system.sol\":2089:2118  statusEnum[2] = \"second shot\" */\n  swap1\n  dup1\n  mload\n  swap1\n  0x20\n  add\n  swap1\n  tag_15\n  swap3\n  swap2\n  swap1\n  tag_9\n  jump\t// in\ntag_15:\n  pop\n    /* \"system.sol\":2128:2156  statusEnum[3] = \"third shot\" */\n  mload(0x40)\n  dup1\n  0x40\n  add\n  0x40\n  mstore\n  dup1\n  0x0a\n  dup2\n  mstore\n  0x20\n  add\n  0x74686972642073686f7400000000000000000000000000000000000000000000\n  dup2\n  mstore\n  pop\n    /* \"system.sol\":2128:2138  statusEnum */\n  0x04\n    /* \"system.sol\":2128:2141  statusEnum[3] */\n  0x00\n    /* \"system.sol\":2139:2140  3 */\n  0x03\n    /* \"system.sol\":2128:2141  statusEnum[3] */\n  0xff\n  and\n  dup2\n  mstore\n  0x20\n  add\n  swap1\n  dup2\n  mstore\n  0x20\n  add\n  0x00\n  keccak256\n    /* \"system.sol\":2128:2156  statusEnum[3] = \"third shot\" */\n  swap1\n  dup1\n  mload\n  swap1\n  0x20\n  add\n  swap1\n  tag_16\n  swap3\n  swap2\n  swap1\n  tag_9\n  jump\t// in\ntag_16:\n  pop\n    /* \"system.sol\":1367:4173  contract CredentialBox is IssuerHelper {... */\n  jump(tag_17)\ntag_9:\n  dup3\n  dup1\n  sload\n  tag_18\n  swap1\n  tag_19\n  jump\t// in\ntag_18:\n  swap1\n  0x00\n  mstore\n  keccak256(0x00, 0x20)\n  swap1\n  0x1f\n  add\n  0x20\n  swap1\n  div\n  dup2\n  add\n  swap3\n  dup3\n  tag_21\n  jumpi\n  0x00\n  dup6\n  sstore\n  jump(tag_20)\ntag_21:\n  dup3\n  0x1f\n  lt\n  tag_22\n  jumpi\n  dup1\n  mload\n  not(0xff)\n  and\n  dup4\n  dup1\n  add\n  or\n  dup6\n  sstore\n  jump(tag_20)\ntag_22:\n  dup3\n  dup1\n  add\n  0x01\n  add\n  dup6\n  sstore\n  dup3\n  iszero\n  tag_20\n  jumpi\n  swap2\n  dup3\n  add\ntag_23:\n  dup3\n  dup2\n  gt\n  iszero\n  tag_24\n  jumpi\n  dup3\n  mload\n  dup3\n  sstore\n  swap2\n  0x20\n  add\n  swap2\n  swap1\n  0x01\n  add\n  swap1\n  jump(tag_23)\ntag_24:\ntag_20:\n  pop\n  swap1\n  pop\n  tag_25\n  swap2\n  swap1\n  tag_26\n  jump\t// in\ntag_25:\n  pop\n  swap1\n  jump\t// out\ntag_26:\ntag_27:\n  dup1\n  dup3\n  gt\n  iszero\n  tag_28\n  jumpi\n  0x00\n  dup2\n  0x00\n  swap1\n  sstore\n  pop\n  0x01\n  add\n  jump(tag_27)\ntag_28:\n  pop\n  swap1\n  jump\t// out\n    /* \"#utility.yul\":7:187   */\ntag_29:\n    /* \"#utility.yul\":55:132   */\n  0x4e487b7100000000000000000000000000000000000000000000000000000000\n    /* \"#utility.yul\":52:53   */\n  0x00\n    /* \"#utility.yul\":45:133   */\n  mstore\n    /* \"#utility.yul\":152:156   */\n  0x22\n    /* \"#utility.yul\":149:150   */\n  0x04\n    /* \"#utility.yul\":142:157   */\n  mstore\n    /* \"#utility.yul\":176:180   */\n  0x24\n    /* \"#utility.yul\":173:174   */\n  0x00\n    /* \"#utility.yul\":166:181   */\n  revert\n    /* \"#utility.yul\":193:513   */\ntag_19:\n    /* \"#utility.yul\":237:243   */\n  0x00\n    /* \"#utility.yul\":274:275   */\n  0x02\n    /* \"#utility.yul\":268:272   */\n  dup3\n    /* \"#utility.yul\":264:276   */\n  div\n    /* \"#utility.yul\":254:276   */\n  swap1\n  pop\n    /* \"#utility.yul\":321:322   */\n  0x01\n    /* \"#utility.yul\":315:319   */\n  dup3\n    /* \"#utility.yul\":311:323   */\n  and\n    /* \"#utility.yul\":342:360   */\n  dup1\n    /* \"#utility.yul\":332:413   */\n  tag_33\n  jumpi\n    /* \"#utility.yul\":398:402   */\n  0x7f\n    /* \"#utility.yul\":390:396   */\n  dup3\n    /* \"#utility.yul\":386:403   */\n  and\n    /* \"#utility.yul\":376:403   */\n  swap2\n  pop\n    /* \"#utility.yul\":332:413   */\ntag_33:\n    /* \"#utility.yul\":460:462   */\n  0x20\n    /* \"#utility.yul\":452:458   */\n  dup3\n    /* \"#utility.yul\":449:463   */\n  lt\n    /* \"#utility.yul\":429:447   */\n  dup2\n    /* \"#utility.yul\":426:464   */\n  eq\n    /* \"#utility.yul\":423:507   */\n  iszero\n  tag_34\n  jumpi\n    /* \"#utility.yul\":479:497   */\n  tag_35\n  tag_29\n  jump\t// in\ntag_35:\n    /* \"#utility.yul\":423:507   */\ntag_34:\n    /* \"#utility.yul\":244:513   */\n  pop\n    /* \"#utility.yul\":193:513   */\n  swap2\n  swap1\n  pop\n  jump\t// out\n    /* \"system.sol\":1367:4173  contract CredentialBox is IssuerHelper {... */\ntag_17:\n  dataSize(sub_0)\n  dup1\n  dataOffset(sub_0)\n  0x00\n  codecopy\n  0x00\n  return\nstop\n\nsub_0: assembly {\n        /* \"system.sol\":1367:4173  contract CredentialBox is IssuerHelper {... */\n      mstore(0x40, 0x80)\n      callvalue\n      dup1\n      iszero\n      tag_1\n      jumpi\n      0x00\n      dup1\n      revert\n    tag_1:\n      pop\n      jumpi(tag_2, lt(calldatasize, 0x04))\n      shr(0xe0, calldataload(0x00))\n      dup1\n      0x59a7aef3\n      gt\n      tag_16\n      jumpi\n      dup1\n      0xccdad14b\n      gt\n      tag_17\n      jumpi\n      dup1\n      0xccdad14b\n      eq\n      tag_12\n      jumpi\n      dup1\n      0xd9c45826\n      eq\n      tag_13\n      jumpi\n      dup1\n      0xf2fde38b\n      eq\n      tag_14\n      jumpi\n      dup1\n      0xff63e7a8\n      eq\n      tag_15\n      jumpi\n      jump(tag_2)\n    tag_17:\n      dup1\n      0x59a7aef3\n      eq\n      tag_9\n      jumpi\n      dup1\n      0x877b9a67\n      eq\n      tag_10\n      jumpi\n      dup1\n      0xa30e2e54\n      eq\n      tag_11\n      jumpi\n      jump(tag_2)\n    tag_16:\n      dup1\n      0x05183a29\n      eq\n      tag_3\n      jumpi\n      dup1\n      0x20694db0\n      eq\n      tag_4\n      jumpi\n      dup1\n      0x34becfb4\n      eq\n      tag_5\n      jumpi\n      dup1\n      0x36145996\n      eq\n      tag_6\n      jumpi\n      dup1\n      0x38a7543e\n      eq\n      tag_7\n      jumpi\n      dup1\n      0x3f8a37dc\n      eq\n      tag_8\n      jumpi\n    tag_2:\n      0x00\n      dup1\n      revert\n        /* \"system.sol\":3787:3900  function getStatusType(uint8 _type) public view returns (string memory) {... */\n    tag_3:\n      tag_18\n      0x04\n      dup1\n      calldatasize\n      sub\n      dup2\n      add\n      swap1\n      tag_19\n      swap2\n      swap1\n      tag_20\n      jump\t// in\n    tag_19:\n      tag_21\n      jump\t// in\n    tag_18:\n      mload(0x40)\n      tag_22\n      swap2\n      swap1\n      tag_23\n      jump\t// in\n    tag_22:\n      mload(0x40)\n      dup1\n      swap2\n      sub\n      swap1\n      return\n        /* \"system.sol\":961:1159  function addIssuer(address _addr) onlyOwner public returns (bool) {... */\n    tag_4:\n      tag_24\n      0x04\n      dup1\n      calldatasize\n      sub\n      dup2\n      add\n      swap1\n      tag_25\n      swap2\n      swap1\n      tag_26\n      jump\t// in\n    tag_25:\n      tag_27\n      jump\t// in\n    tag_24:\n      mload(0x40)\n      tag_28\n      swap2\n      swap1\n      tag_29\n      jump\t// in\n    tag_28:\n      mload(0x40)\n      dup1\n      swap2\n      sub\n      swap1\n      return\n        /* \"system.sol\":1165:1363  function delIssuer(address _addr) onlyOwner public returns (bool) {... */\n    tag_5:\n      tag_30\n      0x04\n      dup1\n      calldatasize\n      sub\n      dup2\n      add\n      swap1\n      tag_31\n      swap2\n      swap1\n      tag_26\n      jump\t// in\n    tag_31:\n      tag_32\n      jump\t// in\n    tag_30:\n      mload(0x40)\n      tag_33\n      swap2\n      swap1\n      tag_29\n      jump\t// in\n    tag_33:\n      mload(0x40)\n      dup1\n      swap2\n      sub\n      swap1\n      return\n        /* \"system.sol\":2169:2719  function claimCredential(address _personAddress, uint8 _vaccineType, uint8 _statusType, string calldata _value) onlyIssuer public returns(bool){... */\n    tag_6:\n      tag_34\n      0x04\n      dup1\n      calldatasize\n      sub\n      dup2\n      add\n      swap1\n      tag_35\n      swap2\n      swap1\n      tag_36\n      jump\t// in\n    tag_35:\n      tag_37\n      jump\t// in\n    tag_34:\n      mload(0x40)\n      tag_38\n      swap2\n      swap1\n      tag_29\n      jump\t// in\n    tag_38:\n      mload(0x40)\n      dup1\n      swap2\n      sub\n      swap1\n      return\n        /* \"system.sol\":564:603  mapping(address => bool) public issuers */\n    tag_7:\n      tag_39\n      0x04\n      dup1\n      calldatasize\n      sub\n      dup2\n      add\n      swap1\n      tag_40\n      swap2\n      swap1\n      tag_26\n      jump\t// in\n    tag_40:\n      tag_41\n      jump\t// in\n    tag_39:\n      mload(0x40)\n      tag_42\n      swap2\n      swap1\n      tag_29\n      jump\t// in\n    tag_42:\n      mload(0x40)\n      dup1\n      swap2\n      sub\n      swap1\n      return\n        /* \"system.sol\":3449:3564  function getVaccineType(uint8 _type) public view returns (string memory) {... */\n    tag_8:\n      tag_43\n      0x04\n      dup1\n      calldatasize\n      sub\n      dup2\n      add\n      swap1\n      tag_44\n      swap2\n      swap1\n      tag_20\n      jump\t// in\n    tag_44:\n      tag_45\n      jump\t// in\n    tag_43:\n      mload(0x40)\n      tag_46\n      swap2\n      swap1\n      tag_23\n      jump\t// in\n    tag_46:\n      mload(0x40)\n      dup1\n      swap2\n      sub\n      swap1\n      return\n        /* \"system.sol\":3228:3443  function addVaccineType(uint8 _type, string calldata _value) onlyIssuer public returns (bool) {... */\n    tag_9:\n      tag_47\n      0x04\n      dup1\n      calldatasize\n      sub\n      dup2\n      add\n      swap1\n      tag_48\n      swap2\n      swap1\n      tag_49\n      jump\t// in\n    tag_48:\n      tag_50\n      jump\t// in\n    tag_47:\n      mload(0x40)\n      tag_51\n      swap2\n      swap1\n      tag_29\n      jump\t// in\n    tag_51:\n      mload(0x40)\n      dup1\n      swap2\n      sub\n      swap1\n      return\n        /* \"system.sol\":857:955  function isIssuer(address _addr) public view returns (bool) {... */\n    tag_10:\n      tag_52\n      0x04\n      dup1\n      calldatasize\n      sub\n      dup2\n      add\n      swap1\n      tag_53\n      swap2\n      swap1\n      tag_26\n      jump\t// in\n    tag_53:\n      tag_54\n      jump\t// in\n    tag_52:\n      mload(0x40)\n      tag_55\n      swap2\n      swap1\n      tag_29\n      jump\t// in\n    tag_55:\n      mload(0x40)\n      dup1\n      swap2\n      sub\n      swap1\n      return\n        /* \"system.sol\":3570:3781  function addStatusType(uint8 _type, string calldata _value) onlyIssuer public returns (bool){... */\n    tag_11:\n      tag_56\n      0x04\n      dup1\n      calldatasize\n      sub\n      dup2\n      add\n      swap1\n      tag_57\n      swap2\n      swap1\n      tag_49\n      jump\t// in\n    tag_57:\n      tag_58\n      jump\t// in\n    tag_56:\n      mload(0x40)\n      tag_59\n      swap2\n      swap1\n      tag_29\n      jump\t// in\n    tag_59:\n      mload(0x40)\n      dup1\n      swap2\n      sub\n      swap1\n      return\n        /* \"system.sol\":2725:2862  function getCredential(address _personAddress) public view returns (Credential memory){... */\n    tag_12:\n      tag_60\n      0x04\n      dup1\n      calldatasize\n      sub\n      dup2\n      add\n      swap1\n      tag_61\n      swap2\n      swap1\n      tag_26\n      jump\t// in\n    tag_61:\n      tag_62\n      jump\t// in\n    tag_60:\n      mload(0x40)\n      tag_63\n      swap2\n      swap1\n      tag_64\n      jump\t// in\n    tag_63:\n      mload(0x40)\n      dup1\n      swap2\n      sub\n      swap1\n      return\n        /* \"system.sol\":2868:3222  function passOrNot(address _person, uint8 _vaccineType, uint8 _statusType) public view returns (bool){... */\n    tag_13:\n      tag_65\n      0x04\n      dup1\n      calldatasize\n      sub\n      dup2\n      add\n      swap1\n      tag_66\n      swap2\n      swap1\n      tag_67\n      jump\t// in\n    tag_66:\n      tag_68\n      jump\t// in\n    tag_65:\n      mload(0x40)\n      tag_69\n      swap2\n      swap1\n      tag_29\n      jump\t// in\n    tag_69:\n      mload(0x40)\n      dup1\n      swap2\n      sub\n      swap1\n      return\n        /* \"system.sol\":314:508  function transferOwnership(address _to) onlyOwner public {... */\n    tag_14:\n      tag_70\n      0x04\n      dup1\n      calldatasize\n      sub\n      dup2\n      add\n      swap1\n      tag_71\n      swap2\n      swap1\n      tag_26\n      jump\t// in\n    tag_71:\n      tag_72\n      jump\t// in\n    tag_70:\n      stop\n        /* \"system.sol\":3906:4170  function changeStatus(address _person, uint8 _type) onlyIssuer public returns (bool) {... */\n    tag_15:\n      tag_73\n      0x04\n      dup1\n      calldatasize\n      sub\n      dup2\n      add\n      swap1\n      tag_74\n      swap2\n      swap1\n      tag_75\n      jump\t// in\n    tag_74:\n      tag_76\n      jump\t// in\n    tag_73:\n      mload(0x40)\n      tag_77\n      swap2\n      swap1\n      tag_29\n      jump\t// in\n    tag_77:\n      mload(0x40)\n      dup1\n      swap2\n      sub\n      swap1\n      return\n        /* \"system.sol\":3787:3900  function getStatusType(uint8 _type) public view returns (string memory) {... */\n    tag_21:\n        /* \"system.sol\":3844:3857  string memory */\n      0x60\n        /* \"system.sol\":3876:3886  statusEnum */\n      0x04\n        /* \"system.sol\":3876:3893  statusEnum[_type] */\n      0x00\n        /* \"system.sol\":3887:3892  _type */\n      dup4\n        /* \"system.sol\":3876:3893  statusEnum[_type] */\n      0xff\n      and\n      0xff\n      and\n      dup2\n      mstore\n      0x20\n      add\n      swap1\n      dup2\n      mstore\n      0x20\n      add\n      0x00\n      keccak256\n        /* \"system.sol\":3869:3893  return statusEnum[_type] */\n      dup1\n      sload\n      tag_79\n      swap1\n      tag_80\n      jump\t// in\n    tag_79:\n      dup1\n      0x1f\n      add\n      0x20\n      dup1\n      swap2\n      div\n      mul\n      0x20\n      add\n      mload(0x40)\n      swap1\n      dup2\n      add\n      0x40\n      mstore\n      dup1\n      swap3\n      swap2\n      swap1\n      dup2\n      dup2\n      mstore\n      0x20\n      add\n      dup3\n      dup1\n      sload\n      tag_81\n      swap1\n      tag_80\n      jump\t// in\n    tag_81:\n      dup1\n      iszero\n      tag_82\n      jumpi\n      dup1\n      0x1f\n      lt\n      tag_83\n      jumpi\n      0x0100\n      dup1\n      dup4\n      sload\n      div\n      mul\n      dup4\n      mstore\n      swap2\n      0x20\n      add\n      swap2\n      jump(tag_82)\n    tag_83:\n      dup3\n      add\n      swap2\n      swap1\n      0x00\n      mstore\n      keccak256(0x00, 0x20)\n      swap1\n    tag_84:\n      dup2\n      sload\n      dup2\n      mstore\n      swap1\n      0x01\n      add\n      swap1\n      0x20\n      add\n      dup1\n      dup4\n      gt\n      tag_84\n      jumpi\n      dup3\n      swap1\n      sub\n      0x1f\n      and\n      dup3\n      add\n      swap2\n    tag_82:\n      pop\n      pop\n      pop\n      pop\n      pop\n      swap1\n      pop\n        /* \"system.sol\":3787:3900  function getStatusType(uint8 _type) public view returns (string memory) {... */\n      swap2\n      swap1\n      pop\n      jump\t// out\n        /* \"system.sol\":961:1159  function addIssuer(address _addr) onlyOwner public returns (bool) {... */\n    tag_27:\n        /* \"system.sol\":1021:1025  bool */\n      0x00\n        /* \"system.sol\":245:250  owner */\n      dup1\n      0x00\n      swap1\n      sload\n      swap1\n      0x0100\n      exp\n      swap1\n      div\n      0xffffffffffffffffffffffffffffffffffffffff\n      and\n        /* \"system.sol\":231:250  msg.sender == owner */\n      0xffffffffffffffffffffffffffffffffffffffff\n      and\n        /* \"system.sol\":231:241  msg.sender */\n      caller\n        /* \"system.sol\":231:250  msg.sender == owner */\n      0xffffffffffffffffffffffffffffffffffffffff\n      and\n      eq\n        /* \"system.sol\":223:251  require(msg.sender == owner) */\n      tag_86\n      jumpi\n      0x00\n      dup1\n      revert\n    tag_86:\n        /* \"system.sol\":1063:1068  false */\n      0x00\n        /* \"system.sol\":1045:1068  issuers[_addr] == false */\n      iszero\n      iszero\n        /* \"system.sol\":1045:1052  issuers */\n      0x01\n        /* \"system.sol\":1045:1059  issuers[_addr] */\n      0x00\n        /* \"system.sol\":1053:1058  _addr */\n      dup5\n        /* \"system.sol\":1045:1059  issuers[_addr] */\n      0xffffffffffffffffffffffffffffffffffffffff\n      and\n      0xffffffffffffffffffffffffffffffffffffffff\n      and\n      dup2\n      mstore\n      0x20\n      add\n      swap1\n      dup2\n      mstore\n      0x20\n      add\n      0x00\n      keccak256\n      0x00\n      swap1\n      sload\n      swap1\n      0x0100\n      exp\n      swap1\n      div\n      0xff\n      and\n        /* \"system.sol\":1045:1068  issuers[_addr] == false */\n      iszero\n      iszero\n      eq\n        /* \"system.sol\":1037:1069  require(issuers[_addr] == false) */\n      tag_88\n      jumpi\n      0x00\n      dup1\n      revert\n    tag_88:\n        /* \"system.sol\":1096:1100  true */\n      0x01\n        /* \"system.sol\":1079:1086  issuers */\n      dup1\n        /* \"system.sol\":1079:1093  issuers[_addr] */\n      0x00\n        /* \"system.sol\":1087:1092  _addr */\n      dup5\n        /* \"system.sol\":1079:1093  issuers[_addr] */\n      0xffffffffffffffffffffffffffffffffffffffff\n      and\n      0xffffffffffffffffffffffffffffffffffffffff\n      and\n      dup2\n      mstore\n      0x20\n      add\n      swap1\n      dup2\n      mstore\n      0x20\n      add\n      0x00\n      keccak256\n      0x00\n        /* \"system.sol\":1079:1100  issuers[_addr] = true */\n      0x0100\n      exp\n      dup2\n      sload\n      dup2\n      0xff\n      mul\n      not\n      and\n      swap1\n      dup4\n      iszero\n      iszero\n      mul\n      or\n      swap1\n      sstore\n      pop\n        /* \"system.sol\":1125:1130  _addr */\n      dup2\n        /* \"system.sol\":1115:1131  AddIssuer(_addr) */\n      0xffffffffffffffffffffffffffffffffffffffff\n      and\n      0x27aa0506e4da65b95bd4f61c697076f8c7dcb69b2c0937d11efa9ceaa3bf5a95\n      mload(0x40)\n      mload(0x40)\n      dup1\n      swap2\n      sub\n      swap1\n      log2\n        /* \"system.sol\":1148:1152  true */\n      0x01\n        /* \"system.sol\":1141:1152  return true */\n      swap1\n      pop\n        /* \"system.sol\":961:1159  function addIssuer(address _addr) onlyOwner public returns (bool) {... */\n      swap2\n      swap1\n      pop\n      jump\t// out\n        /* \"system.sol\":1165:1363  function delIssuer(address _addr) onlyOwner public returns (bool) {... */\n    tag_32:\n        /* \"system.sol\":1225:1229  bool */\n      0x00\n        /* \"system.sol\":245:250  owner */\n      dup1\n      0x00\n      swap1\n      sload\n      swap1\n      0x0100\n      exp\n      swap1\n      div\n      0xffffffffffffffffffffffffffffffffffffffff\n      and\n        /* \"system.sol\":231:250  msg.sender == owner */\n      0xffffffffffffffffffffffffffffffffffffffff\n      and\n        /* \"system.sol\":231:241  msg.sender */\n      caller\n        /* \"system.sol\":231:250  msg.sender == owner */\n      0xffffffffffffffffffffffffffffffffffffffff\n      and\n      eq\n        /* \"system.sol\":223:251  require(msg.sender == owner) */\n      tag_90\n      jumpi\n      0x00\n      dup1\n      revert\n    tag_90:\n        /* \"system.sol\":1267:1271  true */\n      0x01\n        /* \"system.sol\":1249:1271  issuers[_addr] == true */\n      iszero\n      iszero\n        /* \"system.sol\":1249:1256  issuers */\n      0x01\n        /* \"system.sol\":1249:1263  issuers[_addr] */\n      0x00\n        /* \"system.sol\":1257:1262  _addr */\n      dup5\n        /* \"system.sol\":1249:1263  issuers[_addr] */\n      0xffffffffffffffffffffffffffffffffffffffff\n      and\n      0xffffffffffffffffffffffffffffffffffffffff\n      and\n      dup2\n      mstore\n      0x20\n      add\n      swap1\n      dup2\n      mstore\n      0x20\n      add\n      0x00\n      keccak256\n      0x00\n      swap1\n      sload\n      swap1\n      0x0100\n      exp\n      swap1\n      div\n      0xff\n      and\n        /* \"system.sol\":1249:1271  issuers[_addr] == true */\n      iszero\n      iszero\n      eq\n        /* \"system.sol\":1241:1272  require(issuers[_addr] == true) */\n      tag_92\n      jumpi\n      0x00\n      dup1\n      revert\n    tag_92:\n        /* \"system.sol\":1299:1304  false */\n      0x00\n        /* \"system.sol\":1282:1289  issuers */\n      0x01\n        /* \"system.sol\":1282:1296  issuers[_addr] */\n      0x00\n        /* \"system.sol\":1290:1295  _addr */\n      dup5\n        /* \"system.sol\":1282:1296  issuers[_addr] */\n      0xffffffffffffffffffffffffffffffffffffffff\n      and\n      0xffffffffffffffffffffffffffffffffffffffff\n      and\n      dup2\n      mstore\n      0x20\n      add\n      swap1\n      dup2\n      mstore\n      0x20\n      add\n      0x00\n      keccak256\n      0x00\n        /* \"system.sol\":1282:1304  issuers[_addr] = false */\n      0x0100\n      exp\n      dup2\n      sload\n      dup2\n      0xff\n      mul\n      not\n      and\n      swap1\n      dup4\n      iszero\n      iszero\n      mul\n      or\n      swap1\n      sstore\n      pop\n        /* \"system.sol\":1329:1334  _addr */\n      dup2\n        /* \"system.sol\":1319:1335  DelIssuer(_addr) */\n      0xffffffffffffffffffffffffffffffffffffffff\n      and\n      0xee5d7d94405e51eec1bd7f59c36572787d25afb6c85e3a897bb782f08aac7d44\n      mload(0x40)\n      mload(0x40)\n      dup1\n      swap2\n      sub\n      swap1\n      log2\n        /* \"system.sol\":1352:1356  true */\n      0x01\n        /* \"system.sol\":1345:1356  return true */\n      swap1\n      pop\n        /* \"system.sol\":1165:1363  function delIssuer(address _addr) onlyOwner public returns (bool) {... */\n      swap2\n      swap1\n      pop\n      jump\t// out\n        /* \"system.sol\":2169:2719  function claimCredential(address _personAddress, uint8 _vaccineType, uint8 _statusType, string calldata _value) onlyIssuer public returns(bool){... */\n    tag_37:\n        /* \"system.sol\":2307:2311  bool */\n      0x00\n        /* \"system.sol\":765:769  true */\n      0x01\n        /* \"system.sol\":741:769  isIssuer(msg.sender) == true */\n      iszero\n      iszero\n        /* \"system.sol\":741:761  isIssuer(msg.sender) */\n      tag_94\n        /* \"system.sol\":750:760  msg.sender */\n      caller\n        /* \"system.sol\":741:749  isIssuer */\n      tag_54\n        /* \"system.sol\":741:761  isIssuer(msg.sender) */\n      jump\t// in\n    tag_94:\n        /* \"system.sol\":741:769  isIssuer(msg.sender) == true */\n      iszero\n      iszero\n      eq\n        /* \"system.sol\":733:770  require(isIssuer(msg.sender) == true) */\n      tag_95\n      jumpi\n      0x00\n      dup1\n      revert\n    tag_95:\n        /* \"system.sol\":2322:2351  Credential storage credential */\n      0x00\n        /* \"system.sol\":2354:2365  credentials */\n      0x05\n        /* \"system.sol\":2354:2381  credentials[_personAddress] */\n      0x00\n        /* \"system.sol\":2366:2380  _personAddress */\n      dup9\n        /* \"system.sol\":2354:2381  credentials[_personAddress] */\n      0xffffffffffffffffffffffffffffffffffffffff\n      and\n      0xffffffffffffffffffffffffffffffffffffffff\n      and\n      dup2\n      mstore\n      0x20\n      add\n      swap1\n      dup2\n      mstore\n      0x20\n      add\n      0x00\n      keccak256\n        /* \"system.sol\":2322:2381  Credential storage credential = credentials[_personAddress] */\n      swap1\n      pop\n        /* \"system.sol\":2416:2417  0 */\n      0x00\n        /* \"system.sol\":2399:2409  credential */\n      dup2\n        /* \"system.sol\":2399:2412  credential.id */\n      0x00\n      add\n      sload\n        /* \"system.sol\":2399:2417  credential.id == 0 */\n      eq\n        /* \"system.sol\":2391:2418  require(credential.id == 0) */\n      tag_97\n      jumpi\n      0x00\n      dup1\n      revert\n    tag_97:\n        /* \"system.sol\":2444:2451  idCount */\n      sload(0x02)\n        /* \"system.sol\":2428:2438  credential */\n      dup2\n        /* \"system.sol\":2428:2441  credential.id */\n      0x00\n      add\n        /* \"system.sol\":2428:2451  credential.id = idCount */\n      dup2\n      swap1\n      sstore\n      pop\n        /* \"system.sol\":2481:2491  msg.sender */\n      caller\n        /* \"system.sol\":2461:2471  credential */\n      dup2\n        /* \"system.sol\":2461:2478  credential.issuer */\n      0x01\n      add\n      0x00\n        /* \"system.sol\":2461:2491  credential.issuer = msg.sender */\n      0x0100\n      exp\n      dup2\n      sload\n      dup2\n      0xffffffffffffffffffffffffffffffffffffffff\n      mul\n      not\n      and\n      swap1\n      dup4\n      0xffffffffffffffffffffffffffffffffffffffff\n      and\n      mul\n      or\n      swap1\n      sstore\n      pop\n        /* \"system.sol\":2526:2538  _vaccineType */\n      dup6\n        /* \"system.sol\":2501:2511  credential */\n      dup2\n        /* \"system.sol\":2501:2523  credential.vaccineType */\n      0x01\n      add\n      0x14\n        /* \"system.sol\":2501:2538  credential.vaccineType = _vaccineType */\n      0x0100\n      exp\n      dup2\n      sload\n      dup2\n      0xff\n      mul\n      not\n      and\n      swap1\n      dup4\n      0xff\n      and\n      mul\n      or\n      swap1\n      sstore\n      pop\n        /* \"system.sol\":2572:2583  _statusType */\n      dup5\n        /* \"system.sol\":2548:2558  credential */\n      dup2\n        /* \"system.sol\":2548:2569  credential.statusType */\n      0x01\n      add\n      0x15\n        /* \"system.sol\":2548:2583  credential.statusType = _statusType */\n      0x0100\n      exp\n      dup2\n      sload\n      dup2\n      0xff\n      mul\n      not\n      and\n      swap1\n      dup4\n      0xff\n      and\n      mul\n      or\n      swap1\n      sstore\n      pop\n        /* \"system.sol\":2612:2618  _value */\n      dup4\n      dup4\n        /* \"system.sol\":2593:2603  credential */\n      dup3\n        /* \"system.sol\":2593:2609  credential.value */\n      0x02\n      add\n        /* \"system.sol\":2593:2618  credential.value = _value */\n      swap2\n      swap1\n      tag_98\n      swap3\n      swap2\n      swap1\n      tag_99\n      jump\t// in\n    tag_98:\n      pop\n        /* \"system.sol\":2652:2667  block.timestamp */\n      timestamp\n        /* \"system.sol\":2628:2638  credential */\n      dup2\n        /* \"system.sol\":2628:2649  credential.createDate */\n      0x03\n      add\n        /* \"system.sol\":2628:2667  credential.createDate = block.timestamp */\n      dup2\n      swap1\n      sstore\n      pop\n        /* \"system.sol\":2689:2690  1 */\n      0x01\n        /* \"system.sol\":2678:2685  idCount */\n      0x02\n      0x00\n        /* \"system.sol\":2678:2690  idCount += 1 */\n      dup3\n      dup3\n      sload\n      tag_100\n      swap2\n      swap1\n      tag_101\n      jump\t// in\n    tag_100:\n      swap3\n      pop\n      pop\n      dup2\n      swap1\n      sstore\n      pop\n        /* \"system.sol\":2708:2712  true */\n      0x01\n        /* \"system.sol\":2701:2712  return true */\n      swap2\n      pop\n      pop\n        /* \"system.sol\":2169:2719  function claimCredential(address _personAddress, uint8 _vaccineType, uint8 _statusType, string calldata _value) onlyIssuer public returns(bool){... */\n      swap6\n      swap5\n      pop\n      pop\n      pop\n      pop\n      pop\n      jump\t// out\n        /* \"system.sol\":564:603  mapping(address => bool) public issuers */\n    tag_41:\n      mstore(0x20, 0x01)\n      dup1\n      0x00\n      mstore\n      keccak256(0x00, 0x40)\n      0x00\n      swap2\n      pop\n      sload\n      swap1\n      0x0100\n      exp\n      swap1\n      div\n      0xff\n      and\n      dup2\n      jump\t// out\n        /* \"system.sol\":3449:3564  function getVaccineType(uint8 _type) public view returns (string memory) {... */\n    tag_45:\n        /* \"system.sol\":3507:3520  string memory */\n      0x60\n        /* \"system.sol\":3539:3550  vaccineEnum */\n      0x03\n        /* \"system.sol\":3539:3557  vaccineEnum[_type] */\n      0x00\n        /* \"system.sol\":3551:3556  _type */\n      dup4\n        /* \"system.sol\":3539:3557  vaccineEnum[_type] */\n      0xff\n      and\n      0xff\n      and\n      dup2\n      mstore\n      0x20\n      add\n      swap1\n      dup2\n      mstore\n      0x20\n      add\n      0x00\n      keccak256\n        /* \"system.sol\":3532:3557  return vaccineEnum[_type] */\n      dup1\n      sload\n      tag_103\n      swap1\n      tag_80\n      jump\t// in\n    tag_103:\n      dup1\n      0x1f\n      add\n      0x20\n      dup1\n      swap2\n      div\n      mul\n      0x20\n      add\n      mload(0x40)\n      swap1\n      dup2\n      add\n      0x40\n      mstore\n      dup1\n      swap3\n      swap2\n      swap1\n      dup2\n      dup2\n      mstore\n      0x20\n      add\n      dup3\n      dup1\n      sload\n      tag_104\n      swap1\n      tag_80\n      jump\t// in\n    tag_104:\n      dup1\n      iszero\n      tag_105\n      jumpi\n      dup1\n      0x1f\n      lt\n      tag_106\n      jumpi\n      0x0100\n      dup1\n      dup4\n      sload\n      div\n      mul\n      dup4\n      mstore\n      swap2\n      0x20\n      add\n      swap2\n      jump(tag_105)\n    tag_106:\n      dup3\n      add\n      swap2\n      swap1\n      0x00\n      mstore\n      keccak256(0x00, 0x20)\n      swap1\n    tag_107:\n      dup2\n      sload\n      dup2\n      mstore\n      swap1\n      0x01\n      add\n      swap1\n      0x20\n      add\n      dup1\n      dup4\n      gt\n      tag_107\n      jumpi\n      dup3\n      swap1\n      sub\n      0x1f\n      and\n      dup3\n      add\n      swap2\n    tag_105:\n      pop\n      pop\n      pop\n      pop\n      pop\n      swap1\n      pop\n        /* \"system.sol\":3449:3564  function getVaccineType(uint8 _type) public view returns (string memory) {... */\n      swap2\n      swap1\n      pop\n      jump\t// out\n        /* \"system.sol\":3228:3443  function addVaccineType(uint8 _type, string calldata _value) onlyIssuer public returns (bool) {... */\n    tag_50:\n        /* \"system.sol\":3316:3320  bool */\n      0x00\n        /* \"system.sol\":765:769  true */\n      0x01\n        /* \"system.sol\":741:769  isIssuer(msg.sender) == true */\n      iszero\n      iszero\n        /* \"system.sol\":741:761  isIssuer(msg.sender) */\n      tag_109\n        /* \"system.sol\":750:760  msg.sender */\n      caller\n        /* \"system.sol\":741:749  isIssuer */\n      tag_54\n        /* \"system.sol\":741:761  isIssuer(msg.sender) */\n      jump\t// in\n    tag_109:\n        /* \"system.sol\":741:769  isIssuer(msg.sender) == true */\n      iszero\n      iszero\n      eq\n        /* \"system.sol\":733:770  require(isIssuer(msg.sender) == true) */\n      tag_110\n      jumpi\n      0x00\n      dup1\n      revert\n    tag_110:\n        /* \"system.sol\":3376:3377  0 */\n      0x00\n        /* \"system.sol\":3346:3357  vaccineEnum */\n      0x03\n        /* \"system.sol\":3346:3364  vaccineEnum[_type] */\n      0x00\n        /* \"system.sol\":3358:3363  _type */\n      dup7\n        /* \"system.sol\":3346:3364  vaccineEnum[_type] */\n      0xff\n      and\n      0xff\n      and\n      dup2\n      mstore\n      0x20\n      add\n      swap1\n      dup2\n      mstore\n      0x20\n      add\n      0x00\n      keccak256\n        /* \"system.sol\":3340:3372  bytes(vaccineEnum[_type]).length */\n      dup1\n      sload\n      tag_112\n      swap1\n      tag_80\n      jump\t// in\n    tag_112:\n      swap1\n      pop\n        /* \"system.sol\":3340:3377  bytes(vaccineEnum[_type]).length == 0 */\n      eq\n        /* \"system.sol\":3332:3378  require(bytes(vaccineEnum[_type]).length == 0) */\n      tag_113\n      jumpi\n      0x00\n      dup1\n      revert\n    tag_113:\n        /* \"system.sol\":3409:3415  _value */\n      dup3\n      dup3\n        /* \"system.sol\":3388:3399  vaccineEnum */\n      0x03\n        /* \"system.sol\":3388:3406  vaccineEnum[_type] */\n      0x00\n        /* \"system.sol\":3400:3405  _type */\n      dup8\n        /* \"system.sol\":3388:3406  vaccineEnum[_type] */\n      0xff\n      and\n      0xff\n      and\n      dup2\n      mstore\n      0x20\n      add\n      swap1\n      dup2\n      mstore\n      0x20\n      add\n      0x00\n      keccak256\n        /* \"system.sol\":3388:3415  vaccineEnum[_type] = _value */\n      swap2\n      swap1\n      tag_114\n      swap3\n      swap2\n      swap1\n      tag_99\n      jump\t// in\n    tag_114:\n      pop\n        /* \"system.sol\":3432:3436  true */\n      0x01\n        /* \"system.sol\":3425:3436  return true */\n      swap1\n      pop\n        /* \"system.sol\":3228:3443  function addVaccineType(uint8 _type, string calldata _value) onlyIssuer public returns (bool) {... */\n      swap4\n      swap3\n      pop\n      pop\n      pop\n      jump\t// out\n        /* \"system.sol\":857:955  function isIssuer(address _addr) public view returns (bool) {... */\n    tag_54:\n        /* \"system.sol\":911:915  bool */\n      0x00\n        /* \"system.sol\":934:941  issuers */\n      0x01\n        /* \"system.sol\":934:948  issuers[_addr] */\n      0x00\n        /* \"system.sol\":942:947  _addr */\n      dup4\n        /* \"system.sol\":934:948  issuers[_addr] */\n      0xffffffffffffffffffffffffffffffffffffffff\n      and\n      0xffffffffffffffffffffffffffffffffffffffff\n      and\n      dup2\n      mstore\n      0x20\n      add\n      swap1\n      dup2\n      mstore\n      0x20\n      add\n      0x00\n      keccak256\n      0x00\n      swap1\n      sload\n      swap1\n      0x0100\n      exp\n      swap1\n      div\n      0xff\n      and\n        /* \"system.sol\":927:948  return issuers[_addr] */\n      swap1\n      pop\n        /* \"system.sol\":857:955  function isIssuer(address _addr) public view returns (bool) {... */\n      swap2\n      swap1\n      pop\n      jump\t// out\n        /* \"system.sol\":3570:3781  function addStatusType(uint8 _type, string calldata _value) onlyIssuer public returns (bool){... */\n    tag_58:\n        /* \"system.sol\":3657:3661  bool */\n      0x00\n        /* \"system.sol\":765:769  true */\n      0x01\n        /* \"system.sol\":741:769  isIssuer(msg.sender) == true */\n      iszero\n      iszero\n        /* \"system.sol\":741:761  isIssuer(msg.sender) */\n      tag_117\n        /* \"system.sol\":750:760  msg.sender */\n      caller\n        /* \"system.sol\":741:749  isIssuer */\n      tag_54\n        /* \"system.sol\":741:761  isIssuer(msg.sender) */\n      jump\t// in\n    tag_117:\n        /* \"system.sol\":741:769  isIssuer(msg.sender) == true */\n      iszero\n      iszero\n      eq\n        /* \"system.sol\":733:770  require(isIssuer(msg.sender) == true) */\n      tag_118\n      jumpi\n      0x00\n      dup1\n      revert\n    tag_118:\n        /* \"system.sol\":3715:3716  0 */\n      0x00\n        /* \"system.sol\":3686:3696  statusEnum */\n      0x04\n        /* \"system.sol\":3686:3703  statusEnum[_type] */\n      0x00\n        /* \"system.sol\":3697:3702  _type */\n      dup7\n        /* \"system.sol\":3686:3703  statusEnum[_type] */\n      0xff\n      and\n      0xff\n      and\n      dup2\n      mstore\n      0x20\n      add\n      swap1\n      dup2\n      mstore\n      0x20\n      add\n      0x00\n      keccak256\n        /* \"system.sol\":3680:3711  bytes(statusEnum[_type]).length */\n      dup1\n      sload\n      tag_120\n      swap1\n      tag_80\n      jump\t// in\n    tag_120:\n      swap1\n      pop\n        /* \"system.sol\":3680:3716  bytes(statusEnum[_type]).length == 0 */\n      eq\n        /* \"system.sol\":3672:3717  require(bytes(statusEnum[_type]).length == 0) */\n      tag_121\n      jumpi\n      0x00\n      dup1\n      revert\n    tag_121:\n        /* \"system.sol\":3747:3753  _value */\n      dup3\n      dup3\n        /* \"system.sol\":3727:3737  statusEnum */\n      0x04\n        /* \"system.sol\":3727:3744  statusEnum[_type] */\n      0x00\n        /* \"system.sol\":3738:3743  _type */\n      dup8\n        /* \"system.sol\":3727:3744  statusEnum[_type] */\n      0xff\n      and\n      0xff\n      and\n      dup2\n      mstore\n      0x20\n      add\n      swap1\n      dup2\n      mstore\n      0x20\n      add\n      0x00\n      keccak256\n        /* \"system.sol\":3727:3753  statusEnum[_type] = _value */\n      swap2\n      swap1\n      tag_122\n      swap3\n      swap2\n      swap1\n      tag_99\n      jump\t// in\n    tag_122:\n      pop\n        /* \"system.sol\":3770:3774  true */\n      0x01\n        /* \"system.sol\":3763:3774  return true */\n      swap1\n      pop\n        /* \"system.sol\":3570:3781  function addStatusType(uint8 _type, string calldata _value) onlyIssuer public returns (bool){... */\n      swap4\n      swap3\n      pop\n      pop\n      pop\n      jump\t// out\n        /* \"system.sol\":2725:2862  function getCredential(address _personAddress) public view returns (Credential memory){... */\n    tag_62:\n        /* \"system.sol\":2793:2810  Credential memory */\n      tag_123\n      tag_124\n      jump\t// in\n    tag_123:\n        /* \"system.sol\":2828:2839  credentials */\n      0x05\n        /* \"system.sol\":2828:2855  credentials[_personAddress] */\n      0x00\n        /* \"system.sol\":2840:2854  _personAddress */\n      dup4\n        /* \"system.sol\":2828:2855  credentials[_personAddress] */\n      0xffffffffffffffffffffffffffffffffffffffff\n      and\n      0xffffffffffffffffffffffffffffffffffffffff\n      and\n      dup2\n      mstore\n      0x20\n      add\n      swap1\n      dup2\n      mstore\n      0x20\n      add\n      0x00\n      keccak256\n        /* \"system.sol\":2821:2855  return credentials[_personAddress] */\n      mload(0x40)\n      dup1\n      0xc0\n      add\n      0x40\n      mstore\n      swap1\n      dup2\n      0x00\n      dup3\n      add\n      sload\n      dup2\n      mstore\n      0x20\n      add\n      0x01\n      dup3\n      add\n      0x00\n      swap1\n      sload\n      swap1\n      0x0100\n      exp\n      swap1\n      div\n      0xffffffffffffffffffffffffffffffffffffffff\n      and\n      0xffffffffffffffffffffffffffffffffffffffff\n      and\n      0xffffffffffffffffffffffffffffffffffffffff\n      and\n      dup2\n      mstore\n      0x20\n      add\n      0x01\n      dup3\n      add\n      0x14\n      swap1\n      sload\n      swap1\n      0x0100\n      exp\n      swap1\n      div\n      0xff\n      and\n      0xff\n      and\n      0xff\n      and\n      dup2\n      mstore\n      0x20\n      add\n      0x01\n      dup3\n      add\n      0x15\n      swap1\n      sload\n      swap1\n      0x0100\n      exp\n      swap1\n      div\n      0xff\n      and\n      0xff\n      and\n      0xff\n      and\n      dup2\n      mstore\n      0x20\n      add\n      0x02\n      dup3\n      add\n      dup1\n      sload\n      tag_126\n      swap1\n      tag_80\n      jump\t// in\n    tag_126:\n      dup1\n      0x1f\n      add\n      0x20\n      dup1\n      swap2\n      div\n      mul\n      0x20\n      add\n      mload(0x40)\n      swap1\n      dup2\n      add\n      0x40\n      mstore\n      dup1\n      swap3\n      swap2\n      swap1\n      dup2\n      dup2\n      mstore\n      0x20\n      add\n      dup3\n      dup1\n      sload\n      tag_127\n      swap1\n      tag_80\n      jump\t// in\n    tag_127:\n      dup1\n      iszero\n      tag_128\n      jumpi\n      dup1\n      0x1f\n      lt\n      tag_129\n      jumpi\n      0x0100\n      dup1\n      dup4\n      sload\n      div\n      mul\n      dup4\n      mstore\n      swap2\n      0x20\n      add\n      swap2\n      jump(tag_128)\n    tag_129:\n      dup3\n      add\n      swap2\n      swap1\n      0x00\n      mstore\n      keccak256(0x00, 0x20)\n      swap1\n    tag_130:\n      dup2\n      sload\n      dup2\n      mstore\n      swap1\n      0x01\n      add\n      swap1\n      0x20\n      add\n      dup1\n      dup4\n      gt\n      tag_130\n      jumpi\n      dup3\n      swap1\n      sub\n      0x1f\n      and\n      dup3\n      add\n      swap2\n    tag_128:\n      pop\n      pop\n      pop\n      pop\n      pop\n      dup2\n      mstore\n      0x20\n      add\n      0x03\n      dup3\n      add\n      sload\n      dup2\n      mstore\n      pop\n      pop\n      swap1\n      pop\n        /* \"system.sol\":2725:2862  function getCredential(address _personAddress) public view returns (Credential memory){... */\n      swap2\n      swap1\n      pop\n      jump\t// out\n        /* \"system.sol\":2868:3222  function passOrNot(address _person, uint8 _vaccineType, uint8 _statusType) public view returns (bool){... */\n    tag_68:\n        /* \"system.sol\":2964:2968  bool */\n      0x00\n        /* \"system.sol\":3014:3015  0 */\n      dup1\n        /* \"system.sol\":2987:2998  credentials */\n      0x05\n        /* \"system.sol\":2987:3007  credentials[_person] */\n      0x00\n        /* \"system.sol\":2999:3006  _person */\n      dup7\n        /* \"system.sol\":2987:3007  credentials[_person] */\n      0xffffffffffffffffffffffffffffffffffffffff\n      and\n      0xffffffffffffffffffffffffffffffffffffffff\n      and\n      dup2\n      mstore\n      0x20\n      add\n      swap1\n      dup2\n      mstore\n      0x20\n      add\n      0x00\n      keccak256\n        /* \"system.sol\":2987:3010  credentials[_person].id */\n      0x00\n      add\n      sload\n        /* \"system.sol\":2987:3015  credentials[_person].id != 0 */\n      eq\n      iszero\n        /* \"system.sol\":2979:3016  require(credentials[_person].id != 0) */\n      tag_132\n      jumpi\n      0x00\n      dup1\n      revert\n    tag_132:\n        /* \"system.sol\":3066:3078  _vaccineType */\n      dup3\n        /* \"system.sol\":3030:3078  credentials[_person].vaccineType == _vaccineType */\n      0xff\n      and\n        /* \"system.sol\":3030:3041  credentials */\n      0x05\n        /* \"system.sol\":3030:3050  credentials[_person] */\n      0x00\n        /* \"system.sol\":3042:3049  _person */\n      dup7\n        /* \"system.sol\":3030:3050  credentials[_person] */\n      0xffffffffffffffffffffffffffffffffffffffff\n      and\n      0xffffffffffffffffffffffffffffffffffffffff\n      and\n      dup2\n      mstore\n      0x20\n      add\n      swap1\n      dup2\n      mstore\n      0x20\n      add\n      0x00\n      keccak256\n        /* \"system.sol\":3030:3062  credentials[_person].vaccineType */\n      0x01\n      add\n      0x14\n      swap1\n      sload\n      swap1\n      0x0100\n      exp\n      swap1\n      div\n      0xff\n      and\n        /* \"system.sol\":3030:3078  credentials[_person].vaccineType == _vaccineType */\n      0xff\n      and\n      eq\n        /* \"system.sol\":3030:3128  credentials[_person].vaccineType == _vaccineType && credentials[_person].statusType >= _statusType */\n      dup1\n      iszero\n      tag_133\n      jumpi\n      pop\n        /* \"system.sol\":3117:3128  _statusType */\n      dup2\n        /* \"system.sol\":3082:3128  credentials[_person].statusType >= _statusType */\n      0xff\n      and\n        /* \"system.sol\":3082:3093  credentials */\n      0x05\n        /* \"system.sol\":3082:3102  credentials[_person] */\n      0x00\n        /* \"system.sol\":3094:3101  _person */\n      dup7\n        /* \"system.sol\":3082:3102  credentials[_person] */\n      0xffffffffffffffffffffffffffffffffffffffff\n      and\n      0xffffffffffffffffffffffffffffffffffffffff\n      and\n      dup2\n      mstore\n      0x20\n      add\n      swap1\n      dup2\n      mstore\n      0x20\n      add\n      0x00\n      keccak256\n        /* \"system.sol\":3082:3113  credentials[_person].statusType */\n      0x01\n      add\n      0x15\n      swap1\n      sload\n      swap1\n      0x0100\n      exp\n      swap1\n      div\n      0xff\n      and\n        /* \"system.sol\":3082:3128  credentials[_person].statusType >= _statusType */\n      0xff\n      and\n      lt\n      iszero\n        /* \"system.sol\":3030:3128  credentials[_person].vaccineType == _vaccineType && credentials[_person].statusType >= _statusType */\n    tag_133:\n        /* \"system.sol\":3026:3216  if (credentials[_person].vaccineType == _vaccineType && credentials[_person].statusType >= _statusType){... */\n      iszero\n      tag_134\n      jumpi\n        /* \"system.sol\":3150:3154  true */\n      0x01\n        /* \"system.sol\":3143:3154  return true */\n      swap1\n      pop\n      jump(tag_131)\n        /* \"system.sol\":3026:3216  if (credentials[_person].vaccineType == _vaccineType && credentials[_person].statusType >= _statusType){... */\n    tag_134:\n        /* \"system.sol\":3200:3205  false */\n      0x00\n        /* \"system.sol\":3193:3205  return false */\n      swap1\n      pop\n        /* \"system.sol\":2868:3222  function passOrNot(address _person, uint8 _vaccineType, uint8 _statusType) public view returns (bool){... */\n    tag_131:\n      swap4\n      swap3\n      pop\n      pop\n      pop\n      jump\t// out\n        /* \"system.sol\":314:508  function transferOwnership(address _to) onlyOwner public {... */\n    tag_72:\n        /* \"system.sol\":245:250  owner */\n      0x00\n      dup1\n      sload\n      swap1\n      0x0100\n      exp\n      swap1\n      div\n      0xffffffffffffffffffffffffffffffffffffffff\n      and\n        /* \"system.sol\":231:250  msg.sender == owner */\n      0xffffffffffffffffffffffffffffffffffffffff\n      and\n        /* \"system.sol\":231:241  msg.sender */\n      caller\n        /* \"system.sol\":231:250  msg.sender == owner */\n      0xffffffffffffffffffffffffffffffffffffffff\n      and\n      eq\n        /* \"system.sol\":223:251  require(msg.sender == owner) */\n      tag_137\n      jumpi\n      0x00\n      dup1\n      revert\n    tag_137:\n        /* \"system.sol\":396:401  owner */\n      0x00\n      dup1\n      sload\n      swap1\n      0x0100\n      exp\n      swap1\n      div\n      0xffffffffffffffffffffffffffffffffffffffff\n      and\n        /* \"system.sol\":389:401  _to != owner */\n      0xffffffffffffffffffffffffffffffffffffffff\n      and\n        /* \"system.sol\":389:392  _to */\n      dup2\n        /* \"system.sol\":389:401  _to != owner */\n      0xffffffffffffffffffffffffffffffffffffffff\n      and\n      eq\n      iszero\n        /* \"system.sol\":381:402  require(_to != owner) */\n      tag_139\n      jumpi\n      0x00\n      dup1\n      revert\n    tag_139:\n        /* \"system.sol\":435:438  0x0 */\n      0x00\n        /* \"system.sol\":420:439  _to != address(0x0) */\n      0xffffffffffffffffffffffffffffffffffffffff\n      and\n        /* \"system.sol\":420:423  _to */\n      dup2\n        /* \"system.sol\":420:439  _to != address(0x0) */\n      0xffffffffffffffffffffffffffffffffffffffff\n      and\n      eq\n      iszero\n        /* \"system.sol\":412:440  require(_to != address(0x0)) */\n      tag_140\n      jumpi\n      0x00\n      dup1\n      revert\n    tag_140:\n        /* \"system.sol\":455:458  _to */\n      dup1\n        /* \"system.sol\":447:452  owner */\n      0x00\n      dup1\n        /* \"system.sol\":447:458  owner = _to */\n      0x0100\n      exp\n      dup2\n      sload\n      dup2\n      0xffffffffffffffffffffffffffffffffffffffff\n      mul\n      not\n      and\n      swap1\n      dup4\n      0xffffffffffffffffffffffffffffffffffffffff\n      and\n      mul\n      or\n      swap1\n      sstore\n      pop\n        /* \"system.sol\":498:501  _to */\n      dup1\n        /* \"system.sol\":470:502  OwnerTransferPropose(owner, _to) */\n      0xffffffffffffffffffffffffffffffffffffffff\n      and\n        /* \"system.sol\":491:496  owner */\n      0x00\n      dup1\n      sload\n      swap1\n      0x0100\n      exp\n      swap1\n      div\n      0xffffffffffffffffffffffffffffffffffffffff\n      and\n        /* \"system.sol\":470:502  OwnerTransferPropose(owner, _to) */\n      0xffffffffffffffffffffffffffffffffffffffff\n      and\n      0x2ae143016adc0aa482e6ba5d9a350f3e3122aeb005ca4bf47d1d7b8221bce472\n      mload(0x40)\n      mload(0x40)\n      dup1\n      swap2\n      sub\n      swap1\n      log3\n        /* \"system.sol\":314:508  function transferOwnership(address _to) onlyOwner public {... */\n      pop\n      jump\t// out\n        /* \"system.sol\":3906:4170  function changeStatus(address _person, uint8 _type) onlyIssuer public returns (bool) {... */\n    tag_76:\n        /* \"system.sol\":3985:3989  bool */\n      0x00\n        /* \"system.sol\":765:769  true */\n      0x01\n        /* \"system.sol\":741:769  isIssuer(msg.sender) == true */\n      iszero\n      iszero\n        /* \"system.sol\":741:761  isIssuer(msg.sender) */\n      tag_142\n        /* \"system.sol\":750:760  msg.sender */\n      caller\n        /* \"system.sol\":741:749  isIssuer */\n      tag_54\n        /* \"system.sol\":741:761  isIssuer(msg.sender) */\n      jump\t// in\n    tag_142:\n        /* \"system.sol\":741:769  isIssuer(msg.sender) == true */\n      iszero\n      iszero\n      eq\n        /* \"system.sol\":733:770  require(isIssuer(msg.sender) == true) */\n      tag_143\n      jumpi\n      0x00\n      dup1\n      revert\n    tag_143:\n        /* \"system.sol\":4036:4037  0 */\n      0x00\n        /* \"system.sol\":4009:4020  credentials */\n      0x05\n        /* \"system.sol\":4009:4029  credentials[_person] */\n      0x00\n        /* \"system.sol\":4021:4028  _person */\n      dup6\n        /* \"system.sol\":4009:4029  credentials[_person] */\n      0xffffffffffffffffffffffffffffffffffffffff\n      and\n      0xffffffffffffffffffffffffffffffffffffffff\n      and\n      dup2\n      mstore\n      0x20\n      add\n      swap1\n      dup2\n      mstore\n      0x20\n      add\n      0x00\n      keccak256\n        /* \"system.sol\":4009:4032  credentials[_person].id */\n      0x00\n      add\n      sload\n        /* \"system.sol\":4009:4037  credentials[_person].id != 0 */\n      eq\n      iszero\n        /* \"system.sol\":4001:4038  require(credentials[_person].id != 0) */\n      tag_145\n      jumpi\n      0x00\n      dup1\n      revert\n    tag_145:\n        /* \"system.sol\":4091:4092  0 */\n      0x00\n        /* \"system.sol\":4062:4072  statusEnum */\n      0x04\n        /* \"system.sol\":4062:4079  statusEnum[_type] */\n      0x00\n        /* \"system.sol\":4073:4078  _type */\n      dup5\n        /* \"system.sol\":4062:4079  statusEnum[_type] */\n      0xff\n      and\n      0xff\n      and\n      dup2\n      mstore\n      0x20\n      add\n      swap1\n      dup2\n      mstore\n      0x20\n      add\n      0x00\n      keccak256\n        /* \"system.sol\":4056:4087  bytes(statusEnum[_type]).length */\n      dup1\n      sload\n      tag_146\n      swap1\n      tag_80\n      jump\t// in\n    tag_146:\n      swap1\n      pop\n        /* \"system.sol\":4056:4092  bytes(statusEnum[_type]).length != 0 */\n      eq\n      iszero\n        /* \"system.sol\":4048:4093  require(bytes(statusEnum[_type]).length != 0) */\n      tag_147\n      jumpi\n      0x00\n      dup1\n      revert\n    tag_147:\n        /* \"system.sol\":4137:4142  _type */\n      dup2\n        /* \"system.sol\":4103:4114  credentials */\n      0x05\n        /* \"system.sol\":4103:4123  credentials[_person] */\n      0x00\n        /* \"system.sol\":4115:4122  _person */\n      dup6\n        /* \"system.sol\":4103:4123  credentials[_person] */\n      0xffffffffffffffffffffffffffffffffffffffff\n      and\n      0xffffffffffffffffffffffffffffffffffffffff\n      and\n      dup2\n      mstore\n      0x20\n      add\n      swap1\n      dup2\n      mstore\n      0x20\n      add\n      0x00\n      keccak256\n        /* \"system.sol\":4103:4134  credentials[_person].statusType */\n      0x01\n      add\n      0x15\n        /* \"system.sol\":4103:4142  credentials[_person].statusType = _type */\n      0x0100\n      exp\n      dup2\n      sload\n      dup2\n      0xff\n      mul\n      not\n      and\n      swap1\n      dup4\n      0xff\n      and\n      mul\n      or\n      swap1\n      sstore\n      pop\n        /* \"system.sol\":4159:4163  true */\n      0x01\n        /* \"system.sol\":4152:4163  return true */\n      swap1\n      pop\n        /* \"system.sol\":3906:4170  function changeStatus(address _person, uint8 _type) onlyIssuer public returns (bool) {... */\n      swap3\n      swap2\n      pop\n      pop\n      jump\t// out\n    tag_99:\n      dup3\n      dup1\n      sload\n      tag_148\n      swap1\n      tag_80\n      jump\t// in\n    tag_148:\n      swap1\n      0x00\n      mstore\n      keccak256(0x00, 0x20)\n      swap1\n      0x1f\n      add\n      0x20\n      swap1\n      div\n      dup2\n      add\n      swap3\n      dup3\n      tag_150\n      jumpi\n      0x00\n      dup6\n      sstore\n      jump(tag_149)\n    tag_150:\n      dup3\n      0x1f\n      lt\n      tag_151\n      jumpi\n      dup1\n      calldataload\n      not(0xff)\n      and\n      dup4\n      dup1\n      add\n      or\n      dup6\n      sstore\n      jump(tag_149)\n    tag_151:\n      dup3\n      dup1\n      add\n      0x01\n      add\n      dup6\n      sstore\n      dup3\n      iszero\n      tag_149\n      jumpi\n      swap2\n      dup3\n      add\n    tag_152:\n      dup3\n      dup2\n      gt\n      iszero\n      tag_153\n      jumpi\n      dup3\n      calldataload\n      dup3\n      sstore\n      swap2\n      0x20\n      add\n      swap2\n      swap1\n      0x01\n      add\n      swap1\n      jump(tag_152)\n    tag_153:\n    tag_149:\n      pop\n      swap1\n      pop\n      tag_154\n      swap2\n      swap1\n      tag_155\n      jump\t// in\n    tag_154:\n      pop\n      swap1\n      jump\t// out\n    tag_124:\n      mload(0x40)\n      dup1\n      0xc0\n      add\n      0x40\n      mstore\n      dup1\n      0x00\n      dup2\n      mstore\n      0x20\n      add\n      and(0xffffffffffffffffffffffffffffffffffffffff, 0x00)\n      dup2\n      mstore\n      0x20\n      add\n      and(0xff, 0x00)\n      dup2\n      mstore\n      0x20\n      add\n      and(0xff, 0x00)\n      dup2\n      mstore\n      0x20\n      add\n      0x60\n      dup2\n      mstore\n      0x20\n      add\n      0x00\n      dup2\n      mstore\n      pop\n      swap1\n      jump\t// out\n    tag_155:\n    tag_156:\n      dup1\n      dup3\n      gt\n      iszero\n      tag_157\n      jumpi\n      0x00\n      dup2\n      0x00\n      swap1\n      sstore\n      pop\n      0x01\n      add\n      jump(tag_156)\n    tag_157:\n      pop\n      swap1\n      jump\t// out\n        /* \"#utility.yul\":88:205   */\n    tag_159:\n        /* \"#utility.yul\":197:198   */\n      0x00\n        /* \"#utility.yul\":194:195   */\n      dup1\n        /* \"#utility.yul\":187:199   */\n      revert\n        /* \"#utility.yul\":211:328   */\n    tag_160:\n        /* \"#utility.yul\":320:321   */\n      0x00\n        /* \"#utility.yul\":317:318   */\n      dup1\n        /* \"#utility.yul\":310:322   */\n      revert\n        /* \"#utility.yul\":334:420   */\n    tag_161:\n        /* \"#utility.yul\":369:376   */\n      0x00\n        /* \"#utility.yul\":409:413   */\n      0xff\n        /* \"#utility.yul\":402:407   */\n      dup3\n        /* \"#utility.yul\":398:414   */\n      and\n        /* \"#utility.yul\":387:414   */\n      swap1\n      pop\n        /* \"#utility.yul\":334:420   */\n      swap2\n      swap1\n      pop\n      jump\t// out\n        /* \"#utility.yul\":426:544   */\n    tag_162:\n        /* \"#utility.yul\":497:519   */\n      tag_194\n        /* \"#utility.yul\":513:518   */\n      dup2\n        /* \"#utility.yul\":497:519   */\n      tag_161\n      jump\t// in\n    tag_194:\n        /* \"#utility.yul\":490:495   */\n      dup2\n        /* \"#utility.yul\":487:520   */\n      eq\n        /* \"#utility.yul\":477:538   */\n      tag_195\n      jumpi\n        /* \"#utility.yul\":534:535   */\n      0x00\n        /* \"#utility.yul\":531:532   */\n      dup1\n        /* \"#utility.yul\":524:536   */\n      revert\n        /* \"#utility.yul\":477:538   */\n    tag_195:\n        /* \"#utility.yul\":426:544   */\n      pop\n      jump\t// out\n        /* \"#utility.yul\":550:685   */\n    tag_163:\n        /* \"#utility.yul\":594:599   */\n      0x00\n        /* \"#utility.yul\":632:638   */\n      dup2\n        /* \"#utility.yul\":619:639   */\n      calldataload\n        /* \"#utility.yul\":610:639   */\n      swap1\n      pop\n        /* \"#utility.yul\":648:679   */\n      tag_197\n        /* \"#utility.yul\":673:678   */\n      dup2\n        /* \"#utility.yul\":648:679   */\n      tag_162\n      jump\t// in\n    tag_197:\n        /* \"#utility.yul\":550:685   */\n      swap3\n      swap2\n      pop\n      pop\n      jump\t// out\n        /* \"#utility.yul\":691:1016   */\n    tag_20:\n        /* \"#utility.yul\":748:754   */\n      0x00\n        /* \"#utility.yul\":797:799   */\n      0x20\n        /* \"#utility.yul\":785:794   */\n      dup3\n        /* \"#utility.yul\":776:783   */\n      dup5\n        /* \"#utility.yul\":772:795   */\n      sub\n        /* \"#utility.yul\":768:800   */\n      slt\n        /* \"#utility.yul\":765:884   */\n      iszero\n      tag_199\n      jumpi\n        /* \"#utility.yul\":803:882   */\n      tag_200\n      tag_159\n      jump\t// in\n    tag_200:\n        /* \"#utility.yul\":765:884   */\n    tag_199:\n        /* \"#utility.yul\":923:924   */\n      0x00\n        /* \"#utility.yul\":948:999   */\n      tag_201\n        /* \"#utility.yul\":991:998   */\n      dup5\n        /* \"#utility.yul\":982:988   */\n      dup3\n        /* \"#utility.yul\":971:980   */\n      dup6\n        /* \"#utility.yul\":967:989   */\n      add\n        /* \"#utility.yul\":948:999   */\n      tag_163\n      jump\t// in\n    tag_201:\n        /* \"#utility.yul\":938:999   */\n      swap2\n      pop\n        /* \"#utility.yul\":894:1009   */\n      pop\n        /* \"#utility.yul\":691:1016   */\n      swap3\n      swap2\n      pop\n      pop\n      jump\t// out\n        /* \"#utility.yul\":1022:1121   */\n    tag_164:\n        /* \"#utility.yul\":1074:1080   */\n      0x00\n        /* \"#utility.yul\":1108:1113   */\n      dup2\n        /* \"#utility.yul\":1102:1114   */\n      mload\n        /* \"#utility.yul\":1092:1114   */\n      swap1\n      pop\n        /* \"#utility.yul\":1022:1121   */\n      swap2\n      swap1\n      pop\n      jump\t// out\n        /* \"#utility.yul\":1127:1296   */\n    tag_165:\n        /* \"#utility.yul\":1211:1222   */\n      0x00\n        /* \"#utility.yul\":1245:1251   */\n      dup3\n        /* \"#utility.yul\":1240:1243   */\n      dup3\n        /* \"#utility.yul\":1233:1252   */\n      mstore\n        /* \"#utility.yul\":1285:1289   */\n      0x20\n        /* \"#utility.yul\":1280:1283   */\n      dup3\n        /* \"#utility.yul\":1276:1290   */\n      add\n        /* \"#utility.yul\":1261:1290   */\n      swap1\n      pop\n        /* \"#utility.yul\":1127:1296   */\n      swap3\n      swap2\n      pop\n      pop\n      jump\t// out\n        /* \"#utility.yul\":1302:1609   */\n    tag_166:\n        /* \"#utility.yul\":1370:1371   */\n      0x00\n        /* \"#utility.yul\":1380:1493   */\n    tag_205:\n        /* \"#utility.yul\":1394:1400   */\n      dup4\n        /* \"#utility.yul\":1391:1392   */\n      dup2\n        /* \"#utility.yul\":1388:1401   */\n      lt\n        /* \"#utility.yul\":1380:1493   */\n      iszero\n      tag_207\n      jumpi\n        /* \"#utility.yul\":1479:1480   */\n      dup1\n        /* \"#utility.yul\":1474:1477   */\n      dup3\n        /* \"#utility.yul\":1470:1481   */\n      add\n        /* \"#utility.yul\":1464:1482   */\n      mload\n        /* \"#utility.yul\":1460:1461   */\n      dup2\n        /* \"#utility.yul\":1455:1458   */\n      dup5\n        /* \"#utility.yul\":1451:1462   */\n      add\n        /* \"#utility.yul\":1444:1483   */\n      mstore\n        /* \"#utility.yul\":1416:1418   */\n      0x20\n        /* \"#utility.yul\":1413:1414   */\n      dup2\n        /* \"#utility.yul\":1409:1419   */\n      add\n        /* \"#utility.yul\":1404:1419   */\n      swap1\n      pop\n        /* \"#utility.yul\":1380:1493   */\n      jump(tag_205)\n    tag_207:\n        /* \"#utility.yul\":1511:1517   */\n      dup4\n        /* \"#utility.yul\":1508:1509   */\n      dup2\n        /* \"#utility.yul\":1505:1518   */\n      gt\n        /* \"#utility.yul\":1502:1603   */\n      iszero\n      tag_208\n      jumpi\n        /* \"#utility.yul\":1591:1592   */\n      0x00\n        /* \"#utility.yul\":1582:1588   */\n      dup5\n        /* \"#utility.yul\":1577:1580   */\n      dup5\n        /* \"#utility.yul\":1573:1589   */\n      add\n        /* \"#utility.yul\":1566:1593   */\n      mstore\n        /* \"#utility.yul\":1502:1603   */\n    tag_208:\n        /* \"#utility.yul\":1351:1609   */\n      pop\n        /* \"#utility.yul\":1302:1609   */\n      pop\n      pop\n      pop\n      jump\t// out\n        /* \"#utility.yul\":1615:1717   */\n    tag_167:\n        /* \"#utility.yul\":1656:1662   */\n      0x00\n        /* \"#utility.yul\":1707:1709   */\n      0x1f\n        /* \"#utility.yul\":1703:1710   */\n      not\n        /* \"#utility.yul\":1698:1700   */\n      0x1f\n        /* \"#utility.yul\":1691:1696   */\n      dup4\n        /* \"#utility.yul\":1687:1701   */\n      add\n        /* \"#utility.yul\":1683:1711   */\n      and\n        /* \"#utility.yul\":1673:1711   */\n      swap1\n      pop\n        /* \"#utility.yul\":1615:1717   */\n      swap2\n      swap1\n      pop\n      jump\t// out\n        /* \"#utility.yul\":1723:2087   */\n    tag_168:\n        /* \"#utility.yul\":1811:1814   */\n      0x00\n        /* \"#utility.yul\":1839:1878   */\n      tag_211\n        /* \"#utility.yul\":1872:1877   */\n      dup3\n        /* \"#utility.yul\":1839:1878   */\n      tag_164\n      jump\t// in\n    tag_211:\n        /* \"#utility.yul\":1894:1965   */\n      tag_212\n        /* \"#utility.yul\":1958:1964   */\n      dup2\n        /* \"#utility.yul\":1953:1956   */\n      dup6\n        /* \"#utility.yul\":1894:1965   */\n      tag_165\n      jump\t// in\n    tag_212:\n        /* \"#utility.yul\":1887:1965   */\n      swap4\n      pop\n        /* \"#utility.yul\":1974:2026   */\n      tag_213\n        /* \"#utility.yul\":2019:2025   */\n      dup2\n        /* \"#utility.yul\":2014:2017   */\n      dup6\n        /* \"#utility.yul\":2007:2011   */\n      0x20\n        /* \"#utility.yul\":2000:2005   */\n      dup7\n        /* \"#utility.yul\":1996:2012   */\n      add\n        /* \"#utility.yul\":1974:2026   */\n      tag_166\n      jump\t// in\n    tag_213:\n        /* \"#utility.yul\":2051:2080   */\n      tag_214\n        /* \"#utility.yul\":2073:2079   */\n      dup2\n        /* \"#utility.yul\":2051:2080   */\n      tag_167\n      jump\t// in\n    tag_214:\n        /* \"#utility.yul\":2046:2049   */\n      dup5\n        /* \"#utility.yul\":2042:2081   */\n      add\n        /* \"#utility.yul\":2035:2081   */\n      swap2\n      pop\n        /* \"#utility.yul\":1815:2087   */\n      pop\n        /* \"#utility.yul\":1723:2087   */\n      swap3\n      swap2\n      pop\n      pop\n      jump\t// out\n        /* \"#utility.yul\":2093:2406   */\n    tag_23:\n        /* \"#utility.yul\":2206:2210   */\n      0x00\n        /* \"#utility.yul\":2244:2246   */\n      0x20\n        /* \"#utility.yul\":2233:2242   */\n      dup3\n        /* \"#utility.yul\":2229:2247   */\n      add\n        /* \"#utility.yul\":2221:2247   */\n      swap1\n      pop\n        /* \"#utility.yul\":2293:2302   */\n      dup2\n        /* \"#utility.yul\":2287:2291   */\n      dup2\n        /* \"#utility.yul\":2283:2303   */\n      sub\n        /* \"#utility.yul\":2279:2280   */\n      0x00\n        /* \"#utility.yul\":2268:2277   */\n      dup4\n        /* \"#utility.yul\":2264:2281   */\n      add\n        /* \"#utility.yul\":2257:2304   */\n      mstore\n        /* \"#utility.yul\":2321:2399   */\n      tag_216\n        /* \"#utility.yul\":2394:2398   */\n      dup2\n        /* \"#utility.yul\":2385:2391   */\n      dup5\n        /* \"#utility.yul\":2321:2399   */\n      tag_168\n      jump\t// in\n    tag_216:\n        /* \"#utility.yul\":2313:2399   */\n      swap1\n      pop\n        /* \"#utility.yul\":2093:2406   */\n      swap3\n      swap2\n      pop\n      pop\n      jump\t// out\n        /* \"#utility.yul\":2412:2538   */\n    tag_169:\n        /* \"#utility.yul\":2449:2456   */\n      0x00\n        /* \"#utility.yul\":2489:2531   */\n      0xffffffffffffffffffffffffffffffffffffffff\n        /* \"#utility.yul\":2482:2487   */\n      dup3\n        /* \"#utility.yul\":2478:2532   */\n      and\n        /* \"#utility.yul\":2467:2532   */\n      swap1\n      pop\n        /* \"#utility.yul\":2412:2538   */\n      swap2\n      swap1\n      pop\n      jump\t// out\n        /* \"#utility.yul\":2544:2640   */\n    tag_170:\n        /* \"#utility.yul\":2581:2588   */\n      0x00\n        /* \"#utility.yul\":2610:2634   */\n      tag_219\n        /* \"#utility.yul\":2628:2633   */\n      dup3\n        /* \"#utility.yul\":2610:2634   */\n      tag_169\n      jump\t// in\n    tag_219:\n        /* \"#utility.yul\":2599:2634   */\n      swap1\n      pop\n        /* \"#utility.yul\":2544:2640   */\n      swap2\n      swap1\n      pop\n      jump\t// out\n        /* \"#utility.yul\":2646:2768   */\n    tag_171:\n        /* \"#utility.yul\":2719:2743   */\n      tag_221\n        /* \"#utility.yul\":2737:2742   */\n      dup2\n        /* \"#utility.yul\":2719:2743   */\n      tag_170\n      jump\t// in\n    tag_221:\n        /* \"#utility.yul\":2712:2717   */\n      dup2\n        /* \"#utility.yul\":2709:2744   */\n      eq\n        /* \"#utility.yul\":2699:2762   */\n      tag_222\n      jumpi\n        /* \"#utility.yul\":2758:2759   */\n      0x00\n        /* \"#utility.yul\":2755:2756   */\n      dup1\n        /* \"#utility.yul\":2748:2760   */\n      revert\n        /* \"#utility.yul\":2699:2762   */\n    tag_222:\n        /* \"#utility.yul\":2646:2768   */\n      pop\n      jump\t// out\n        /* \"#utility.yul\":2774:2913   */\n    tag_172:\n        /* \"#utility.yul\":2820:2825   */\n      0x00\n        /* \"#utility.yul\":2858:2864   */\n      dup2\n        /* \"#utility.yul\":2845:2865   */\n      calldataload\n        /* \"#utility.yul\":2836:2865   */\n      swap1\n      pop\n        /* \"#utility.yul\":2874:2907   */\n      tag_224\n        /* \"#utility.yul\":2901:2906   */\n      dup2\n        /* \"#utility.yul\":2874:2907   */\n      tag_171\n      jump\t// in\n    tag_224:\n        /* \"#utility.yul\":2774:2913   */\n      swap3\n      swap2\n      pop\n      pop\n      jump\t// out\n        /* \"#utility.yul\":2919:3248   */\n    tag_26:\n        /* \"#utility.yul\":2978:2984   */\n      0x00\n        /* \"#utility.yul\":3027:3029   */\n      0x20\n        /* \"#utility.yul\":3015:3024   */\n      dup3\n        /* \"#utility.yul\":3006:3013   */\n      dup5\n        /* \"#utility.yul\":3002:3025   */\n      sub\n        /* \"#utility.yul\":2998:3030   */\n      slt\n        /* \"#utility.yul\":2995:3114   */\n      iszero\n      tag_226\n      jumpi\n        /* \"#utility.yul\":3033:3112   */\n      tag_227\n      tag_159\n      jump\t// in\n    tag_227:\n        /* \"#utility.yul\":2995:3114   */\n    tag_226:\n        /* \"#utility.yul\":3153:3154   */\n      0x00\n        /* \"#utility.yul\":3178:3231   */\n      tag_228\n        /* \"#utility.yul\":3223:3230   */\n      dup5\n        /* \"#utility.yul\":3214:3220   */\n      dup3\n        /* \"#utility.yul\":3203:3212   */\n      dup6\n        /* \"#utility.yul\":3199:3221   */\n      add\n        /* \"#utility.yul\":3178:3231   */\n      tag_172\n      jump\t// in\n    tag_228:\n        /* \"#utility.yul\":3168:3231   */\n      swap2\n      pop\n        /* \"#utility.yul\":3124:3241   */\n      pop\n        /* \"#utility.yul\":2919:3248   */\n      swap3\n      swap2\n      pop\n      pop\n      jump\t// out\n        /* \"#utility.yul\":3254:3344   */\n    tag_173:\n        /* \"#utility.yul\":3288:3295   */\n      0x00\n        /* \"#utility.yul\":3331:3336   */\n      dup2\n        /* \"#utility.yul\":3324:3337   */\n      iszero\n        /* \"#utility.yul\":3317:3338   */\n      iszero\n        /* \"#utility.yul\":3306:3338   */\n      swap1\n      pop\n        /* \"#utility.yul\":3254:3344   */\n      swap2\n      swap1\n      pop\n      jump\t// out\n        /* \"#utility.yul\":3350:3459   */\n    tag_174:\n        /* \"#utility.yul\":3431:3452   */\n      tag_231\n        /* \"#utility.yul\":3446:3451   */\n      dup2\n        /* \"#utility.yul\":3431:3452   */\n      tag_173\n      jump\t// in\n    tag_231:\n        /* \"#utility.yul\":3426:3429   */\n      dup3\n        /* \"#utility.yul\":3419:3453   */\n      mstore\n        /* \"#utility.yul\":3350:3459   */\n      pop\n      pop\n      jump\t// out\n        /* \"#utility.yul\":3465:3675   */\n    tag_29:\n        /* \"#utility.yul\":3552:3556   */\n      0x00\n        /* \"#utility.yul\":3590:3592   */\n      0x20\n        /* \"#utility.yul\":3579:3588   */\n      dup3\n        /* \"#utility.yul\":3575:3593   */\n      add\n        /* \"#utility.yul\":3567:3593   */\n      swap1\n      pop\n        /* \"#utility.yul\":3603:3668   */\n      tag_233\n        /* \"#utility.yul\":3665:3666   */\n      0x00\n        /* \"#utility.yul\":3654:3663   */\n      dup4\n        /* \"#utility.yul\":3650:3667   */\n      add\n        /* \"#utility.yul\":3641:3647   */\n      dup5\n        /* \"#utility.yul\":3603:3668   */\n      tag_174\n      jump\t// in\n    tag_233:\n        /* \"#utility.yul\":3465:3675   */\n      swap3\n      swap2\n      pop\n      pop\n      jump\t// out\n        /* \"#utility.yul\":3681:3798   */\n    tag_175:\n        /* \"#utility.yul\":3790:3791   */\n      0x00\n        /* \"#utility.yul\":3787:3788   */\n      dup1\n        /* \"#utility.yul\":3780:3792   */\n      revert\n        /* \"#utility.yul\":3804:3921   */\n    tag_176:\n        /* \"#utility.yul\":3913:3914   */\n      0x00\n        /* \"#utility.yul\":3910:3911   */\n      dup1\n        /* \"#utility.yul\":3903:3915   */\n      revert\n        /* \"#utility.yul\":3927:4044   */\n    tag_177:\n        /* \"#utility.yul\":4036:4037   */\n      0x00\n        /* \"#utility.yul\":4033:4034   */\n      dup1\n        /* \"#utility.yul\":4026:4038   */\n      revert\n        /* \"#utility.yul\":4064:4617   */\n    tag_178:\n        /* \"#utility.yul\":4122:4130   */\n      0x00\n        /* \"#utility.yul\":4132:4138   */\n      dup1\n        /* \"#utility.yul\":4182:4185   */\n      dup4\n        /* \"#utility.yul\":4175:4179   */\n      0x1f\n        /* \"#utility.yul\":4167:4173   */\n      dup5\n        /* \"#utility.yul\":4163:4180   */\n      add\n        /* \"#utility.yul\":4159:4186   */\n      slt\n        /* \"#utility.yul\":4149:4271   */\n      tag_238\n      jumpi\n        /* \"#utility.yul\":4190:4269   */\n      tag_239\n      tag_175\n      jump\t// in\n    tag_239:\n        /* \"#utility.yul\":4149:4271   */\n    tag_238:\n        /* \"#utility.yul\":4303:4309   */\n      dup3\n        /* \"#utility.yul\":4290:4310   */\n      calldataload\n        /* \"#utility.yul\":4280:4310   */\n      swap1\n      pop\n        /* \"#utility.yul\":4333:4351   */\n      0xffffffffffffffff\n        /* \"#utility.yul\":4325:4331   */\n      dup2\n        /* \"#utility.yul\":4322:4352   */\n      gt\n        /* \"#utility.yul\":4319:4436   */\n      iszero\n      tag_240\n      jumpi\n        /* \"#utility.yul\":4355:4434   */\n      tag_241\n      tag_176\n      jump\t// in\n    tag_241:\n        /* \"#utility.yul\":4319:4436   */\n    tag_240:\n        /* \"#utility.yul\":4469:4473   */\n      0x20\n        /* \"#utility.yul\":4461:4467   */\n      dup4\n        /* \"#utility.yul\":4457:4474   */\n      add\n        /* \"#utility.yul\":4445:4474   */\n      swap2\n      pop\n        /* \"#utility.yul\":4523:4526   */\n      dup4\n        /* \"#utility.yul\":4515:4519   */\n      0x01\n        /* \"#utility.yul\":4507:4513   */\n      dup3\n        /* \"#utility.yul\":4503:4520   */\n      mul\n        /* \"#utility.yul\":4493:4501   */\n      dup4\n        /* \"#utility.yul\":4489:4521   */\n      add\n        /* \"#utility.yul\":4486:4527   */\n      gt\n        /* \"#utility.yul\":4483:4611   */\n      iszero\n      tag_242\n      jumpi\n        /* \"#utility.yul\":4530:4609   */\n      tag_243\n      tag_177\n      jump\t// in\n    tag_243:\n        /* \"#utility.yul\":4483:4611   */\n    tag_242:\n        /* \"#utility.yul\":4064:4617   */\n      swap3\n      pop\n      swap3\n      swap1\n      pop\n      jump\t// out\n        /* \"#utility.yul\":4623:5580   */\n    tag_36:\n        /* \"#utility.yul\":4717:4723   */\n      0x00\n        /* \"#utility.yul\":4725:4731   */\n      dup1\n        /* \"#utility.yul\":4733:4739   */\n      0x00\n        /* \"#utility.yul\":4741:4747   */\n      dup1\n        /* \"#utility.yul\":4749:4755   */\n      0x00\n        /* \"#utility.yul\":4798:4801   */\n      0x80\n        /* \"#utility.yul\":4786:4795   */\n      dup7\n        /* \"#utility.yul\":4777:4784   */\n      dup9\n        /* \"#utility.yul\":4773:4796   */\n      sub\n        /* \"#utility.yul\":4769:4802   */\n      slt\n        /* \"#utility.yul\":4766:4886   */\n      iszero\n      tag_245\n      jumpi\n        /* \"#utility.yul\":4805:4884   */\n      tag_246\n      tag_159\n      jump\t// in\n    tag_246:\n        /* \"#utility.yul\":4766:4886   */\n    tag_245:\n        /* \"#utility.yul\":4925:4926   */\n      0x00\n        /* \"#utility.yul\":4950:5003   */\n      tag_247\n        /* \"#utility.yul\":4995:5002   */\n      dup9\n        /* \"#utility.yul\":4986:4992   */\n      dup3\n        /* \"#utility.yul\":4975:4984   */\n      dup10\n        /* \"#utility.yul\":4971:4993   */\n      add\n        /* \"#utility.yul\":4950:5003   */\n      tag_172\n      jump\t// in\n    tag_247:\n        /* \"#utility.yul\":4940:5003   */\n      swap6\n      pop\n        /* \"#utility.yul\":4896:5013   */\n      pop\n        /* \"#utility.yul\":5052:5054   */\n      0x20\n        /* \"#utility.yul\":5078:5129   */\n      tag_248\n        /* \"#utility.yul\":5121:5128   */\n      dup9\n        /* \"#utility.yul\":5112:5118   */\n      dup3\n        /* \"#utility.yul\":5101:5110   */\n      dup10\n        /* \"#utility.yul\":5097:5119   */\n      add\n        /* \"#utility.yul\":5078:5129   */\n      tag_163\n      jump\t// in\n    tag_248:\n        /* \"#utility.yul\":5068:5129   */\n      swap5\n      pop\n        /* \"#utility.yul\":5023:5139   */\n      pop\n        /* \"#utility.yul\":5178:5180   */\n      0x40\n        /* \"#utility.yul\":5204:5255   */\n      tag_249\n        /* \"#utility.yul\":5247:5254   */\n      dup9\n        /* \"#utility.yul\":5238:5244   */\n      dup3\n        /* \"#utility.yul\":5227:5236   */\n      dup10\n        /* \"#utility.yul\":5223:5245   */\n      add\n        /* \"#utility.yul\":5204:5255   */\n      tag_163\n      jump\t// in\n    tag_249:\n        /* \"#utility.yul\":5194:5255   */\n      swap4\n      pop\n        /* \"#utility.yul\":5149:5265   */\n      pop\n        /* \"#utility.yul\":5332:5334   */\n      0x60\n        /* \"#utility.yul\":5321:5330   */\n      dup7\n        /* \"#utility.yul\":5317:5335   */\n      add\n        /* \"#utility.yul\":5304:5336   */\n      calldataload\n        /* \"#utility.yul\":5363:5381   */\n      0xffffffffffffffff\n        /* \"#utility.yul\":5355:5361   */\n      dup2\n        /* \"#utility.yul\":5352:5382   */\n      gt\n        /* \"#utility.yul\":5349:5466   */\n      iszero\n      tag_250\n      jumpi\n        /* \"#utility.yul\":5385:5464   */\n      tag_251\n      tag_160\n      jump\t// in\n    tag_251:\n        /* \"#utility.yul\":5349:5466   */\n    tag_250:\n        /* \"#utility.yul\":5498:5563   */\n      tag_252\n        /* \"#utility.yul\":5555:5562   */\n      dup9\n        /* \"#utility.yul\":5546:5552   */\n      dup3\n        /* \"#utility.yul\":5535:5544   */\n      dup10\n        /* \"#utility.yul\":5531:5553   */\n      add\n        /* \"#utility.yul\":5498:5563   */\n      tag_178\n      jump\t// in\n    tag_252:\n        /* \"#utility.yul\":5480:5563   */\n      swap3\n      pop\n      swap3\n      pop\n        /* \"#utility.yul\":5275:5573   */\n      pop\n        /* \"#utility.yul\":4623:5580   */\n      swap3\n      swap6\n      pop\n      swap3\n      swap6\n      swap1\n      swap4\n      pop\n      jump\t// out\n        /* \"#utility.yul\":5586:6256   */\n    tag_49:\n        /* \"#utility.yul\":5664:5670   */\n      0x00\n        /* \"#utility.yul\":5672:5678   */\n      dup1\n        /* \"#utility.yul\":5680:5686   */\n      0x00\n        /* \"#utility.yul\":5729:5731   */\n      0x40\n        /* \"#utility.yul\":5717:5726   */\n      dup5\n        /* \"#utility.yul\":5708:5715   */\n      dup7\n        /* \"#utility.yul\":5704:5727   */\n      sub\n        /* \"#utility.yul\":5700:5732   */\n      slt\n        /* \"#utility.yul\":5697:5816   */\n      iszero\n      tag_254\n      jumpi\n        /* \"#utility.yul\":5735:5814   */\n      tag_255\n      tag_159\n      jump\t// in\n    tag_255:\n        /* \"#utility.yul\":5697:5816   */\n    tag_254:\n        /* \"#utility.yul\":5855:5856   */\n      0x00\n        /* \"#utility.yul\":5880:5931   */\n      tag_256\n        /* \"#utility.yul\":5923:5930   */\n      dup7\n        /* \"#utility.yul\":5914:5920   */\n      dup3\n        /* \"#utility.yul\":5903:5912   */\n      dup8\n        /* \"#utility.yul\":5899:5921   */\n      add\n        /* \"#utility.yul\":5880:5931   */\n      tag_163\n      jump\t// in\n    tag_256:\n        /* \"#utility.yul\":5870:5931   */\n      swap4\n      pop\n        /* \"#utility.yul\":5826:5941   */\n      pop\n        /* \"#utility.yul\":6008:6010   */\n      0x20\n        /* \"#utility.yul\":5997:6006   */\n      dup5\n        /* \"#utility.yul\":5993:6011   */\n      add\n        /* \"#utility.yul\":5980:6012   */\n      calldataload\n        /* \"#utility.yul\":6039:6057   */\n      0xffffffffffffffff\n        /* \"#utility.yul\":6031:6037   */\n      dup2\n        /* \"#utility.yul\":6028:6058   */\n      gt\n        /* \"#utility.yul\":6025:6142   */\n      iszero\n      tag_257\n      jumpi\n        /* \"#utility.yul\":6061:6140   */\n      tag_258\n      tag_160\n      jump\t// in\n    tag_258:\n        /* \"#utility.yul\":6025:6142   */\n    tag_257:\n        /* \"#utility.yul\":6174:6239   */\n      tag_259\n        /* \"#utility.yul\":6231:6238   */\n      dup7\n        /* \"#utility.yul\":6222:6228   */\n      dup3\n        /* \"#utility.yul\":6211:6220   */\n      dup8\n        /* \"#utility.yul\":6207:6229   */\n      add\n        /* \"#utility.yul\":6174:6239   */\n      tag_178\n      jump\t// in\n    tag_259:\n        /* \"#utility.yul\":6156:6239   */\n      swap3\n      pop\n      swap3\n      pop\n        /* \"#utility.yul\":5951:6249   */\n      pop\n        /* \"#utility.yul\":5586:6256   */\n      swap3\n      pop\n      swap3\n      pop\n      swap3\n      jump\t// out\n        /* \"#utility.yul\":6262:6339   */\n    tag_179:\n        /* \"#utility.yul\":6299:6306   */\n      0x00\n        /* \"#utility.yul\":6328:6333   */\n      dup2\n        /* \"#utility.yul\":6317:6333   */\n      swap1\n      pop\n        /* \"#utility.yul\":6262:6339   */\n      swap2\n      swap1\n      pop\n      jump\t// out\n        /* \"#utility.yul\":6345:6453   */\n    tag_180:\n        /* \"#utility.yul\":6422:6446   */\n      tag_262\n        /* \"#utility.yul\":6440:6445   */\n      dup2\n        /* \"#utility.yul\":6422:6446   */\n      tag_179\n      jump\t// in\n    tag_262:\n        /* \"#utility.yul\":6417:6420   */\n      dup3\n        /* \"#utility.yul\":6410:6447   */\n      mstore\n        /* \"#utility.yul\":6345:6453   */\n      pop\n      pop\n      jump\t// out\n        /* \"#utility.yul\":6459:6567   */\n    tag_181:\n        /* \"#utility.yul\":6536:6560   */\n      tag_264\n        /* \"#utility.yul\":6554:6559   */\n      dup2\n        /* \"#utility.yul\":6536:6560   */\n      tag_170\n      jump\t// in\n    tag_264:\n        /* \"#utility.yul\":6531:6534   */\n      dup3\n        /* \"#utility.yul\":6524:6561   */\n      mstore\n        /* \"#utility.yul\":6459:6567   */\n      pop\n      pop\n      jump\t// out\n        /* \"#utility.yul\":6573:6675   */\n    tag_182:\n        /* \"#utility.yul\":6646:6668   */\n      tag_266\n        /* \"#utility.yul\":6662:6667   */\n      dup2\n        /* \"#utility.yul\":6646:6668   */\n      tag_161\n      jump\t// in\n    tag_266:\n        /* \"#utility.yul\":6641:6644   */\n      dup3\n        /* \"#utility.yul\":6634:6669   */\n      mstore\n        /* \"#utility.yul\":6573:6675   */\n      pop\n      pop\n      jump\t// out\n        /* \"#utility.yul\":6681:6840   */\n    tag_183:\n        /* \"#utility.yul\":6755:6766   */\n      0x00\n        /* \"#utility.yul\":6789:6795   */\n      dup3\n        /* \"#utility.yul\":6784:6787   */\n      dup3\n        /* \"#utility.yul\":6777:6796   */\n      mstore\n        /* \"#utility.yul\":6829:6833   */\n      0x20\n        /* \"#utility.yul\":6824:6827   */\n      dup3\n        /* \"#utility.yul\":6820:6834   */\n      add\n        /* \"#utility.yul\":6805:6834   */\n      swap1\n      pop\n        /* \"#utility.yul\":6681:6840   */\n      swap3\n      swap2\n      pop\n      pop\n      jump\t// out\n        /* \"#utility.yul\":6846:7190   */\n    tag_184:\n        /* \"#utility.yul\":6924:6927   */\n      0x00\n        /* \"#utility.yul\":6952:6991   */\n      tag_269\n        /* \"#utility.yul\":6985:6990   */\n      dup3\n        /* \"#utility.yul\":6952:6991   */\n      tag_164\n      jump\t// in\n    tag_269:\n        /* \"#utility.yul\":7007:7068   */\n      tag_270\n        /* \"#utility.yul\":7061:7067   */\n      dup2\n        /* \"#utility.yul\":7056:7059   */\n      dup6\n        /* \"#utility.yul\":7007:7068   */\n      tag_183\n      jump\t// in\n    tag_270:\n        /* \"#utility.yul\":7000:7068   */\n      swap4\n      pop\n        /* \"#utility.yul\":7077:7129   */\n      tag_271\n        /* \"#utility.yul\":7122:7128   */\n      dup2\n        /* \"#utility.yul\":7117:7120   */\n      dup6\n        /* \"#utility.yul\":7110:7114   */\n      0x20\n        /* \"#utility.yul\":7103:7108   */\n      dup7\n        /* \"#utility.yul\":7099:7115   */\n      add\n        /* \"#utility.yul\":7077:7129   */\n      tag_166\n      jump\t// in\n    tag_271:\n        /* \"#utility.yul\":7154:7183   */\n      tag_272\n        /* \"#utility.yul\":7176:7182   */\n      dup2\n        /* \"#utility.yul\":7154:7183   */\n      tag_167\n      jump\t// in\n    tag_272:\n        /* \"#utility.yul\":7149:7152   */\n      dup5\n        /* \"#utility.yul\":7145:7184   */\n      add\n        /* \"#utility.yul\":7138:7184   */\n      swap2\n      pop\n        /* \"#utility.yul\":6928:7190   */\n      pop\n        /* \"#utility.yul\":6846:7190   */\n      swap3\n      swap2\n      pop\n      pop\n      jump\t// out\n        /* \"#utility.yul\":7270:8588   */\n    tag_185:\n        /* \"#utility.yul\":7393:7396   */\n      0x00\n        /* \"#utility.yul\":7429:7433   */\n      0xc0\n        /* \"#utility.yul\":7424:7427   */\n      dup4\n        /* \"#utility.yul\":7420:7434   */\n      add\n        /* \"#utility.yul\":7514:7518   */\n      0x00\n        /* \"#utility.yul\":7507:7512   */\n      dup4\n        /* \"#utility.yul\":7503:7519   */\n      add\n        /* \"#utility.yul\":7497:7520   */\n      mload\n        /* \"#utility.yul\":7533:7596   */\n      tag_274\n        /* \"#utility.yul\":7590:7594   */\n      0x00\n        /* \"#utility.yul\":7585:7588   */\n      dup7\n        /* \"#utility.yul\":7581:7595   */\n      add\n        /* \"#utility.yul\":7567:7579   */\n      dup3\n        /* \"#utility.yul\":7533:7596   */\n      tag_180\n      jump\t// in\n    tag_274:\n        /* \"#utility.yul\":7444:7606   */\n      pop\n        /* \"#utility.yul\":7690:7694   */\n      0x20\n        /* \"#utility.yul\":7683:7688   */\n      dup4\n        /* \"#utility.yul\":7679:7695   */\n      add\n        /* \"#utility.yul\":7673:7696   */\n      mload\n        /* \"#utility.yul\":7709:7772   */\n      tag_275\n        /* \"#utility.yul\":7766:7770   */\n      0x20\n        /* \"#utility.yul\":7761:7764   */\n      dup7\n        /* \"#utility.yul\":7757:7771   */\n      add\n        /* \"#utility.yul\":7743:7755   */\n      dup3\n        /* \"#utility.yul\":7709:7772   */\n      tag_181\n      jump\t// in\n    tag_275:\n        /* \"#utility.yul\":7616:7782   */\n      pop\n        /* \"#utility.yul\":7871:7875   */\n      0x40\n        /* \"#utility.yul\":7864:7869   */\n      dup4\n        /* \"#utility.yul\":7860:7876   */\n      add\n        /* \"#utility.yul\":7854:7877   */\n      mload\n        /* \"#utility.yul\":7890:7949   */\n      tag_276\n        /* \"#utility.yul\":7943:7947   */\n      0x40\n        /* \"#utility.yul\":7938:7941   */\n      dup7\n        /* \"#utility.yul\":7934:7948   */\n      add\n        /* \"#utility.yul\":7920:7932   */\n      dup3\n        /* \"#utility.yul\":7890:7949   */\n      tag_182\n      jump\t// in\n    tag_276:\n        /* \"#utility.yul\":7792:7959   */\n      pop\n        /* \"#utility.yul\":8047:8051   */\n      0x60\n        /* \"#utility.yul\":8040:8045   */\n      dup4\n        /* \"#utility.yul\":8036:8052   */\n      add\n        /* \"#utility.yul\":8030:8053   */\n      mload\n        /* \"#utility.yul\":8066:8125   */\n      tag_277\n        /* \"#utility.yul\":8119:8123   */\n      0x60\n        /* \"#utility.yul\":8114:8117   */\n      dup7\n        /* \"#utility.yul\":8110:8124   */\n      add\n        /* \"#utility.yul\":8096:8108   */\n      dup3\n        /* \"#utility.yul\":8066:8125   */\n      tag_182\n      jump\t// in\n    tag_277:\n        /* \"#utility.yul\":7969:8135   */\n      pop\n        /* \"#utility.yul\":8218:8222   */\n      0x80\n        /* \"#utility.yul\":8211:8216   */\n      dup4\n        /* \"#utility.yul\":8207:8223   */\n      add\n        /* \"#utility.yul\":8201:8224   */\n      mload\n        /* \"#utility.yul\":8271:8274   */\n      dup5\n        /* \"#utility.yul\":8265:8269   */\n      dup3\n        /* \"#utility.yul\":8261:8275   */\n      sub\n        /* \"#utility.yul\":8254:8258   */\n      0x80\n        /* \"#utility.yul\":8249:8252   */\n      dup7\n        /* \"#utility.yul\":8245:8259   */\n      add\n        /* \"#utility.yul\":8238:8276   */\n      mstore\n        /* \"#utility.yul\":8297:8370   */\n      tag_278\n        /* \"#utility.yul\":8365:8369   */\n      dup3\n        /* \"#utility.yul\":8351:8363   */\n      dup3\n        /* \"#utility.yul\":8297:8370   */\n      tag_184\n      jump\t// in\n    tag_278:\n        /* \"#utility.yul\":8289:8370   */\n      swap2\n      pop\n        /* \"#utility.yul\":8145:8381   */\n      pop\n        /* \"#utility.yul\":8469:8473   */\n      0xa0\n        /* \"#utility.yul\":8462:8467   */\n      dup4\n        /* \"#utility.yul\":8458:8474   */\n      add\n        /* \"#utility.yul\":8452:8475   */\n      mload\n        /* \"#utility.yul\":8488:8551   */\n      tag_279\n        /* \"#utility.yul\":8545:8549   */\n      0xa0\n        /* \"#utility.yul\":8540:8543   */\n      dup7\n        /* \"#utility.yul\":8536:8550   */\n      add\n        /* \"#utility.yul\":8522:8534   */\n      dup3\n        /* \"#utility.yul\":8488:8551   */\n      tag_180\n      jump\t// in\n    tag_279:\n        /* \"#utility.yul\":8391:8561   */\n      pop\n        /* \"#utility.yul\":8578:8582   */\n      dup1\n        /* \"#utility.yul\":8571:8582   */\n      swap2\n      pop\n        /* \"#utility.yul\":7398:8588   */\n      pop\n        /* \"#utility.yul\":7270:8588   */\n      swap3\n      swap2\n      pop\n      pop\n      jump\t// out\n        /* \"#utility.yul\":8594:8975   */\n    tag_64:\n        /* \"#utility.yul\":8741:8745   */\n      0x00\n        /* \"#utility.yul\":8779:8781   */\n      0x20\n        /* \"#utility.yul\":8768:8777   */\n      dup3\n        /* \"#utility.yul\":8764:8782   */\n      add\n        /* \"#utility.yul\":8756:8782   */\n      swap1\n      pop\n        /* \"#utility.yul\":8828:8837   */\n      dup2\n        /* \"#utility.yul\":8822:8826   */\n      dup2\n        /* \"#utility.yul\":8818:8838   */\n      sub\n        /* \"#utility.yul\":8814:8815   */\n      0x00\n        /* \"#utility.yul\":8803:8812   */\n      dup4\n        /* \"#utility.yul\":8799:8816   */\n      add\n        /* \"#utility.yul\":8792:8839   */\n      mstore\n        /* \"#utility.yul\":8856:8968   */\n      tag_281\n        /* \"#utility.yul\":8963:8967   */\n      dup2\n        /* \"#utility.yul\":8954:8960   */\n      dup5\n        /* \"#utility.yul\":8856:8968   */\n      tag_185\n      jump\t// in\n    tag_281:\n        /* \"#utility.yul\":8848:8968   */\n      swap1\n      pop\n        /* \"#utility.yul\":8594:8975   */\n      swap3\n      swap2\n      pop\n      pop\n      jump\t// out\n        /* \"#utility.yul\":8981:9592   */\n    tag_67:\n        /* \"#utility.yul\":9054:9060   */\n      0x00\n        /* \"#utility.yul\":9062:9068   */\n      dup1\n        /* \"#utility.yul\":9070:9076   */\n      0x00\n        /* \"#utility.yul\":9119:9121   */\n      0x60\n        /* \"#utility.yul\":9107:9116   */\n      dup5\n        /* \"#utility.yul\":9098:9105   */\n      dup7\n        /* \"#utility.yul\":9094:9117   */\n      sub\n        /* \"#utility.yul\":9090:9122   */\n      slt\n        /* \"#utility.yul\":9087:9206   */\n      iszero\n      tag_283\n      jumpi\n        /* \"#utility.yul\":9125:9204   */\n      tag_284\n      tag_159\n      jump\t// in\n    tag_284:\n        /* \"#utility.yul\":9087:9206   */\n    tag_283:\n        /* \"#utility.yul\":9245:9246   */\n      0x00\n        /* \"#utility.yul\":9270:9323   */\n      tag_285\n        /* \"#utility.yul\":9315:9322   */\n      dup7\n        /* \"#utility.yul\":9306:9312   */\n      dup3\n        /* \"#utility.yul\":9295:9304   */\n      dup8\n        /* \"#utility.yul\":9291:9313   */\n      add\n        /* \"#utility.yul\":9270:9323   */\n      tag_172\n      jump\t// in\n    tag_285:\n        /* \"#utility.yul\":9260:9323   */\n      swap4\n      pop\n        /* \"#utility.yul\":9216:9333   */\n      pop\n        /* \"#utility.yul\":9372:9374   */\n      0x20\n        /* \"#utility.yul\":9398:9449   */\n      tag_286\n        /* \"#utility.yul\":9441:9448   */\n      dup7\n        /* \"#utility.yul\":9432:9438   */\n      dup3\n        /* \"#utility.yul\":9421:9430   */\n      dup8\n        /* \"#utility.yul\":9417:9439   */\n      add\n        /* \"#utility.yul\":9398:9449   */\n      tag_163\n      jump\t// in\n    tag_286:\n        /* \"#utility.yul\":9388:9449   */\n      swap3\n      pop\n        /* \"#utility.yul\":9343:9459   */\n      pop\n        /* \"#utility.yul\":9498:9500   */\n      0x40\n        /* \"#utility.yul\":9524:9575   */\n      tag_287\n        /* \"#utility.yul\":9567:9574   */\n      dup7\n        /* \"#utility.yul\":9558:9564   */\n      dup3\n        /* \"#utility.yul\":9547:9556   */\n      dup8\n        /* \"#utility.yul\":9543:9565   */\n      add\n        /* \"#utility.yul\":9524:9575   */\n      tag_163\n      jump\t// in\n    tag_287:\n        /* \"#utility.yul\":9514:9575   */\n      swap2\n      pop\n        /* \"#utility.yul\":9469:9585   */\n      pop\n        /* \"#utility.yul\":8981:9592   */\n      swap3\n      pop\n      swap3\n      pop\n      swap3\n      jump\t// out\n        /* \"#utility.yul\":9598:10068   */\n    tag_75:\n        /* \"#utility.yul\":9664:9670   */\n      0x00\n        /* \"#utility.yul\":9672:9678   */\n      dup1\n        /* \"#utility.yul\":9721:9723   */\n      0x40\n        /* \"#utility.yul\":9709:9718   */\n      dup4\n        /* \"#utility.yul\":9700:9707   */\n      dup6\n        /* \"#utility.yul\":9696:9719   */\n      sub\n        /* \"#utility.yul\":9692:9724   */\n      slt\n        /* \"#utility.yul\":9689:9808   */\n      iszero\n      tag_289\n      jumpi\n        /* \"#utility.yul\":9727:9806   */\n      tag_290\n      tag_159\n      jump\t// in\n    tag_290:\n        /* \"#utility.yul\":9689:9808   */\n    tag_289:\n        /* \"#utility.yul\":9847:9848   */\n      0x00\n        /* \"#utility.yul\":9872:9925   */\n      tag_291\n        /* \"#utility.yul\":9917:9924   */\n      dup6\n        /* \"#utility.yul\":9908:9914   */\n      dup3\n        /* \"#utility.yul\":9897:9906   */\n      dup7\n        /* \"#utility.yul\":9893:9915   */\n      add\n        /* \"#utility.yul\":9872:9925   */\n      tag_172\n      jump\t// in\n    tag_291:\n        /* \"#utility.yul\":9862:9925   */\n      swap3\n      pop\n        /* \"#utility.yul\":9818:9935   */\n      pop\n        /* \"#utility.yul\":9974:9976   */\n      0x20\n        /* \"#utility.yul\":10000:10051   */\n      tag_292\n        /* \"#utility.yul\":10043:10050   */\n      dup6\n        /* \"#utility.yul\":10034:10040   */\n      dup3\n        /* \"#utility.yul\":10023:10032   */\n      dup7\n        /* \"#utility.yul\":10019:10041   */\n      add\n        /* \"#utility.yul\":10000:10051   */\n      tag_163\n      jump\t// in\n    tag_292:\n        /* \"#utility.yul\":9990:10051   */\n      swap2\n      pop\n        /* \"#utility.yul\":9945:10061   */\n      pop\n        /* \"#utility.yul\":9598:10068   */\n      swap3\n      pop\n      swap3\n      swap1\n      pop\n      jump\t// out\n        /* \"#utility.yul\":10074:10254   */\n    tag_186:\n        /* \"#utility.yul\":10122:10199   */\n      0x4e487b7100000000000000000000000000000000000000000000000000000000\n        /* \"#utility.yul\":10119:10120   */\n      0x00\n        /* \"#utility.yul\":10112:10200   */\n      mstore\n        /* \"#utility.yul\":10219:10223   */\n      0x22\n        /* \"#utility.yul\":10216:10217   */\n      0x04\n        /* \"#utility.yul\":10209:10224   */\n      mstore\n        /* \"#utility.yul\":10243:10247   */\n      0x24\n        /* \"#utility.yul\":10240:10241   */\n      0x00\n        /* \"#utility.yul\":10233:10248   */\n      revert\n        /* \"#utility.yul\":10260:10580   */\n    tag_80:\n        /* \"#utility.yul\":10304:10310   */\n      0x00\n        /* \"#utility.yul\":10341:10342   */\n      0x02\n        /* \"#utility.yul\":10335:10339   */\n      dup3\n        /* \"#utility.yul\":10331:10343   */\n      div\n        /* \"#utility.yul\":10321:10343   */\n      swap1\n      pop\n        /* \"#utility.yul\":10388:10389   */\n      0x01\n        /* \"#utility.yul\":10382:10386   */\n      dup3\n        /* \"#utility.yul\":10378:10390   */\n      and\n        /* \"#utility.yul\":10409:10427   */\n      dup1\n        /* \"#utility.yul\":10399:10480   */\n      tag_295\n      jumpi\n        /* \"#utility.yul\":10465:10469   */\n      0x7f\n        /* \"#utility.yul\":10457:10463   */\n      dup3\n        /* \"#utility.yul\":10453:10470   */\n      and\n        /* \"#utility.yul\":10443:10470   */\n      swap2\n      pop\n        /* \"#utility.yul\":10399:10480   */\n    tag_295:\n        /* \"#utility.yul\":10527:10529   */\n      0x20\n        /* \"#utility.yul\":10519:10525   */\n      dup3\n        /* \"#utility.yul\":10516:10530   */\n      lt\n        /* \"#utility.yul\":10496:10514   */\n      dup2\n        /* \"#utility.yul\":10493:10531   */\n      eq\n        /* \"#utility.yul\":10490:10574   */\n      iszero\n      tag_296\n      jumpi\n        /* \"#utility.yul\":10546:10564   */\n      tag_297\n      tag_186\n      jump\t// in\n    tag_297:\n        /* \"#utility.yul\":10490:10574   */\n    tag_296:\n        /* \"#utility.yul\":10311:10580   */\n      pop\n        /* \"#utility.yul\":10260:10580   */\n      swap2\n      swap1\n      pop\n      jump\t// out\n        /* \"#utility.yul\":10586:10766   */\n    tag_187:\n        /* \"#utility.yul\":10634:10711   */\n      0x4e487b7100000000000000000000000000000000000000000000000000000000\n        /* \"#utility.yul\":10631:10632   */\n      0x00\n        /* \"#utility.yul\":10624:10712   */\n      mstore\n        /* \"#utility.yul\":10731:10735   */\n      0x11\n        /* \"#utility.yul\":10728:10729   */\n      0x04\n        /* \"#utility.yul\":10721:10736   */\n      mstore\n        /* \"#utility.yul\":10755:10759   */\n      0x24\n        /* \"#utility.yul\":10752:10753   */\n      0x00\n        /* \"#utility.yul\":10745:10760   */\n      revert\n        /* \"#utility.yul\":10772:11077   */\n    tag_101:\n        /* \"#utility.yul\":10812:10815   */\n      0x00\n        /* \"#utility.yul\":10831:10851   */\n      tag_300\n        /* \"#utility.yul\":10849:10850   */\n      dup3\n        /* \"#utility.yul\":10831:10851   */\n      tag_179\n      jump\t// in\n    tag_300:\n        /* \"#utility.yul\":10826:10851   */\n      swap2\n      pop\n        /* \"#utility.yul\":10865:10885   */\n      tag_301\n        /* \"#utility.yul\":10883:10884   */\n      dup4\n        /* \"#utility.yul\":10865:10885   */\n      tag_179\n      jump\t// in\n    tag_301:\n        /* \"#utility.yul\":10860:10885   */\n      swap3\n      pop\n        /* \"#utility.yul\":11019:11020   */\n      dup3\n        /* \"#utility.yul\":10951:11017   */\n      0xffffffffffffffffffffffffffffffffffffffffffffffffffffffffffffffff\n        /* \"#utility.yul\":10947:11021   */\n      sub\n        /* \"#utility.yul\":10944:10945   */\n      dup3\n        /* \"#utility.yul\":10941:11022   */\n      gt\n        /* \"#utility.yul\":10938:11045   */\n      iszero\n      tag_302\n      jumpi\n        /* \"#utility.yul\":11025:11043   */\n      tag_303\n      tag_187\n      jump\t// in\n    tag_303:\n        /* \"#utility.yul\":10938:11045   */\n    tag_302:\n        /* \"#utility.yul\":11069:11070   */\n      dup3\n        /* \"#utility.yul\":11066:11067   */\n      dup3\n        /* \"#utility.yul\":11062:11071   */\n      add\n        /* \"#utility.yul\":11055:11071   */\n      swap1\n      pop\n        /* \"#utility.yul\":10772:11077   */\n      swap3\n      swap2\n      pop\n      pop\n      jump\t// out\n\n    auxdata: 0xa264697066735822122030c7e1a34e9af2e574932fa13bf4839cf682f7efd41e0c017710d12ac6dd250c64736f6c634300080a0033\n}\n",
				"bytecode": {
					"linkReferences": {},
					"object": "60806040523480156200001157600080fd5b50336000806101000a81548173ffffffffffffffffffffffffffffffffffffffff021916908373ffffffffffffffffffffffffffffffffffffffff16021790555060018060003373ffffffffffffffffffffffffffffffffffffffff1673ffffffffffffffffffffffffffffffffffffffff16815260200190815260200160002060006101000a81548160ff02191690831515021790555060016002819055506040518060400160405280600681526020017f5046495a45520000000000000000000000000000000000000000000000000000815250600360008060ff168152602001908152602001600020908051906020019062000112929190620003cd565b506040518060400160405280600781526020017f4d4f4445524e410000000000000000000000000000000000000000000000000081525060036000600160ff168152602001908152602001600020908051906020019062000175929190620003cd565b506040518060400160405280600781526020017f4a414e5353454e0000000000000000000000000000000000000000000000000081525060036000600260ff1681526020019081526020016000209080519060200190620001d8929190620003cd565b506040518060400160405280600b81526020017f41535452415a454e45434100000000000000000000000000000000000000000081525060036000600360ff16815260200190815260200160002090805190602001906200023b929190620003cd565b506040518060400160405280600481526020017f4e6f6e6500000000000000000000000000000000000000000000000000000000815250600460008060ff16815260200190815260200160002090805190602001906200029d929190620003cd565b506040518060400160405280600a81526020017f66697273742073686f740000000000000000000000000000000000000000000081525060046000600160ff168152602001908152602001600020908051906020019062000300929190620003cd565b506040518060400160405280600b81526020017f7365636f6e642073686f7400000000000000000000000000000000000000000081525060046000600260ff168152602001908152602001600020908051906020019062000363929190620003cd565b506040518060400160405280600a81526020017f74686972642073686f740000000000000000000000000000000000000000000081525060046000600360ff1681526020019081526020016000209080519060200190620003c6929190620003cd565b50620004e2565b828054620003db90620004ac565b90600052602060002090601f016020900481019282620003ff57600085556200044b565b82601f106200041a57805160ff19168380011785556200044b565b828001600101855582156200044b579182015b828111156200044a5782518255916020019190600101906200042d565b5b5090506200045a91906200045e565b5090565b5b80821115620004795760008160009055506001016200045f565b5090565b7f4e487b7100000000000000000000000000000000000000000000000000000000600052602260045260246000fd5b60006002820490506001821680620004c557607f821691505b60208210811415620004dc57620004db6200047d565b5b50919050565b61165880620004f26000396000f3fe608060405234801561001057600080fd5b50600436106100cf5760003560e01c806359a7aef31161008c578063ccdad14b11610066578063ccdad14b14610284578063d9c45826146102b4578063f2fde38b146102e4578063ff63e7a814610300576100cf565b806359a7aef3146101f4578063877b9a6714610224578063a30e2e5414610254576100cf565b806305183a29146100d457806320694db01461010457806334becfb414610134578063361459961461016457806338a7543e146101945780633f8a37dc146101c4575b600080fd5b6100ee60048036038101906100e99190611087565b610330565b6040516100fb919061114d565b60405180910390f35b61011e600480360381019061011991906111cd565b6103db565b60405161012b9190611215565b60405180910390f35b61014e600480360381019061014991906111cd565b610536565b60405161015b9190611215565b60405180910390f35b61017e60048036038101906101799190611295565b610692565b60405161018b9190611215565b60405180910390f35b6101ae60048036038101906101a991906111cd565b6107ce565b6040516101bb9190611215565b60405180910390f35b6101de60048036038101906101d99190611087565b6107ee565b6040516101eb919061114d565b60405180910390f35b61020e6004803603810190610209919061131d565b610899565b60405161021b9190611215565b60405180910390f35b61023e600480360381019061023991906111cd565b61091a565b60405161024b9190611215565b60405180910390f35b61026e6004803603810190610269919061131d565b610970565b60405161027b9190611215565b60405180910390f35b61029e600480360381019061029991906111cd565b6109f1565b6040516102ab9190611487565b60405180910390f35b6102ce60048036038101906102c991906114a9565b610b80565b6040516102db9190611215565b60405180910390f35b6102fe60048036038101906102f991906111cd565b610ca4565b005b61031a600480360381019061031591906114fc565b610e4c565b6040516103279190611215565b60405180910390f35b6060600460008360ff1660ff16815260200190815260200160002080546103569061156b565b80601f01602080910402602001604051908101604052809291908181526020018280546103829061156b565b80156103cf5780601f106103a4576101008083540402835291602001916103cf565b820191906000526020600020905b8154815290600101906020018083116103b257829003601f168201915b50505050509050919050565b60008060009054906101000a900473ffffffffffffffffffffffffffffffffffffffff1673ffffffffffffffffffffffffffffffffffffffff163373ffffffffffffffffffffffffffffffffffffffff161461043657600080fd5b60001515600160008473ffffffffffffffffffffffffffffffffffffffff1673ffffffffffffffffffffffffffffffffffffffff16815260200190815260200160002060009054906101000a900460ff1615151461049357600080fd5b60018060008473ffffffffffffffffffffffffffffffffffffffff1673ffffffffffffffffffffffffffffffffffffffff16815260200190815260200160002060006101000a81548160ff0219169083151502179055508173ffffffffffffffffffffffffffffffffffffffff167f27aa0506e4da65b95bd4f61c697076f8c7dcb69b2c0937d11efa9ceaa3bf5a9560405160405180910390a260019050919050565b60008060009054906101000a900473ffffffffffffffffffffffffffffffffffffffff1673ffffffffffffffffffffffffffffffffffffffff163373ffffffffffffffffffffffffffffffffffffffff161461059157600080fd5b60011515600160008473ffffffffffffffffffffffffffffffffffffffff1673ffffffffffffffffffffffffffffffffffffffff16815260200190815260200160002060009054906101000a900460ff161515146105ee57600080fd5b6000600160008473ffffffffffffffffffffffffffffffffffffffff1673ffffffffffffffffffffffffffffffffffffffff16815260200190815260200160002060006101000a81548160ff0219169083151502179055508173ffffffffffffffffffffffffffffffffffffffff167fee5d7d94405e51eec1bd7f59c36572787d25afb6c85e3a897bb782f08aac7d4460405160405180910390a260019050919050565b6000600115156106a13361091a565b1515146106ad57600080fd5b6000600560008873ffffffffffffffffffffffffffffffffffffffff1673ffffffffffffffffffffffffffffffffffffffff1681526020019081526020016000209050600081600001541461070157600080fd5b6002548160000181905550338160010160006101000a81548173ffffffffffffffffffffffffffffffffffffffff021916908373ffffffffffffffffffffffffffffffffffffffff160217905550858160010160146101000a81548160ff021916908360ff160217905550848160010160156101000a81548160ff021916908360ff160217905550838382600201919061079c929190610f4f565b504281600301819055506001600260008282546107b991906115cc565b92505081905550600191505095945050505050565b60016020528060005260406000206000915054906101000a900460ff1681565b6060600360008360ff1660ff16815260200190815260200160002080546108149061156b565b80601f01602080910402602001604051908101604052809291908181526020018280546108409061156b565b801561088d5780601f106108625761010080835404028352916020019161088d565b820191906000526020600020905b81548152906001019060200180831161087057829003601f168201915b50505050509050919050565b6000600115156108a83361091a565b1515146108b457600080fd5b6000600360008660ff1660ff16815260200190815260200160002080546108da9061156b565b9050146108e657600080fd5b8282600360008760ff1660ff168152602001908152602001600020919061090e929190610f4f565b50600190509392505050565b6000600160008373ffffffffffffffffffffffffffffffffffffffff1673ffffffffffffffffffffffffffffffffffffffff16815260200190815260200160002060009054906101000a900460ff169050919050565b60006001151561097f3361091a565b15151461098b57600080fd5b6000600460008660ff1660ff16815260200190815260200160002080546109b19061156b565b9050146109bd57600080fd5b8282600460008760ff1660ff16815260200190815260200160002091906109e5929190610f4f565b50600190509392505050565b6109f9610fd5565b600560008373ffffffffffffffffffffffffffffffffffffffff1673ffffffffffffffffffffffffffffffffffffffff1681526020019081526020016000206040518060c0016040529081600082015481526020016001820160009054906101000a900473ffffffffffffffffffffffffffffffffffffffff1673ffffffffffffffffffffffffffffffffffffffff1673ffffffffffffffffffffffffffffffffffffffff1681526020016001820160149054906101000a900460ff1660ff1660ff1681526020016001820160159054906101000a900460ff1660ff1660ff168152602001600282018054610aed9061156b565b80601f0160208091040260200160405190810160405280929190818152602001828054610b199061156b565b8015610b665780601f10610b3b57610100808354040283529160200191610b66565b820191906000526020600020905b815481529060010190602001808311610b4957829003601f168201915b505050505081526020016003820154815250509050919050565b600080600560008673ffffffffffffffffffffffffffffffffffffffff1673ffffffffffffffffffffffffffffffffffffffff168152602001908152602001600020600001541415610bd157600080fd5b8260ff16600560008673ffffffffffffffffffffffffffffffffffffffff1673ffffffffffffffffffffffffffffffffffffffff16815260200190815260200160002060010160149054906101000a900460ff1660ff16148015610c8a57508160ff16600560008673ffffffffffffffffffffffffffffffffffffffff1673ffffffffffffffffffffffffffffffffffffffff16815260200190815260200160002060010160159054906101000a900460ff1660ff1610155b15610c985760019050610c9d565b600090505b9392505050565b60008054906101000a900473ffffffffffffffffffffffffffffffffffffffff1673ffffffffffffffffffffffffffffffffffffffff163373ffffffffffffffffffffffffffffffffffffffff1614610cfc57600080fd5b60008054906101000a900473ffffffffffffffffffffffffffffffffffffffff1673ffffffffffffffffffffffffffffffffffffffff168173ffffffffffffffffffffffffffffffffffffffff161415610d5557600080fd5b600073ffffffffffffffffffffffffffffffffffffffff168173ffffffffffffffffffffffffffffffffffffffff161415610d8f57600080fd5b806000806101000a81548173ffffffffffffffffffffffffffffffffffffffff021916908373ffffffffffffffffffffffffffffffffffffffff1602179055508073ffffffffffffffffffffffffffffffffffffffff1660008054906101000a900473ffffffffffffffffffffffffffffffffffffffff1673ffffffffffffffffffffffffffffffffffffffff167f2ae143016adc0aa482e6ba5d9a350f3e3122aeb005ca4bf47d1d7b8221bce47260405160405180910390a350565b600060011515610e5b3361091a565b151514610e6757600080fd5b6000600560008573ffffffffffffffffffffffffffffffffffffffff1673ffffffffffffffffffffffffffffffffffffffff168152602001908152602001600020600001541415610eb757600080fd5b6000600460008460ff1660ff1681526020019081526020016000208054610edd9061156b565b90501415610eea57600080fd5b81600560008573ffffffffffffffffffffffffffffffffffffffff1673ffffffffffffffffffffffffffffffffffffffff16815260200190815260200160002060010160156101000a81548160ff021916908360ff1602179055506001905092915050565b828054610f5b9061156b565b90600052602060002090601f016020900481019282610f7d5760008555610fc4565b82601f10610f9657803560ff1916838001178555610fc4565b82800160010185558215610fc4579182015b82811115610fc3578235825591602001919060010190610fa8565b5b509050610fd19190611027565b5090565b6040518060c0016040528060008152602001600073ffffffffffffffffffffffffffffffffffffffff168152602001600060ff168152602001600060ff16815260200160608152602001600081525090565b5b80821115611040576000816000905550600101611028565b5090565b600080fd5b600080fd5b600060ff82169050919050565b6110648161104e565b811461106f57600080fd5b50565b6000813590506110818161105b565b92915050565b60006020828403121561109d5761109c611044565b5b60006110ab84828501611072565b91505092915050565b600081519050919050565b600082825260208201905092915050565b60005b838110156110ee5780820151818401526020810190506110d3565b838111156110fd576000848401525b50505050565b6000601f19601f8301169050919050565b600061111f826110b4565b61112981856110bf565b93506111398185602086016110d0565b61114281611103565b840191505092915050565b600060208201905081810360008301526111678184611114565b905092915050565b600073ffffffffffffffffffffffffffffffffffffffff82169050919050565b600061119a8261116f565b9050919050565b6111aa8161118f565b81146111b557600080fd5b50565b6000813590506111c7816111a1565b92915050565b6000602082840312156111e3576111e2611044565b5b60006111f1848285016111b8565b91505092915050565b60008115159050919050565b61120f816111fa565b82525050565b600060208201905061122a6000830184611206565b92915050565b600080fd5b600080fd5b600080fd5b60008083601f84011261125557611254611230565b5b8235905067ffffffffffffffff81111561127257611271611235565b5b60208301915083600182028301111561128e5761128d61123a565b5b9250929050565b6000806000806000608086880312156112b1576112b0611044565b5b60006112bf888289016111b8565b95505060206112d088828901611072565b94505060406112e188828901611072565b935050606086013567ffffffffffffffff81111561130257611301611049565b5b61130e8882890161123f565b92509250509295509295909350565b60008060006040848603121561133657611335611044565b5b600061134486828701611072565b935050602084013567ffffffffffffffff81111561136557611364611049565b5b6113718682870161123f565b92509250509250925092565b6000819050919050565b6113908161137d565b82525050565b61139f8161118f565b82525050565b6113ae8161104e565b82525050565b600082825260208201905092915050565b60006113d0826110b4565b6113da81856113b4565b93506113ea8185602086016110d0565b6113f381611103565b840191505092915050565b600060c0830160008301516114166000860182611387565b5060208301516114296020860182611396565b50604083015161143c60408601826113a5565b50606083015161144f60608601826113a5565b506080830151848203608086015261146782826113c5565b91505060a083015161147c60a0860182611387565b508091505092915050565b600060208201905081810360008301526114a181846113fe565b905092915050565b6000806000606084860312156114c2576114c1611044565b5b60006114d0868287016111b8565b93505060206114e186828701611072565b92505060406114f286828701611072565b9150509250925092565b6000806040838503121561151357611512611044565b5b6000611521858286016111b8565b925050602061153285828601611072565b9150509250929050565b7f4e487b7100000000000000000000000000000000000000000000000000000000600052602260045260246000fd5b6000600282049050600182168061158357607f821691505b602082108114156115975761159661153c565b5b50919050565b7f4e487b7100000000000000000000000000000000000000000000000000000000600052601160045260246000fd5b60006115d78261137d565b91506115e28361137d565b9250827fffffffffffffffffffffffffffffffffffffffffffffffffffffffffffffffff038211156116175761161661159d565b5b82820190509291505056fea264697066735822122030c7e1a34e9af2e574932fa13bf4839cf682f7efd41e0c017710d12ac6dd250c64736f6c634300080a0033",
					"opcodes": "PUSH1 0x80 PUSH1 0x40 MSTORE CALLVALUE DUP1 ISZERO PUSH3 0x11 JUMPI PUSH1 0x0 DUP1 REVERT JUMPDEST POP CALLER PUSH1 0x0 DUP1 PUSH2 0x100 EXP DUP2 SLOAD DUP2 PUSH20 0xFFFFFFFFFFFFFFFFFFFFFFFFFFFFFFFFFFFFFFFF MUL NOT AND SWAP1 DUP4 PUSH20 0xFFFFFFFFFFFFFFFFFFFFFFFFFFFFFFFFFFFFFFFF AND MUL OR SWAP1 SSTORE POP PUSH1 0x1 DUP1 PUSH1 0x0 CALLER PUSH20 0xFFFFFFFFFFFFFFFFFFFFFFFFFFFFFFFFFFFFFFFF AND PUSH20 0xFFFFFFFFFFFFFFFFFFFFFFFFFFFFFFFFFFFFFFFF AND DUP2 MSTORE PUSH1 0x20 ADD SWAP1 DUP2 MSTORE PUSH1 0x20 ADD PUSH1 0x0 KECCAK256 PUSH1 0x0 PUSH2 0x100 EXP DUP2 SLOAD DUP2 PUSH1 0xFF MUL NOT AND SWAP1 DUP4 ISZERO ISZERO MUL OR SWAP1 SSTORE POP PUSH1 0x1 PUSH1 0x2 DUP2 SWAP1 SSTORE POP PUSH1 0x40 MLOAD DUP1 PUSH1 0x40 ADD PUSH1 0x40 MSTORE DUP1 PUSH1 0x6 DUP2 MSTORE PUSH1 0x20 ADD PUSH32 0x5046495A45520000000000000000000000000000000000000000000000000000 DUP2 MSTORE POP PUSH1 0x3 PUSH1 0x0 DUP1 PUSH1 0xFF AND DUP2 MSTORE PUSH1 0x20 ADD SWAP1 DUP2 MSTORE PUSH1 0x20 ADD PUSH1 0x0 KECCAK256 SWAP1 DUP1 MLOAD SWAP1 PUSH1 0x20 ADD SWAP1 PUSH3 0x112 SWAP3 SWAP2 SWAP1 PUSH3 0x3CD JUMP JUMPDEST POP PUSH1 0x40 MLOAD DUP1 PUSH1 0x40 ADD PUSH1 0x40 MSTORE DUP1 PUSH1 0x7 DUP2 MSTORE PUSH1 0x20 ADD PUSH32 0x4D4F4445524E4100000000000000000000000000000000000000000000000000 DUP2 MSTORE POP PUSH1 0x3 PUSH1 0x0 PUSH1 0x1 PUSH1 0xFF AND DUP2 MSTORE PUSH1 0x20 ADD SWAP1 DUP2 MSTORE PUSH1 0x20 ADD PUSH1 0x0 KECCAK256 SWAP1 DUP1 MLOAD SWAP1 PUSH1 0x20 ADD SWAP1 PUSH3 0x175 SWAP3 SWAP2 SWAP1 PUSH3 0x3CD JUMP JUMPDEST POP PUSH1 0x40 MLOAD DUP1 PUSH1 0x40 ADD PUSH1 0x40 MSTORE DUP1 PUSH1 0x7 DUP2 MSTORE PUSH1 0x20 ADD PUSH32 0x4A414E5353454E00000000000000000000000000000000000000000000000000 DUP2 MSTORE POP PUSH1 0x3 PUSH1 0x0 PUSH1 0x2 PUSH1 0xFF AND DUP2 MSTORE PUSH1 0x20 ADD SWAP1 DUP2 MSTORE PUSH1 0x20 ADD PUSH1 0x0 KECCAK256 SWAP1 DUP1 MLOAD SWAP1 PUSH1 0x20 ADD SWAP1 PUSH3 0x1D8 SWAP3 SWAP2 SWAP1 PUSH3 0x3CD JUMP JUMPDEST POP PUSH1 0x40 MLOAD DUP1 PUSH1 0x40 ADD PUSH1 0x40 MSTORE DUP1 PUSH1 0xB DUP2 MSTORE PUSH1 0x20 ADD PUSH32 0x41535452415A454E454341000000000000000000000000000000000000000000 DUP2 MSTORE POP PUSH1 0x3 PUSH1 0x0 PUSH1 0x3 PUSH1 0xFF AND DUP2 MSTORE PUSH1 0x20 ADD SWAP1 DUP2 MSTORE PUSH1 0x20 ADD PUSH1 0x0 KECCAK256 SWAP1 DUP1 MLOAD SWAP1 PUSH1 0x20 ADD SWAP1 PUSH3 0x23B SWAP3 SWAP2 SWAP1 PUSH3 0x3CD JUMP JUMPDEST POP PUSH1 0x40 MLOAD DUP1 PUSH1 0x40 ADD PUSH1 0x40 MSTORE DUP1 PUSH1 0x4 DUP2 MSTORE PUSH1 0x20 ADD PUSH32 0x4E6F6E6500000000000000000000000000000000000000000000000000000000 DUP2 MSTORE POP PUSH1 0x4 PUSH1 0x0 DUP1 PUSH1 0xFF AND DUP2 MSTORE PUSH1 0x20 ADD SWAP1 DUP2 MSTORE PUSH1 0x20 ADD PUSH1 0x0 KECCAK256 SWAP1 DUP1 MLOAD SWAP1 PUSH1 0x20 ADD SWAP1 PUSH3 0x29D SWAP3 SWAP2 SWAP1 PUSH3 0x3CD JUMP JUMPDEST POP PUSH1 0x40 MLOAD DUP1 PUSH1 0x40 ADD PUSH1 0x40 MSTORE DUP1 PUSH1 0xA DUP2 MSTORE PUSH1 0x20 ADD PUSH32 0x66697273742073686F7400000000000000000000000000000000000000000000 DUP2 MSTORE POP PUSH1 0x4 PUSH1 0x0 PUSH1 0x1 PUSH1 0xFF AND DUP2 MSTORE PUSH1 0x20 ADD SWAP1 DUP2 MSTORE PUSH1 0x20 ADD PUSH1 0x0 KECCAK256 SWAP1 DUP1 MLOAD SWAP1 PUSH1 0x20 ADD SWAP1 PUSH3 0x300 SWAP3 SWAP2 SWAP1 PUSH3 0x3CD JUMP JUMPDEST POP PUSH1 0x40 MLOAD DUP1 PUSH1 0x40 ADD PUSH1 0x40 MSTORE DUP1 PUSH1 0xB DUP2 MSTORE PUSH1 0x20 ADD PUSH32 0x7365636F6E642073686F74000000000000000000000000000000000000000000 DUP2 MSTORE POP PUSH1 0x4 PUSH1 0x0 PUSH1 0x2 PUSH1 0xFF AND DUP2 MSTORE PUSH1 0x20 ADD SWAP1 DUP2 MSTORE PUSH1 0x20 ADD PUSH1 0x0 KECCAK256 SWAP1 DUP1 MLOAD SWAP1 PUSH1 0x20 ADD SWAP1 PUSH3 0x363 SWAP3 SWAP2 SWAP1 PUSH3 0x3CD JUMP JUMPDEST POP PUSH1 0x40 MLOAD DUP1 PUSH1 0x40 ADD PUSH1 0x40 MSTORE DUP1 PUSH1 0xA DUP2 MSTORE PUSH1 0x20 ADD PUSH32 0x74686972642073686F7400000000000000000000000000000000000000000000 DUP2 MSTORE POP PUSH1 0x4 PUSH1 0x0 PUSH1 0x3 PUSH1 0xFF AND DUP2 MSTORE PUSH1 0x20 ADD SWAP1 DUP2 MSTORE PUSH1 0x20 ADD PUSH1 0x0 KECCAK256 SWAP1 DUP1 MLOAD SWAP1 PUSH1 0x20 ADD SWAP1 PUSH3 0x3C6 SWAP3 SWAP2 SWAP1 PUSH3 0x3CD JUMP JUMPDEST POP PUSH3 0x4E2 JUMP JUMPDEST DUP3 DUP1 SLOAD PUSH3 0x3DB SWAP1 PUSH3 0x4AC JUMP JUMPDEST SWAP1 PUSH1 0x0 MSTORE PUSH1 0x20 PUSH1 0x0 KECCAK256 SWAP1 PUSH1 0x1F ADD PUSH1 0x20 SWAP1 DIV DUP2 ADD SWAP3 DUP3 PUSH3 0x3FF JUMPI PUSH1 0x0 DUP6 SSTORE PUSH3 0x44B JUMP JUMPDEST DUP3 PUSH1 0x1F LT PUSH3 0x41A JUMPI DUP1 MLOAD PUSH1 0xFF NOT AND DUP4 DUP1 ADD OR DUP6 SSTORE PUSH3 0x44B JUMP JUMPDEST DUP3 DUP1 ADD PUSH1 0x1 ADD DUP6 SSTORE DUP3 ISZERO PUSH3 0x44B JUMPI SWAP2 DUP3 ADD JUMPDEST DUP3 DUP2 GT ISZERO PUSH3 0x44A JUMPI DUP3 MLOAD DUP3 SSTORE SWAP2 PUSH1 0x20 ADD SWAP2 SWAP1 PUSH1 0x1 ADD SWAP1 PUSH3 0x42D JUMP JUMPDEST JUMPDEST POP SWAP1 POP PUSH3 0x45A SWAP2 SWAP1 PUSH3 0x45E JUMP JUMPDEST POP SWAP1 JUMP JUMPDEST JUMPDEST DUP1 DUP3 GT ISZERO PUSH3 0x479 JUMPI PUSH1 0x0 DUP2 PUSH1 0x0 SWAP1 SSTORE POP PUSH1 0x1 ADD PUSH3 0x45F JUMP JUMPDEST POP SWAP1 JUMP JUMPDEST PUSH32 0x4E487B7100000000000000000000000000000000000000000000000000000000 PUSH1 0x0 MSTORE PUSH1 0x22 PUSH1 0x4 MSTORE PUSH1 0x24 PUSH1 0x0 REVERT JUMPDEST PUSH1 0x0 PUSH1 0x2 DUP3 DIV SWAP1 POP PUSH1 0x1 DUP3 AND DUP1 PUSH3 0x4C5 JUMPI PUSH1 0x7F DUP3 AND SWAP2 POP JUMPDEST PUSH1 0x20 DUP3 LT DUP2 EQ ISZERO PUSH3 0x4DC JUMPI PUSH3 0x4DB PUSH3 0x47D JUMP JUMPDEST JUMPDEST POP SWAP2 SWAP1 POP JUMP JUMPDEST PUSH2 0x1658 DUP1 PUSH3 0x4F2 PUSH1 0x0 CODECOPY PUSH1 0x0 RETURN INVALID PUSH1 0x80 PUSH1 0x40 MSTORE CALLVALUE DUP1 ISZERO PUSH2 0x10 JUMPI PUSH1 0x0 DUP1 REVERT JUMPDEST POP PUSH1 0x4 CALLDATASIZE LT PUSH2 0xCF JUMPI PUSH1 0x0 CALLDATALOAD PUSH1 0xE0 SHR DUP1 PUSH4 0x59A7AEF3 GT PUSH2 0x8C JUMPI DUP1 PUSH4 0xCCDAD14B GT PUSH2 0x66 JUMPI DUP1 PUSH4 0xCCDAD14B EQ PUSH2 0x284 JUMPI DUP1 PUSH4 0xD9C45826 EQ PUSH2 0x2B4 JUMPI DUP1 PUSH4 0xF2FDE38B EQ PUSH2 0x2E4 JUMPI DUP1 PUSH4 0xFF63E7A8 EQ PUSH2 0x300 JUMPI PUSH2 0xCF JUMP JUMPDEST DUP1 PUSH4 0x59A7AEF3 EQ PUSH2 0x1F4 JUMPI DUP1 PUSH4 0x877B9A67 EQ PUSH2 0x224 JUMPI DUP1 PUSH4 0xA30E2E54 EQ PUSH2 0x254 JUMPI PUSH2 0xCF JUMP JUMPDEST DUP1 PUSH4 0x5183A29 EQ PUSH2 0xD4 JUMPI DUP1 PUSH4 0x20694DB0 EQ PUSH2 0x104 JUMPI DUP1 PUSH4 0x34BECFB4 EQ PUSH2 0x134 JUMPI DUP1 PUSH4 0x36145996 EQ PUSH2 0x164 JUMPI DUP1 PUSH4 0x38A7543E EQ PUSH2 0x194 JUMPI DUP1 PUSH4 0x3F8A37DC EQ PUSH2 0x1C4 JUMPI JUMPDEST PUSH1 0x0 DUP1 REVERT JUMPDEST PUSH2 0xEE PUSH1 0x4 DUP1 CALLDATASIZE SUB DUP2 ADD SWAP1 PUSH2 0xE9 SWAP2 SWAP1 PUSH2 0x1087 JUMP JUMPDEST PUSH2 0x330 JUMP JUMPDEST PUSH1 0x40 MLOAD PUSH2 0xFB SWAP2 SWAP1 PUSH2 0x114D JUMP JUMPDEST PUSH1 0x40 MLOAD DUP1 SWAP2 SUB SWAP1 RETURN JUMPDEST PUSH2 0x11E PUSH1 0x4 DUP1 CALLDATASIZE SUB DUP2 ADD SWAP1 PUSH2 0x119 SWAP2 SWAP1 PUSH2 0x11CD JUMP JUMPDEST PUSH2 0x3DB JUMP JUMPDEST PUSH1 0x40 MLOAD PUSH2 0x12B SWAP2 SWAP1 PUSH2 0x1215 JUMP JUMPDEST PUSH1 0x40 MLOAD DUP1 SWAP2 SUB SWAP1 RETURN JUMPDEST PUSH2 0x14E PUSH1 0x4 DUP1 CALLDATASIZE SUB DUP2 ADD SWAP1 PUSH2 0x149 SWAP2 SWAP1 PUSH2 0x11CD JUMP JUMPDEST PUSH2 0x536 JUMP JUMPDEST PUSH1 0x40 MLOAD PUSH2 0x15B SWAP2 SWAP1 PUSH2 0x1215 JUMP JUMPDEST PUSH1 0x40 MLOAD DUP1 SWAP2 SUB SWAP1 RETURN JUMPDEST PUSH2 0x17E PUSH1 0x4 DUP1 CALLDATASIZE SUB DUP2 ADD SWAP1 PUSH2 0x179 SWAP2 SWAP1 PUSH2 0x1295 JUMP JUMPDEST PUSH2 0x692 JUMP JUMPDEST PUSH1 0x40 MLOAD PUSH2 0x18B SWAP2 SWAP1 PUSH2 0x1215 JUMP JUMPDEST PUSH1 0x40 MLOAD DUP1 SWAP2 SUB SWAP1 RETURN JUMPDEST PUSH2 0x1AE PUSH1 0x4 DUP1 CALLDATASIZE SUB DUP2 ADD SWAP1 PUSH2 0x1A9 SWAP2 SWAP1 PUSH2 0x11CD JUMP JUMPDEST PUSH2 0x7CE JUMP JUMPDEST PUSH1 0x40 MLOAD PUSH2 0x1BB SWAP2 SWAP1 PUSH2 0x1215 JUMP JUMPDEST PUSH1 0x40 MLOAD DUP1 SWAP2 SUB SWAP1 RETURN JUMPDEST PUSH2 0x1DE PUSH1 0x4 DUP1 CALLDATASIZE SUB DUP2 ADD SWAP1 PUSH2 0x1D9 SWAP2 SWAP1 PUSH2 0x1087 JUMP JUMPDEST PUSH2 0x7EE JUMP JUMPDEST PUSH1 0x40 MLOAD PUSH2 0x1EB SWAP2 SWAP1 PUSH2 0x114D JUMP JUMPDEST PUSH1 0x40 MLOAD DUP1 SWAP2 SUB SWAP1 RETURN JUMPDEST PUSH2 0x20E PUSH1 0x4 DUP1 CALLDATASIZE SUB DUP2 ADD SWAP1 PUSH2 0x209 SWAP2 SWAP1 PUSH2 0x131D JUMP JUMPDEST PUSH2 0x899 JUMP JUMPDEST PUSH1 0x40 MLOAD PUSH2 0x21B SWAP2 SWAP1 PUSH2 0x1215 JUMP JUMPDEST PUSH1 0x40 MLOAD DUP1 SWAP2 SUB SWAP1 RETURN JUMPDEST PUSH2 0x23E PUSH1 0x4 DUP1 CALLDATASIZE SUB DUP2 ADD SWAP1 PUSH2 0x239 SWAP2 SWAP1 PUSH2 0x11CD JUMP JUMPDEST PUSH2 0x91A JUMP JUMPDEST PUSH1 0x40 MLOAD PUSH2 0x24B SWAP2 SWAP1 PUSH2 0x1215 JUMP JUMPDEST PUSH1 0x40 MLOAD DUP1 SWAP2 SUB SWAP1 RETURN JUMPDEST PUSH2 0x26E PUSH1 0x4 DUP1 CALLDATASIZE SUB DUP2 ADD SWAP1 PUSH2 0x269 SWAP2 SWAP1 PUSH2 0x131D JUMP JUMPDEST PUSH2 0x970 JUMP JUMPDEST PUSH1 0x40 MLOAD PUSH2 0x27B SWAP2 SWAP1 PUSH2 0x1215 JUMP JUMPDEST PUSH1 0x40 MLOAD DUP1 SWAP2 SUB SWAP1 RETURN JUMPDEST PUSH2 0x29E PUSH1 0x4 DUP1 CALLDATASIZE SUB DUP2 ADD SWAP1 PUSH2 0x299 SWAP2 SWAP1 PUSH2 0x11CD JUMP JUMPDEST PUSH2 0x9F1 JUMP JUMPDEST PUSH1 0x40 MLOAD PUSH2 0x2AB SWAP2 SWAP1 PUSH2 0x1487 JUMP JUMPDEST PUSH1 0x40 MLOAD DUP1 SWAP2 SUB SWAP1 RETURN JUMPDEST PUSH2 0x2CE PUSH1 0x4 DUP1 CALLDATASIZE SUB DUP2 ADD SWAP1 PUSH2 0x2C9 SWAP2 SWAP1 PUSH2 0x14A9 JUMP JUMPDEST PUSH2 0xB80 JUMP JUMPDEST PUSH1 0x40 MLOAD PUSH2 0x2DB SWAP2 SWAP1 PUSH2 0x1215 JUMP JUMPDEST PUSH1 0x40 MLOAD DUP1 SWAP2 SUB SWAP1 RETURN JUMPDEST PUSH2 0x2FE PUSH1 0x4 DUP1 CALLDATASIZE SUB DUP2 ADD SWAP1 PUSH2 0x2F9 SWAP2 SWAP1 PUSH2 0x11CD JUMP JUMPDEST PUSH2 0xCA4 JUMP JUMPDEST STOP JUMPDEST PUSH2 0x31A PUSH1 0x4 DUP1 CALLDATASIZE SUB DUP2 ADD SWAP1 PUSH2 0x315 SWAP2 SWAP1 PUSH2 0x14FC JUMP JUMPDEST PUSH2 0xE4C JUMP JUMPDEST PUSH1 0x40 MLOAD PUSH2 0x327 SWAP2 SWAP1 PUSH2 0x1215 JUMP JUMPDEST PUSH1 0x40 MLOAD DUP1 SWAP2 SUB SWAP1 RETURN JUMPDEST PUSH1 0x60 PUSH1 0x4 PUSH1 0x0 DUP4 PUSH1 0xFF AND PUSH1 0xFF AND DUP2 MSTORE PUSH1 0x20 ADD SWAP1 DUP2 MSTORE PUSH1 0x20 ADD PUSH1 0x0 KECCAK256 DUP1 SLOAD PUSH2 0x356 SWAP1 PUSH2 0x156B JUMP JUMPDEST DUP1 PUSH1 0x1F ADD PUSH1 0x20 DUP1 SWAP2 DIV MUL PUSH1 0x20 ADD PUSH1 0x40 MLOAD SWAP1 DUP2 ADD PUSH1 0x40 MSTORE DUP1 SWAP3 SWAP2 SWAP1 DUP2 DUP2 MSTORE PUSH1 0x20 ADD DUP3 DUP1 SLOAD PUSH2 0x382 SWAP1 PUSH2 0x156B JUMP JUMPDEST DUP1 ISZERO PUSH2 0x3CF JUMPI DUP1 PUSH1 0x1F LT PUSH2 0x3A4 JUMPI PUSH2 0x100 DUP1 DUP4 SLOAD DIV MUL DUP4 MSTORE SWAP2 PUSH1 0x20 ADD SWAP2 PUSH2 0x3CF JUMP JUMPDEST DUP3 ADD SWAP2 SWAP1 PUSH1 0x0 MSTORE PUSH1 0x20 PUSH1 0x0 KECCAK256 SWAP1 JUMPDEST DUP2 SLOAD DUP2 MSTORE SWAP1 PUSH1 0x1 ADD SWAP1 PUSH1 0x20 ADD DUP1 DUP4 GT PUSH2 0x3B2 JUMPI DUP3 SWAP1 SUB PUSH1 0x1F AND DUP3 ADD SWAP2 JUMPDEST POP POP POP POP POP SWAP1 POP SWAP2 SWAP1 POP JUMP JUMPDEST PUSH1 0x0 DUP1 PUSH1 0x0 SWAP1 SLOAD SWAP1 PUSH2 0x100 EXP SWAP1 DIV PUSH20 0xFFFFFFFFFFFFFFFFFFFFFFFFFFFFFFFFFFFFFFFF AND PUSH20 0xFFFFFFFFFFFFFFFFFFFFFFFFFFFFFFFFFFFFFFFF AND CALLER PUSH20 0xFFFFFFFFFFFFFFFFFFFFFFFFFFFFFFFFFFFFFFFF AND EQ PUSH2 0x436 JUMPI PUSH1 0x0 DUP1 REVERT JUMPDEST PUSH1 0x0 ISZERO ISZERO PUSH1 0x1 PUSH1 0x0 DUP5 PUSH20 0xFFFFFFFFFFFFFFFFFFFFFFFFFFFFFFFFFFFFFFFF AND PUSH20 0xFFFFFFFFFFFFFFFFFFFFFFFFFFFFFFFFFFFFFFFF AND DUP2 MSTORE PUSH1 0x20 ADD SWAP1 DUP2 MSTORE PUSH1 0x20 ADD PUSH1 0x0 KECCAK256 PUSH1 0x0 SWAP1 SLOAD SWAP1 PUSH2 0x100 EXP SWAP1 DIV PUSH1 0xFF AND ISZERO ISZERO EQ PUSH2 0x493 JUMPI PUSH1 0x0 DUP1 REVERT JUMPDEST PUSH1 0x1 DUP1 PUSH1 0x0 DUP5 PUSH20 0xFFFFFFFFFFFFFFFFFFFFFFFFFFFFFFFFFFFFFFFF AND PUSH20 0xFFFFFFFFFFFFFFFFFFFFFFFFFFFFFFFFFFFFFFFF AND DUP2 MSTORE PUSH1 0x20 ADD SWAP1 DUP2 MSTORE PUSH1 0x20 ADD PUSH1 0x0 KECCAK256 PUSH1 0x0 PUSH2 0x100 EXP DUP2 SLOAD DUP2 PUSH1 0xFF MUL NOT AND SWAP1 DUP4 ISZERO ISZERO MUL OR SWAP1 SSTORE POP DUP2 PUSH20 0xFFFFFFFFFFFFFFFFFFFFFFFFFFFFFFFFFFFFFFFF AND PUSH32 0x27AA0506E4DA65B95BD4F61C697076F8C7DCB69B2C0937D11EFA9CEAA3BF5A95 PUSH1 0x40 MLOAD PUSH1 0x40 MLOAD DUP1 SWAP2 SUB SWAP1 LOG2 PUSH1 0x1 SWAP1 POP SWAP2 SWAP1 POP JUMP JUMPDEST PUSH1 0x0 DUP1 PUSH1 0x0 SWAP1 SLOAD SWAP1 PUSH2 0x100 EXP SWAP1 DIV PUSH20 0xFFFFFFFFFFFFFFFFFFFFFFFFFFFFFFFFFFFFFFFF AND PUSH20 0xFFFFFFFFFFFFFFFFFFFFFFFFFFFFFFFFFFFFFFFF AND CALLER PUSH20 0xFFFFFFFFFFFFFFFFFFFFFFFFFFFFFFFFFFFFFFFF AND EQ PUSH2 0x591 JUMPI PUSH1 0x0 DUP1 REVERT JUMPDEST PUSH1 0x1 ISZERO ISZERO PUSH1 0x1 PUSH1 0x0 DUP5 PUSH20 0xFFFFFFFFFFFFFFFFFFFFFFFFFFFFFFFFFFFFFFFF AND PUSH20 0xFFFFFFFFFFFFFFFFFFFFFFFFFFFFFFFFFFFFFFFF AND DUP2 MSTORE PUSH1 0x20 ADD SWAP1 DUP2 MSTORE PUSH1 0x20 ADD PUSH1 0x0 KECCAK256 PUSH1 0x0 SWAP1 SLOAD SWAP1 PUSH2 0x100 EXP SWAP1 DIV PUSH1 0xFF AND ISZERO ISZERO EQ PUSH2 0x5EE JUMPI PUSH1 0x0 DUP1 REVERT JUMPDEST PUSH1 0x0 PUSH1 0x1 PUSH1 0x0 DUP5 PUSH20 0xFFFFFFFFFFFFFFFFFFFFFFFFFFFFFFFFFFFFFFFF AND PUSH20 0xFFFFFFFFFFFFFFFFFFFFFFFFFFFFFFFFFFFFFFFF AND DUP2 MSTORE PUSH1 0x20 ADD SWAP1 DUP2 MSTORE PUSH1 0x20 ADD PUSH1 0x0 KECCAK256 PUSH1 0x0 PUSH2 0x100 EXP DUP2 SLOAD DUP2 PUSH1 0xFF MUL NOT AND SWAP1 DUP4 ISZERO ISZERO MUL OR SWAP1 SSTORE POP DUP2 PUSH20 0xFFFFFFFFFFFFFFFFFFFFFFFFFFFFFFFFFFFFFFFF AND PUSH32 0xEE5D7D94405E51EEC1BD7F59C36572787D25AFB6C85E3A897BB782F08AAC7D44 PUSH1 0x40 MLOAD PUSH1 0x40 MLOAD DUP1 SWAP2 SUB SWAP1 LOG2 PUSH1 0x1 SWAP1 POP SWAP2 SWAP1 POP JUMP JUMPDEST PUSH1 0x0 PUSH1 0x1 ISZERO ISZERO PUSH2 0x6A1 CALLER PUSH2 0x91A JUMP JUMPDEST ISZERO ISZERO EQ PUSH2 0x6AD JUMPI PUSH1 0x0 DUP1 REVERT JUMPDEST PUSH1 0x0 PUSH1 0x5 PUSH1 0x0 DUP9 PUSH20 0xFFFFFFFFFFFFFFFFFFFFFFFFFFFFFFFFFFFFFFFF AND PUSH20 0xFFFFFFFFFFFFFFFFFFFFFFFFFFFFFFFFFFFFFFFF AND DUP2 MSTORE PUSH1 0x20 ADD SWAP1 DUP2 MSTORE PUSH1 0x20 ADD PUSH1 0x0 KECCAK256 SWAP1 POP PUSH1 0x0 DUP2 PUSH1 0x0 ADD SLOAD EQ PUSH2 0x701 JUMPI PUSH1 0x0 DUP1 REVERT JUMPDEST PUSH1 0x2 SLOAD DUP2 PUSH1 0x0 ADD DUP2 SWAP1 SSTORE POP CALLER DUP2 PUSH1 0x1 ADD PUSH1 0x0 PUSH2 0x100 EXP DUP2 SLOAD DUP2 PUSH20 0xFFFFFFFFFFFFFFFFFFFFFFFFFFFFFFFFFFFFFFFF MUL NOT AND SWAP1 DUP4 PUSH20 0xFFFFFFFFFFFFFFFFFFFFFFFFFFFFFFFFFFFFFFFF AND MUL OR SWAP1 SSTORE POP DUP6 DUP2 PUSH1 0x1 ADD PUSH1 0x14 PUSH2 0x100 EXP DUP2 SLOAD DUP2 PUSH1 0xFF MUL NOT AND SWAP1 DUP4 PUSH1 0xFF AND MUL OR SWAP1 SSTORE POP DUP5 DUP2 PUSH1 0x1 ADD PUSH1 0x15 PUSH2 0x100 EXP DUP2 SLOAD DUP2 PUSH1 0xFF MUL NOT AND SWAP1 DUP4 PUSH1 0xFF AND MUL OR SWAP1 SSTORE POP DUP4 DUP4 DUP3 PUSH1 0x2 ADD SWAP2 SWAP1 PUSH2 0x79C SWAP3 SWAP2 SWAP1 PUSH2 0xF4F JUMP JUMPDEST POP TIMESTAMP DUP2 PUSH1 0x3 ADD DUP2 SWAP1 SSTORE POP PUSH1 0x1 PUSH1 0x2 PUSH1 0x0 DUP3 DUP3 SLOAD PUSH2 0x7B9 SWAP2 SWAP1 PUSH2 0x15CC JUMP JUMPDEST SWAP3 POP POP DUP2 SWAP1 SSTORE POP PUSH1 0x1 SWAP2 POP POP SWAP6 SWAP5 POP POP POP POP POP JUMP JUMPDEST PUSH1 0x1 PUSH1 0x20 MSTORE DUP1 PUSH1 0x0 MSTORE PUSH1 0x40 PUSH1 0x0 KECCAK256 PUSH1 0x0 SWAP2 POP SLOAD SWAP1 PUSH2 0x100 EXP SWAP1 DIV PUSH1 0xFF AND DUP2 JUMP JUMPDEST PUSH1 0x60 PUSH1 0x3 PUSH1 0x0 DUP4 PUSH1 0xFF AND PUSH1 0xFF AND DUP2 MSTORE PUSH1 0x20 ADD SWAP1 DUP2 MSTORE PUSH1 0x20 ADD PUSH1 0x0 KECCAK256 DUP1 SLOAD PUSH2 0x814 SWAP1 PUSH2 0x156B JUMP JUMPDEST DUP1 PUSH1 0x1F ADD PUSH1 0x20 DUP1 SWAP2 DIV MUL PUSH1 0x20 ADD PUSH1 0x40 MLOAD SWAP1 DUP2 ADD PUSH1 0x40 MSTORE DUP1 SWAP3 SWAP2 SWAP1 DUP2 DUP2 MSTORE PUSH1 0x20 ADD DUP3 DUP1 SLOAD PUSH2 0x840 SWAP1 PUSH2 0x156B JUMP JUMPDEST DUP1 ISZERO PUSH2 0x88D JUMPI DUP1 PUSH1 0x1F LT PUSH2 0x862 JUMPI PUSH2 0x100 DUP1 DUP4 SLOAD DIV MUL DUP4 MSTORE SWAP2 PUSH1 0x20 ADD SWAP2 PUSH2 0x88D JUMP JUMPDEST DUP3 ADD SWAP2 SWAP1 PUSH1 0x0 MSTORE PUSH1 0x20 PUSH1 0x0 KECCAK256 SWAP1 JUMPDEST DUP2 SLOAD DUP2 MSTORE SWAP1 PUSH1 0x1 ADD SWAP1 PUSH1 0x20 ADD DUP1 DUP4 GT PUSH2 0x870 JUMPI DUP3 SWAP1 SUB PUSH1 0x1F AND DUP3 ADD SWAP2 JUMPDEST POP POP POP POP POP SWAP1 POP SWAP2 SWAP1 POP JUMP JUMPDEST PUSH1 0x0 PUSH1 0x1 ISZERO ISZERO PUSH2 0x8A8 CALLER PUSH2 0x91A JUMP JUMPDEST ISZERO ISZERO EQ PUSH2 0x8B4 JUMPI PUSH1 0x0 DUP1 REVERT JUMPDEST PUSH1 0x0 PUSH1 0x3 PUSH1 0x0 DUP7 PUSH1 0xFF AND PUSH1 0xFF AND DUP2 MSTORE PUSH1 0x20 ADD SWAP1 DUP2 MSTORE PUSH1 0x20 ADD PUSH1 0x0 KECCAK256 DUP1 SLOAD PUSH2 0x8DA SWAP1 PUSH2 0x156B JUMP JUMPDEST SWAP1 POP EQ PUSH2 0x8E6 JUMPI PUSH1 0x0 DUP1 REVERT JUMPDEST DUP3 DUP3 PUSH1 0x3 PUSH1 0x0 DUP8 PUSH1 0xFF AND PUSH1 0xFF AND DUP2 MSTORE PUSH1 0x20 ADD SWAP1 DUP2 MSTORE PUSH1 0x20 ADD PUSH1 0x0 KECCAK256 SWAP2 SWAP1 PUSH2 0x90E SWAP3 SWAP2 SWAP1 PUSH2 0xF4F JUMP JUMPDEST POP PUSH1 0x1 SWAP1 POP SWAP4 SWAP3 POP POP POP JUMP JUMPDEST PUSH1 0x0 PUSH1 0x1 PUSH1 0x0 DUP4 PUSH20 0xFFFFFFFFFFFFFFFFFFFFFFFFFFFFFFFFFFFFFFFF AND PUSH20 0xFFFFFFFFFFFFFFFFFFFFFFFFFFFFFFFFFFFFFFFF AND DUP2 MSTORE PUSH1 0x20 ADD SWAP1 DUP2 MSTORE PUSH1 0x20 ADD PUSH1 0x0 KECCAK256 PUSH1 0x0 SWAP1 SLOAD SWAP1 PUSH2 0x100 EXP SWAP1 DIV PUSH1 0xFF AND SWAP1 POP SWAP2 SWAP1 POP JUMP JUMPDEST PUSH1 0x0 PUSH1 0x1 ISZERO ISZERO PUSH2 0x97F CALLER PUSH2 0x91A JUMP JUMPDEST ISZERO ISZERO EQ PUSH2 0x98B JUMPI PUSH1 0x0 DUP1 REVERT JUMPDEST PUSH1 0x0 PUSH1 0x4 PUSH1 0x0 DUP7 PUSH1 0xFF AND PUSH1 0xFF AND DUP2 MSTORE PUSH1 0x20 ADD SWAP1 DUP2 MSTORE PUSH1 0x20 ADD PUSH1 0x0 KECCAK256 DUP1 SLOAD PUSH2 0x9B1 SWAP1 PUSH2 0x156B JUMP JUMPDEST SWAP1 POP EQ PUSH2 0x9BD JUMPI PUSH1 0x0 DUP1 REVERT JUMPDEST DUP3 DUP3 PUSH1 0x4 PUSH1 0x0 DUP8 PUSH1 0xFF AND PUSH1 0xFF AND DUP2 MSTORE PUSH1 0x20 ADD SWAP1 DUP2 MSTORE PUSH1 0x20 ADD PUSH1 0x0 KECCAK256 SWAP2 SWAP1 PUSH2 0x9E5 SWAP3 SWAP2 SWAP1 PUSH2 0xF4F JUMP JUMPDEST POP PUSH1 0x1 SWAP1 POP SWAP4 SWAP3 POP POP POP JUMP JUMPDEST PUSH2 0x9F9 PUSH2 0xFD5 JUMP JUMPDEST PUSH1 0x5 PUSH1 0x0 DUP4 PUSH20 0xFFFFFFFFFFFFFFFFFFFFFFFFFFFFFFFFFFFFFFFF AND PUSH20 0xFFFFFFFFFFFFFFFFFFFFFFFFFFFFFFFFFFFFFFFF AND DUP2 MSTORE PUSH1 0x20 ADD SWAP1 DUP2 MSTORE PUSH1 0x20 ADD PUSH1 0x0 KECCAK256 PUSH1 0x40 MLOAD DUP1 PUSH1 0xC0 ADD PUSH1 0x40 MSTORE SWAP1 DUP2 PUSH1 0x0 DUP3 ADD SLOAD DUP2 MSTORE PUSH1 0x20 ADD PUSH1 0x1 DUP3 ADD PUSH1 0x0 SWAP1 SLOAD SWAP1 PUSH2 0x100 EXP SWAP1 DIV PUSH20 0xFFFFFFFFFFFFFFFFFFFFFFFFFFFFFFFFFFFFFFFF AND PUSH20 0xFFFFFFFFFFFFFFFFFFFFFFFFFFFFFFFFFFFFFFFF AND PUSH20 0xFFFFFFFFFFFFFFFFFFFFFFFFFFFFFFFFFFFFFFFF AND DUP2 MSTORE PUSH1 0x20 ADD PUSH1 0x1 DUP3 ADD PUSH1 0x14 SWAP1 SLOAD SWAP1 PUSH2 0x100 EXP SWAP1 DIV PUSH1 0xFF AND PUSH1 0xFF AND PUSH1 0xFF AND DUP2 MSTORE PUSH1 0x20 ADD PUSH1 0x1 DUP3 ADD PUSH1 0x15 SWAP1 SLOAD SWAP1 PUSH2 0x100 EXP SWAP1 DIV PUSH1 0xFF AND PUSH1 0xFF AND PUSH1 0xFF AND DUP2 MSTORE PUSH1 0x20 ADD PUSH1 0x2 DUP3 ADD DUP1 SLOAD PUSH2 0xAED SWAP1 PUSH2 0x156B JUMP JUMPDEST DUP1 PUSH1 0x1F ADD PUSH1 0x20 DUP1 SWAP2 DIV MUL PUSH1 0x20 ADD PUSH1 0x40 MLOAD SWAP1 DUP2 ADD PUSH1 0x40 MSTORE DUP1 SWAP3 SWAP2 SWAP1 DUP2 DUP2 MSTORE PUSH1 0x20 ADD DUP3 DUP1 SLOAD PUSH2 0xB19 SWAP1 PUSH2 0x156B JUMP JUMPDEST DUP1 ISZERO PUSH2 0xB66 JUMPI DUP1 PUSH1 0x1F LT PUSH2 0xB3B JUMPI PUSH2 0x100 DUP1 DUP4 SLOAD DIV MUL DUP4 MSTORE SWAP2 PUSH1 0x20 ADD SWAP2 PUSH2 0xB66 JUMP JUMPDEST DUP3 ADD SWAP2 SWAP1 PUSH1 0x0 MSTORE PUSH1 0x20 PUSH1 0x0 KECCAK256 SWAP1 JUMPDEST DUP2 SLOAD DUP2 MSTORE SWAP1 PUSH1 0x1 ADD SWAP1 PUSH1 0x20 ADD DUP1 DUP4 GT PUSH2 0xB49 JUMPI DUP3 SWAP1 SUB PUSH1 0x1F AND DUP3 ADD SWAP2 JUMPDEST POP POP POP POP POP DUP2 MSTORE PUSH1 0x20 ADD PUSH1 0x3 DUP3 ADD SLOAD DUP2 MSTORE POP POP SWAP1 POP SWAP2 SWAP1 POP JUMP JUMPDEST PUSH1 0x0 DUP1 PUSH1 0x5 PUSH1 0x0 DUP7 PUSH20 0xFFFFFFFFFFFFFFFFFFFFFFFFFFFFFFFFFFFFFFFF AND PUSH20 0xFFFFFFFFFFFFFFFFFFFFFFFFFFFFFFFFFFFFFFFF AND DUP2 MSTORE PUSH1 0x20 ADD SWAP1 DUP2 MSTORE PUSH1 0x20 ADD PUSH1 0x0 KECCAK256 PUSH1 0x0 ADD SLOAD EQ ISZERO PUSH2 0xBD1 JUMPI PUSH1 0x0 DUP1 REVERT JUMPDEST DUP3 PUSH1 0xFF AND PUSH1 0x5 PUSH1 0x0 DUP7 PUSH20 0xFFFFFFFFFFFFFFFFFFFFFFFFFFFFFFFFFFFFFFFF AND PUSH20 0xFFFFFFFFFFFFFFFFFFFFFFFFFFFFFFFFFFFFFFFF AND DUP2 MSTORE PUSH1 0x20 ADD SWAP1 DUP2 MSTORE PUSH1 0x20 ADD PUSH1 0x0 KECCAK256 PUSH1 0x1 ADD PUSH1 0x14 SWAP1 SLOAD SWAP1 PUSH2 0x100 EXP SWAP1 DIV PUSH1 0xFF AND PUSH1 0xFF AND EQ DUP1 ISZERO PUSH2 0xC8A JUMPI POP DUP2 PUSH1 0xFF AND PUSH1 0x5 PUSH1 0x0 DUP7 PUSH20 0xFFFFFFFFFFFFFFFFFFFFFFFFFFFFFFFFFFFFFFFF AND PUSH20 0xFFFFFFFFFFFFFFFFFFFFFFFFFFFFFFFFFFFFFFFF AND DUP2 MSTORE PUSH1 0x20 ADD SWAP1 DUP2 MSTORE PUSH1 0x20 ADD PUSH1 0x0 KECCAK256 PUSH1 0x1 ADD PUSH1 0x15 SWAP1 SLOAD SWAP1 PUSH2 0x100 EXP SWAP1 DIV PUSH1 0xFF AND PUSH1 0xFF AND LT ISZERO JUMPDEST ISZERO PUSH2 0xC98 JUMPI PUSH1 0x1 SWAP1 POP PUSH2 0xC9D JUMP JUMPDEST PUSH1 0x0 SWAP1 POP JUMPDEST SWAP4 SWAP3 POP POP POP JUMP JUMPDEST PUSH1 0x0 DUP1 SLOAD SWAP1 PUSH2 0x100 EXP SWAP1 DIV PUSH20 0xFFFFFFFFFFFFFFFFFFFFFFFFFFFFFFFFFFFFFFFF AND PUSH20 0xFFFFFFFFFFFFFFFFFFFFFFFFFFFFFFFFFFFFFFFF AND CALLER PUSH20 0xFFFFFFFFFFFFFFFFFFFFFFFFFFFFFFFFFFFFFFFF AND EQ PUSH2 0xCFC JUMPI PUSH1 0x0 DUP1 REVERT JUMPDEST PUSH1 0x0 DUP1 SLOAD SWAP1 PUSH2 0x100 EXP SWAP1 DIV PUSH20 0xFFFFFFFFFFFFFFFFFFFFFFFFFFFFFFFFFFFFFFFF AND PUSH20 0xFFFFFFFFFFFFFFFFFFFFFFFFFFFFFFFFFFFFFFFF AND DUP2 PUSH20 0xFFFFFFFFFFFFFFFFFFFFFFFFFFFFFFFFFFFFFFFF AND EQ ISZERO PUSH2 0xD55 JUMPI PUSH1 0x0 DUP1 REVERT JUMPDEST PUSH1 0x0 PUSH20 0xFFFFFFFFFFFFFFFFFFFFFFFFFFFFFFFFFFFFFFFF AND DUP2 PUSH20 0xFFFFFFFFFFFFFFFFFFFFFFFFFFFFFFFFFFFFFFFF AND EQ ISZERO PUSH2 0xD8F JUMPI PUSH1 0x0 DUP1 REVERT JUMPDEST DUP1 PUSH1 0x0 DUP1 PUSH2 0x100 EXP DUP2 SLOAD DUP2 PUSH20 0xFFFFFFFFFFFFFFFFFFFFFFFFFFFFFFFFFFFFFFFF MUL NOT AND SWAP1 DUP4 PUSH20 0xFFFFFFFFFFFFFFFFFFFFFFFFFFFFFFFFFFFFFFFF AND MUL OR SWAP1 SSTORE POP DUP1 PUSH20 0xFFFFFFFFFFFFFFFFFFFFFFFFFFFFFFFFFFFFFFFF AND PUSH1 0x0 DUP1 SLOAD SWAP1 PUSH2 0x100 EXP SWAP1 DIV PUSH20 0xFFFFFFFFFFFFFFFFFFFFFFFFFFFFFFFFFFFFFFFF AND PUSH20 0xFFFFFFFFFFFFFFFFFFFFFFFFFFFFFFFFFFFFFFFF AND PUSH32 0x2AE143016ADC0AA482E6BA5D9A350F3E3122AEB005CA4BF47D1D7B8221BCE472 PUSH1 0x40 MLOAD PUSH1 0x40 MLOAD DUP1 SWAP2 SUB SWAP1 LOG3 POP JUMP JUMPDEST PUSH1 0x0 PUSH1 0x1 ISZERO ISZERO PUSH2 0xE5B CALLER PUSH2 0x91A JUMP JUMPDEST ISZERO ISZERO EQ PUSH2 0xE67 JUMPI PUSH1 0x0 DUP1 REVERT JUMPDEST PUSH1 0x0 PUSH1 0x5 PUSH1 0x0 DUP6 PUSH20 0xFFFFFFFFFFFFFFFFFFFFFFFFFFFFFFFFFFFFFFFF AND PUSH20 0xFFFFFFFFFFFFFFFFFFFFFFFFFFFFFFFFFFFFFFFF AND DUP2 MSTORE PUSH1 0x20 ADD SWAP1 DUP2 MSTORE PUSH1 0x20 ADD PUSH1 0x0 KECCAK256 PUSH1 0x0 ADD SLOAD EQ ISZERO PUSH2 0xEB7 JUMPI PUSH1 0x0 DUP1 REVERT JUMPDEST PUSH1 0x0 PUSH1 0x4 PUSH1 0x0 DUP5 PUSH1 0xFF AND PUSH1 0xFF AND DUP2 MSTORE PUSH1 0x20 ADD SWAP1 DUP2 MSTORE PUSH1 0x20 ADD PUSH1 0x0 KECCAK256 DUP1 SLOAD PUSH2 0xEDD SWAP1 PUSH2 0x156B JUMP JUMPDEST SWAP1 POP EQ ISZERO PUSH2 0xEEA JUMPI PUSH1 0x0 DUP1 REVERT JUMPDEST DUP2 PUSH1 0x5 PUSH1 0x0 DUP6 PUSH20 0xFFFFFFFFFFFFFFFFFFFFFFFFFFFFFFFFFFFFFFFF AND PUSH20 0xFFFFFFFFFFFFFFFFFFFFFFFFFFFFFFFFFFFFFFFF AND DUP2 MSTORE PUSH1 0x20 ADD SWAP1 DUP2 MSTORE PUSH1 0x20 ADD PUSH1 0x0 KECCAK256 PUSH1 0x1 ADD PUSH1 0x15 PUSH2 0x100 EXP DUP2 SLOAD DUP2 PUSH1 0xFF MUL NOT AND SWAP1 DUP4 PUSH1 0xFF AND MUL OR SWAP1 SSTORE POP PUSH1 0x1 SWAP1 POP SWAP3 SWAP2 POP POP JUMP JUMPDEST DUP3 DUP1 SLOAD PUSH2 0xF5B SWAP1 PUSH2 0x156B JUMP JUMPDEST SWAP1 PUSH1 0x0 MSTORE PUSH1 0x20 PUSH1 0x0 KECCAK256 SWAP1 PUSH1 0x1F ADD PUSH1 0x20 SWAP1 DIV DUP2 ADD SWAP3 DUP3 PUSH2 0xF7D JUMPI PUSH1 0x0 DUP6 SSTORE PUSH2 0xFC4 JUMP JUMPDEST DUP3 PUSH1 0x1F LT PUSH2 0xF96 JUMPI DUP1 CALLDATALOAD PUSH1 0xFF NOT AND DUP4 DUP1 ADD OR DUP6 SSTORE PUSH2 0xFC4 JUMP JUMPDEST DUP3 DUP1 ADD PUSH1 0x1 ADD DUP6 SSTORE DUP3 ISZERO PUSH2 0xFC4 JUMPI SWAP2 DUP3 ADD JUMPDEST DUP3 DUP2 GT ISZERO PUSH2 0xFC3 JUMPI DUP3 CALLDATALOAD DUP3 SSTORE SWAP2 PUSH1 0x20 ADD SWAP2 SWAP1 PUSH1 0x1 ADD SWAP1 PUSH2 0xFA8 JUMP JUMPDEST JUMPDEST POP SWAP1 POP PUSH2 0xFD1 SWAP2 SWAP1 PUSH2 0x1027 JUMP JUMPDEST POP SWAP1 JUMP JUMPDEST PUSH1 0x40 MLOAD DUP1 PUSH1 0xC0 ADD PUSH1 0x40 MSTORE DUP1 PUSH1 0x0 DUP2 MSTORE PUSH1 0x20 ADD PUSH1 0x0 PUSH20 0xFFFFFFFFFFFFFFFFFFFFFFFFFFFFFFFFFFFFFFFF AND DUP2 MSTORE PUSH1 0x20 ADD PUSH1 0x0 PUSH1 0xFF AND DUP2 MSTORE PUSH1 0x20 ADD PUSH1 0x0 PUSH1 0xFF AND DUP2 MSTORE PUSH1 0x20 ADD PUSH1 0x60 DUP2 MSTORE PUSH1 0x20 ADD PUSH1 0x0 DUP2 MSTORE POP SWAP1 JUMP JUMPDEST JUMPDEST DUP1 DUP3 GT ISZERO PUSH2 0x1040 JUMPI PUSH1 0x0 DUP2 PUSH1 0x0 SWAP1 SSTORE POP PUSH1 0x1 ADD PUSH2 0x1028 JUMP JUMPDEST POP SWAP1 JUMP JUMPDEST PUSH1 0x0 DUP1 REVERT JUMPDEST PUSH1 0x0 DUP1 REVERT JUMPDEST PUSH1 0x0 PUSH1 0xFF DUP3 AND SWAP1 POP SWAP2 SWAP1 POP JUMP JUMPDEST PUSH2 0x1064 DUP2 PUSH2 0x104E JUMP JUMPDEST DUP2 EQ PUSH2 0x106F JUMPI PUSH1 0x0 DUP1 REVERT JUMPDEST POP JUMP JUMPDEST PUSH1 0x0 DUP2 CALLDATALOAD SWAP1 POP PUSH2 0x1081 DUP2 PUSH2 0x105B JUMP JUMPDEST SWAP3 SWAP2 POP POP JUMP JUMPDEST PUSH1 0x0 PUSH1 0x20 DUP3 DUP5 SUB SLT ISZERO PUSH2 0x109D JUMPI PUSH2 0x109C PUSH2 0x1044 JUMP JUMPDEST JUMPDEST PUSH1 0x0 PUSH2 0x10AB DUP5 DUP3 DUP6 ADD PUSH2 0x1072 JUMP JUMPDEST SWAP2 POP POP SWAP3 SWAP2 POP POP JUMP JUMPDEST PUSH1 0x0 DUP2 MLOAD SWAP1 POP SWAP2 SWAP1 POP JUMP JUMPDEST PUSH1 0x0 DUP3 DUP3 MSTORE PUSH1 0x20 DUP3 ADD SWAP1 POP SWAP3 SWAP2 POP POP JUMP JUMPDEST PUSH1 0x0 JUMPDEST DUP4 DUP2 LT ISZERO PUSH2 0x10EE JUMPI DUP1 DUP3 ADD MLOAD DUP2 DUP5 ADD MSTORE PUSH1 0x20 DUP2 ADD SWAP1 POP PUSH2 0x10D3 JUMP JUMPDEST DUP4 DUP2 GT ISZERO PUSH2 0x10FD JUMPI PUSH1 0x0 DUP5 DUP5 ADD MSTORE JUMPDEST POP POP POP POP JUMP JUMPDEST PUSH1 0x0 PUSH1 0x1F NOT PUSH1 0x1F DUP4 ADD AND SWAP1 POP SWAP2 SWAP1 POP JUMP JUMPDEST PUSH1 0x0 PUSH2 0x111F DUP3 PUSH2 0x10B4 JUMP JUMPDEST PUSH2 0x1129 DUP2 DUP6 PUSH2 0x10BF JUMP JUMPDEST SWAP4 POP PUSH2 0x1139 DUP2 DUP6 PUSH1 0x20 DUP7 ADD PUSH2 0x10D0 JUMP JUMPDEST PUSH2 0x1142 DUP2 PUSH2 0x1103 JUMP JUMPDEST DUP5 ADD SWAP2 POP POP SWAP3 SWAP2 POP POP JUMP JUMPDEST PUSH1 0x0 PUSH1 0x20 DUP3 ADD SWAP1 POP DUP2 DUP2 SUB PUSH1 0x0 DUP4 ADD MSTORE PUSH2 0x1167 DUP2 DUP5 PUSH2 0x1114 JUMP JUMPDEST SWAP1 POP SWAP3 SWAP2 POP POP JUMP JUMPDEST PUSH1 0x0 PUSH20 0xFFFFFFFFFFFFFFFFFFFFFFFFFFFFFFFFFFFFFFFF DUP3 AND SWAP1 POP SWAP2 SWAP1 POP JUMP JUMPDEST PUSH1 0x0 PUSH2 0x119A DUP3 PUSH2 0x116F JUMP JUMPDEST SWAP1 POP SWAP2 SWAP1 POP JUMP JUMPDEST PUSH2 0x11AA DUP2 PUSH2 0x118F JUMP JUMPDEST DUP2 EQ PUSH2 0x11B5 JUMPI PUSH1 0x0 DUP1 REVERT JUMPDEST POP JUMP JUMPDEST PUSH1 0x0 DUP2 CALLDATALOAD SWAP1 POP PUSH2 0x11C7 DUP2 PUSH2 0x11A1 JUMP JUMPDEST SWAP3 SWAP2 POP POP JUMP JUMPDEST PUSH1 0x0 PUSH1 0x20 DUP3 DUP5 SUB SLT ISZERO PUSH2 0x11E3 JUMPI PUSH2 0x11E2 PUSH2 0x1044 JUMP JUMPDEST JUMPDEST PUSH1 0x0 PUSH2 0x11F1 DUP5 DUP3 DUP6 ADD PUSH2 0x11B8 JUMP JUMPDEST SWAP2 POP POP SWAP3 SWAP2 POP POP JUMP JUMPDEST PUSH1 0x0 DUP2 ISZERO ISZERO SWAP1 POP SWAP2 SWAP1 POP JUMP JUMPDEST PUSH2 0x120F DUP2 PUSH2 0x11FA JUMP JUMPDEST DUP3 MSTORE POP POP JUMP JUMPDEST PUSH1 0x0 PUSH1 0x20 DUP3 ADD SWAP1 POP PUSH2 0x122A PUSH1 0x0 DUP4 ADD DUP5 PUSH2 0x1206 JUMP JUMPDEST SWAP3 SWAP2 POP POP JUMP JUMPDEST PUSH1 0x0 DUP1 REVERT JUMPDEST PUSH1 0x0 DUP1 REVERT JUMPDEST PUSH1 0x0 DUP1 REVERT JUMPDEST PUSH1 0x0 DUP1 DUP4 PUSH1 0x1F DUP5 ADD SLT PUSH2 0x1255 JUMPI PUSH2 0x1254 PUSH2 0x1230 JUMP JUMPDEST JUMPDEST DUP3 CALLDATALOAD SWAP1 POP PUSH8 0xFFFFFFFFFFFFFFFF DUP2 GT ISZERO PUSH2 0x1272 JUMPI PUSH2 0x1271 PUSH2 0x1235 JUMP JUMPDEST JUMPDEST PUSH1 0x20 DUP4 ADD SWAP2 POP DUP4 PUSH1 0x1 DUP3 MUL DUP4 ADD GT ISZERO PUSH2 0x128E JUMPI PUSH2 0x128D PUSH2 0x123A JUMP JUMPDEST JUMPDEST SWAP3 POP SWAP3 SWAP1 POP JUMP JUMPDEST PUSH1 0x0 DUP1 PUSH1 0x0 DUP1 PUSH1 0x0 PUSH1 0x80 DUP7 DUP9 SUB SLT ISZERO PUSH2 0x12B1 JUMPI PUSH2 0x12B0 PUSH2 0x1044 JUMP JUMPDEST JUMPDEST PUSH1 0x0 PUSH2 0x12BF DUP9 DUP3 DUP10 ADD PUSH2 0x11B8 JUMP JUMPDEST SWAP6 POP POP PUSH1 0x20 PUSH2 0x12D0 DUP9 DUP3 DUP10 ADD PUSH2 0x1072 JUMP JUMPDEST SWAP5 POP POP PUSH1 0x40 PUSH2 0x12E1 DUP9 DUP3 DUP10 ADD PUSH2 0x1072 JUMP JUMPDEST SWAP4 POP POP PUSH1 0x60 DUP7 ADD CALLDATALOAD PUSH8 0xFFFFFFFFFFFFFFFF DUP2 GT ISZERO PUSH2 0x1302 JUMPI PUSH2 0x1301 PUSH2 0x1049 JUMP JUMPDEST JUMPDEST PUSH2 0x130E DUP9 DUP3 DUP10 ADD PUSH2 0x123F JUMP JUMPDEST SWAP3 POP SWAP3 POP POP SWAP3 SWAP6 POP SWAP3 SWAP6 SWAP1 SWAP4 POP JUMP JUMPDEST PUSH1 0x0 DUP1 PUSH1 0x0 PUSH1 0x40 DUP5 DUP7 SUB SLT ISZERO PUSH2 0x1336 JUMPI PUSH2 0x1335 PUSH2 0x1044 JUMP JUMPDEST JUMPDEST PUSH1 0x0 PUSH2 0x1344 DUP7 DUP3 DUP8 ADD PUSH2 0x1072 JUMP JUMPDEST SWAP4 POP POP PUSH1 0x20 DUP5 ADD CALLDATALOAD PUSH8 0xFFFFFFFFFFFFFFFF DUP2 GT ISZERO PUSH2 0x1365 JUMPI PUSH2 0x1364 PUSH2 0x1049 JUMP JUMPDEST JUMPDEST PUSH2 0x1371 DUP7 DUP3 DUP8 ADD PUSH2 0x123F JUMP JUMPDEST SWAP3 POP SWAP3 POP POP SWAP3 POP SWAP3 POP SWAP3 JUMP JUMPDEST PUSH1 0x0 DUP2 SWAP1 POP SWAP2 SWAP1 POP JUMP JUMPDEST PUSH2 0x1390 DUP2 PUSH2 0x137D JUMP JUMPDEST DUP3 MSTORE POP POP JUMP JUMPDEST PUSH2 0x139F DUP2 PUSH2 0x118F JUMP JUMPDEST DUP3 MSTORE POP POP JUMP JUMPDEST PUSH2 0x13AE DUP2 PUSH2 0x104E JUMP JUMPDEST DUP3 MSTORE POP POP JUMP JUMPDEST PUSH1 0x0 DUP3 DUP3 MSTORE PUSH1 0x20 DUP3 ADD SWAP1 POP SWAP3 SWAP2 POP POP JUMP JUMPDEST PUSH1 0x0 PUSH2 0x13D0 DUP3 PUSH2 0x10B4 JUMP JUMPDEST PUSH2 0x13DA DUP2 DUP6 PUSH2 0x13B4 JUMP JUMPDEST SWAP4 POP PUSH2 0x13EA DUP2 DUP6 PUSH1 0x20 DUP7 ADD PUSH2 0x10D0 JUMP JUMPDEST PUSH2 0x13F3 DUP2 PUSH2 0x1103 JUMP JUMPDEST DUP5 ADD SWAP2 POP POP SWAP3 SWAP2 POP POP JUMP JUMPDEST PUSH1 0x0 PUSH1 0xC0 DUP4 ADD PUSH1 0x0 DUP4 ADD MLOAD PUSH2 0x1416 PUSH1 0x0 DUP7 ADD DUP3 PUSH2 0x1387 JUMP JUMPDEST POP PUSH1 0x20 DUP4 ADD MLOAD PUSH2 0x1429 PUSH1 0x20 DUP7 ADD DUP3 PUSH2 0x1396 JUMP JUMPDEST POP PUSH1 0x40 DUP4 ADD MLOAD PUSH2 0x143C PUSH1 0x40 DUP7 ADD DUP3 PUSH2 0x13A5 JUMP JUMPDEST POP PUSH1 0x60 DUP4 ADD MLOAD PUSH2 0x144F PUSH1 0x60 DUP7 ADD DUP3 PUSH2 0x13A5 JUMP JUMPDEST POP PUSH1 0x80 DUP4 ADD MLOAD DUP5 DUP3 SUB PUSH1 0x80 DUP7 ADD MSTORE PUSH2 0x1467 DUP3 DUP3 PUSH2 0x13C5 JUMP JUMPDEST SWAP2 POP POP PUSH1 0xA0 DUP4 ADD MLOAD PUSH2 0x147C PUSH1 0xA0 DUP7 ADD DUP3 PUSH2 0x1387 JUMP JUMPDEST POP DUP1 SWAP2 POP POP SWAP3 SWAP2 POP POP JUMP JUMPDEST PUSH1 0x0 PUSH1 0x20 DUP3 ADD SWAP1 POP DUP2 DUP2 SUB PUSH1 0x0 DUP4 ADD MSTORE PUSH2 0x14A1 DUP2 DUP5 PUSH2 0x13FE JUMP JUMPDEST SWAP1 POP SWAP3 SWAP2 POP POP JUMP JUMPDEST PUSH1 0x0 DUP1 PUSH1 0x0 PUSH1 0x60 DUP5 DUP7 SUB SLT ISZERO PUSH2 0x14C2 JUMPI PUSH2 0x14C1 PUSH2 0x1044 JUMP JUMPDEST JUMPDEST PUSH1 0x0 PUSH2 0x14D0 DUP7 DUP3 DUP8 ADD PUSH2 0x11B8 JUMP JUMPDEST SWAP4 POP POP PUSH1 0x20 PUSH2 0x14E1 DUP7 DUP3 DUP8 ADD PUSH2 0x1072 JUMP JUMPDEST SWAP3 POP POP PUSH1 0x40 PUSH2 0x14F2 DUP7 DUP3 DUP8 ADD PUSH2 0x1072 JUMP JUMPDEST SWAP2 POP POP SWAP3 POP SWAP3 POP SWAP3 JUMP JUMPDEST PUSH1 0x0 DUP1 PUSH1 0x40 DUP4 DUP6 SUB SLT ISZERO PUSH2 0x1513 JUMPI PUSH2 0x1512 PUSH2 0x1044 JUMP JUMPDEST JUMPDEST PUSH1 0x0 PUSH2 0x1521 DUP6 DUP3 DUP7 ADD PUSH2 0x11B8 JUMP JUMPDEST SWAP3 POP POP PUSH1 0x20 PUSH2 0x1532 DUP6 DUP3 DUP7 ADD PUSH2 0x1072 JUMP JUMPDEST SWAP2 POP POP SWAP3 POP SWAP3 SWAP1 POP JUMP JUMPDEST PUSH32 0x4E487B7100000000000000000000000000000000000000000000000000000000 PUSH1 0x0 MSTORE PUSH1 0x22 PUSH1 0x4 MSTORE PUSH1 0x24 PUSH1 0x0 REVERT JUMPDEST PUSH1 0x0 PUSH1 0x2 DUP3 DIV SWAP1 POP PUSH1 0x1 DUP3 AND DUP1 PUSH2 0x1583 JUMPI PUSH1 0x7F DUP3 AND SWAP2 POP JUMPDEST PUSH1 0x20 DUP3 LT DUP2 EQ ISZERO PUSH2 0x1597 JUMPI PUSH2 0x1596 PUSH2 0x153C JUMP JUMPDEST JUMPDEST POP SWAP2 SWAP1 POP JUMP JUMPDEST PUSH32 0x4E487B7100000000000000000000000000000000000000000000000000000000 PUSH1 0x0 MSTORE PUSH1 0x11 PUSH1 0x4 MSTORE PUSH1 0x24 PUSH1 0x0 REVERT JUMPDEST PUSH1 0x0 PUSH2 0x15D7 DUP3 PUSH2 0x137D JUMP JUMPDEST SWAP2 POP PUSH2 0x15E2 DUP4 PUSH2 0x137D JUMP JUMPDEST SWAP3 POP DUP3 PUSH32 0xFFFFFFFFFFFFFFFFFFFFFFFFFFFFFFFFFFFFFFFFFFFFFFFFFFFFFFFFFFFFFFFF SUB DUP3 GT ISZERO PUSH2 0x1617 JUMPI PUSH2 0x1616 PUSH2 0x159D JUMP JUMPDEST JUMPDEST DUP3 DUP3 ADD SWAP1 POP SWAP3 SWAP2 POP POP JUMP INVALID LOG2 PUSH5 0x6970667358 0x22 SLT KECCAK256 ADDRESS 0xC7 0xE1 LOG3 0x4E SWAP11 CALLCODE 0xE5 PUSH21 0x932FA13BF4839CF682F7EFD41E0C017710D12AC6DD 0x25 0xC PUSH5 0x736F6C6343 STOP ADDMOD EXP STOP CALLER "
				},
				"gasEstimates": {
					"creation": {
						"codeDepositCost": "1144000",
						"executionCost": "infinite",
						"totalCost": "infinite"
					},
					"external": {
						"addIssuer(address)": "30629",
						"addStatusType(uint8,string)": "infinite",
						"addVaccineType(uint8,string)": "infinite",
						"changeStatus(address,uint8)": "32214",
						"claimCredential(address,uint8,uint8,string)": "infinite",
						"delIssuer(address)": "30651",
						"getCredential(address)": "infinite",
						"getStatusType(uint8)": "infinite",
						"getVaccineType(uint8)": "infinite",
						"isIssuer(address)": "2928",
						"issuers(address)": "2934",
						"passOrNot(address,uint8,uint8)": "infinite",
						"transferOwnership(address)": "32842"
					}
				},
				"methodIdentifiers": {
					"addIssuer(address)": "20694db0",
					"addStatusType(uint8,string)": "a30e2e54",
					"addVaccineType(uint8,string)": "59a7aef3",
					"changeStatus(address,uint8)": "ff63e7a8",
					"claimCredential(address,uint8,uint8,string)": "36145996",
					"delIssuer(address)": "34becfb4",
					"getCredential(address)": "ccdad14b",
					"getStatusType(uint8)": "05183a29",
					"getVaccineType(uint8)": "3f8a37dc",
					"isIssuer(address)": "877b9a67",
					"issuers(address)": "38a7543e",
					"passOrNot(address,uint8,uint8)": "d9c45826",
					"transferOwnership(address)": "f2fde38b"
				}
			},
			"userdoc": {
				"kind": "user",
				"methods": {},
				"version": 1
			}
		}
	}
}