{
	"system.sol": {
		"CredentialBox": {
			"abi": [
				{
					"inputs": [],
					"stateMutability": "nonpayable",
					"type": "constructor"
				},
				{
					"anonymous": false,
					"inputs": [
						{
							"indexed": true,
							"internalType": "address",
							"name": "_issuer",
							"type": "address"
						}
					],
					"name": "AddIssuer",
					"type": "event"
				},
				{
					"anonymous": false,
					"inputs": [
						{
							"indexed": true,
							"internalType": "address",
							"name": "_issuer",
							"type": "address"
						}
					],
					"name": "DelIssuer",
					"type": "event"
				},
				{
					"anonymous": false,
					"inputs": [
						{
							"indexed": true,
							"internalType": "address",
							"name": "_from",
							"type": "address"
						},
						{
							"indexed": true,
							"internalType": "address",
							"name": "_to",
							"type": "address"
						}
					],
					"name": "OwnerTransferPropose",
					"type": "event"
				},
				{
					"inputs": [
						{
							"internalType": "address",
							"name": "_addr",
							"type": "address"
						}
					],
					"name": "addIssuer",
					"outputs": [
						{
							"internalType": "bool",
							"name": "",
							"type": "bool"
						}
					],
					"stateMutability": "nonpayable",
					"type": "function"
				},
				{
					"inputs": [
						{
							"internalType": "uint8",
							"name": "_type",
							"type": "uint8"
						},
						{
							"internalType": "string",
							"name": "_value",
							"type": "string"
						}
					],
					"name": "addNoteType",
					"outputs": [
						{
							"internalType": "bool",
							"name": "",
							"type": "bool"
						}
					],
					"stateMutability": "nonpayable",
					"type": "function"
				},
				{
					"inputs": [
						{
							"internalType": "uint8",
							"name": "_type",
							"type": "uint8"
						},
						{
							"internalType": "string",
							"name": "_value",
							"type": "string"
						}
					],
					"name": "addStatusType",
					"outputs": [
						{
							"internalType": "bool",
							"name": "",
							"type": "bool"
						}
					],
					"stateMutability": "nonpayable",
					"type": "function"
				},
				{
					"inputs": [
						{
							"internalType": "uint8",
							"name": "_type",
							"type": "uint8"
						},
						{
							"internalType": "string",
							"name": "_value",
							"type": "string"
						}
					],
					"name": "addVaccineType",
					"outputs": [
						{
							"internalType": "bool",
							"name": "",
							"type": "bool"
						}
					],
					"stateMutability": "nonpayable",
					"type": "function"
				},
				{
					"inputs": [
						{
							"internalType": "address",
							"name": "_person",
							"type": "address"
						},
						{
							"internalType": "uint8",
							"name": "_type",
							"type": "uint8"
						}
					],
					"name": "changeNote",
					"outputs": [
						{
							"internalType": "bool",
							"name": "",
							"type": "bool"
						}
					],
					"stateMutability": "nonpayable",
					"type": "function"
				},
				{
					"inputs": [
						{
							"internalType": "address",
							"name": "_person",
							"type": "address"
						},
						{
							"internalType": "uint8",
							"name": "_type",
							"type": "uint8"
						}
					],
					"name": "changeStatus",
					"outputs": [
						{
							"internalType": "bool",
							"name": "",
							"type": "bool"
						}
					],
					"stateMutability": "nonpayable",
					"type": "function"
				},
				{
					"inputs": [
						{
							"internalType": "address",
							"name": "_person",
							"type": "address"
						},
						{
							"internalType": "uint8",
							"name": "_type",
							"type": "uint8"
						}
					],
					"name": "changeVaccine",
					"outputs": [
						{
							"internalType": "bool",
							"name": "",
							"type": "bool"
						}
					],
					"stateMutability": "nonpayable",
					"type": "function"
				},
				{
					"inputs": [
						{
							"internalType": "address",
							"name": "_personAddress",
							"type": "address"
						},
						{
							"internalType": "uint8",
							"name": "_vaccineType",
							"type": "uint8"
						},
						{
							"internalType": "uint8",
							"name": "_statusType",
							"type": "uint8"
						},
						{
							"internalType": "uint8",
							"name": "_noteType",
							"type": "uint8"
						}
					],
					"name": "claimCredential",
					"outputs": [
						{
							"internalType": "bool",
							"name": "",
							"type": "bool"
						}
					],
					"stateMutability": "nonpayable",
					"type": "function"
				},
				{
					"inputs": [
						{
							"internalType": "address",
							"name": "_addr",
							"type": "address"
						}
					],
					"name": "delIssuer",
					"outputs": [
						{
							"internalType": "bool",
							"name": "",
							"type": "bool"
						}
					],
					"stateMutability": "nonpayable",
					"type": "function"
				},
				{
					"inputs": [
						{
							"internalType": "address",
							"name": "_personAddress",
							"type": "address"
						}
					],
					"name": "getCredential",
					"outputs": [
						{
							"components": [
								{
									"internalType": "uint256",
									"name": "id",
									"type": "uint256"
								},
								{
									"internalType": "address",
									"name": "issuer",
									"type": "address"
								},
								{
									"internalType": "uint8",
									"name": "vaccineType",
									"type": "uint8"
								},
								{
									"internalType": "uint8",
									"name": "statusType",
									"type": "uint8"
								},
								{
									"internalType": "uint8",
									"name": "noteType",
									"type": "uint8"
								},
								{
									"internalType": "uint256",
									"name": "createDate",
									"type": "uint256"
								}
							],
							"internalType": "struct CredentialBox.Credential",
							"name": "",
							"type": "tuple"
						}
					],
					"stateMutability": "view",
					"type": "function"
				},
				{
					"inputs": [
						{
							"internalType": "uint8",
							"name": "_type",
							"type": "uint8"
						}
					],
					"name": "getNoteType",
					"outputs": [
						{
							"internalType": "string",
							"name": "",
							"type": "string"
						}
					],
					"stateMutability": "view",
					"type": "function"
				},
				{
					"inputs": [
						{
							"internalType": "uint8",
							"name": "_type",
							"type": "uint8"
						}
					],
					"name": "getStatusType",
					"outputs": [
						{
							"internalType": "string",
							"name": "",
							"type": "string"
						}
					],
					"stateMutability": "view",
					"type": "function"
				},
				{
					"inputs": [
						{
							"internalType": "uint8",
							"name": "_type",
							"type": "uint8"
						}
					],
					"name": "getVaccineType",
					"outputs": [
						{
							"internalType": "string",
							"name": "",
							"type": "string"
						}
					],
					"stateMutability": "view",
					"type": "function"
				},
				{
					"inputs": [
						{
							"internalType": "address",
							"name": "_addr",
							"type": "address"
						}
					],
					"name": "isIssuer",
					"outputs": [
						{
							"internalType": "bool",
							"name": "",
							"type": "bool"
						}
					],
					"stateMutability": "view",
					"type": "function"
				},
				{
					"inputs": [
						{
							"internalType": "address",
							"name": "",
							"type": "address"
						}
					],
					"name": "issuers",
					"outputs": [
						{
							"internalType": "bool",
							"name": "",
							"type": "bool"
						}
					],
					"stateMutability": "view",
					"type": "function"
				},
				{
					"inputs": [
						{
							"internalType": "address",
							"name": "_person",
							"type": "address"
						},
						{
							"internalType": "uint8",
							"name": "_vaccineType",
							"type": "uint8"
						},
						{
							"internalType": "uint8",
							"name": "_statusType",
							"type": "uint8"
						}
					],
					"name": "passOrNot",
					"outputs": [
						{
							"internalType": "bool",
							"name": "",
							"type": "bool"
						}
					],
					"stateMutability": "view",
					"type": "function"
				},
				{
					"inputs": [
						{
							"internalType": "address",
							"name": "_to",
							"type": "address"
						}
					],
					"name": "transferOwnership",
					"outputs": [],
					"stateMutability": "nonpayable",
					"type": "function"
				}
			],
			"devdoc": {
				"kind": "dev",
				"methods": {},
				"version": 1
			},
			"evm": {
				"assembly": "    /* \"system.sol\":1367:5273  contract CredentialBox is IssuerHelper {... */\n  mstore(0x40, 0x80)\n    /* \"system.sol\":1824:2331  constructor() {... */\n  callvalue\n  dup1\n  iszero\n  tag_1\n  jumpi\n  0x00\n  dup1\n  revert\ntag_1:\n  pop\n    /* \"system.sol\":293:303  msg.sender */\n  caller\n    /* \"system.sol\":285:290  owner */\n  0x00\n  dup1\n    /* \"system.sol\":285:303  owner = msg.sender */\n  0x0100\n  exp\n  dup2\n  sload\n  dup2\n  0xffffffffffffffffffffffffffffffffffffffff\n  mul\n  not\n  and\n  swap1\n  dup4\n  0xffffffffffffffffffffffffffffffffffffffff\n  and\n  mul\n  or\n  swap1\n  sstore\n  pop\n    /* \"system.sol\":840:844  true */\n  0x01\n    /* \"system.sol\":818:825  issuers */\n  dup1\n    /* \"system.sol\":818:837  issuers[msg.sender] */\n  0x00\n    /* \"system.sol\":826:836  msg.sender */\n  caller\n    /* \"system.sol\":818:837  issuers[msg.sender] */\n  0xffffffffffffffffffffffffffffffffffffffff\n  and\n  0xffffffffffffffffffffffffffffffffffffffff\n  and\n  dup2\n  mstore\n  0x20\n  add\n  swap1\n  dup2\n  mstore\n  0x20\n  add\n  0x00\n  keccak256\n  0x00\n    /* \"system.sol\":818:844  issuers[msg.sender] = true */\n  0x0100\n  exp\n  dup2\n  sload\n  dup2\n  0xff\n  mul\n  not\n  and\n  swap1\n  dup4\n  iszero\n  iszero\n  mul\n  or\n  swap1\n  sstore\n  pop\n    /* \"system.sol\":1858:1859  1 */\n  0x01\n    /* \"system.sol\":1848:1855  idCount */\n  0x02\n    /* \"system.sol\":1848:1859  idCount = 1 */\n  dup2\n  swap1\n  sstore\n  pop\n    /* \"system.sol\":1869:1894  vaccineEnum[0] = \"PFIZER\" */\n  mload(0x40)\n  dup1\n  0x40\n  add\n  0x40\n  mstore\n  dup1\n  0x06\n  dup2\n  mstore\n  0x20\n  add\n  0x5046495a45520000000000000000000000000000000000000000000000000000\n  dup2\n  mstore\n  pop\n    /* \"system.sol\":1869:1880  vaccineEnum */\n  0x03\n    /* \"system.sol\":1869:1883  vaccineEnum[0] */\n  0x00\n    /* \"system.sol\":1881:1882  0 */\n  dup1\n    /* \"system.sol\":1869:1883  vaccineEnum[0] */\n  0xff\n  and\n  dup2\n  mstore\n  0x20\n  add\n  swap1\n  dup2\n  mstore\n  0x20\n  add\n  0x00\n  keccak256\n    /* \"system.sol\":1869:1894  vaccineEnum[0] = \"PFIZER\" */\n  swap1\n  dup1\n  mload\n  swap1\n  0x20\n  add\n  swap1\n  tag_8\n  swap3\n  swap2\n  swap1\n  tag_9\n  jump\t// in\ntag_8:\n  pop\n    /* \"system.sol\":1904:1930  vaccineEnum[1] = \"MODERNA\" */\n  mload(0x40)\n  dup1\n  0x40\n  add\n  0x40\n  mstore\n  dup1\n  0x07\n  dup2\n  mstore\n  0x20\n  add\n  0x4d4f4445524e4100000000000000000000000000000000000000000000000000\n  dup2\n  mstore\n  pop\n    /* \"system.sol\":1904:1915  vaccineEnum */\n  0x03\n    /* \"system.sol\":1904:1918  vaccineEnum[1] */\n  0x00\n    /* \"system.sol\":1916:1917  1 */\n  0x01\n    /* \"system.sol\":1904:1918  vaccineEnum[1] */\n  0xff\n  and\n  dup2\n  mstore\n  0x20\n  add\n  swap1\n  dup2\n  mstore\n  0x20\n  add\n  0x00\n  keccak256\n    /* \"system.sol\":1904:1930  vaccineEnum[1] = \"MODERNA\" */\n  swap1\n  dup1\n  mload\n  swap1\n  0x20\n  add\n  swap1\n  tag_10\n  swap3\n  swap2\n  swap1\n  tag_9\n  jump\t// in\ntag_10:\n  pop\n    /* \"system.sol\":1940:1966  vaccineEnum[2] = \"JANSSEN\" */\n  mload(0x40)\n  dup1\n  0x40\n  add\n  0x40\n  mstore\n  dup1\n  0x07\n  dup2\n  mstore\n  0x20\n  add\n  0x4a414e5353454e00000000000000000000000000000000000000000000000000\n  dup2\n  mstore\n  pop\n    /* \"system.sol\":1940:1951  vaccineEnum */\n  0x03\n    /* \"system.sol\":1940:1954  vaccineEnum[2] */\n  0x00\n    /* \"system.sol\":1952:1953  2 */\n  0x02\n    /* \"system.sol\":1940:1954  vaccineEnum[2] */\n  0xff\n  and\n  dup2\n  mstore\n  0x20\n  add\n  swap1\n  dup2\n  mstore\n  0x20\n  add\n  0x00\n  keccak256\n    /* \"system.sol\":1940:1966  vaccineEnum[2] = \"JANSSEN\" */\n  swap1\n  dup1\n  mload\n  swap1\n  0x20\n  add\n  swap1\n  tag_11\n  swap3\n  swap2\n  swap1\n  tag_9\n  jump\t// in\ntag_11:\n  pop\n    /* \"system.sol\":1976:2006  vaccineEnum[3] = \"ASTRAZENECA\" */\n  mload(0x40)\n  dup1\n  0x40\n  add\n  0x40\n  mstore\n  dup1\n  0x0b\n  dup2\n  mstore\n  0x20\n  add\n  0x41535452415a454e454341000000000000000000000000000000000000000000\n  dup2\n  mstore\n  pop\n    /* \"system.sol\":1976:1987  vaccineEnum */\n  0x03\n    /* \"system.sol\":1976:1990  vaccineEnum[3] */\n  0x00\n    /* \"system.sol\":1988:1989  3 */\n  0x03\n    /* \"system.sol\":1976:1990  vaccineEnum[3] */\n  0xff\n  and\n  dup2\n  mstore\n  0x20\n  add\n  swap1\n  dup2\n  mstore\n  0x20\n  add\n  0x00\n  keccak256\n    /* \"system.sol\":1976:2006  vaccineEnum[3] = \"ASTRAZENECA\" */\n  swap1\n  dup1\n  mload\n  swap1\n  0x20\n  add\n  swap1\n  tag_12\n  swap3\n  swap2\n  swap1\n  tag_9\n  jump\t// in\ntag_12:\n  pop\n    /* \"system.sol\":2016:2038  statusEnum[0] = \"None\" */\n  mload(0x40)\n  dup1\n  0x40\n  add\n  0x40\n  mstore\n  dup1\n  0x04\n  dup2\n  mstore\n  0x20\n  add\n  0x4e6f6e6500000000000000000000000000000000000000000000000000000000\n  dup2\n  mstore\n  pop\n    /* \"system.sol\":2016:2026  statusEnum */\n  0x04\n    /* \"system.sol\":2016:2029  statusEnum[0] */\n  0x00\n    /* \"system.sol\":2027:2028  0 */\n  dup1\n    /* \"system.sol\":2016:2029  statusEnum[0] */\n  0xff\n  and\n  dup2\n  mstore\n  0x20\n  add\n  swap1\n  dup2\n  mstore\n  0x20\n  add\n  0x00\n  keccak256\n    /* \"system.sol\":2016:2038  statusEnum[0] = \"None\" */\n  swap1\n  dup1\n  mload\n  swap1\n  0x20\n  add\n  swap1\n  tag_13\n  swap3\n  swap2\n  swap1\n  tag_9\n  jump\t// in\ntag_13:\n  pop\n    /* \"system.sol\":2048:2076  statusEnum[1] = \"first shot\" */\n  mload(0x40)\n  dup1\n  0x40\n  add\n  0x40\n  mstore\n  dup1\n  0x0a\n  dup2\n  mstore\n  0x20\n  add\n  0x66697273742073686f7400000000000000000000000000000000000000000000\n  dup2\n  mstore\n  pop\n    /* \"system.sol\":2048:2058  statusEnum */\n  0x04\n    /* \"system.sol\":2048:2061  statusEnum[1] */\n  0x00\n    /* \"system.sol\":2059:2060  1 */\n  0x01\n    /* \"system.sol\":2048:2061  statusEnum[1] */\n  0xff\n  and\n  dup2\n  mstore\n  0x20\n  add\n  swap1\n  dup2\n  mstore\n  0x20\n  add\n  0x00\n  keccak256\n    /* \"system.sol\":2048:2076  statusEnum[1] = \"first shot\" */\n  swap1\n  dup1\n  mload\n  swap1\n  0x20\n  add\n  swap1\n  tag_14\n  swap3\n  swap2\n  swap1\n  tag_9\n  jump\t// in\ntag_14:\n  pop\n    /* \"system.sol\":2086:2115  statusEnum[2] = \"second shot\" */\n  mload(0x40)\n  dup1\n  0x40\n  add\n  0x40\n  mstore\n  dup1\n  0x0b\n  dup2\n  mstore\n  0x20\n  add\n  0x7365636f6e642073686f74000000000000000000000000000000000000000000\n  dup2\n  mstore\n  pop\n    /* \"system.sol\":2086:2096  statusEnum */\n  0x04\n    /* \"system.sol\":2086:2099  statusEnum[2] */\n  0x00\n    /* \"system.sol\":2097:2098  2 */\n  0x02\n    /* \"system.sol\":2086:2099  statusEnum[2] */\n  0xff\n  and\n  dup2\n  mstore\n  0x20\n  add\n  swap1\n  dup2\n  mstore\n  0x20\n  add\n  0x00\n  keccak256\n    /* \"system.sol\":2086:2115  statusEnum[2] = \"second shot\" */\n  swap1\n  dup1\n  mload\n  swap1\n  0x20\n  add\n  swap1\n  tag_15\n  swap3\n  swap2\n  swap1\n  tag_9\n  jump\t// in\ntag_15:\n  pop\n    /* \"system.sol\":2125:2153  statusEnum[3] = \"third shot\" */\n  mload(0x40)\n  dup1\n  0x40\n  add\n  0x40\n  mstore\n  dup1\n  0x0a\n  dup2\n  mstore\n  0x20\n  add\n  0x74686972642073686f7400000000000000000000000000000000000000000000\n  dup2\n  mstore\n  pop\n    /* \"system.sol\":2125:2135  statusEnum */\n  0x04\n    /* \"system.sol\":2125:2138  statusEnum[3] */\n  0x00\n    /* \"system.sol\":2136:2137  3 */\n  0x03\n    /* \"system.sol\":2125:2138  statusEnum[3] */\n  0xff\n  and\n  dup2\n  mstore\n  0x20\n  add\n  swap1\n  dup2\n  mstore\n  0x20\n  add\n  0x00\n  keccak256\n    /* \"system.sol\":2125:2153  statusEnum[3] = \"third shot\" */\n  swap1\n  dup1\n  mload\n  swap1\n  0x20\n  add\n  swap1\n  tag_16\n  swap3\n  swap2\n  swap1\n  tag_9\n  jump\t// in\ntag_16:\n  pop\n    /* \"system.sol\":2163:2183  noteEnum[0] = \"None\" */\n  mload(0x40)\n  dup1\n  0x40\n  add\n  0x40\n  mstore\n  dup1\n  0x04\n  dup2\n  mstore\n  0x20\n  add\n  0x4e6f6e6500000000000000000000000000000000000000000000000000000000\n  dup2\n  mstore\n  pop\n    /* \"system.sol\":2163:2171  noteEnum */\n  0x05\n    /* \"system.sol\":2163:2174  noteEnum[0] */\n  0x00\n    /* \"system.sol\":2172:2173  0 */\n  dup1\n    /* \"system.sol\":2163:2174  noteEnum[0] */\n  0xff\n  and\n  dup2\n  mstore\n  0x20\n  add\n  swap1\n  dup2\n  mstore\n  0x20\n  add\n  0x00\n  keccak256\n    /* \"system.sol\":2163:2183  noteEnum[0] = \"None\" */\n  swap1\n  dup1\n  mload\n  swap1\n  0x20\n  add\n  swap1\n  tag_17\n  swap3\n  swap2\n  swap1\n  tag_9\n  jump\t// in\ntag_17:\n  pop\n    /* \"system.sol\":2193:2239  noteEnum[1] = \"vaccinated, 14 days not passed\" */\n  mload(0x40)\n  dup1\n  0x40\n  add\n  0x40\n  mstore\n  dup1\n  0x1e\n  dup2\n  mstore\n  0x20\n  add\n  0x76616363696e617465642c2031342064617973206e6f74207061737365640000\n  dup2\n  mstore\n  pop\n    /* \"system.sol\":2193:2201  noteEnum */\n  0x05\n    /* \"system.sol\":2193:2204  noteEnum[1] */\n  0x00\n    /* \"system.sol\":2202:2203  1 */\n  0x01\n    /* \"system.sol\":2193:2204  noteEnum[1] */\n  0xff\n  and\n  dup2\n  mstore\n  0x20\n  add\n  swap1\n  dup2\n  mstore\n  0x20\n  add\n  0x00\n  keccak256\n    /* \"system.sol\":2193:2239  noteEnum[1] = \"vaccinated, 14 days not passed\" */\n  swap1\n  dup1\n  mload\n  swap1\n  0x20\n  add\n  swap1\n  tag_18\n  swap3\n  swap2\n  swap1\n  tag_9\n  jump\t// in\ntag_18:\n  pop\n    /* \"system.sol\":2249:2291  noteEnum[2] = \"vaccinated, 14 days passed\" */\n  mload(0x40)\n  dup1\n  0x40\n  add\n  0x40\n  mstore\n  dup1\n  0x1a\n  dup2\n  mstore\n  0x20\n  add\n  0x76616363696e617465642c203134206461797320706173736564000000000000\n  dup2\n  mstore\n  pop\n    /* \"system.sol\":2249:2257  noteEnum */\n  0x05\n    /* \"system.sol\":2249:2260  noteEnum[2] */\n  0x00\n    /* \"system.sol\":2258:2259  2 */\n  0x02\n    /* \"system.sol\":2249:2260  noteEnum[2] */\n  0xff\n  and\n  dup2\n  mstore\n  0x20\n  add\n  swap1\n  dup2\n  mstore\n  0x20\n  add\n  0x00\n  keccak256\n    /* \"system.sol\":2249:2291  noteEnum[2] = \"vaccinated, 14 days passed\" */\n  swap1\n  dup1\n  mload\n  swap1\n  0x20\n  add\n  swap1\n  tag_19\n  swap3\n  swap2\n  swap1\n  tag_9\n  jump\t// in\ntag_19:\n  pop\n    /* \"system.sol\":2301:2324  noteEnum[3] = \"expired\" */\n  mload(0x40)\n  dup1\n  0x40\n  add\n  0x40\n  mstore\n  dup1\n  0x07\n  dup2\n  mstore\n  0x20\n  add\n  0x6578706972656400000000000000000000000000000000000000000000000000\n  dup2\n  mstore\n  pop\n    /* \"system.sol\":2301:2309  noteEnum */\n  0x05\n    /* \"system.sol\":2301:2312  noteEnum[3] */\n  0x00\n    /* \"system.sol\":2310:2311  3 */\n  0x03\n    /* \"system.sol\":2301:2312  noteEnum[3] */\n  0xff\n  and\n  dup2\n  mstore\n  0x20\n  add\n  swap1\n  dup2\n  mstore\n  0x20\n  add\n  0x00\n  keccak256\n    /* \"system.sol\":2301:2324  noteEnum[3] = \"expired\" */\n  swap1\n  dup1\n  mload\n  swap1\n  0x20\n  add\n  swap1\n  tag_20\n  swap3\n  swap2\n  swap1\n  tag_9\n  jump\t// in\ntag_20:\n  pop\n    /* \"system.sol\":1367:5273  contract CredentialBox is IssuerHelper {... */\n  jump(tag_21)\ntag_9:\n  dup3\n  dup1\n  sload\n  tag_22\n  swap1\n  tag_23\n  jump\t// in\ntag_22:\n  swap1\n  0x00\n  mstore\n  keccak256(0x00, 0x20)\n  swap1\n  0x1f\n  add\n  0x20\n  swap1\n  div\n  dup2\n  add\n  swap3\n  dup3\n  tag_25\n  jumpi\n  0x00\n  dup6\n  sstore\n  jump(tag_24)\ntag_25:\n  dup3\n  0x1f\n  lt\n  tag_26\n  jumpi\n  dup1\n  mload\n  not(0xff)\n  and\n  dup4\n  dup1\n  add\n  or\n  dup6\n  sstore\n  jump(tag_24)\ntag_26:\n  dup3\n  dup1\n  add\n  0x01\n  add\n  dup6\n  sstore\n  dup3\n  iszero\n  tag_24\n  jumpi\n  swap2\n  dup3\n  add\ntag_27:\n  dup3\n  dup2\n  gt\n  iszero\n  tag_28\n  jumpi\n  dup3\n  mload\n  dup3\n  sstore\n  swap2\n  0x20\n  add\n  swap2\n  swap1\n  0x01\n  add\n  swap1\n  jump(tag_27)\ntag_28:\ntag_24:\n  pop\n  swap1\n  pop\n  tag_29\n  swap2\n  swap1\n  tag_30\n  jump\t// in\ntag_29:\n  pop\n  swap1\n  jump\t// out\ntag_30:\ntag_31:\n  dup1\n  dup3\n  gt\n  iszero\n  tag_32\n  jumpi\n  0x00\n  dup2\n  0x00\n  swap1\n  sstore\n  pop\n  0x01\n  add\n  jump(tag_31)\ntag_32:\n  pop\n  swap1\n  jump\t// out\n    /* \"#utility.yul\":7:187   */\ntag_33:\n    /* \"#utility.yul\":55:132   */\n  0x4e487b7100000000000000000000000000000000000000000000000000000000\n    /* \"#utility.yul\":52:53   */\n  0x00\n    /* \"#utility.yul\":45:133   */\n  mstore\n    /* \"#utility.yul\":152:156   */\n  0x22\n    /* \"#utility.yul\":149:150   */\n  0x04\n    /* \"#utility.yul\":142:157   */\n  mstore\n    /* \"#utility.yul\":176:180   */\n  0x24\n    /* \"#utility.yul\":173:174   */\n  0x00\n    /* \"#utility.yul\":166:181   */\n  revert\n    /* \"#utility.yul\":193:513   */\ntag_23:\n    /* \"#utility.yul\":237:243   */\n  0x00\n    /* \"#utility.yul\":274:275   */\n  0x02\n    /* \"#utility.yul\":268:272   */\n  dup3\n    /* \"#utility.yul\":264:276   */\n  div\n    /* \"#utility.yul\":254:276   */\n  swap1\n  pop\n    /* \"#utility.yul\":321:322   */\n  0x01\n    /* \"#utility.yul\":315:319   */\n  dup3\n    /* \"#utility.yul\":311:323   */\n  and\n    /* \"#utility.yul\":342:360   */\n  dup1\n    /* \"#utility.yul\":332:413   */\n  tag_37\n  jumpi\n    /* \"#utility.yul\":398:402   */\n  0x7f\n    /* \"#utility.yul\":390:396   */\n  dup3\n    /* \"#utility.yul\":386:403   */\n  and\n    /* \"#utility.yul\":376:403   */\n  swap2\n  pop\n    /* \"#utility.yul\":332:413   */\ntag_37:\n    /* \"#utility.yul\":460:462   */\n  0x20\n    /* \"#utility.yul\":452:458   */\n  dup3\n    /* \"#utility.yul\":449:463   */\n  lt\n    /* \"#utility.yul\":429:447   */\n  dup2\n    /* \"#utility.yul\":426:464   */\n  eq\n    /* \"#utility.yul\":423:507   */\n  iszero\n  tag_38\n  jumpi\n    /* \"#utility.yul\":479:497   */\n  tag_39\n  tag_33\n  jump\t// in\ntag_39:\n    /* \"#utility.yul\":423:507   */\ntag_38:\n    /* \"#utility.yul\":244:513   */\n  pop\n    /* \"#utility.yul\":193:513   */\n  swap2\n  swap1\n  pop\n  jump\t// out\n    /* \"system.sol\":1367:5273  contract CredentialBox is IssuerHelper {... */\ntag_21:\n  dataSize(sub_0)\n  dup1\n  dataOffset(sub_0)\n  0x00\n  codecopy\n  0x00\n  return\nstop\n\nsub_0: assembly {\n        /* \"system.sol\":1367:5273  contract CredentialBox is IssuerHelper {... */\n      mstore(0x40, 0x80)\n      callvalue\n      dup1\n      iszero\n      tag_1\n      jumpi\n      0x00\n      dup1\n      revert\n    tag_1:\n      pop\n      jumpi(tag_2, lt(calldatasize, 0x04))\n      shr(0xe0, calldataload(0x00))\n      dup1\n      0x59a7aef3\n      gt\n      tag_20\n      jumpi\n      dup1\n      0xa30e2e54\n      gt\n      tag_21\n      jumpi\n      dup1\n      0xa30e2e54\n      eq\n      tag_15\n      jumpi\n      dup1\n      0xccdad14b\n      eq\n      tag_16\n      jumpi\n      dup1\n      0xd9c45826\n      eq\n      tag_17\n      jumpi\n      dup1\n      0xf2fde38b\n      eq\n      tag_18\n      jumpi\n      dup1\n      0xff63e7a8\n      eq\n      tag_19\n      jumpi\n      jump(tag_2)\n    tag_21:\n      dup1\n      0x59a7aef3\n      eq\n      tag_11\n      jumpi\n      dup1\n      0x7ebb1298\n      eq\n      tag_12\n      jumpi\n      dup1\n      0x877b9a67\n      eq\n      tag_13\n      jumpi\n      dup1\n      0x8e8261c3\n      eq\n      tag_14\n      jumpi\n      jump(tag_2)\n    tag_20:\n      dup1\n      0x34becfb4\n      gt\n      tag_22\n      jumpi\n      dup1\n      0x34becfb4\n      eq\n      tag_7\n      jumpi\n      dup1\n      0x38a7543e\n      eq\n      tag_8\n      jumpi\n      dup1\n      0x3f8a37dc\n      eq\n      tag_9\n      jumpi\n      dup1\n      0x4feadf41\n      eq\n      tag_10\n      jumpi\n      jump(tag_2)\n    tag_22:\n      dup1\n      0x05183a29\n      eq\n      tag_3\n      jumpi\n      dup1\n      0x0f42e6ac\n      eq\n      tag_4\n      jumpi\n      dup1\n      0x20694db0\n      eq\n      tag_5\n      jumpi\n      dup1\n      0x26827199\n      eq\n      tag_6\n      jumpi\n    tag_2:\n      0x00\n      dup1\n      revert\n        /* \"system.sol\":4297:4410  function getStatusType(uint8 _type) public view returns (string memory) {... */\n    tag_3:\n      tag_23\n      0x04\n      dup1\n      calldatasize\n      sub\n      dup2\n      add\n      swap1\n      tag_24\n      swap2\n      swap1\n      tag_25\n      jump\t// in\n    tag_24:\n      tag_26\n      jump\t// in\n    tag_23:\n      mload(0x40)\n      tag_27\n      swap2\n      swap1\n      tag_28\n      jump\t// in\n    tag_27:\n      mload(0x40)\n      dup1\n      swap2\n      sub\n      swap1\n      return\n        /* \"system.sol\":4897:5006  function getNoteType(uint8 _type) public view returns (string memory) {... */\n    tag_4:\n      tag_29\n      0x04\n      dup1\n      calldatasize\n      sub\n      dup2\n      add\n      swap1\n      tag_30\n      swap2\n      swap1\n      tag_25\n      jump\t// in\n    tag_30:\n      tag_31\n      jump\t// in\n    tag_29:\n      mload(0x40)\n      tag_32\n      swap2\n      swap1\n      tag_28\n      jump\t// in\n    tag_32:\n      mload(0x40)\n      dup1\n      swap2\n      sub\n      swap1\n      return\n        /* \"system.sol\":961:1159  function addIssuer(address _addr) onlyOwner public returns (bool) {... */\n    tag_5:\n      tag_33\n      0x04\n      dup1\n      calldatasize\n      sub\n      dup2\n      add\n      swap1\n      tag_34\n      swap2\n      swap1\n      tag_35\n      jump\t// in\n    tag_34:\n      tag_36\n      jump\t// in\n    tag_33:\n      mload(0x40)\n      tag_37\n      swap2\n      swap1\n      tag_38\n      jump\t// in\n    tag_37:\n      mload(0x40)\n      dup1\n      swap2\n      sub\n      swap1\n      return\n        /* \"system.sol\":2337:2886  function claimCredential(address _personAddress, uint8 _vaccineType, uint8 _statusType, uint8 _noteType) onlyIssuer public returns(bool){... */\n    tag_6:\n      tag_39\n      0x04\n      dup1\n      calldatasize\n      sub\n      dup2\n      add\n      swap1\n      tag_40\n      swap2\n      swap1\n      tag_41\n      jump\t// in\n    tag_40:\n      tag_42\n      jump\t// in\n    tag_39:\n      mload(0x40)\n      tag_43\n      swap2\n      swap1\n      tag_38\n      jump\t// in\n    tag_43:\n      mload(0x40)\n      dup1\n      swap2\n      sub\n      swap1\n      return\n        /* \"system.sol\":1165:1363  function delIssuer(address _addr) onlyOwner public returns (bool) {... */\n    tag_7:\n      tag_44\n      0x04\n      dup1\n      calldatasize\n      sub\n      dup2\n      add\n      swap1\n      tag_45\n      swap2\n      swap1\n      tag_35\n      jump\t// in\n    tag_45:\n      tag_46\n      jump\t// in\n    tag_44:\n      mload(0x40)\n      tag_47\n      swap2\n      swap1\n      tag_38\n      jump\t// in\n    tag_47:\n      mload(0x40)\n      dup1\n      swap2\n      sub\n      swap1\n      return\n        /* \"system.sol\":564:603  mapping(address => bool) public issuers */\n    tag_8:\n      tag_48\n      0x04\n      dup1\n      calldatasize\n      sub\n      dup2\n      add\n      swap1\n      tag_49\n      swap2\n      swap1\n      tag_35\n      jump\t// in\n    tag_49:\n      tag_50\n      jump\t// in\n    tag_48:\n      mload(0x40)\n      tag_51\n      swap2\n      swap1\n      tag_38\n      jump\t// in\n    tag_51:\n      mload(0x40)\n      dup1\n      swap2\n      sub\n      swap1\n      return\n        /* \"system.sol\":3686:3801  function getVaccineType(uint8 _type) public view returns (string memory) {... */\n    tag_9:\n      tag_52\n      0x04\n      dup1\n      calldatasize\n      sub\n      dup2\n      add\n      swap1\n      tag_53\n      swap2\n      swap1\n      tag_25\n      jump\t// in\n    tag_53:\n      tag_54\n      jump\t// in\n    tag_52:\n      mload(0x40)\n      tag_55\n      swap2\n      swap1\n      tag_28\n      jump\t// in\n    tag_55:\n      mload(0x40)\n      dup1\n      swap2\n      sub\n      swap1\n      return\n        /* \"system.sol\":5012:5270  function changeNote(address _person, uint8 _type) onlyIssuer public returns (bool) {... */\n    tag_10:\n      tag_56\n      0x04\n      dup1\n      calldatasize\n      sub\n      dup2\n      add\n      swap1\n      tag_57\n      swap2\n      swap1\n      tag_58\n      jump\t// in\n    tag_57:\n      tag_59\n      jump\t// in\n    tag_56:\n      mload(0x40)\n      tag_60\n      swap2\n      swap1\n      tag_38\n      jump\t// in\n    tag_60:\n      mload(0x40)\n      dup1\n      swap2\n      sub\n      swap1\n      return\n        /* \"system.sol\":3465:3680  function addVaccineType(uint8 _type, string calldata _value) onlyIssuer public returns (bool) {... */\n    tag_11:\n      tag_61\n      0x04\n      dup1\n      calldatasize\n      sub\n      dup2\n      add\n      swap1\n      tag_62\n      swap2\n      swap1\n      tag_63\n      jump\t// in\n    tag_62:\n      tag_64\n      jump\t// in\n    tag_61:\n      mload(0x40)\n      tag_65\n      swap2\n      swap1\n      tag_38\n      jump\t// in\n    tag_65:\n      mload(0x40)\n      dup1\n      swap2\n      sub\n      swap1\n      return\n        /* \"system.sol\":3807:4074  function changeVaccine(address _person, uint8 _type) onlyIssuer public returns (bool) {... */\n    tag_12:\n      tag_66\n      0x04\n      dup1\n      calldatasize\n      sub\n      dup2\n      add\n      swap1\n      tag_67\n      swap2\n      swap1\n      tag_58\n      jump\t// in\n    tag_67:\n      tag_68\n      jump\t// in\n    tag_66:\n      mload(0x40)\n      tag_69\n      swap2\n      swap1\n      tag_38\n      jump\t// in\n    tag_69:\n      mload(0x40)\n      dup1\n      swap2\n      sub\n      swap1\n      return\n        /* \"system.sol\":857:955  function isIssuer(address _addr) public view returns (bool) {... */\n    tag_13:\n      tag_70\n      0x04\n      dup1\n      calldatasize\n      sub\n      dup2\n      add\n      swap1\n      tag_71\n      swap2\n      swap1\n      tag_35\n      jump\t// in\n    tag_71:\n      tag_72\n      jump\t// in\n    tag_70:\n      mload(0x40)\n      tag_73\n      swap2\n      swap1\n      tag_38\n      jump\t// in\n    tag_73:\n      mload(0x40)\n      dup1\n      swap2\n      sub\n      swap1\n      return\n        /* \"system.sol\":4686:4891  function addNoteType(uint8 _type, string calldata _value) onlyIssuer public returns (bool){... */\n    tag_14:\n      tag_74\n      0x04\n      dup1\n      calldatasize\n      sub\n      dup2\n      add\n      swap1\n      tag_75\n      swap2\n      swap1\n      tag_63\n      jump\t// in\n    tag_75:\n      tag_76\n      jump\t// in\n    tag_74:\n      mload(0x40)\n      tag_77\n      swap2\n      swap1\n      tag_38\n      jump\t// in\n    tag_77:\n      mload(0x40)\n      dup1\n      swap2\n      sub\n      swap1\n      return\n        /* \"system.sol\":4080:4291  function addStatusType(uint8 _type, string calldata _value) onlyIssuer public returns (bool){... */\n    tag_15:\n      tag_78\n      0x04\n      dup1\n      calldatasize\n      sub\n      dup2\n      add\n      swap1\n      tag_79\n      swap2\n      swap1\n      tag_63\n      jump\t// in\n    tag_79:\n      tag_80\n      jump\t// in\n    tag_78:\n      mload(0x40)\n      tag_81\n      swap2\n      swap1\n      tag_38\n      jump\t// in\n    tag_81:\n      mload(0x40)\n      dup1\n      swap2\n      sub\n      swap1\n      return\n        /* \"system.sol\":2892:3029  function getCredential(address _personAddress) public view returns (Credential memory){... */\n    tag_16:\n      tag_82\n      0x04\n      dup1\n      calldatasize\n      sub\n      dup2\n      add\n      swap1\n      tag_83\n      swap2\n      swap1\n      tag_35\n      jump\t// in\n    tag_83:\n      tag_84\n      jump\t// in\n    tag_82:\n      mload(0x40)\n      tag_85\n      swap2\n      swap1\n      tag_86\n      jump\t// in\n    tag_85:\n      mload(0x40)\n      dup1\n      swap2\n      sub\n      swap1\n      return\n        /* \"system.sol\":3035:3459  function passOrNot(address _person, uint8 _vaccineType, uint8 _statusType) public view returns (bool){... */\n    tag_17:\n      tag_87\n      0x04\n      dup1\n      calldatasize\n      sub\n      dup2\n      add\n      swap1\n      tag_88\n      swap2\n      swap1\n      tag_89\n      jump\t// in\n    tag_88:\n      tag_90\n      jump\t// in\n    tag_87:\n      mload(0x40)\n      tag_91\n      swap2\n      swap1\n      tag_38\n      jump\t// in\n    tag_91:\n      mload(0x40)\n      dup1\n      swap2\n      sub\n      swap1\n      return\n        /* \"system.sol\":314:508  function transferOwnership(address _to) onlyOwner public {... */\n    tag_18:\n      tag_92\n      0x04\n      dup1\n      calldatasize\n      sub\n      dup2\n      add\n      swap1\n      tag_93\n      swap2\n      swap1\n      tag_35\n      jump\t// in\n    tag_93:\n      tag_94\n      jump\t// in\n    tag_92:\n      stop\n        /* \"system.sol\":4416:4680  function changeStatus(address _person, uint8 _type) onlyIssuer public returns (bool) {... */\n    tag_19:\n      tag_95\n      0x04\n      dup1\n      calldatasize\n      sub\n      dup2\n      add\n      swap1\n      tag_96\n      swap2\n      swap1\n      tag_58\n      jump\t// in\n    tag_96:\n      tag_97\n      jump\t// in\n    tag_95:\n      mload(0x40)\n      tag_98\n      swap2\n      swap1\n      tag_38\n      jump\t// in\n    tag_98:\n      mload(0x40)\n      dup1\n      swap2\n      sub\n      swap1\n      return\n        /* \"system.sol\":4297:4410  function getStatusType(uint8 _type) public view returns (string memory) {... */\n    tag_26:\n        /* \"system.sol\":4354:4367  string memory */\n      0x60\n        /* \"system.sol\":4386:4396  statusEnum */\n      0x04\n        /* \"system.sol\":4386:4403  statusEnum[_type] */\n      0x00\n        /* \"system.sol\":4397:4402  _type */\n      dup4\n        /* \"system.sol\":4386:4403  statusEnum[_type] */\n      0xff\n      and\n      0xff\n      and\n      dup2\n      mstore\n      0x20\n      add\n      swap1\n      dup2\n      mstore\n      0x20\n      add\n      0x00\n      keccak256\n        /* \"system.sol\":4379:4403  return statusEnum[_type] */\n      dup1\n      sload\n      tag_100\n      swap1\n      tag_101\n      jump\t// in\n    tag_100:\n      dup1\n      0x1f\n      add\n      0x20\n      dup1\n      swap2\n      div\n      mul\n      0x20\n      add\n      mload(0x40)\n      swap1\n      dup2\n      add\n      0x40\n      mstore\n      dup1\n      swap3\n      swap2\n      swap1\n      dup2\n      dup2\n      mstore\n      0x20\n      add\n      dup3\n      dup1\n      sload\n      tag_102\n      swap1\n      tag_101\n      jump\t// in\n    tag_102:\n      dup1\n      iszero\n      tag_103\n      jumpi\n      dup1\n      0x1f\n      lt\n      tag_104\n      jumpi\n      0x0100\n      dup1\n      dup4\n      sload\n      div\n      mul\n      dup4\n      mstore\n      swap2\n      0x20\n      add\n      swap2\n      jump(tag_103)\n    tag_104:\n      dup3\n      add\n      swap2\n      swap1\n      0x00\n      mstore\n      keccak256(0x00, 0x20)\n      swap1\n    tag_105:\n      dup2\n      sload\n      dup2\n      mstore\n      swap1\n      0x01\n      add\n      swap1\n      0x20\n      add\n      dup1\n      dup4\n      gt\n      tag_105\n      jumpi\n      dup3\n      swap1\n      sub\n      0x1f\n      and\n      dup3\n      add\n      swap2\n    tag_103:\n      pop\n      pop\n      pop\n      pop\n      pop\n      swap1\n      pop\n        /* \"system.sol\":4297:4410  function getStatusType(uint8 _type) public view returns (string memory) {... */\n      swap2\n      swap1\n      pop\n      jump\t// out\n        /* \"system.sol\":4897:5006  function getNoteType(uint8 _type) public view returns (string memory) {... */\n    tag_31:\n        /* \"system.sol\":4952:4965  string memory */\n      0x60\n        /* \"system.sol\":4984:4992  noteEnum */\n      0x05\n        /* \"system.sol\":4984:4999  noteEnum[_type] */\n      0x00\n        /* \"system.sol\":4993:4998  _type */\n      dup4\n        /* \"system.sol\":4984:4999  noteEnum[_type] */\n      0xff\n      and\n      0xff\n      and\n      dup2\n      mstore\n      0x20\n      add\n      swap1\n      dup2\n      mstore\n      0x20\n      add\n      0x00\n      keccak256\n        /* \"system.sol\":4977:4999  return noteEnum[_type] */\n      dup1\n      sload\n      tag_107\n      swap1\n      tag_101\n      jump\t// in\n    tag_107:\n      dup1\n      0x1f\n      add\n      0x20\n      dup1\n      swap2\n      div\n      mul\n      0x20\n      add\n      mload(0x40)\n      swap1\n      dup2\n      add\n      0x40\n      mstore\n      dup1\n      swap3\n      swap2\n      swap1\n      dup2\n      dup2\n      mstore\n      0x20\n      add\n      dup3\n      dup1\n      sload\n      tag_108\n      swap1\n      tag_101\n      jump\t// in\n    tag_108:\n      dup1\n      iszero\n      tag_109\n      jumpi\n      dup1\n      0x1f\n      lt\n      tag_110\n      jumpi\n      0x0100\n      dup1\n      dup4\n      sload\n      div\n      mul\n      dup4\n      mstore\n      swap2\n      0x20\n      add\n      swap2\n      jump(tag_109)\n    tag_110:\n      dup3\n      add\n      swap2\n      swap1\n      0x00\n      mstore\n      keccak256(0x00, 0x20)\n      swap1\n    tag_111:\n      dup2\n      sload\n      dup2\n      mstore\n      swap1\n      0x01\n      add\n      swap1\n      0x20\n      add\n      dup1\n      dup4\n      gt\n      tag_111\n      jumpi\n      dup3\n      swap1\n      sub\n      0x1f\n      and\n      dup3\n      add\n      swap2\n    tag_109:\n      pop\n      pop\n      pop\n      pop\n      pop\n      swap1\n      pop\n        /* \"system.sol\":4897:5006  function getNoteType(uint8 _type) public view returns (string memory) {... */\n      swap2\n      swap1\n      pop\n      jump\t// out\n        /* \"system.sol\":961:1159  function addIssuer(address _addr) onlyOwner public returns (bool) {... */\n    tag_36:\n        /* \"system.sol\":1021:1025  bool */\n      0x00\n        /* \"system.sol\":245:250  owner */\n      dup1\n      0x00\n      swap1\n      sload\n      swap1\n      0x0100\n      exp\n      swap1\n      div\n      0xffffffffffffffffffffffffffffffffffffffff\n      and\n        /* \"system.sol\":231:250  msg.sender == owner */\n      0xffffffffffffffffffffffffffffffffffffffff\n      and\n        /* \"system.sol\":231:241  msg.sender */\n      caller\n        /* \"system.sol\":231:250  msg.sender == owner */\n      0xffffffffffffffffffffffffffffffffffffffff\n      and\n      eq\n        /* \"system.sol\":223:251  require(msg.sender == owner) */\n      tag_113\n      jumpi\n      0x00\n      dup1\n      revert\n    tag_113:\n        /* \"system.sol\":1063:1068  false */\n      0x00\n        /* \"system.sol\":1045:1068  issuers[_addr] == false */\n      iszero\n      iszero\n        /* \"system.sol\":1045:1052  issuers */\n      0x01\n        /* \"system.sol\":1045:1059  issuers[_addr] */\n      0x00\n        /* \"system.sol\":1053:1058  _addr */\n      dup5\n        /* \"system.sol\":1045:1059  issuers[_addr] */\n      0xffffffffffffffffffffffffffffffffffffffff\n      and\n      0xffffffffffffffffffffffffffffffffffffffff\n      and\n      dup2\n      mstore\n      0x20\n      add\n      swap1\n      dup2\n      mstore\n      0x20\n      add\n      0x00\n      keccak256\n      0x00\n      swap1\n      sload\n      swap1\n      0x0100\n      exp\n      swap1\n      div\n      0xff\n      and\n        /* \"system.sol\":1045:1068  issuers[_addr] == false */\n      iszero\n      iszero\n      eq\n        /* \"system.sol\":1037:1069  require(issuers[_addr] == false) */\n      tag_115\n      jumpi\n      0x00\n      dup1\n      revert\n    tag_115:\n        /* \"system.sol\":1096:1100  true */\n      0x01\n        /* \"system.sol\":1079:1086  issuers */\n      dup1\n        /* \"system.sol\":1079:1093  issuers[_addr] */\n      0x00\n        /* \"system.sol\":1087:1092  _addr */\n      dup5\n        /* \"system.sol\":1079:1093  issuers[_addr] */\n      0xffffffffffffffffffffffffffffffffffffffff\n      and\n      0xffffffffffffffffffffffffffffffffffffffff\n      and\n      dup2\n      mstore\n      0x20\n      add\n      swap1\n      dup2\n      mstore\n      0x20\n      add\n      0x00\n      keccak256\n      0x00\n        /* \"system.sol\":1079:1100  issuers[_addr] = true */\n      0x0100\n      exp\n      dup2\n      sload\n      dup2\n      0xff\n      mul\n      not\n      and\n      swap1\n      dup4\n      iszero\n      iszero\n      mul\n      or\n      swap1\n      sstore\n      pop\n        /* \"system.sol\":1125:1130  _addr */\n      dup2\n        /* \"system.sol\":1115:1131  AddIssuer(_addr) */\n      0xffffffffffffffffffffffffffffffffffffffff\n      and\n      0x27aa0506e4da65b95bd4f61c697076f8c7dcb69b2c0937d11efa9ceaa3bf5a95\n      mload(0x40)\n      mload(0x40)\n      dup1\n      swap2\n      sub\n      swap1\n      log2\n        /* \"system.sol\":1148:1152  true */\n      0x01\n        /* \"system.sol\":1141:1152  return true */\n      swap1\n      pop\n        /* \"system.sol\":961:1159  function addIssuer(address _addr) onlyOwner public returns (bool) {... */\n      swap2\n      swap1\n      pop\n      jump\t// out\n        /* \"system.sol\":2337:2886  function claimCredential(address _personAddress, uint8 _vaccineType, uint8 _statusType, uint8 _noteType) onlyIssuer public returns(bool){... */\n    tag_42:\n        /* \"system.sol\":2468:2472  bool */\n      0x00\n        /* \"system.sol\":765:769  true */\n      0x01\n        /* \"system.sol\":741:769  isIssuer(msg.sender) == true */\n      iszero\n      iszero\n        /* \"system.sol\":741:761  isIssuer(msg.sender) */\n      tag_117\n        /* \"system.sol\":750:760  msg.sender */\n      caller\n        /* \"system.sol\":741:749  isIssuer */\n      tag_72\n        /* \"system.sol\":741:761  isIssuer(msg.sender) */\n      jump\t// in\n    tag_117:\n        /* \"system.sol\":741:769  isIssuer(msg.sender) == true */\n      iszero\n      iszero\n      eq\n        /* \"system.sol\":733:770  require(isIssuer(msg.sender) == true) */\n      tag_118\n      jumpi\n      0x00\n      dup1\n      revert\n    tag_118:\n        /* \"system.sol\":2483:2512  Credential storage credential */\n      0x00\n        /* \"system.sol\":2515:2526  credentials */\n      0x06\n        /* \"system.sol\":2515:2542  credentials[_personAddress] */\n      0x00\n        /* \"system.sol\":2527:2541  _personAddress */\n      dup8\n        /* \"system.sol\":2515:2542  credentials[_personAddress] */\n      0xffffffffffffffffffffffffffffffffffffffff\n      and\n      0xffffffffffffffffffffffffffffffffffffffff\n      and\n      dup2\n      mstore\n      0x20\n      add\n      swap1\n      dup2\n      mstore\n      0x20\n      add\n      0x00\n      keccak256\n        /* \"system.sol\":2483:2542  Credential storage credential = credentials[_personAddress] */\n      swap1\n      pop\n        /* \"system.sol\":2577:2578  0 */\n      0x00\n        /* \"system.sol\":2560:2570  credential */\n      dup2\n        /* \"system.sol\":2560:2573  credential.id */\n      0x00\n      add\n      sload\n        /* \"system.sol\":2560:2578  credential.id == 0 */\n      eq\n        /* \"system.sol\":2552:2579  require(credential.id == 0) */\n      tag_120\n      jumpi\n      0x00\n      dup1\n      revert\n    tag_120:\n        /* \"system.sol\":2605:2612  idCount */\n      sload(0x02)\n        /* \"system.sol\":2589:2599  credential */\n      dup2\n        /* \"system.sol\":2589:2602  credential.id */\n      0x00\n      add\n        /* \"system.sol\":2589:2612  credential.id = idCount */\n      dup2\n      swap1\n      sstore\n      pop\n        /* \"system.sol\":2642:2652  msg.sender */\n      caller\n        /* \"system.sol\":2622:2632  credential */\n      dup2\n        /* \"system.sol\":2622:2639  credential.issuer */\n      0x01\n      add\n      0x00\n        /* \"system.sol\":2622:2652  credential.issuer = msg.sender */\n      0x0100\n      exp\n      dup2\n      sload\n      dup2\n      0xffffffffffffffffffffffffffffffffffffffff\n      mul\n      not\n      and\n      swap1\n      dup4\n      0xffffffffffffffffffffffffffffffffffffffff\n      and\n      mul\n      or\n      swap1\n      sstore\n      pop\n        /* \"system.sol\":2687:2699  _vaccineType */\n      dup5\n        /* \"system.sol\":2662:2672  credential */\n      dup2\n        /* \"system.sol\":2662:2684  credential.vaccineType */\n      0x01\n      add\n      0x14\n        /* \"system.sol\":2662:2699  credential.vaccineType = _vaccineType */\n      0x0100\n      exp\n      dup2\n      sload\n      dup2\n      0xff\n      mul\n      not\n      and\n      swap1\n      dup4\n      0xff\n      and\n      mul\n      or\n      swap1\n      sstore\n      pop\n        /* \"system.sol\":2733:2744  _statusType */\n      dup4\n        /* \"system.sol\":2709:2719  credential */\n      dup2\n        /* \"system.sol\":2709:2730  credential.statusType */\n      0x01\n      add\n      0x15\n        /* \"system.sol\":2709:2744  credential.statusType = _statusType */\n      0x0100\n      exp\n      dup2\n      sload\n      dup2\n      0xff\n      mul\n      not\n      and\n      swap1\n      dup4\n      0xff\n      and\n      mul\n      or\n      swap1\n      sstore\n      pop\n        /* \"system.sol\":2776:2785  _noteType */\n      dup3\n        /* \"system.sol\":2754:2764  credential */\n      dup2\n        /* \"system.sol\":2754:2773  credential.noteType */\n      0x01\n      add\n      0x16\n        /* \"system.sol\":2754:2785  credential.noteType = _noteType */\n      0x0100\n      exp\n      dup2\n      sload\n      dup2\n      0xff\n      mul\n      not\n      and\n      swap1\n      dup4\n      0xff\n      and\n      mul\n      or\n      swap1\n      sstore\n      pop\n        /* \"system.sol\":2819:2834  block.timestamp */\n      timestamp\n        /* \"system.sol\":2795:2805  credential */\n      dup2\n        /* \"system.sol\":2795:2816  credential.createDate */\n      0x02\n      add\n        /* \"system.sol\":2795:2834  credential.createDate = block.timestamp */\n      dup2\n      swap1\n      sstore\n      pop\n        /* \"system.sol\":2856:2857  1 */\n      0x01\n        /* \"system.sol\":2845:2852  idCount */\n      0x02\n      0x00\n        /* \"system.sol\":2845:2857  idCount += 1 */\n      dup3\n      dup3\n      sload\n      tag_121\n      swap2\n      swap1\n      tag_122\n      jump\t// in\n    tag_121:\n      swap3\n      pop\n      pop\n      dup2\n      swap1\n      sstore\n      pop\n        /* \"system.sol\":2875:2879  true */\n      0x01\n        /* \"system.sol\":2868:2879  return true */\n      swap2\n      pop\n      pop\n        /* \"system.sol\":2337:2886  function claimCredential(address _personAddress, uint8 _vaccineType, uint8 _statusType, uint8 _noteType) onlyIssuer public returns(bool){... */\n      swap5\n      swap4\n      pop\n      pop\n      pop\n      pop\n      jump\t// out\n        /* \"system.sol\":1165:1363  function delIssuer(address _addr) onlyOwner public returns (bool) {... */\n    tag_46:\n        /* \"system.sol\":1225:1229  bool */\n      0x00\n        /* \"system.sol\":245:250  owner */\n      dup1\n      0x00\n      swap1\n      sload\n      swap1\n      0x0100\n      exp\n      swap1\n      div\n      0xffffffffffffffffffffffffffffffffffffffff\n      and\n        /* \"system.sol\":231:250  msg.sender == owner */\n      0xffffffffffffffffffffffffffffffffffffffff\n      and\n        /* \"system.sol\":231:241  msg.sender */\n      caller\n        /* \"system.sol\":231:250  msg.sender == owner */\n      0xffffffffffffffffffffffffffffffffffffffff\n      and\n      eq\n        /* \"system.sol\":223:251  require(msg.sender == owner) */\n      tag_124\n      jumpi\n      0x00\n      dup1\n      revert\n    tag_124:\n        /* \"system.sol\":1267:1271  true */\n      0x01\n        /* \"system.sol\":1249:1271  issuers[_addr] == true */\n      iszero\n      iszero\n        /* \"system.sol\":1249:1256  issuers */\n      0x01\n        /* \"system.sol\":1249:1263  issuers[_addr] */\n      0x00\n        /* \"system.sol\":1257:1262  _addr */\n      dup5\n        /* \"system.sol\":1249:1263  issuers[_addr] */\n      0xffffffffffffffffffffffffffffffffffffffff\n      and\n      0xffffffffffffffffffffffffffffffffffffffff\n      and\n      dup2\n      mstore\n      0x20\n      add\n      swap1\n      dup2\n      mstore\n      0x20\n      add\n      0x00\n      keccak256\n      0x00\n      swap1\n      sload\n      swap1\n      0x0100\n      exp\n      swap1\n      div\n      0xff\n      and\n        /* \"system.sol\":1249:1271  issuers[_addr] == true */\n      iszero\n      iszero\n      eq\n        /* \"system.sol\":1241:1272  require(issuers[_addr] == true) */\n      tag_126\n      jumpi\n      0x00\n      dup1\n      revert\n    tag_126:\n        /* \"system.sol\":1299:1304  false */\n      0x00\n        /* \"system.sol\":1282:1289  issuers */\n      0x01\n        /* \"system.sol\":1282:1296  issuers[_addr] */\n      0x00\n        /* \"system.sol\":1290:1295  _addr */\n      dup5\n        /* \"system.sol\":1282:1296  issuers[_addr] */\n      0xffffffffffffffffffffffffffffffffffffffff\n      and\n      0xffffffffffffffffffffffffffffffffffffffff\n      and\n      dup2\n      mstore\n      0x20\n      add\n      swap1\n      dup2\n      mstore\n      0x20\n      add\n      0x00\n      keccak256\n      0x00\n        /* \"system.sol\":1282:1304  issuers[_addr] = false */\n      0x0100\n      exp\n      dup2\n      sload\n      dup2\n      0xff\n      mul\n      not\n      and\n      swap1\n      dup4\n      iszero\n      iszero\n      mul\n      or\n      swap1\n      sstore\n      pop\n        /* \"system.sol\":1329:1334  _addr */\n      dup2\n        /* \"system.sol\":1319:1335  DelIssuer(_addr) */\n      0xffffffffffffffffffffffffffffffffffffffff\n      and\n      0xee5d7d94405e51eec1bd7f59c36572787d25afb6c85e3a897bb782f08aac7d44\n      mload(0x40)\n      mload(0x40)\n      dup1\n      swap2\n      sub\n      swap1\n      log2\n        /* \"system.sol\":1352:1356  true */\n      0x01\n        /* \"system.sol\":1345:1356  return true */\n      swap1\n      pop\n        /* \"system.sol\":1165:1363  function delIssuer(address _addr) onlyOwner public returns (bool) {... */\n      swap2\n      swap1\n      pop\n      jump\t// out\n        /* \"system.sol\":564:603  mapping(address => bool) public issuers */\n    tag_50:\n      mstore(0x20, 0x01)\n      dup1\n      0x00\n      mstore\n      keccak256(0x00, 0x40)\n      0x00\n      swap2\n      pop\n      sload\n      swap1\n      0x0100\n      exp\n      swap1\n      div\n      0xff\n      and\n      dup2\n      jump\t// out\n        /* \"system.sol\":3686:3801  function getVaccineType(uint8 _type) public view returns (string memory) {... */\n    tag_54:\n        /* \"system.sol\":3744:3757  string memory */\n      0x60\n        /* \"system.sol\":3776:3787  vaccineEnum */\n      0x03\n        /* \"system.sol\":3776:3794  vaccineEnum[_type] */\n      0x00\n        /* \"system.sol\":3788:3793  _type */\n      dup4\n        /* \"system.sol\":3776:3794  vaccineEnum[_type] */\n      0xff\n      and\n      0xff\n      and\n      dup2\n      mstore\n      0x20\n      add\n      swap1\n      dup2\n      mstore\n      0x20\n      add\n      0x00\n      keccak256\n        /* \"system.sol\":3769:3794  return vaccineEnum[_type] */\n      dup1\n      sload\n      tag_128\n      swap1\n      tag_101\n      jump\t// in\n    tag_128:\n      dup1\n      0x1f\n      add\n      0x20\n      dup1\n      swap2\n      div\n      mul\n      0x20\n      add\n      mload(0x40)\n      swap1\n      dup2\n      add\n      0x40\n      mstore\n      dup1\n      swap3\n      swap2\n      swap1\n      dup2\n      dup2\n      mstore\n      0x20\n      add\n      dup3\n      dup1\n      sload\n      tag_129\n      swap1\n      tag_101\n      jump\t// in\n    tag_129:\n      dup1\n      iszero\n      tag_130\n      jumpi\n      dup1\n      0x1f\n      lt\n      tag_131\n      jumpi\n      0x0100\n      dup1\n      dup4\n      sload\n      div\n      mul\n      dup4\n      mstore\n      swap2\n      0x20\n      add\n      swap2\n      jump(tag_130)\n    tag_131:\n      dup3\n      add\n      swap2\n      swap1\n      0x00\n      mstore\n      keccak256(0x00, 0x20)\n      swap1\n    tag_132:\n      dup2\n      sload\n      dup2\n      mstore\n      swap1\n      0x01\n      add\n      swap1\n      0x20\n      add\n      dup1\n      dup4\n      gt\n      tag_132\n      jumpi\n      dup3\n      swap1\n      sub\n      0x1f\n      and\n      dup3\n      add\n      swap2\n    tag_130:\n      pop\n      pop\n      pop\n      pop\n      pop\n      swap1\n      pop\n        /* \"system.sol\":3686:3801  function getVaccineType(uint8 _type) public view returns (string memory) {... */\n      swap2\n      swap1\n      pop\n      jump\t// out\n        /* \"system.sol\":5012:5270  function changeNote(address _person, uint8 _type) onlyIssuer public returns (bool) {... */\n    tag_59:\n        /* \"system.sol\":5089:5093  bool */\n      0x00\n        /* \"system.sol\":765:769  true */\n      0x01\n        /* \"system.sol\":741:769  isIssuer(msg.sender) == true */\n      iszero\n      iszero\n        /* \"system.sol\":741:761  isIssuer(msg.sender) */\n      tag_134\n        /* \"system.sol\":750:760  msg.sender */\n      caller\n        /* \"system.sol\":741:749  isIssuer */\n      tag_72\n        /* \"system.sol\":741:761  isIssuer(msg.sender) */\n      jump\t// in\n    tag_134:\n        /* \"system.sol\":741:769  isIssuer(msg.sender) == true */\n      iszero\n      iszero\n      eq\n        /* \"system.sol\":733:770  require(isIssuer(msg.sender) == true) */\n      tag_135\n      jumpi\n      0x00\n      dup1\n      revert\n    tag_135:\n        /* \"system.sol\":5140:5141  0 */\n      0x00\n        /* \"system.sol\":5113:5124  credentials */\n      0x06\n        /* \"system.sol\":5113:5133  credentials[_person] */\n      0x00\n        /* \"system.sol\":5125:5132  _person */\n      dup6\n        /* \"system.sol\":5113:5133  credentials[_person] */\n      0xffffffffffffffffffffffffffffffffffffffff\n      and\n      0xffffffffffffffffffffffffffffffffffffffff\n      and\n      dup2\n      mstore\n      0x20\n      add\n      swap1\n      dup2\n      mstore\n      0x20\n      add\n      0x00\n      keccak256\n        /* \"system.sol\":5113:5136  credentials[_person].id */\n      0x00\n      add\n      sload\n        /* \"system.sol\":5113:5141  credentials[_person].id != 0 */\n      eq\n      iszero\n        /* \"system.sol\":5105:5142  require(credentials[_person].id != 0) */\n      tag_137\n      jumpi\n      0x00\n      dup1\n      revert\n    tag_137:\n        /* \"system.sol\":5193:5194  0 */\n      0x00\n        /* \"system.sol\":5166:5174  noteEnum */\n      0x05\n        /* \"system.sol\":5166:5181  noteEnum[_type] */\n      0x00\n        /* \"system.sol\":5175:5180  _type */\n      dup5\n        /* \"system.sol\":5166:5181  noteEnum[_type] */\n      0xff\n      and\n      0xff\n      and\n      dup2\n      mstore\n      0x20\n      add\n      swap1\n      dup2\n      mstore\n      0x20\n      add\n      0x00\n      keccak256\n        /* \"system.sol\":5160:5189  bytes(noteEnum[_type]).length */\n      dup1\n      sload\n      tag_138\n      swap1\n      tag_101\n      jump\t// in\n    tag_138:\n      swap1\n      pop\n        /* \"system.sol\":5160:5194  bytes(noteEnum[_type]).length != 0 */\n      eq\n      iszero\n        /* \"system.sol\":5152:5195  require(bytes(noteEnum[_type]).length != 0) */\n      tag_139\n      jumpi\n      0x00\n      dup1\n      revert\n    tag_139:\n        /* \"system.sol\":5237:5242  _type */\n      dup2\n        /* \"system.sol\":5205:5216  credentials */\n      0x06\n        /* \"system.sol\":5205:5225  credentials[_person] */\n      0x00\n        /* \"system.sol\":5217:5224  _person */\n      dup6\n        /* \"system.sol\":5205:5225  credentials[_person] */\n      0xffffffffffffffffffffffffffffffffffffffff\n      and\n      0xffffffffffffffffffffffffffffffffffffffff\n      and\n      dup2\n      mstore\n      0x20\n      add\n      swap1\n      dup2\n      mstore\n      0x20\n      add\n      0x00\n      keccak256\n        /* \"system.sol\":5205:5234  credentials[_person].noteType */\n      0x01\n      add\n      0x16\n        /* \"system.sol\":5205:5242  credentials[_person].noteType = _type */\n      0x0100\n      exp\n      dup2\n      sload\n      dup2\n      0xff\n      mul\n      not\n      and\n      swap1\n      dup4\n      0xff\n      and\n      mul\n      or\n      swap1\n      sstore\n      pop\n        /* \"system.sol\":5259:5263  true */\n      0x01\n        /* \"system.sol\":5252:5263  return true */\n      swap1\n      pop\n        /* \"system.sol\":5012:5270  function changeNote(address _person, uint8 _type) onlyIssuer public returns (bool) {... */\n      swap3\n      swap2\n      pop\n      pop\n      jump\t// out\n        /* \"system.sol\":3465:3680  function addVaccineType(uint8 _type, string calldata _value) onlyIssuer public returns (bool) {... */\n    tag_64:\n        /* \"system.sol\":3553:3557  bool */\n      0x00\n        /* \"system.sol\":765:769  true */\n      0x01\n        /* \"system.sol\":741:769  isIssuer(msg.sender) == true */\n      iszero\n      iszero\n        /* \"system.sol\":741:761  isIssuer(msg.sender) */\n      tag_141\n        /* \"system.sol\":750:760  msg.sender */\n      caller\n        /* \"system.sol\":741:749  isIssuer */\n      tag_72\n        /* \"system.sol\":741:761  isIssuer(msg.sender) */\n      jump\t// in\n    tag_141:\n        /* \"system.sol\":741:769  isIssuer(msg.sender) == true */\n      iszero\n      iszero\n      eq\n        /* \"system.sol\":733:770  require(isIssuer(msg.sender) == true) */\n      tag_142\n      jumpi\n      0x00\n      dup1\n      revert\n    tag_142:\n        /* \"system.sol\":3613:3614  0 */\n      0x00\n        /* \"system.sol\":3583:3594  vaccineEnum */\n      0x03\n        /* \"system.sol\":3583:3601  vaccineEnum[_type] */\n      0x00\n        /* \"system.sol\":3595:3600  _type */\n      dup7\n        /* \"system.sol\":3583:3601  vaccineEnum[_type] */\n      0xff\n      and\n      0xff\n      and\n      dup2\n      mstore\n      0x20\n      add\n      swap1\n      dup2\n      mstore\n      0x20\n      add\n      0x00\n      keccak256\n        /* \"system.sol\":3577:3609  bytes(vaccineEnum[_type]).length */\n      dup1\n      sload\n      tag_144\n      swap1\n      tag_101\n      jump\t// in\n    tag_144:\n      swap1\n      pop\n        /* \"system.sol\":3577:3614  bytes(vaccineEnum[_type]).length == 0 */\n      eq\n        /* \"system.sol\":3569:3615  require(bytes(vaccineEnum[_type]).length == 0) */\n      tag_145\n      jumpi\n      0x00\n      dup1\n      revert\n    tag_145:\n        /* \"system.sol\":3646:3652  _value */\n      dup3\n      dup3\n        /* \"system.sol\":3625:3636  vaccineEnum */\n      0x03\n        /* \"system.sol\":3625:3643  vaccineEnum[_type] */\n      0x00\n        /* \"system.sol\":3637:3642  _type */\n      dup8\n        /* \"system.sol\":3625:3643  vaccineEnum[_type] */\n      0xff\n      and\n      0xff\n      and\n      dup2\n      mstore\n      0x20\n      add\n      swap1\n      dup2\n      mstore\n      0x20\n      add\n      0x00\n      keccak256\n        /* \"system.sol\":3625:3652  vaccineEnum[_type] = _value */\n      swap2\n      swap1\n      tag_146\n      swap3\n      swap2\n      swap1\n      tag_147\n      jump\t// in\n    tag_146:\n      pop\n        /* \"system.sol\":3669:3673  true */\n      0x01\n        /* \"system.sol\":3662:3673  return true */\n      swap1\n      pop\n        /* \"system.sol\":3465:3680  function addVaccineType(uint8 _type, string calldata _value) onlyIssuer public returns (bool) {... */\n      swap4\n      swap3\n      pop\n      pop\n      pop\n      jump\t// out\n        /* \"system.sol\":3807:4074  function changeVaccine(address _person, uint8 _type) onlyIssuer public returns (bool) {... */\n    tag_68:\n        /* \"system.sol\":3887:3891  bool */\n      0x00\n        /* \"system.sol\":765:769  true */\n      0x01\n        /* \"system.sol\":741:769  isIssuer(msg.sender) == true */\n      iszero\n      iszero\n        /* \"system.sol\":741:761  isIssuer(msg.sender) */\n      tag_149\n        /* \"system.sol\":750:760  msg.sender */\n      caller\n        /* \"system.sol\":741:749  isIssuer */\n      tag_72\n        /* \"system.sol\":741:761  isIssuer(msg.sender) */\n      jump\t// in\n    tag_149:\n        /* \"system.sol\":741:769  isIssuer(msg.sender) == true */\n      iszero\n      iszero\n      eq\n        /* \"system.sol\":733:770  require(isIssuer(msg.sender) == true) */\n      tag_150\n      jumpi\n      0x00\n      dup1\n      revert\n    tag_150:\n        /* \"system.sol\":3938:3939  0 */\n      0x00\n        /* \"system.sol\":3911:3922  credentials */\n      0x06\n        /* \"system.sol\":3911:3931  credentials[_person] */\n      0x00\n        /* \"system.sol\":3923:3930  _person */\n      dup6\n        /* \"system.sol\":3911:3931  credentials[_person] */\n      0xffffffffffffffffffffffffffffffffffffffff\n      and\n      0xffffffffffffffffffffffffffffffffffffffff\n      and\n      dup2\n      mstore\n      0x20\n      add\n      swap1\n      dup2\n      mstore\n      0x20\n      add\n      0x00\n      keccak256\n        /* \"system.sol\":3911:3934  credentials[_person].id */\n      0x00\n      add\n      sload\n        /* \"system.sol\":3911:3939  credentials[_person].id != 0 */\n      eq\n      iszero\n        /* \"system.sol\":3903:3940  require(credentials[_person].id != 0) */\n      tag_152\n      jumpi\n      0x00\n      dup1\n      revert\n    tag_152:\n        /* \"system.sol\":3994:3995  0 */\n      0x00\n        /* \"system.sol\":3964:3975  vaccineEnum */\n      0x03\n        /* \"system.sol\":3964:3982  vaccineEnum[_type] */\n      0x00\n        /* \"system.sol\":3976:3981  _type */\n      dup5\n        /* \"system.sol\":3964:3982  vaccineEnum[_type] */\n      0xff\n      and\n      0xff\n      and\n      dup2\n      mstore\n      0x20\n      add\n      swap1\n      dup2\n      mstore\n      0x20\n      add\n      0x00\n      keccak256\n        /* \"system.sol\":3958:3990  bytes(vaccineEnum[_type]).length */\n      dup1\n      sload\n      tag_153\n      swap1\n      tag_101\n      jump\t// in\n    tag_153:\n      swap1\n      pop\n        /* \"system.sol\":3958:3995  bytes(vaccineEnum[_type]).length != 0 */\n      eq\n      iszero\n        /* \"system.sol\":3950:3996  require(bytes(vaccineEnum[_type]).length != 0) */\n      tag_154\n      jumpi\n      0x00\n      dup1\n      revert\n    tag_154:\n        /* \"system.sol\":4041:4046  _type */\n      dup2\n        /* \"system.sol\":4006:4017  credentials */\n      0x06\n        /* \"system.sol\":4006:4026  credentials[_person] */\n      0x00\n        /* \"system.sol\":4018:4025  _person */\n      dup6\n        /* \"system.sol\":4006:4026  credentials[_person] */\n      0xffffffffffffffffffffffffffffffffffffffff\n      and\n      0xffffffffffffffffffffffffffffffffffffffff\n      and\n      dup2\n      mstore\n      0x20\n      add\n      swap1\n      dup2\n      mstore\n      0x20\n      add\n      0x00\n      keccak256\n        /* \"system.sol\":4006:4038  credentials[_person].vaccineType */\n      0x01\n      add\n      0x14\n        /* \"system.sol\":4006:4046  credentials[_person].vaccineType = _type */\n      0x0100\n      exp\n      dup2\n      sload\n      dup2\n      0xff\n      mul\n      not\n      and\n      swap1\n      dup4\n      0xff\n      and\n      mul\n      or\n      swap1\n      sstore\n      pop\n        /* \"system.sol\":4063:4067  true */\n      0x01\n        /* \"system.sol\":4056:4067  return true */\n      swap1\n      pop\n        /* \"system.sol\":3807:4074  function changeVaccine(address _person, uint8 _type) onlyIssuer public returns (bool) {... */\n      swap3\n      swap2\n      pop\n      pop\n      jump\t// out\n        /* \"system.sol\":857:955  function isIssuer(address _addr) public view returns (bool) {... */\n    tag_72:\n        /* \"system.sol\":911:915  bool */\n      0x00\n        /* \"system.sol\":934:941  issuers */\n      0x01\n        /* \"system.sol\":934:948  issuers[_addr] */\n      0x00\n        /* \"system.sol\":942:947  _addr */\n      dup4\n        /* \"system.sol\":934:948  issuers[_addr] */\n      0xffffffffffffffffffffffffffffffffffffffff\n      and\n      0xffffffffffffffffffffffffffffffffffffffff\n      and\n      dup2\n      mstore\n      0x20\n      add\n      swap1\n      dup2\n      mstore\n      0x20\n      add\n      0x00\n      keccak256\n      0x00\n      swap1\n      sload\n      swap1\n      0x0100\n      exp\n      swap1\n      div\n      0xff\n      and\n        /* \"system.sol\":927:948  return issuers[_addr] */\n      swap1\n      pop\n        /* \"system.sol\":857:955  function isIssuer(address _addr) public view returns (bool) {... */\n      swap2\n      swap1\n      pop\n      jump\t// out\n        /* \"system.sol\":4686:4891  function addNoteType(uint8 _type, string calldata _value) onlyIssuer public returns (bool){... */\n    tag_76:\n        /* \"system.sol\":4771:4775  bool */\n      0x00\n        /* \"system.sol\":765:769  true */\n      0x01\n        /* \"system.sol\":741:769  isIssuer(msg.sender) == true */\n      iszero\n      iszero\n        /* \"system.sol\":741:761  isIssuer(msg.sender) */\n      tag_157\n        /* \"system.sol\":750:760  msg.sender */\n      caller\n        /* \"system.sol\":741:749  isIssuer */\n      tag_72\n        /* \"system.sol\":741:761  isIssuer(msg.sender) */\n      jump\t// in\n    tag_157:\n        /* \"system.sol\":741:769  isIssuer(msg.sender) == true */\n      iszero\n      iszero\n      eq\n        /* \"system.sol\":733:770  require(isIssuer(msg.sender) == true) */\n      tag_158\n      jumpi\n      0x00\n      dup1\n      revert\n    tag_158:\n        /* \"system.sol\":4827:4828  0 */\n      0x00\n        /* \"system.sol\":4800:4808  noteEnum */\n      0x05\n        /* \"system.sol\":4800:4815  noteEnum[_type] */\n      0x00\n        /* \"system.sol\":4809:4814  _type */\n      dup7\n        /* \"system.sol\":4800:4815  noteEnum[_type] */\n      0xff\n      and\n      0xff\n      and\n      dup2\n      mstore\n      0x20\n      add\n      swap1\n      dup2\n      mstore\n      0x20\n      add\n      0x00\n      keccak256\n        /* \"system.sol\":4794:4823  bytes(noteEnum[_type]).length */\n      dup1\n      sload\n      tag_160\n      swap1\n      tag_101\n      jump\t// in\n    tag_160:\n      swap1\n      pop\n        /* \"system.sol\":4794:4828  bytes(noteEnum[_type]).length == 0 */\n      eq\n        /* \"system.sol\":4786:4829  require(bytes(noteEnum[_type]).length == 0) */\n      tag_161\n      jumpi\n      0x00\n      dup1\n      revert\n    tag_161:\n        /* \"system.sol\":4857:4863  _value */\n      dup3\n      dup3\n        /* \"system.sol\":4839:4847  noteEnum */\n      0x05\n        /* \"system.sol\":4839:4854  noteEnum[_type] */\n      0x00\n        /* \"system.sol\":4848:4853  _type */\n      dup8\n        /* \"system.sol\":4839:4854  noteEnum[_type] */\n      0xff\n      and\n      0xff\n      and\n      dup2\n      mstore\n      0x20\n      add\n      swap1\n      dup2\n      mstore\n      0x20\n      add\n      0x00\n      keccak256\n        /* \"system.sol\":4839:4863  noteEnum[_type] = _value */\n      swap2\n      swap1\n      tag_162\n      swap3\n      swap2\n      swap1\n      tag_147\n      jump\t// in\n    tag_162:\n      pop\n        /* \"system.sol\":4880:4884  true */\n      0x01\n        /* \"system.sol\":4873:4884  return true */\n      swap1\n      pop\n        /* \"system.sol\":4686:4891  function addNoteType(uint8 _type, string calldata _value) onlyIssuer public returns (bool){... */\n      swap4\n      swap3\n      pop\n      pop\n      pop\n      jump\t// out\n        /* \"system.sol\":4080:4291  function addStatusType(uint8 _type, string calldata _value) onlyIssuer public returns (bool){... */\n    tag_80:\n        /* \"system.sol\":4167:4171  bool */\n      0x00\n        /* \"system.sol\":765:769  true */\n      0x01\n        /* \"system.sol\":741:769  isIssuer(msg.sender) == true */\n      iszero\n      iszero\n        /* \"system.sol\":741:761  isIssuer(msg.sender) */\n      tag_164\n        /* \"system.sol\":750:760  msg.sender */\n      caller\n        /* \"system.sol\":741:749  isIssuer */\n      tag_72\n        /* \"system.sol\":741:761  isIssuer(msg.sender) */\n      jump\t// in\n    tag_164:\n        /* \"system.sol\":741:769  isIssuer(msg.sender) == true */\n      iszero\n      iszero\n      eq\n        /* \"system.sol\":733:770  require(isIssuer(msg.sender) == true) */\n      tag_165\n      jumpi\n      0x00\n      dup1\n      revert\n    tag_165:\n        /* \"system.sol\":4225:4226  0 */\n      0x00\n        /* \"system.sol\":4196:4206  statusEnum */\n      0x04\n        /* \"system.sol\":4196:4213  statusEnum[_type] */\n      0x00\n        /* \"system.sol\":4207:4212  _type */\n      dup7\n        /* \"system.sol\":4196:4213  statusEnum[_type] */\n      0xff\n      and\n      0xff\n      and\n      dup2\n      mstore\n      0x20\n      add\n      swap1\n      dup2\n      mstore\n      0x20\n      add\n      0x00\n      keccak256\n        /* \"system.sol\":4190:4221  bytes(statusEnum[_type]).length */\n      dup1\n      sload\n      tag_167\n      swap1\n      tag_101\n      jump\t// in\n    tag_167:\n      swap1\n      pop\n        /* \"system.sol\":4190:4226  bytes(statusEnum[_type]).length == 0 */\n      eq\n        /* \"system.sol\":4182:4227  require(bytes(statusEnum[_type]).length == 0) */\n      tag_168\n      jumpi\n      0x00\n      dup1\n      revert\n    tag_168:\n        /* \"system.sol\":4257:4263  _value */\n      dup3\n      dup3\n        /* \"system.sol\":4237:4247  statusEnum */\n      0x04\n        /* \"system.sol\":4237:4254  statusEnum[_type] */\n      0x00\n        /* \"system.sol\":4248:4253  _type */\n      dup8\n        /* \"system.sol\":4237:4254  statusEnum[_type] */\n      0xff\n      and\n      0xff\n      and\n      dup2\n      mstore\n      0x20\n      add\n      swap1\n      dup2\n      mstore\n      0x20\n      add\n      0x00\n      keccak256\n        /* \"system.sol\":4237:4263  statusEnum[_type] = _value */\n      swap2\n      swap1\n      tag_169\n      swap3\n      swap2\n      swap1\n      tag_147\n      jump\t// in\n    tag_169:\n      pop\n        /* \"system.sol\":4280:4284  true */\n      0x01\n        /* \"system.sol\":4273:4284  return true */\n      swap1\n      pop\n        /* \"system.sol\":4080:4291  function addStatusType(uint8 _type, string calldata _value) onlyIssuer public returns (bool){... */\n      swap4\n      swap3\n      pop\n      pop\n      pop\n      jump\t// out\n        /* \"system.sol\":2892:3029  function getCredential(address _personAddress) public view returns (Credential memory){... */\n    tag_84:\n        /* \"system.sol\":2960:2977  Credential memory */\n      tag_170\n      tag_171\n      jump\t// in\n    tag_170:\n        /* \"system.sol\":2995:3006  credentials */\n      0x06\n        /* \"system.sol\":2995:3022  credentials[_personAddress] */\n      0x00\n        /* \"system.sol\":3007:3021  _personAddress */\n      dup4\n        /* \"system.sol\":2995:3022  credentials[_personAddress] */\n      0xffffffffffffffffffffffffffffffffffffffff\n      and\n      0xffffffffffffffffffffffffffffffffffffffff\n      and\n      dup2\n      mstore\n      0x20\n      add\n      swap1\n      dup2\n      mstore\n      0x20\n      add\n      0x00\n      keccak256\n        /* \"system.sol\":2988:3022  return credentials[_personAddress] */\n      mload(0x40)\n      dup1\n      0xc0\n      add\n      0x40\n      mstore\n      swap1\n      dup2\n      0x00\n      dup3\n      add\n      sload\n      dup2\n      mstore\n      0x20\n      add\n      0x01\n      dup3\n      add\n      0x00\n      swap1\n      sload\n      swap1\n      0x0100\n      exp\n      swap1\n      div\n      0xffffffffffffffffffffffffffffffffffffffff\n      and\n      0xffffffffffffffffffffffffffffffffffffffff\n      and\n      0xffffffffffffffffffffffffffffffffffffffff\n      and\n      dup2\n      mstore\n      0x20\n      add\n      0x01\n      dup3\n      add\n      0x14\n      swap1\n      sload\n      swap1\n      0x0100\n      exp\n      swap1\n      div\n      0xff\n      and\n      0xff\n      and\n      0xff\n      and\n      dup2\n      mstore\n      0x20\n      add\n      0x01\n      dup3\n      add\n      0x15\n      swap1\n      sload\n      swap1\n      0x0100\n      exp\n      swap1\n      div\n      0xff\n      and\n      0xff\n      and\n      0xff\n      and\n      dup2\n      mstore\n      0x20\n      add\n      0x01\n      dup3\n      add\n      0x16\n      swap1\n      sload\n      swap1\n      0x0100\n      exp\n      swap1\n      div\n      0xff\n      and\n      0xff\n      and\n      0xff\n      and\n      dup2\n      mstore\n      0x20\n      add\n      0x02\n      dup3\n      add\n      sload\n      dup2\n      mstore\n      pop\n      pop\n      swap1\n      pop\n        /* \"system.sol\":2892:3029  function getCredential(address _personAddress) public view returns (Credential memory){... */\n      swap2\n      swap1\n      pop\n      jump\t// out\n        /* \"system.sol\":3035:3459  function passOrNot(address _person, uint8 _vaccineType, uint8 _statusType) public view returns (bool){... */\n    tag_90:\n        /* \"system.sol\":3131:3135  bool */\n      0x00\n        /* \"system.sol\":3177:3178  0 */\n      dup1\n        /* \"system.sol\":3150:3161  credentials */\n      0x06\n        /* \"system.sol\":3150:3170  credentials[_person] */\n      0x00\n        /* \"system.sol\":3162:3169  _person */\n      dup7\n        /* \"system.sol\":3150:3170  credentials[_person] */\n      0xffffffffffffffffffffffffffffffffffffffff\n      and\n      0xffffffffffffffffffffffffffffffffffffffff\n      and\n      dup2\n      mstore\n      0x20\n      add\n      swap1\n      dup2\n      mstore\n      0x20\n      add\n      0x00\n      keccak256\n        /* \"system.sol\":3150:3173  credentials[_person].id */\n      0x00\n      add\n      sload\n        /* \"system.sol\":3150:3178  credentials[_person].id == 0 */\n      eq\n        /* \"system.sol\":3146:3216  if (credentials[_person].id == 0){... */\n      iszero\n      tag_174\n      jumpi\n        /* \"system.sol\":3200:3205  false */\n      0x00\n        /* \"system.sol\":3193:3205  return false */\n      swap1\n      pop\n      jump(tag_173)\n        /* \"system.sol\":3146:3216  if (credentials[_person].id == 0){... */\n    tag_174:\n        /* \"system.sol\":3265:3277  _vaccineType */\n      dup3\n        /* \"system.sol\":3229:3277  credentials[_person].vaccineType == _vaccineType */\n      0xff\n      and\n        /* \"system.sol\":3229:3240  credentials */\n      0x06\n        /* \"system.sol\":3229:3249  credentials[_person] */\n      0x00\n        /* \"system.sol\":3241:3248  _person */\n      dup7\n        /* \"system.sol\":3229:3249  credentials[_person] */\n      0xffffffffffffffffffffffffffffffffffffffff\n      and\n      0xffffffffffffffffffffffffffffffffffffffff\n      and\n      dup2\n      mstore\n      0x20\n      add\n      swap1\n      dup2\n      mstore\n      0x20\n      add\n      0x00\n      keccak256\n        /* \"system.sol\":3229:3261  credentials[_person].vaccineType */\n      0x01\n      add\n      0x14\n      swap1\n      sload\n      swap1\n      0x0100\n      exp\n      swap1\n      div\n      0xff\n      and\n        /* \"system.sol\":3229:3277  credentials[_person].vaccineType == _vaccineType */\n      0xff\n      and\n      eq\n        /* \"system.sol\":3229:3327  credentials[_person].vaccineType == _vaccineType && credentials[_person].statusType >= _statusType */\n      dup1\n      iszero\n      tag_175\n      jumpi\n      pop\n        /* \"system.sol\":3316:3327  _statusType */\n      dup2\n        /* \"system.sol\":3281:3327  credentials[_person].statusType >= _statusType */\n      0xff\n      and\n        /* \"system.sol\":3281:3292  credentials */\n      0x06\n        /* \"system.sol\":3281:3301  credentials[_person] */\n      0x00\n        /* \"system.sol\":3293:3300  _person */\n      dup7\n        /* \"system.sol\":3281:3301  credentials[_person] */\n      0xffffffffffffffffffffffffffffffffffffffff\n      and\n      0xffffffffffffffffffffffffffffffffffffffff\n      and\n      dup2\n      mstore\n      0x20\n      add\n      swap1\n      dup2\n      mstore\n      0x20\n      add\n      0x00\n      keccak256\n        /* \"system.sol\":3281:3312  credentials[_person].statusType */\n      0x01\n      add\n      0x15\n      swap1\n      sload\n      swap1\n      0x0100\n      exp\n      swap1\n      div\n      0xff\n      and\n        /* \"system.sol\":3281:3327  credentials[_person].statusType >= _statusType */\n      0xff\n      and\n      lt\n      iszero\n        /* \"system.sol\":3229:3327  credentials[_person].vaccineType == _vaccineType && credentials[_person].statusType >= _statusType */\n    tag_175:\n        /* \"system.sol\":3229:3365  credentials[_person].vaccineType == _vaccineType && credentials[_person].statusType >= _statusType && credentials[_person].noteType == 2 */\n      dup1\n      iszero\n      tag_176\n      jumpi\n      pop\n        /* \"system.sol\":3364:3365  2 */\n      0x02\n        /* \"system.sol\":3331:3342  credentials */\n      0x06\n        /* \"system.sol\":3331:3351  credentials[_person] */\n      0x00\n        /* \"system.sol\":3343:3350  _person */\n      dup7\n        /* \"system.sol\":3331:3351  credentials[_person] */\n      0xffffffffffffffffffffffffffffffffffffffff\n      and\n      0xffffffffffffffffffffffffffffffffffffffff\n      and\n      dup2\n      mstore\n      0x20\n      add\n      swap1\n      dup2\n      mstore\n      0x20\n      add\n      0x00\n      keccak256\n        /* \"system.sol\":3331:3360  credentials[_person].noteType */\n      0x01\n      add\n      0x16\n      swap1\n      sload\n      swap1\n      0x0100\n      exp\n      swap1\n      div\n      0xff\n      and\n        /* \"system.sol\":3331:3365  credentials[_person].noteType == 2 */\n      0xff\n      and\n      eq\n        /* \"system.sol\":3229:3365  credentials[_person].vaccineType == _vaccineType && credentials[_person].statusType >= _statusType && credentials[_person].noteType == 2 */\n    tag_176:\n        /* \"system.sol\":3225:3453  if (credentials[_person].vaccineType == _vaccineType && credentials[_person].statusType >= _statusType && credentials[_person].noteType == 2){... */\n      iszero\n      tag_177\n      jumpi\n        /* \"system.sol\":3387:3391  true */\n      0x01\n        /* \"system.sol\":3380:3391  return true */\n      swap1\n      pop\n      jump(tag_173)\n        /* \"system.sol\":3225:3453  if (credentials[_person].vaccineType == _vaccineType && credentials[_person].statusType >= _statusType && credentials[_person].noteType == 2){... */\n    tag_177:\n        /* \"system.sol\":3437:3442  false */\n      0x00\n        /* \"system.sol\":3430:3442  return false */\n      swap1\n      pop\n        /* \"system.sol\":3035:3459  function passOrNot(address _person, uint8 _vaccineType, uint8 _statusType) public view returns (bool){... */\n    tag_173:\n      swap4\n      swap3\n      pop\n      pop\n      pop\n      jump\t// out\n        /* \"system.sol\":314:508  function transferOwnership(address _to) onlyOwner public {... */\n    tag_94:\n        /* \"system.sol\":245:250  owner */\n      0x00\n      dup1\n      sload\n      swap1\n      0x0100\n      exp\n      swap1\n      div\n      0xffffffffffffffffffffffffffffffffffffffff\n      and\n        /* \"system.sol\":231:250  msg.sender == owner */\n      0xffffffffffffffffffffffffffffffffffffffff\n      and\n        /* \"system.sol\":231:241  msg.sender */\n      caller\n        /* \"system.sol\":231:250  msg.sender == owner */\n      0xffffffffffffffffffffffffffffffffffffffff\n      and\n      eq\n        /* \"system.sol\":223:251  require(msg.sender == owner) */\n      tag_180\n      jumpi\n      0x00\n      dup1\n      revert\n    tag_180:\n        /* \"system.sol\":396:401  owner */\n      0x00\n      dup1\n      sload\n      swap1\n      0x0100\n      exp\n      swap1\n      div\n      0xffffffffffffffffffffffffffffffffffffffff\n      and\n        /* \"system.sol\":389:401  _to != owner */\n      0xffffffffffffffffffffffffffffffffffffffff\n      and\n        /* \"system.sol\":389:392  _to */\n      dup2\n        /* \"system.sol\":389:401  _to != owner */\n      0xffffffffffffffffffffffffffffffffffffffff\n      and\n      eq\n      iszero\n        /* \"system.sol\":381:402  require(_to != owner) */\n      tag_182\n      jumpi\n      0x00\n      dup1\n      revert\n    tag_182:\n        /* \"system.sol\":435:438  0x0 */\n      0x00\n        /* \"system.sol\":420:439  _to != address(0x0) */\n      0xffffffffffffffffffffffffffffffffffffffff\n      and\n        /* \"system.sol\":420:423  _to */\n      dup2\n        /* \"system.sol\":420:439  _to != address(0x0) */\n      0xffffffffffffffffffffffffffffffffffffffff\n      and\n      eq\n      iszero\n        /* \"system.sol\":412:440  require(_to != address(0x0)) */\n      tag_183\n      jumpi\n      0x00\n      dup1\n      revert\n    tag_183:\n        /* \"system.sol\":455:458  _to */\n      dup1\n        /* \"system.sol\":447:452  owner */\n      0x00\n      dup1\n        /* \"system.sol\":447:458  owner = _to */\n      0x0100\n      exp\n      dup2\n      sload\n      dup2\n      0xffffffffffffffffffffffffffffffffffffffff\n      mul\n      not\n      and\n      swap1\n      dup4\n      0xffffffffffffffffffffffffffffffffffffffff\n      and\n      mul\n      or\n      swap1\n      sstore\n      pop\n        /* \"system.sol\":498:501  _to */\n      dup1\n        /* \"system.sol\":470:502  OwnerTransferPropose(owner, _to) */\n      0xffffffffffffffffffffffffffffffffffffffff\n      and\n        /* \"system.sol\":491:496  owner */\n      0x00\n      dup1\n      sload\n      swap1\n      0x0100\n      exp\n      swap1\n      div\n      0xffffffffffffffffffffffffffffffffffffffff\n      and\n        /* \"system.sol\":470:502  OwnerTransferPropose(owner, _to) */\n      0xffffffffffffffffffffffffffffffffffffffff\n      and\n      0x2ae143016adc0aa482e6ba5d9a350f3e3122aeb005ca4bf47d1d7b8221bce472\n      mload(0x40)\n      mload(0x40)\n      dup1\n      swap2\n      sub\n      swap1\n      log3\n        /* \"system.sol\":314:508  function transferOwnership(address _to) onlyOwner public {... */\n      pop\n      jump\t// out\n        /* \"system.sol\":4416:4680  function changeStatus(address _person, uint8 _type) onlyIssuer public returns (bool) {... */\n    tag_97:\n        /* \"system.sol\":4495:4499  bool */\n      0x00\n        /* \"system.sol\":765:769  true */\n      0x01\n        /* \"system.sol\":741:769  isIssuer(msg.sender) == true */\n      iszero\n      iszero\n        /* \"system.sol\":741:761  isIssuer(msg.sender) */\n      tag_185\n        /* \"system.sol\":750:760  msg.sender */\n      caller\n        /* \"system.sol\":741:749  isIssuer */\n      tag_72\n        /* \"system.sol\":741:761  isIssuer(msg.sender) */\n      jump\t// in\n    tag_185:\n        /* \"system.sol\":741:769  isIssuer(msg.sender) == true */\n      iszero\n      iszero\n      eq\n        /* \"system.sol\":733:770  require(isIssuer(msg.sender) == true) */\n      tag_186\n      jumpi\n      0x00\n      dup1\n      revert\n    tag_186:\n        /* \"system.sol\":4546:4547  0 */\n      0x00\n        /* \"system.sol\":4519:4530  credentials */\n      0x06\n        /* \"system.sol\":4519:4539  credentials[_person] */\n      0x00\n        /* \"system.sol\":4531:4538  _person */\n      dup6\n        /* \"system.sol\":4519:4539  credentials[_person] */\n      0xffffffffffffffffffffffffffffffffffffffff\n      and\n      0xffffffffffffffffffffffffffffffffffffffff\n      and\n      dup2\n      mstore\n      0x20\n      add\n      swap1\n      dup2\n      mstore\n      0x20\n      add\n      0x00\n      keccak256\n        /* \"system.sol\":4519:4542  credentials[_person].id */\n      0x00\n      add\n      sload\n        /* \"system.sol\":4519:4547  credentials[_person].id != 0 */\n      eq\n      iszero\n        /* \"system.sol\":4511:4548  require(credentials[_person].id != 0) */\n      tag_188\n      jumpi\n      0x00\n      dup1\n      revert\n    tag_188:\n        /* \"system.sol\":4601:4602  0 */\n      0x00\n        /* \"system.sol\":4572:4582  statusEnum */\n      0x04\n        /* \"system.sol\":4572:4589  statusEnum[_type] */\n      0x00\n        /* \"system.sol\":4583:4588  _type */\n      dup5\n        /* \"system.sol\":4572:4589  statusEnum[_type] */\n      0xff\n      and\n      0xff\n      and\n      dup2\n      mstore\n      0x20\n      add\n      swap1\n      dup2\n      mstore\n      0x20\n      add\n      0x00\n      keccak256\n        /* \"system.sol\":4566:4597  bytes(statusEnum[_type]).length */\n      dup1\n      sload\n      tag_189\n      swap1\n      tag_101\n      jump\t// in\n    tag_189:\n      swap1\n      pop\n        /* \"system.sol\":4566:4602  bytes(statusEnum[_type]).length != 0 */\n      eq\n      iszero\n        /* \"system.sol\":4558:4603  require(bytes(statusEnum[_type]).length != 0) */\n      tag_190\n      jumpi\n      0x00\n      dup1\n      revert\n    tag_190:\n        /* \"system.sol\":4647:4652  _type */\n      dup2\n        /* \"system.sol\":4613:4624  credentials */\n      0x06\n        /* \"system.sol\":4613:4633  credentials[_person] */\n      0x00\n        /* \"system.sol\":4625:4632  _person */\n      dup6\n        /* \"system.sol\":4613:4633  credentials[_person] */\n      0xffffffffffffffffffffffffffffffffffffffff\n      and\n      0xffffffffffffffffffffffffffffffffffffffff\n      and\n      dup2\n      mstore\n      0x20\n      add\n      swap1\n      dup2\n      mstore\n      0x20\n      add\n      0x00\n      keccak256\n        /* \"system.sol\":4613:4644  credentials[_person].statusType */\n      0x01\n      add\n      0x15\n        /* \"system.sol\":4613:4652  credentials[_person].statusType = _type */\n      0x0100\n      exp\n      dup2\n      sload\n      dup2\n      0xff\n      mul\n      not\n      and\n      swap1\n      dup4\n      0xff\n      and\n      mul\n      or\n      swap1\n      sstore\n      pop\n        /* \"system.sol\":4669:4673  true */\n      0x01\n        /* \"system.sol\":4662:4673  return true */\n      swap1\n      pop\n        /* \"system.sol\":4416:4680  function changeStatus(address _person, uint8 _type) onlyIssuer public returns (bool) {... */\n      swap3\n      swap2\n      pop\n      pop\n      jump\t// out\n    tag_147:\n      dup3\n      dup1\n      sload\n      tag_191\n      swap1\n      tag_101\n      jump\t// in\n    tag_191:\n      swap1\n      0x00\n      mstore\n      keccak256(0x00, 0x20)\n      swap1\n      0x1f\n      add\n      0x20\n      swap1\n      div\n      dup2\n      add\n      swap3\n      dup3\n      tag_193\n      jumpi\n      0x00\n      dup6\n      sstore\n      jump(tag_192)\n    tag_193:\n      dup3\n      0x1f\n      lt\n      tag_194\n      jumpi\n      dup1\n      calldataload\n      not(0xff)\n      and\n      dup4\n      dup1\n      add\n      or\n      dup6\n      sstore\n      jump(tag_192)\n    tag_194:\n      dup3\n      dup1\n      add\n      0x01\n      add\n      dup6\n      sstore\n      dup3\n      iszero\n      tag_192\n      jumpi\n      swap2\n      dup3\n      add\n    tag_195:\n      dup3\n      dup2\n      gt\n      iszero\n      tag_196\n      jumpi\n      dup3\n      calldataload\n      dup3\n      sstore\n      swap2\n      0x20\n      add\n      swap2\n      swap1\n      0x01\n      add\n      swap1\n      jump(tag_195)\n    tag_196:\n    tag_192:\n      pop\n      swap1\n      pop\n      tag_197\n      swap2\n      swap1\n      tag_198\n      jump\t// in\n    tag_197:\n      pop\n      swap1\n      jump\t// out\n    tag_171:\n      mload(0x40)\n      dup1\n      0xc0\n      add\n      0x40\n      mstore\n      dup1\n      0x00\n      dup2\n      mstore\n      0x20\n      add\n      and(0xffffffffffffffffffffffffffffffffffffffff, 0x00)\n      dup2\n      mstore\n      0x20\n      add\n      and(0xff, 0x00)\n      dup2\n      mstore\n      0x20\n      add\n      and(0xff, 0x00)\n      dup2\n      mstore\n      0x20\n      add\n      and(0xff, 0x00)\n      dup2\n      mstore\n      0x20\n      add\n      0x00\n      dup2\n      mstore\n      pop\n      swap1\n      jump\t// out\n    tag_198:\n    tag_199:\n      dup1\n      dup3\n      gt\n      iszero\n      tag_200\n      jumpi\n      0x00\n      dup2\n      0x00\n      swap1\n      sstore\n      pop\n      0x01\n      add\n      jump(tag_199)\n    tag_200:\n      pop\n      swap1\n      jump\t// out\n        /* \"#utility.yul\":88:205   */\n    tag_202:\n        /* \"#utility.yul\":197:198   */\n      0x00\n        /* \"#utility.yul\":194:195   */\n      dup1\n        /* \"#utility.yul\":187:199   */\n      revert\n        /* \"#utility.yul\":211:328   */\n    tag_203:\n        /* \"#utility.yul\":320:321   */\n      0x00\n        /* \"#utility.yul\":317:318   */\n      dup1\n        /* \"#utility.yul\":310:322   */\n      revert\n        /* \"#utility.yul\":334:420   */\n    tag_204:\n        /* \"#utility.yul\":369:376   */\n      0x00\n        /* \"#utility.yul\":409:413   */\n      0xff\n        /* \"#utility.yul\":402:407   */\n      dup3\n        /* \"#utility.yul\":398:414   */\n      and\n        /* \"#utility.yul\":387:414   */\n      swap1\n      pop\n        /* \"#utility.yul\":334:420   */\n      swap2\n      swap1\n      pop\n      jump\t// out\n        /* \"#utility.yul\":426:544   */\n    tag_205:\n        /* \"#utility.yul\":497:519   */\n      tag_235\n        /* \"#utility.yul\":513:518   */\n      dup2\n        /* \"#utility.yul\":497:519   */\n      tag_204\n      jump\t// in\n    tag_235:\n        /* \"#utility.yul\":490:495   */\n      dup2\n        /* \"#utility.yul\":487:520   */\n      eq\n        /* \"#utility.yul\":477:538   */\n      tag_236\n      jumpi\n        /* \"#utility.yul\":534:535   */\n      0x00\n        /* \"#utility.yul\":531:532   */\n      dup1\n        /* \"#utility.yul\":524:536   */\n      revert\n        /* \"#utility.yul\":477:538   */\n    tag_236:\n        /* \"#utility.yul\":426:544   */\n      pop\n      jump\t// out\n        /* \"#utility.yul\":550:685   */\n    tag_206:\n        /* \"#utility.yul\":594:599   */\n      0x00\n        /* \"#utility.yul\":632:638   */\n      dup2\n        /* \"#utility.yul\":619:639   */\n      calldataload\n        /* \"#utility.yul\":610:639   */\n      swap1\n      pop\n        /* \"#utility.yul\":648:679   */\n      tag_238\n        /* \"#utility.yul\":673:678   */\n      dup2\n        /* \"#utility.yul\":648:679   */\n      tag_205\n      jump\t// in\n    tag_238:\n        /* \"#utility.yul\":550:685   */\n      swap3\n      swap2\n      pop\n      pop\n      jump\t// out\n        /* \"#utility.yul\":691:1016   */\n    tag_25:\n        /* \"#utility.yul\":748:754   */\n      0x00\n        /* \"#utility.yul\":797:799   */\n      0x20\n        /* \"#utility.yul\":785:794   */\n      dup3\n        /* \"#utility.yul\":776:783   */\n      dup5\n        /* \"#utility.yul\":772:795   */\n      sub\n        /* \"#utility.yul\":768:800   */\n      slt\n        /* \"#utility.yul\":765:884   */\n      iszero\n      tag_240\n      jumpi\n        /* \"#utility.yul\":803:882   */\n      tag_241\n      tag_202\n      jump\t// in\n    tag_241:\n        /* \"#utility.yul\":765:884   */\n    tag_240:\n        /* \"#utility.yul\":923:924   */\n      0x00\n        /* \"#utility.yul\":948:999   */\n      tag_242\n        /* \"#utility.yul\":991:998   */\n      dup5\n        /* \"#utility.yul\":982:988   */\n      dup3\n        /* \"#utility.yul\":971:980   */\n      dup6\n        /* \"#utility.yul\":967:989   */\n      add\n        /* \"#utility.yul\":948:999   */\n      tag_206\n      jump\t// in\n    tag_242:\n        /* \"#utility.yul\":938:999   */\n      swap2\n      pop\n        /* \"#utility.yul\":894:1009   */\n      pop\n        /* \"#utility.yul\":691:1016   */\n      swap3\n      swap2\n      pop\n      pop\n      jump\t// out\n        /* \"#utility.yul\":1022:1121   */\n    tag_207:\n        /* \"#utility.yul\":1074:1080   */\n      0x00\n        /* \"#utility.yul\":1108:1113   */\n      dup2\n        /* \"#utility.yul\":1102:1114   */\n      mload\n        /* \"#utility.yul\":1092:1114   */\n      swap1\n      pop\n        /* \"#utility.yul\":1022:1121   */\n      swap2\n      swap1\n      pop\n      jump\t// out\n        /* \"#utility.yul\":1127:1296   */\n    tag_208:\n        /* \"#utility.yul\":1211:1222   */\n      0x00\n        /* \"#utility.yul\":1245:1251   */\n      dup3\n        /* \"#utility.yul\":1240:1243   */\n      dup3\n        /* \"#utility.yul\":1233:1252   */\n      mstore\n        /* \"#utility.yul\":1285:1289   */\n      0x20\n        /* \"#utility.yul\":1280:1283   */\n      dup3\n        /* \"#utility.yul\":1276:1290   */\n      add\n        /* \"#utility.yul\":1261:1290   */\n      swap1\n      pop\n        /* \"#utility.yul\":1127:1296   */\n      swap3\n      swap2\n      pop\n      pop\n      jump\t// out\n        /* \"#utility.yul\":1302:1609   */\n    tag_209:\n        /* \"#utility.yul\":1370:1371   */\n      0x00\n        /* \"#utility.yul\":1380:1493   */\n    tag_246:\n        /* \"#utility.yul\":1394:1400   */\n      dup4\n        /* \"#utility.yul\":1391:1392   */\n      dup2\n        /* \"#utility.yul\":1388:1401   */\n      lt\n        /* \"#utility.yul\":1380:1493   */\n      iszero\n      tag_248\n      jumpi\n        /* \"#utility.yul\":1479:1480   */\n      dup1\n        /* \"#utility.yul\":1474:1477   */\n      dup3\n        /* \"#utility.yul\":1470:1481   */\n      add\n        /* \"#utility.yul\":1464:1482   */\n      mload\n        /* \"#utility.yul\":1460:1461   */\n      dup2\n        /* \"#utility.yul\":1455:1458   */\n      dup5\n        /* \"#utility.yul\":1451:1462   */\n      add\n        /* \"#utility.yul\":1444:1483   */\n      mstore\n        /* \"#utility.yul\":1416:1418   */\n      0x20\n        /* \"#utility.yul\":1413:1414   */\n      dup2\n        /* \"#utility.yul\":1409:1419   */\n      add\n        /* \"#utility.yul\":1404:1419   */\n      swap1\n      pop\n        /* \"#utility.yul\":1380:1493   */\n      jump(tag_246)\n    tag_248:\n        /* \"#utility.yul\":1511:1517   */\n      dup4\n        /* \"#utility.yul\":1508:1509   */\n      dup2\n        /* \"#utility.yul\":1505:1518   */\n      gt\n        /* \"#utility.yul\":1502:1603   */\n      iszero\n      tag_249\n      jumpi\n        /* \"#utility.yul\":1591:1592   */\n      0x00\n        /* \"#utility.yul\":1582:1588   */\n      dup5\n        /* \"#utility.yul\":1577:1580   */\n      dup5\n        /* \"#utility.yul\":1573:1589   */\n      add\n        /* \"#utility.yul\":1566:1593   */\n      mstore\n        /* \"#utility.yul\":1502:1603   */\n    tag_249:\n        /* \"#utility.yul\":1351:1609   */\n      pop\n        /* \"#utility.yul\":1302:1609   */\n      pop\n      pop\n      pop\n      jump\t// out\n        /* \"#utility.yul\":1615:1717   */\n    tag_210:\n        /* \"#utility.yul\":1656:1662   */\n      0x00\n        /* \"#utility.yul\":1707:1709   */\n      0x1f\n        /* \"#utility.yul\":1703:1710   */\n      not\n        /* \"#utility.yul\":1698:1700   */\n      0x1f\n        /* \"#utility.yul\":1691:1696   */\n      dup4\n        /* \"#utility.yul\":1687:1701   */\n      add\n        /* \"#utility.yul\":1683:1711   */\n      and\n        /* \"#utility.yul\":1673:1711   */\n      swap1\n      pop\n        /* \"#utility.yul\":1615:1717   */\n      swap2\n      swap1\n      pop\n      jump\t// out\n        /* \"#utility.yul\":1723:2087   */\n    tag_211:\n        /* \"#utility.yul\":1811:1814   */\n      0x00\n        /* \"#utility.yul\":1839:1878   */\n      tag_252\n        /* \"#utility.yul\":1872:1877   */\n      dup3\n        /* \"#utility.yul\":1839:1878   */\n      tag_207\n      jump\t// in\n    tag_252:\n        /* \"#utility.yul\":1894:1965   */\n      tag_253\n        /* \"#utility.yul\":1958:1964   */\n      dup2\n        /* \"#utility.yul\":1953:1956   */\n      dup6\n        /* \"#utility.yul\":1894:1965   */\n      tag_208\n      jump\t// in\n    tag_253:\n        /* \"#utility.yul\":1887:1965   */\n      swap4\n      pop\n        /* \"#utility.yul\":1974:2026   */\n      tag_254\n        /* \"#utility.yul\":2019:2025   */\n      dup2\n        /* \"#utility.yul\":2014:2017   */\n      dup6\n        /* \"#utility.yul\":2007:2011   */\n      0x20\n        /* \"#utility.yul\":2000:2005   */\n      dup7\n        /* \"#utility.yul\":1996:2012   */\n      add\n        /* \"#utility.yul\":1974:2026   */\n      tag_209\n      jump\t// in\n    tag_254:\n        /* \"#utility.yul\":2051:2080   */\n      tag_255\n        /* \"#utility.yul\":2073:2079   */\n      dup2\n        /* \"#utility.yul\":2051:2080   */\n      tag_210\n      jump\t// in\n    tag_255:\n        /* \"#utility.yul\":2046:2049   */\n      dup5\n        /* \"#utility.yul\":2042:2081   */\n      add\n        /* \"#utility.yul\":2035:2081   */\n      swap2\n      pop\n        /* \"#utility.yul\":1815:2087   */\n      pop\n        /* \"#utility.yul\":1723:2087   */\n      swap3\n      swap2\n      pop\n      pop\n      jump\t// out\n        /* \"#utility.yul\":2093:2406   */\n    tag_28:\n        /* \"#utility.yul\":2206:2210   */\n      0x00\n        /* \"#utility.yul\":2244:2246   */\n      0x20\n        /* \"#utility.yul\":2233:2242   */\n      dup3\n        /* \"#utility.yul\":2229:2247   */\n      add\n        /* \"#utility.yul\":2221:2247   */\n      swap1\n      pop\n        /* \"#utility.yul\":2293:2302   */\n      dup2\n        /* \"#utility.yul\":2287:2291   */\n      dup2\n        /* \"#utility.yul\":2283:2303   */\n      sub\n        /* \"#utility.yul\":2279:2280   */\n      0x00\n        /* \"#utility.yul\":2268:2277   */\n      dup4\n        /* \"#utility.yul\":2264:2281   */\n      add\n        /* \"#utility.yul\":2257:2304   */\n      mstore\n        /* \"#utility.yul\":2321:2399   */\n      tag_257\n        /* \"#utility.yul\":2394:2398   */\n      dup2\n        /* \"#utility.yul\":2385:2391   */\n      dup5\n        /* \"#utility.yul\":2321:2399   */\n      tag_211\n      jump\t// in\n    tag_257:\n        /* \"#utility.yul\":2313:2399   */\n      swap1\n      pop\n        /* \"#utility.yul\":2093:2406   */\n      swap3\n      swap2\n      pop\n      pop\n      jump\t// out\n        /* \"#utility.yul\":2412:2538   */\n    tag_212:\n        /* \"#utility.yul\":2449:2456   */\n      0x00\n        /* \"#utility.yul\":2489:2531   */\n      0xffffffffffffffffffffffffffffffffffffffff\n        /* \"#utility.yul\":2482:2487   */\n      dup3\n        /* \"#utility.yul\":2478:2532   */\n      and\n        /* \"#utility.yul\":2467:2532   */\n      swap1\n      pop\n        /* \"#utility.yul\":2412:2538   */\n      swap2\n      swap1\n      pop\n      jump\t// out\n        /* \"#utility.yul\":2544:2640   */\n    tag_213:\n        /* \"#utility.yul\":2581:2588   */\n      0x00\n        /* \"#utility.yul\":2610:2634   */\n      tag_260\n        /* \"#utility.yul\":2628:2633   */\n      dup3\n        /* \"#utility.yul\":2610:2634   */\n      tag_212\n      jump\t// in\n    tag_260:\n        /* \"#utility.yul\":2599:2634   */\n      swap1\n      pop\n        /* \"#utility.yul\":2544:2640   */\n      swap2\n      swap1\n      pop\n      jump\t// out\n        /* \"#utility.yul\":2646:2768   */\n    tag_214:\n        /* \"#utility.yul\":2719:2743   */\n      tag_262\n        /* \"#utility.yul\":2737:2742   */\n      dup2\n        /* \"#utility.yul\":2719:2743   */\n      tag_213\n      jump\t// in\n    tag_262:\n        /* \"#utility.yul\":2712:2717   */\n      dup2\n        /* \"#utility.yul\":2709:2744   */\n      eq\n        /* \"#utility.yul\":2699:2762   */\n      tag_263\n      jumpi\n        /* \"#utility.yul\":2758:2759   */\n      0x00\n        /* \"#utility.yul\":2755:2756   */\n      dup1\n        /* \"#utility.yul\":2748:2760   */\n      revert\n        /* \"#utility.yul\":2699:2762   */\n    tag_263:\n        /* \"#utility.yul\":2646:2768   */\n      pop\n      jump\t// out\n        /* \"#utility.yul\":2774:2913   */\n    tag_215:\n        /* \"#utility.yul\":2820:2825   */\n      0x00\n        /* \"#utility.yul\":2858:2864   */\n      dup2\n        /* \"#utility.yul\":2845:2865   */\n      calldataload\n        /* \"#utility.yul\":2836:2865   */\n      swap1\n      pop\n        /* \"#utility.yul\":2874:2907   */\n      tag_265\n        /* \"#utility.yul\":2901:2906   */\n      dup2\n        /* \"#utility.yul\":2874:2907   */\n      tag_214\n      jump\t// in\n    tag_265:\n        /* \"#utility.yul\":2774:2913   */\n      swap3\n      swap2\n      pop\n      pop\n      jump\t// out\n        /* \"#utility.yul\":2919:3248   */\n    tag_35:\n        /* \"#utility.yul\":2978:2984   */\n      0x00\n        /* \"#utility.yul\":3027:3029   */\n      0x20\n        /* \"#utility.yul\":3015:3024   */\n      dup3\n        /* \"#utility.yul\":3006:3013   */\n      dup5\n        /* \"#utility.yul\":3002:3025   */\n      sub\n        /* \"#utility.yul\":2998:3030   */\n      slt\n        /* \"#utility.yul\":2995:3114   */\n      iszero\n      tag_267\n      jumpi\n        /* \"#utility.yul\":3033:3112   */\n      tag_268\n      tag_202\n      jump\t// in\n    tag_268:\n        /* \"#utility.yul\":2995:3114   */\n    tag_267:\n        /* \"#utility.yul\":3153:3154   */\n      0x00\n        /* \"#utility.yul\":3178:3231   */\n      tag_269\n        /* \"#utility.yul\":3223:3230   */\n      dup5\n        /* \"#utility.yul\":3214:3220   */\n      dup3\n        /* \"#utility.yul\":3203:3212   */\n      dup6\n        /* \"#utility.yul\":3199:3221   */\n      add\n        /* \"#utility.yul\":3178:3231   */\n      tag_215\n      jump\t// in\n    tag_269:\n        /* \"#utility.yul\":3168:3231   */\n      swap2\n      pop\n        /* \"#utility.yul\":3124:3241   */\n      pop\n        /* \"#utility.yul\":2919:3248   */\n      swap3\n      swap2\n      pop\n      pop\n      jump\t// out\n        /* \"#utility.yul\":3254:3344   */\n    tag_216:\n        /* \"#utility.yul\":3288:3295   */\n      0x00\n        /* \"#utility.yul\":3331:3336   */\n      dup2\n        /* \"#utility.yul\":3324:3337   */\n      iszero\n        /* \"#utility.yul\":3317:3338   */\n      iszero\n        /* \"#utility.yul\":3306:3338   */\n      swap1\n      pop\n        /* \"#utility.yul\":3254:3344   */\n      swap2\n      swap1\n      pop\n      jump\t// out\n        /* \"#utility.yul\":3350:3459   */\n    tag_217:\n        /* \"#utility.yul\":3431:3452   */\n      tag_272\n        /* \"#utility.yul\":3446:3451   */\n      dup2\n        /* \"#utility.yul\":3431:3452   */\n      tag_216\n      jump\t// in\n    tag_272:\n        /* \"#utility.yul\":3426:3429   */\n      dup3\n        /* \"#utility.yul\":3419:3453   */\n      mstore\n        /* \"#utility.yul\":3350:3459   */\n      pop\n      pop\n      jump\t// out\n        /* \"#utility.yul\":3465:3675   */\n    tag_38:\n        /* \"#utility.yul\":3552:3556   */\n      0x00\n        /* \"#utility.yul\":3590:3592   */\n      0x20\n        /* \"#utility.yul\":3579:3588   */\n      dup3\n        /* \"#utility.yul\":3575:3593   */\n      add\n        /* \"#utility.yul\":3567:3593   */\n      swap1\n      pop\n        /* \"#utility.yul\":3603:3668   */\n      tag_274\n        /* \"#utility.yul\":3665:3666   */\n      0x00\n        /* \"#utility.yul\":3654:3663   */\n      dup4\n        /* \"#utility.yul\":3650:3667   */\n      add\n        /* \"#utility.yul\":3641:3647   */\n      dup5\n        /* \"#utility.yul\":3603:3668   */\n      tag_217\n      jump\t// in\n    tag_274:\n        /* \"#utility.yul\":3465:3675   */\n      swap3\n      swap2\n      pop\n      pop\n      jump\t// out\n        /* \"#utility.yul\":3681:4434   */\n    tag_41:\n        /* \"#utility.yul\":3761:3767   */\n      0x00\n        /* \"#utility.yul\":3769:3775   */\n      dup1\n        /* \"#utility.yul\":3777:3783   */\n      0x00\n        /* \"#utility.yul\":3785:3791   */\n      dup1\n        /* \"#utility.yul\":3834:3837   */\n      0x80\n        /* \"#utility.yul\":3822:3831   */\n      dup6\n        /* \"#utility.yul\":3813:3820   */\n      dup8\n        /* \"#utility.yul\":3809:3832   */\n      sub\n        /* \"#utility.yul\":3805:3838   */\n      slt\n        /* \"#utility.yul\":3802:3922   */\n      iszero\n      tag_276\n      jumpi\n        /* \"#utility.yul\":3841:3920   */\n      tag_277\n      tag_202\n      jump\t// in\n    tag_277:\n        /* \"#utility.yul\":3802:3922   */\n    tag_276:\n        /* \"#utility.yul\":3961:3962   */\n      0x00\n        /* \"#utility.yul\":3986:4039   */\n      tag_278\n        /* \"#utility.yul\":4031:4038   */\n      dup8\n        /* \"#utility.yul\":4022:4028   */\n      dup3\n        /* \"#utility.yul\":4011:4020   */\n      dup9\n        /* \"#utility.yul\":4007:4029   */\n      add\n        /* \"#utility.yul\":3986:4039   */\n      tag_215\n      jump\t// in\n    tag_278:\n        /* \"#utility.yul\":3976:4039   */\n      swap5\n      pop\n        /* \"#utility.yul\":3932:4049   */\n      pop\n        /* \"#utility.yul\":4088:4090   */\n      0x20\n        /* \"#utility.yul\":4114:4165   */\n      tag_279\n        /* \"#utility.yul\":4157:4164   */\n      dup8\n        /* \"#utility.yul\":4148:4154   */\n      dup3\n        /* \"#utility.yul\":4137:4146   */\n      dup9\n        /* \"#utility.yul\":4133:4155   */\n      add\n        /* \"#utility.yul\":4114:4165   */\n      tag_206\n      jump\t// in\n    tag_279:\n        /* \"#utility.yul\":4104:4165   */\n      swap4\n      pop\n        /* \"#utility.yul\":4059:4175   */\n      pop\n        /* \"#utility.yul\":4214:4216   */\n      0x40\n        /* \"#utility.yul\":4240:4291   */\n      tag_280\n        /* \"#utility.yul\":4283:4290   */\n      dup8\n        /* \"#utility.yul\":4274:4280   */\n      dup3\n        /* \"#utility.yul\":4263:4272   */\n      dup9\n        /* \"#utility.yul\":4259:4281   */\n      add\n        /* \"#utility.yul\":4240:4291   */\n      tag_206\n      jump\t// in\n    tag_280:\n        /* \"#utility.yul\":4230:4291   */\n      swap3\n      pop\n        /* \"#utility.yul\":4185:4301   */\n      pop\n        /* \"#utility.yul\":4340:4342   */\n      0x60\n        /* \"#utility.yul\":4366:4417   */\n      tag_281\n        /* \"#utility.yul\":4409:4416   */\n      dup8\n        /* \"#utility.yul\":4400:4406   */\n      dup3\n        /* \"#utility.yul\":4389:4398   */\n      dup9\n        /* \"#utility.yul\":4385:4407   */\n      add\n        /* \"#utility.yul\":4366:4417   */\n      tag_206\n      jump\t// in\n    tag_281:\n        /* \"#utility.yul\":4356:4417   */\n      swap2\n      pop\n        /* \"#utility.yul\":4311:4427   */\n      pop\n        /* \"#utility.yul\":3681:4434   */\n      swap3\n      swap6\n      swap2\n      swap5\n      pop\n      swap3\n      pop\n      jump\t// out\n        /* \"#utility.yul\":4440:4910   */\n    tag_58:\n        /* \"#utility.yul\":4506:4512   */\n      0x00\n        /* \"#utility.yul\":4514:4520   */\n      dup1\n        /* \"#utility.yul\":4563:4565   */\n      0x40\n        /* \"#utility.yul\":4551:4560   */\n      dup4\n        /* \"#utility.yul\":4542:4549   */\n      dup6\n        /* \"#utility.yul\":4538:4561   */\n      sub\n        /* \"#utility.yul\":4534:4566   */\n      slt\n        /* \"#utility.yul\":4531:4650   */\n      iszero\n      tag_283\n      jumpi\n        /* \"#utility.yul\":4569:4648   */\n      tag_284\n      tag_202\n      jump\t// in\n    tag_284:\n        /* \"#utility.yul\":4531:4650   */\n    tag_283:\n        /* \"#utility.yul\":4689:4690   */\n      0x00\n        /* \"#utility.yul\":4714:4767   */\n      tag_285\n        /* \"#utility.yul\":4759:4766   */\n      dup6\n        /* \"#utility.yul\":4750:4756   */\n      dup3\n        /* \"#utility.yul\":4739:4748   */\n      dup7\n        /* \"#utility.yul\":4735:4757   */\n      add\n        /* \"#utility.yul\":4714:4767   */\n      tag_215\n      jump\t// in\n    tag_285:\n        /* \"#utility.yul\":4704:4767   */\n      swap3\n      pop\n        /* \"#utility.yul\":4660:4777   */\n      pop\n        /* \"#utility.yul\":4816:4818   */\n      0x20\n        /* \"#utility.yul\":4842:4893   */\n      tag_286\n        /* \"#utility.yul\":4885:4892   */\n      dup6\n        /* \"#utility.yul\":4876:4882   */\n      dup3\n        /* \"#utility.yul\":4865:4874   */\n      dup7\n        /* \"#utility.yul\":4861:4883   */\n      add\n        /* \"#utility.yul\":4842:4893   */\n      tag_206\n      jump\t// in\n    tag_286:\n        /* \"#utility.yul\":4832:4893   */\n      swap2\n      pop\n        /* \"#utility.yul\":4787:4903   */\n      pop\n        /* \"#utility.yul\":4440:4910   */\n      swap3\n      pop\n      swap3\n      swap1\n      pop\n      jump\t// out\n        /* \"#utility.yul\":4916:5033   */\n    tag_218:\n        /* \"#utility.yul\":5025:5026   */\n      0x00\n        /* \"#utility.yul\":5022:5023   */\n      dup1\n        /* \"#utility.yul\":5015:5027   */\n      revert\n        /* \"#utility.yul\":5039:5156   */\n    tag_219:\n        /* \"#utility.yul\":5148:5149   */\n      0x00\n        /* \"#utility.yul\":5145:5146   */\n      dup1\n        /* \"#utility.yul\":5138:5150   */\n      revert\n        /* \"#utility.yul\":5162:5279   */\n    tag_220:\n        /* \"#utility.yul\":5271:5272   */\n      0x00\n        /* \"#utility.yul\":5268:5269   */\n      dup1\n        /* \"#utility.yul\":5261:5273   */\n      revert\n        /* \"#utility.yul\":5299:5852   */\n    tag_221:\n        /* \"#utility.yul\":5357:5365   */\n      0x00\n        /* \"#utility.yul\":5367:5373   */\n      dup1\n        /* \"#utility.yul\":5417:5420   */\n      dup4\n        /* \"#utility.yul\":5410:5414   */\n      0x1f\n        /* \"#utility.yul\":5402:5408   */\n      dup5\n        /* \"#utility.yul\":5398:5415   */\n      add\n        /* \"#utility.yul\":5394:5421   */\n      slt\n        /* \"#utility.yul\":5384:5506   */\n      tag_291\n      jumpi\n        /* \"#utility.yul\":5425:5504   */\n      tag_292\n      tag_218\n      jump\t// in\n    tag_292:\n        /* \"#utility.yul\":5384:5506   */\n    tag_291:\n        /* \"#utility.yul\":5538:5544   */\n      dup3\n        /* \"#utility.yul\":5525:5545   */\n      calldataload\n        /* \"#utility.yul\":5515:5545   */\n      swap1\n      pop\n        /* \"#utility.yul\":5568:5586   */\n      0xffffffffffffffff\n        /* \"#utility.yul\":5560:5566   */\n      dup2\n        /* \"#utility.yul\":5557:5587   */\n      gt\n        /* \"#utility.yul\":5554:5671   */\n      iszero\n      tag_293\n      jumpi\n        /* \"#utility.yul\":5590:5669   */\n      tag_294\n      tag_219\n      jump\t// in\n    tag_294:\n        /* \"#utility.yul\":5554:5671   */\n    tag_293:\n        /* \"#utility.yul\":5704:5708   */\n      0x20\n        /* \"#utility.yul\":5696:5702   */\n      dup4\n        /* \"#utility.yul\":5692:5709   */\n      add\n        /* \"#utility.yul\":5680:5709   */\n      swap2\n      pop\n        /* \"#utility.yul\":5758:5761   */\n      dup4\n        /* \"#utility.yul\":5750:5754   */\n      0x01\n        /* \"#utility.yul\":5742:5748   */\n      dup3\n        /* \"#utility.yul\":5738:5755   */\n      mul\n        /* \"#utility.yul\":5728:5736   */\n      dup4\n        /* \"#utility.yul\":5724:5756   */\n      add\n        /* \"#utility.yul\":5721:5762   */\n      gt\n        /* \"#utility.yul\":5718:5846   */\n      iszero\n      tag_295\n      jumpi\n        /* \"#utility.yul\":5765:5844   */\n      tag_296\n      tag_220\n      jump\t// in\n    tag_296:\n        /* \"#utility.yul\":5718:5846   */\n    tag_295:\n        /* \"#utility.yul\":5299:5852   */\n      swap3\n      pop\n      swap3\n      swap1\n      pop\n      jump\t// out\n        /* \"#utility.yul\":5858:6528   */\n    tag_63:\n        /* \"#utility.yul\":5936:5942   */\n      0x00\n        /* \"#utility.yul\":5944:5950   */\n      dup1\n        /* \"#utility.yul\":5952:5958   */\n      0x00\n        /* \"#utility.yul\":6001:6003   */\n      0x40\n        /* \"#utility.yul\":5989:5998   */\n      dup5\n        /* \"#utility.yul\":5980:5987   */\n      dup7\n        /* \"#utility.yul\":5976:5999   */\n      sub\n        /* \"#utility.yul\":5972:6004   */\n      slt\n        /* \"#utility.yul\":5969:6088   */\n      iszero\n      tag_298\n      jumpi\n        /* \"#utility.yul\":6007:6086   */\n      tag_299\n      tag_202\n      jump\t// in\n    tag_299:\n        /* \"#utility.yul\":5969:6088   */\n    tag_298:\n        /* \"#utility.yul\":6127:6128   */\n      0x00\n        /* \"#utility.yul\":6152:6203   */\n      tag_300\n        /* \"#utility.yul\":6195:6202   */\n      dup7\n        /* \"#utility.yul\":6186:6192   */\n      dup3\n        /* \"#utility.yul\":6175:6184   */\n      dup8\n        /* \"#utility.yul\":6171:6193   */\n      add\n        /* \"#utility.yul\":6152:6203   */\n      tag_206\n      jump\t// in\n    tag_300:\n        /* \"#utility.yul\":6142:6203   */\n      swap4\n      pop\n        /* \"#utility.yul\":6098:6213   */\n      pop\n        /* \"#utility.yul\":6280:6282   */\n      0x20\n        /* \"#utility.yul\":6269:6278   */\n      dup5\n        /* \"#utility.yul\":6265:6283   */\n      add\n        /* \"#utility.yul\":6252:6284   */\n      calldataload\n        /* \"#utility.yul\":6311:6329   */\n      0xffffffffffffffff\n        /* \"#utility.yul\":6303:6309   */\n      dup2\n        /* \"#utility.yul\":6300:6330   */\n      gt\n        /* \"#utility.yul\":6297:6414   */\n      iszero\n      tag_301\n      jumpi\n        /* \"#utility.yul\":6333:6412   */\n      tag_302\n      tag_203\n      jump\t// in\n    tag_302:\n        /* \"#utility.yul\":6297:6414   */\n    tag_301:\n        /* \"#utility.yul\":6446:6511   */\n      tag_303\n        /* \"#utility.yul\":6503:6510   */\n      dup7\n        /* \"#utility.yul\":6494:6500   */\n      dup3\n        /* \"#utility.yul\":6483:6492   */\n      dup8\n        /* \"#utility.yul\":6479:6501   */\n      add\n        /* \"#utility.yul\":6446:6511   */\n      tag_221\n      jump\t// in\n    tag_303:\n        /* \"#utility.yul\":6428:6511   */\n      swap3\n      pop\n      swap3\n      pop\n        /* \"#utility.yul\":6223:6521   */\n      pop\n        /* \"#utility.yul\":5858:6528   */\n      swap3\n      pop\n      swap3\n      pop\n      swap3\n      jump\t// out\n        /* \"#utility.yul\":6534:6611   */\n    tag_222:\n        /* \"#utility.yul\":6571:6578   */\n      0x00\n        /* \"#utility.yul\":6600:6605   */\n      dup2\n        /* \"#utility.yul\":6589:6605   */\n      swap1\n      pop\n        /* \"#utility.yul\":6534:6611   */\n      swap2\n      swap1\n      pop\n      jump\t// out\n        /* \"#utility.yul\":6617:6725   */\n    tag_223:\n        /* \"#utility.yul\":6694:6718   */\n      tag_306\n        /* \"#utility.yul\":6712:6717   */\n      dup2\n        /* \"#utility.yul\":6694:6718   */\n      tag_222\n      jump\t// in\n    tag_306:\n        /* \"#utility.yul\":6689:6692   */\n      dup3\n        /* \"#utility.yul\":6682:6719   */\n      mstore\n        /* \"#utility.yul\":6617:6725   */\n      pop\n      pop\n      jump\t// out\n        /* \"#utility.yul\":6731:6839   */\n    tag_224:\n        /* \"#utility.yul\":6808:6832   */\n      tag_308\n        /* \"#utility.yul\":6826:6831   */\n      dup2\n        /* \"#utility.yul\":6808:6832   */\n      tag_213\n      jump\t// in\n    tag_308:\n        /* \"#utility.yul\":6803:6806   */\n      dup3\n        /* \"#utility.yul\":6796:6833   */\n      mstore\n        /* \"#utility.yul\":6731:6839   */\n      pop\n      pop\n      jump\t// out\n        /* \"#utility.yul\":6845:6947   */\n    tag_225:\n        /* \"#utility.yul\":6918:6940   */\n      tag_310\n        /* \"#utility.yul\":6934:6939   */\n      dup2\n        /* \"#utility.yul\":6918:6940   */\n      tag_204\n      jump\t// in\n    tag_310:\n        /* \"#utility.yul\":6913:6916   */\n      dup3\n        /* \"#utility.yul\":6906:6941   */\n      mstore\n        /* \"#utility.yul\":6845:6947   */\n      pop\n      pop\n      jump\t// out\n        /* \"#utility.yul\":7027:8245   */\n    tag_226:\n        /* \"#utility.yul\":7178:7182   */\n      0xc0\n        /* \"#utility.yul\":7173:7176   */\n      dup3\n        /* \"#utility.yul\":7169:7183   */\n      add\n        /* \"#utility.yul\":7263:7267   */\n      0x00\n        /* \"#utility.yul\":7256:7261   */\n      dup3\n        /* \"#utility.yul\":7252:7268   */\n      add\n        /* \"#utility.yul\":7246:7269   */\n      mload\n        /* \"#utility.yul\":7282:7345   */\n      tag_312\n        /* \"#utility.yul\":7339:7343   */\n      0x00\n        /* \"#utility.yul\":7334:7337   */\n      dup6\n        /* \"#utility.yul\":7330:7344   */\n      add\n        /* \"#utility.yul\":7316:7328   */\n      dup3\n        /* \"#utility.yul\":7282:7345   */\n      tag_223\n      jump\t// in\n    tag_312:\n        /* \"#utility.yul\":7193:7355   */\n      pop\n        /* \"#utility.yul\":7439:7443   */\n      0x20\n        /* \"#utility.yul\":7432:7437   */\n      dup3\n        /* \"#utility.yul\":7428:7444   */\n      add\n        /* \"#utility.yul\":7422:7445   */\n      mload\n        /* \"#utility.yul\":7458:7521   */\n      tag_313\n        /* \"#utility.yul\":7515:7519   */\n      0x20\n        /* \"#utility.yul\":7510:7513   */\n      dup6\n        /* \"#utility.yul\":7506:7520   */\n      add\n        /* \"#utility.yul\":7492:7504   */\n      dup3\n        /* \"#utility.yul\":7458:7521   */\n      tag_224\n      jump\t// in\n    tag_313:\n        /* \"#utility.yul\":7365:7531   */\n      pop\n        /* \"#utility.yul\":7620:7624   */\n      0x40\n        /* \"#utility.yul\":7613:7618   */\n      dup3\n        /* \"#utility.yul\":7609:7625   */\n      add\n        /* \"#utility.yul\":7603:7626   */\n      mload\n        /* \"#utility.yul\":7639:7698   */\n      tag_314\n        /* \"#utility.yul\":7692:7696   */\n      0x40\n        /* \"#utility.yul\":7687:7690   */\n      dup6\n        /* \"#utility.yul\":7683:7697   */\n      add\n        /* \"#utility.yul\":7669:7681   */\n      dup3\n        /* \"#utility.yul\":7639:7698   */\n      tag_225\n      jump\t// in\n    tag_314:\n        /* \"#utility.yul\":7541:7708   */\n      pop\n        /* \"#utility.yul\":7796:7800   */\n      0x60\n        /* \"#utility.yul\":7789:7794   */\n      dup3\n        /* \"#utility.yul\":7785:7801   */\n      add\n        /* \"#utility.yul\":7779:7802   */\n      mload\n        /* \"#utility.yul\":7815:7874   */\n      tag_315\n        /* \"#utility.yul\":7868:7872   */\n      0x60\n        /* \"#utility.yul\":7863:7866   */\n      dup6\n        /* \"#utility.yul\":7859:7873   */\n      add\n        /* \"#utility.yul\":7845:7857   */\n      dup3\n        /* \"#utility.yul\":7815:7874   */\n      tag_225\n      jump\t// in\n    tag_315:\n        /* \"#utility.yul\":7718:7884   */\n      pop\n        /* \"#utility.yul\":7970:7974   */\n      0x80\n        /* \"#utility.yul\":7963:7968   */\n      dup3\n        /* \"#utility.yul\":7959:7975   */\n      add\n        /* \"#utility.yul\":7953:7976   */\n      mload\n        /* \"#utility.yul\":7989:8048   */\n      tag_316\n        /* \"#utility.yul\":8042:8046   */\n      0x80\n        /* \"#utility.yul\":8037:8040   */\n      dup6\n        /* \"#utility.yul\":8033:8047   */\n      add\n        /* \"#utility.yul\":8019:8031   */\n      dup3\n        /* \"#utility.yul\":7989:8048   */\n      tag_225\n      jump\t// in\n    tag_316:\n        /* \"#utility.yul\":7894:8058   */\n      pop\n        /* \"#utility.yul\":8146:8150   */\n      0xa0\n        /* \"#utility.yul\":8139:8144   */\n      dup3\n        /* \"#utility.yul\":8135:8151   */\n      add\n        /* \"#utility.yul\":8129:8152   */\n      mload\n        /* \"#utility.yul\":8165:8228   */\n      tag_317\n        /* \"#utility.yul\":8222:8226   */\n      0xa0\n        /* \"#utility.yul\":8217:8220   */\n      dup6\n        /* \"#utility.yul\":8213:8227   */\n      add\n        /* \"#utility.yul\":8199:8211   */\n      dup3\n        /* \"#utility.yul\":8165:8228   */\n      tag_223\n      jump\t// in\n    tag_317:\n        /* \"#utility.yul\":8068:8238   */\n      pop\n        /* \"#utility.yul\":7147:8245   */\n      pop\n        /* \"#utility.yul\":7027:8245   */\n      pop\n      pop\n      jump\t// out\n        /* \"#utility.yul\":8251:8582   */\n    tag_86:\n        /* \"#utility.yul\":8398:8402   */\n      0x00\n        /* \"#utility.yul\":8436:8439   */\n      0xc0\n        /* \"#utility.yul\":8425:8434   */\n      dup3\n        /* \"#utility.yul\":8421:8440   */\n      add\n        /* \"#utility.yul\":8413:8440   */\n      swap1\n      pop\n        /* \"#utility.yul\":8450:8575   */\n      tag_319\n        /* \"#utility.yul\":8572:8573   */\n      0x00\n        /* \"#utility.yul\":8561:8570   */\n      dup4\n        /* \"#utility.yul\":8557:8574   */\n      add\n        /* \"#utility.yul\":8548:8554   */\n      dup5\n        /* \"#utility.yul\":8450:8575   */\n      tag_226\n      jump\t// in\n    tag_319:\n        /* \"#utility.yul\":8251:8582   */\n      swap3\n      swap2\n      pop\n      pop\n      jump\t// out\n        /* \"#utility.yul\":8588:9199   */\n    tag_89:\n        /* \"#utility.yul\":8661:8667   */\n      0x00\n        /* \"#utility.yul\":8669:8675   */\n      dup1\n        /* \"#utility.yul\":8677:8683   */\n      0x00\n        /* \"#utility.yul\":8726:8728   */\n      0x60\n        /* \"#utility.yul\":8714:8723   */\n      dup5\n        /* \"#utility.yul\":8705:8712   */\n      dup7\n        /* \"#utility.yul\":8701:8724   */\n      sub\n        /* \"#utility.yul\":8697:8729   */\n      slt\n        /* \"#utility.yul\":8694:8813   */\n      iszero\n      tag_321\n      jumpi\n        /* \"#utility.yul\":8732:8811   */\n      tag_322\n      tag_202\n      jump\t// in\n    tag_322:\n        /* \"#utility.yul\":8694:8813   */\n    tag_321:\n        /* \"#utility.yul\":8852:8853   */\n      0x00\n        /* \"#utility.yul\":8877:8930   */\n      tag_323\n        /* \"#utility.yul\":8922:8929   */\n      dup7\n        /* \"#utility.yul\":8913:8919   */\n      dup3\n        /* \"#utility.yul\":8902:8911   */\n      dup8\n        /* \"#utility.yul\":8898:8920   */\n      add\n        /* \"#utility.yul\":8877:8930   */\n      tag_215\n      jump\t// in\n    tag_323:\n        /* \"#utility.yul\":8867:8930   */\n      swap4\n      pop\n        /* \"#utility.yul\":8823:8940   */\n      pop\n        /* \"#utility.yul\":8979:8981   */\n      0x20\n        /* \"#utility.yul\":9005:9056   */\n      tag_324\n        /* \"#utility.yul\":9048:9055   */\n      dup7\n        /* \"#utility.yul\":9039:9045   */\n      dup3\n        /* \"#utility.yul\":9028:9037   */\n      dup8\n        /* \"#utility.yul\":9024:9046   */\n      add\n        /* \"#utility.yul\":9005:9056   */\n      tag_206\n      jump\t// in\n    tag_324:\n        /* \"#utility.yul\":8995:9056   */\n      swap3\n      pop\n        /* \"#utility.yul\":8950:9066   */\n      pop\n        /* \"#utility.yul\":9105:9107   */\n      0x40\n        /* \"#utility.yul\":9131:9182   */\n      tag_325\n        /* \"#utility.yul\":9174:9181   */\n      dup7\n        /* \"#utility.yul\":9165:9171   */\n      dup3\n        /* \"#utility.yul\":9154:9163   */\n      dup8\n        /* \"#utility.yul\":9150:9172   */\n      add\n        /* \"#utility.yul\":9131:9182   */\n      tag_206\n      jump\t// in\n    tag_325:\n        /* \"#utility.yul\":9121:9182   */\n      swap2\n      pop\n        /* \"#utility.yul\":9076:9192   */\n      pop\n        /* \"#utility.yul\":8588:9199   */\n      swap3\n      pop\n      swap3\n      pop\n      swap3\n      jump\t// out\n        /* \"#utility.yul\":9205:9385   */\n    tag_227:\n        /* \"#utility.yul\":9253:9330   */\n      0x4e487b7100000000000000000000000000000000000000000000000000000000\n        /* \"#utility.yul\":9250:9251   */\n      0x00\n        /* \"#utility.yul\":9243:9331   */\n      mstore\n        /* \"#utility.yul\":9350:9354   */\n      0x22\n        /* \"#utility.yul\":9347:9348   */\n      0x04\n        /* \"#utility.yul\":9340:9355   */\n      mstore\n        /* \"#utility.yul\":9374:9378   */\n      0x24\n        /* \"#utility.yul\":9371:9372   */\n      0x00\n        /* \"#utility.yul\":9364:9379   */\n      revert\n        /* \"#utility.yul\":9391:9711   */\n    tag_101:\n        /* \"#utility.yul\":9435:9441   */\n      0x00\n        /* \"#utility.yul\":9472:9473   */\n      0x02\n        /* \"#utility.yul\":9466:9470   */\n      dup3\n        /* \"#utility.yul\":9462:9474   */\n      div\n        /* \"#utility.yul\":9452:9474   */\n      swap1\n      pop\n        /* \"#utility.yul\":9519:9520   */\n      0x01\n        /* \"#utility.yul\":9513:9517   */\n      dup3\n        /* \"#utility.yul\":9509:9521   */\n      and\n        /* \"#utility.yul\":9540:9558   */\n      dup1\n        /* \"#utility.yul\":9530:9611   */\n      tag_328\n      jumpi\n        /* \"#utility.yul\":9596:9600   */\n      0x7f\n        /* \"#utility.yul\":9588:9594   */\n      dup3\n        /* \"#utility.yul\":9584:9601   */\n      and\n        /* \"#utility.yul\":9574:9601   */\n      swap2\n      pop\n        /* \"#utility.yul\":9530:9611   */\n    tag_328:\n        /* \"#utility.yul\":9658:9660   */\n      0x20\n        /* \"#utility.yul\":9650:9656   */\n      dup3\n        /* \"#utility.yul\":9647:9661   */\n      lt\n        /* \"#utility.yul\":9627:9645   */\n      dup2\n        /* \"#utility.yul\":9624:9662   */\n      eq\n        /* \"#utility.yul\":9621:9705   */\n      iszero\n      tag_329\n      jumpi\n        /* \"#utility.yul\":9677:9695   */\n      tag_330\n      tag_227\n      jump\t// in\n    tag_330:\n        /* \"#utility.yul\":9621:9705   */\n    tag_329:\n        /* \"#utility.yul\":9442:9711   */\n      pop\n        /* \"#utility.yul\":9391:9711   */\n      swap2\n      swap1\n      pop\n      jump\t// out\n        /* \"#utility.yul\":9717:9897   */\n    tag_228:\n        /* \"#utility.yul\":9765:9842   */\n      0x4e487b7100000000000000000000000000000000000000000000000000000000\n        /* \"#utility.yul\":9762:9763   */\n      0x00\n        /* \"#utility.yul\":9755:9843   */\n      mstore\n        /* \"#utility.yul\":9862:9866   */\n      0x11\n        /* \"#utility.yul\":9859:9860   */\n      0x04\n        /* \"#utility.yul\":9852:9867   */\n      mstore\n        /* \"#utility.yul\":9886:9890   */\n      0x24\n        /* \"#utility.yul\":9883:9884   */\n      0x00\n        /* \"#utility.yul\":9876:9891   */\n      revert\n        /* \"#utility.yul\":9903:10208   */\n    tag_122:\n        /* \"#utility.yul\":9943:9946   */\n      0x00\n        /* \"#utility.yul\":9962:9982   */\n      tag_333\n        /* \"#utility.yul\":9980:9981   */\n      dup3\n        /* \"#utility.yul\":9962:9982   */\n      tag_222\n      jump\t// in\n    tag_333:\n        /* \"#utility.yul\":9957:9982   */\n      swap2\n      pop\n        /* \"#utility.yul\":9996:10016   */\n      tag_334\n        /* \"#utility.yul\":10014:10015   */\n      dup4\n        /* \"#utility.yul\":9996:10016   */\n      tag_222\n      jump\t// in\n    tag_334:\n        /* \"#utility.yul\":9991:10016   */\n      swap3\n      pop\n        /* \"#utility.yul\":10150:10151   */\n      dup3\n        /* \"#utility.yul\":10082:10148   */\n      0xffffffffffffffffffffffffffffffffffffffffffffffffffffffffffffffff\n        /* \"#utility.yul\":10078:10152   */\n      sub\n        /* \"#utility.yul\":10075:10076   */\n      dup3\n        /* \"#utility.yul\":10072:10153   */\n      gt\n        /* \"#utility.yul\":10069:10176   */\n      iszero\n      tag_335\n      jumpi\n        /* \"#utility.yul\":10156:10174   */\n      tag_336\n      tag_228\n      jump\t// in\n    tag_336:\n        /* \"#utility.yul\":10069:10176   */\n    tag_335:\n        /* \"#utility.yul\":10200:10201   */\n      dup3\n        /* \"#utility.yul\":10197:10198   */\n      dup3\n        /* \"#utility.yul\":10193:10202   */\n      add\n        /* \"#utility.yul\":10186:10202   */\n      swap1\n      pop\n        /* \"#utility.yul\":9903:10208   */\n      swap3\n      swap2\n      pop\n      pop\n      jump\t// out\n\n    auxdata: 0xa26469706673582212200d51951e4143068894de2f0f62360807a7bebb362734ea8b1a1f139418c1bb0464736f6c634300080a0033\n}\n",
				"bytecode": {
					"linkReferences": {},
					"object": "60806040523480156200001157600080fd5b50336000806101000a81548173ffffffffffffffffffffffffffffffffffffffff021916908373ffffffffffffffffffffffffffffffffffffffff16021790555060018060003373ffffffffffffffffffffffffffffffffffffffff1673ffffffffffffffffffffffffffffffffffffffff16815260200190815260200160002060006101000a81548160ff02191690831515021790555060016002819055506040518060400160405280600681526020017f5046495a45520000000000000000000000000000000000000000000000000000815250600360008060ff16815260200190815260200160002090805190602001906200011292919062000558565b506040518060400160405280600781526020017f4d4f4445524e410000000000000000000000000000000000000000000000000081525060036000600160ff16815260200190815260200160002090805190602001906200017592919062000558565b506040518060400160405280600781526020017f4a414e5353454e0000000000000000000000000000000000000000000000000081525060036000600260ff1681526020019081526020016000209080519060200190620001d892919062000558565b506040518060400160405280600b81526020017f41535452415a454e45434100000000000000000000000000000000000000000081525060036000600360ff16815260200190815260200160002090805190602001906200023b92919062000558565b506040518060400160405280600481526020017f4e6f6e6500000000000000000000000000000000000000000000000000000000815250600460008060ff16815260200190815260200160002090805190602001906200029d92919062000558565b506040518060400160405280600a81526020017f66697273742073686f740000000000000000000000000000000000000000000081525060046000600160ff16815260200190815260200160002090805190602001906200030092919062000558565b506040518060400160405280600b81526020017f7365636f6e642073686f7400000000000000000000000000000000000000000081525060046000600260ff16815260200190815260200160002090805190602001906200036392919062000558565b506040518060400160405280600a81526020017f74686972642073686f740000000000000000000000000000000000000000000081525060046000600360ff1681526020019081526020016000209080519060200190620003c692919062000558565b506040518060400160405280600481526020017f4e6f6e6500000000000000000000000000000000000000000000000000000000815250600560008060ff16815260200190815260200160002090805190602001906200042892919062000558565b506040518060400160405280601e81526020017f76616363696e617465642c2031342064617973206e6f7420706173736564000081525060056000600160ff16815260200190815260200160002090805190602001906200048b92919062000558565b506040518060400160405280601a81526020017f76616363696e617465642c20313420646179732070617373656400000000000081525060056000600260ff1681526020019081526020016000209080519060200190620004ee92919062000558565b506040518060400160405280600781526020017f657870697265640000000000000000000000000000000000000000000000000081525060056000600360ff16815260200190815260200160002090805190602001906200055192919062000558565b506200066d565b828054620005669062000637565b90600052602060002090601f0160209004810192826200058a5760008555620005d6565b82601f10620005a557805160ff1916838001178555620005d6565b82800160010185558215620005d6579182015b82811115620005d5578251825591602001919060010190620005b8565b5b509050620005e59190620005e9565b5090565b5b8082111562000604576000816000905550600101620005ea565b5090565b7f4e487b7100000000000000000000000000000000000000000000000000000000600052602260045260246000fd5b600060028204905060018216806200065057607f821691505b6020821081141562000667576200066662000608565b5b50919050565b6119fe806200067d6000396000f3fe608060405234801561001057600080fd5b506004361061010b5760003560e01c806359a7aef3116100a2578063a30e2e5411610071578063a30e2e5414610350578063ccdad14b14610380578063d9c45826146103b0578063f2fde38b146103e0578063ff63e7a8146103fc5761010b565b806359a7aef3146102905780637ebb1298146102c0578063877b9a67146102f05780638e8261c3146103205761010b565b806334becfb4116100de57806334becfb4146101d057806338a7543e146102005780633f8a37dc146102305780634feadf41146102605761010b565b806305183a29146101105780630f42e6ac1461014057806320694db01461017057806326827199146101a0575b600080fd5b61012a600480360381019061012591906114ad565b61042c565b6040516101379190611573565b60405180910390f35b61015a600480360381019061015591906114ad565b6104d7565b6040516101679190611573565b60405180910390f35b61018a600480360381019061018591906115f3565b610582565b604051610197919061163b565b60405180910390f35b6101ba60048036038101906101b59190611656565b6106dd565b6040516101c7919061163b565b60405180910390f35b6101ea60048036038101906101e591906115f3565b610821565b6040516101f7919061163b565b60405180910390f35b61021a600480360381019061021591906115f3565b61097d565b604051610227919061163b565b60405180910390f35b61024a600480360381019061024591906114ad565b61099d565b6040516102579190611573565b60405180910390f35b61027a600480360381019061027591906116bd565b610a48565b604051610287919061163b565b60405180910390f35b6102aa60048036038101906102a59190611762565b610b4b565b6040516102b7919061163b565b60405180910390f35b6102da60048036038101906102d591906116bd565b610bcc565b6040516102e7919061163b565b60405180910390f35b61030a600480360381019061030591906115f3565b610ccf565b604051610317919061163b565b60405180910390f35b61033a60048036038101906103359190611762565b610d25565b604051610347919061163b565b60405180910390f35b61036a60048036038101906103659190611762565b610da6565b604051610377919061163b565b60405180910390f35b61039a600480360381019061039591906115f3565b610e27565b6040516103a79190611874565b60405180910390f35b6103ca60048036038101906103c5919061188f565b610f41565b6040516103d7919061163b565b60405180910390f35b6103fa60048036038101906103f591906115f3565b6110c7565b005b610416600480360381019061041191906116bd565b61126f565b604051610423919061163b565b60405180910390f35b6060600460008360ff1660ff168152602001908152602001600020805461045290611911565b80601f016020809104026020016040519081016040528092919081815260200182805461047e90611911565b80156104cb5780601f106104a0576101008083540402835291602001916104cb565b820191906000526020600020905b8154815290600101906020018083116104ae57829003601f168201915b50505050509050919050565b6060600560008360ff1660ff16815260200190815260200160002080546104fd90611911565b80601f016020809104026020016040519081016040528092919081815260200182805461052990611911565b80156105765780601f1061054b57610100808354040283529160200191610576565b820191906000526020600020905b81548152906001019060200180831161055957829003601f168201915b50505050509050919050565b60008060009054906101000a900473ffffffffffffffffffffffffffffffffffffffff1673ffffffffffffffffffffffffffffffffffffffff163373ffffffffffffffffffffffffffffffffffffffff16146105dd57600080fd5b60001515600160008473ffffffffffffffffffffffffffffffffffffffff1673ffffffffffffffffffffffffffffffffffffffff16815260200190815260200160002060009054906101000a900460ff1615151461063a57600080fd5b60018060008473ffffffffffffffffffffffffffffffffffffffff1673ffffffffffffffffffffffffffffffffffffffff16815260200190815260200160002060006101000a81548160ff0219169083151502179055508173ffffffffffffffffffffffffffffffffffffffff167f27aa0506e4da65b95bd4f61c697076f8c7dcb69b2c0937d11efa9ceaa3bf5a9560405160405180910390a260019050919050565b6000600115156106ec33610ccf565b1515146106f857600080fd5b6000600660008773ffffffffffffffffffffffffffffffffffffffff1673ffffffffffffffffffffffffffffffffffffffff1681526020019081526020016000209050600081600001541461074c57600080fd5b6002548160000181905550338160010160006101000a81548173ffffffffffffffffffffffffffffffffffffffff021916908373ffffffffffffffffffffffffffffffffffffffff160217905550848160010160146101000a81548160ff021916908360ff160217905550838160010160156101000a81548160ff021916908360ff160217905550828160010160166101000a81548160ff021916908360ff16021790555042816002018190555060016002600082825461080d9190611972565b925050819055506001915050949350505050565b60008060009054906101000a900473ffffffffffffffffffffffffffffffffffffffff1673ffffffffffffffffffffffffffffffffffffffff163373ffffffffffffffffffffffffffffffffffffffff161461087c57600080fd5b60011515600160008473ffffffffffffffffffffffffffffffffffffffff1673ffffffffffffffffffffffffffffffffffffffff16815260200190815260200160002060009054906101000a900460ff161515146108d957600080fd5b6000600160008473ffffffffffffffffffffffffffffffffffffffff1673ffffffffffffffffffffffffffffffffffffffff16815260200190815260200160002060006101000a81548160ff0219169083151502179055508173ffffffffffffffffffffffffffffffffffffffff167fee5d7d94405e51eec1bd7f59c36572787d25afb6c85e3a897bb782f08aac7d4460405160405180910390a260019050919050565b60016020528060005260406000206000915054906101000a900460ff1681565b6060600360008360ff1660ff16815260200190815260200160002080546109c390611911565b80601f01602080910402602001604051908101604052809291908181526020018280546109ef90611911565b8015610a3c5780601f10610a1157610100808354040283529160200191610a3c565b820191906000526020600020905b815481529060010190602001808311610a1f57829003601f168201915b50505050509050919050565b600060011515610a5733610ccf565b151514610a6357600080fd5b6000600660008573ffffffffffffffffffffffffffffffffffffffff1673ffffffffffffffffffffffffffffffffffffffff168152602001908152602001600020600001541415610ab357600080fd5b6000600560008460ff1660ff1681526020019081526020016000208054610ad990611911565b90501415610ae657600080fd5b81600660008573ffffffffffffffffffffffffffffffffffffffff1673ffffffffffffffffffffffffffffffffffffffff16815260200190815260200160002060010160166101000a81548160ff021916908360ff1602179055506001905092915050565b600060011515610b5a33610ccf565b151514610b6657600080fd5b6000600360008660ff1660ff1681526020019081526020016000208054610b8c90611911565b905014610b9857600080fd5b8282600360008760ff1660ff1681526020019081526020016000209190610bc0929190611372565b50600190509392505050565b600060011515610bdb33610ccf565b151514610be757600080fd5b6000600660008573ffffffffffffffffffffffffffffffffffffffff1673ffffffffffffffffffffffffffffffffffffffff168152602001908152602001600020600001541415610c3757600080fd5b6000600360008460ff1660ff1681526020019081526020016000208054610c5d90611911565b90501415610c6a57600080fd5b81600660008573ffffffffffffffffffffffffffffffffffffffff1673ffffffffffffffffffffffffffffffffffffffff16815260200190815260200160002060010160146101000a81548160ff021916908360ff1602179055506001905092915050565b6000600160008373ffffffffffffffffffffffffffffffffffffffff1673ffffffffffffffffffffffffffffffffffffffff16815260200190815260200160002060009054906101000a900460ff169050919050565b600060011515610d3433610ccf565b151514610d4057600080fd5b6000600560008660ff1660ff1681526020019081526020016000208054610d6690611911565b905014610d7257600080fd5b8282600560008760ff1660ff1681526020019081526020016000209190610d9a929190611372565b50600190509392505050565b600060011515610db533610ccf565b151514610dc157600080fd5b6000600460008660ff1660ff1681526020019081526020016000208054610de790611911565b905014610df357600080fd5b8282600460008760ff1660ff1681526020019081526020016000209190610e1b929190611372565b50600190509392505050565b610e2f6113f8565b600660008373ffffffffffffffffffffffffffffffffffffffff1673ffffffffffffffffffffffffffffffffffffffff1681526020019081526020016000206040518060c0016040529081600082015481526020016001820160009054906101000a900473ffffffffffffffffffffffffffffffffffffffff1673ffffffffffffffffffffffffffffffffffffffff1673ffffffffffffffffffffffffffffffffffffffff1681526020016001820160149054906101000a900460ff1660ff1660ff1681526020016001820160159054906101000a900460ff1660ff1660ff1681526020016001820160169054906101000a900460ff1660ff1660ff1681526020016002820154815250509050919050565b600080600660008673ffffffffffffffffffffffffffffffffffffffff1673ffffffffffffffffffffffffffffffffffffffff168152602001908152602001600020600001541415610f9657600090506110c0565b8260ff16600660008673ffffffffffffffffffffffffffffffffffffffff1673ffffffffffffffffffffffffffffffffffffffff16815260200190815260200160002060010160149054906101000a900460ff1660ff1614801561104f57508160ff16600660008673ffffffffffffffffffffffffffffffffffffffff1673ffffffffffffffffffffffffffffffffffffffff16815260200190815260200160002060010160159054906101000a900460ff1660ff1610155b80156110ad57506002600660008673ffffffffffffffffffffffffffffffffffffffff1673ffffffffffffffffffffffffffffffffffffffff16815260200190815260200160002060010160169054906101000a900460ff1660ff16145b156110bb57600190506110c0565b600090505b9392505050565b60008054906101000a900473ffffffffffffffffffffffffffffffffffffffff1673ffffffffffffffffffffffffffffffffffffffff163373ffffffffffffffffffffffffffffffffffffffff161461111f57600080fd5b60008054906101000a900473ffffffffffffffffffffffffffffffffffffffff1673ffffffffffffffffffffffffffffffffffffffff168173ffffffffffffffffffffffffffffffffffffffff16141561117857600080fd5b600073ffffffffffffffffffffffffffffffffffffffff168173ffffffffffffffffffffffffffffffffffffffff1614156111b257600080fd5b806000806101000a81548173ffffffffffffffffffffffffffffffffffffffff021916908373ffffffffffffffffffffffffffffffffffffffff1602179055508073ffffffffffffffffffffffffffffffffffffffff1660008054906101000a900473ffffffffffffffffffffffffffffffffffffffff1673ffffffffffffffffffffffffffffffffffffffff167f2ae143016adc0aa482e6ba5d9a350f3e3122aeb005ca4bf47d1d7b8221bce47260405160405180910390a350565b60006001151561127e33610ccf565b15151461128a57600080fd5b6000600660008573ffffffffffffffffffffffffffffffffffffffff1673ffffffffffffffffffffffffffffffffffffffff1681526020019081526020016000206000015414156112da57600080fd5b6000600460008460ff1660ff168152602001908152602001600020805461130090611911565b9050141561130d57600080fd5b81600660008573ffffffffffffffffffffffffffffffffffffffff1673ffffffffffffffffffffffffffffffffffffffff16815260200190815260200160002060010160156101000a81548160ff021916908360ff1602179055506001905092915050565b82805461137e90611911565b90600052602060002090601f0160209004810192826113a057600085556113e7565b82601f106113b957803560ff19168380011785556113e7565b828001600101855582156113e7579182015b828111156113e65782358255916020019190600101906113cb565b5b5090506113f4919061144d565b5090565b6040518060c0016040528060008152602001600073ffffffffffffffffffffffffffffffffffffffff168152602001600060ff168152602001600060ff168152602001600060ff168152602001600081525090565b5b8082111561146657600081600090555060010161144e565b5090565b600080fd5b600080fd5b600060ff82169050919050565b61148a81611474565b811461149557600080fd5b50565b6000813590506114a781611481565b92915050565b6000602082840312156114c3576114c261146a565b5b60006114d184828501611498565b91505092915050565b600081519050919050565b600082825260208201905092915050565b60005b838110156115145780820151818401526020810190506114f9565b83811115611523576000848401525b50505050565b6000601f19601f8301169050919050565b6000611545826114da565b61154f81856114e5565b935061155f8185602086016114f6565b61156881611529565b840191505092915050565b6000602082019050818103600083015261158d818461153a565b905092915050565b600073ffffffffffffffffffffffffffffffffffffffff82169050919050565b60006115c082611595565b9050919050565b6115d0816115b5565b81146115db57600080fd5b50565b6000813590506115ed816115c7565b92915050565b6000602082840312156116095761160861146a565b5b6000611617848285016115de565b91505092915050565b60008115159050919050565b61163581611620565b82525050565b6000602082019050611650600083018461162c565b92915050565b600080600080608085870312156116705761166f61146a565b5b600061167e878288016115de565b945050602061168f87828801611498565b93505060406116a087828801611498565b92505060606116b187828801611498565b91505092959194509250565b600080604083850312156116d4576116d361146a565b5b60006116e2858286016115de565b92505060206116f385828601611498565b9150509250929050565b600080fd5b600080fd5b600080fd5b60008083601f840112611722576117216116fd565b5b8235905067ffffffffffffffff81111561173f5761173e611702565b5b60208301915083600182028301111561175b5761175a611707565b5b9250929050565b60008060006040848603121561177b5761177a61146a565b5b600061178986828701611498565b935050602084013567ffffffffffffffff8111156117aa576117a961146f565b5b6117b68682870161170c565b92509250509250925092565b6000819050919050565b6117d5816117c2565b82525050565b6117e4816115b5565b82525050565b6117f381611474565b82525050565b60c08201600082015161180f60008501826117cc565b50602082015161182260208501826117db565b50604082015161183560408501826117ea565b50606082015161184860608501826117ea565b50608082015161185b60808501826117ea565b5060a082015161186e60a08501826117cc565b50505050565b600060c08201905061188960008301846117f9565b92915050565b6000806000606084860312156118a8576118a761146a565b5b60006118b6868287016115de565b93505060206118c786828701611498565b92505060406118d886828701611498565b9150509250925092565b7f4e487b7100000000000000000000000000000000000000000000000000000000600052602260045260246000fd5b6000600282049050600182168061192957607f821691505b6020821081141561193d5761193c6118e2565b5b50919050565b7f4e487b7100000000000000000000000000000000000000000000000000000000600052601160045260246000fd5b600061197d826117c2565b9150611988836117c2565b9250827fffffffffffffffffffffffffffffffffffffffffffffffffffffffffffffffff038211156119bd576119bc611943565b5b82820190509291505056fea26469706673582212200d51951e4143068894de2f0f62360807a7bebb362734ea8b1a1f139418c1bb0464736f6c634300080a0033",
					"opcodes": "PUSH1 0x80 PUSH1 0x40 MSTORE CALLVALUE DUP1 ISZERO PUSH3 0x11 JUMPI PUSH1 0x0 DUP1 REVERT JUMPDEST POP CALLER PUSH1 0x0 DUP1 PUSH2 0x100 EXP DUP2 SLOAD DUP2 PUSH20 0xFFFFFFFFFFFFFFFFFFFFFFFFFFFFFFFFFFFFFFFF MUL NOT AND SWAP1 DUP4 PUSH20 0xFFFFFFFFFFFFFFFFFFFFFFFFFFFFFFFFFFFFFFFF AND MUL OR SWAP1 SSTORE POP PUSH1 0x1 DUP1 PUSH1 0x0 CALLER PUSH20 0xFFFFFFFFFFFFFFFFFFFFFFFFFFFFFFFFFFFFFFFF AND PUSH20 0xFFFFFFFFFFFFFFFFFFFFFFFFFFFFFFFFFFFFFFFF AND DUP2 MSTORE PUSH1 0x20 ADD SWAP1 DUP2 MSTORE PUSH1 0x20 ADD PUSH1 0x0 KECCAK256 PUSH1 0x0 PUSH2 0x100 EXP DUP2 SLOAD DUP2 PUSH1 0xFF MUL NOT AND SWAP1 DUP4 ISZERO ISZERO MUL OR SWAP1 SSTORE POP PUSH1 0x1 PUSH1 0x2 DUP2 SWAP1 SSTORE POP PUSH1 0x40 MLOAD DUP1 PUSH1 0x40 ADD PUSH1 0x40 MSTORE DUP1 PUSH1 0x6 DUP2 MSTORE PUSH1 0x20 ADD PUSH32 0x5046495A45520000000000000000000000000000000000000000000000000000 DUP2 MSTORE POP PUSH1 0x3 PUSH1 0x0 DUP1 PUSH1 0xFF AND DUP2 MSTORE PUSH1 0x20 ADD SWAP1 DUP2 MSTORE PUSH1 0x20 ADD PUSH1 0x0 KECCAK256 SWAP1 DUP1 MLOAD SWAP1 PUSH1 0x20 ADD SWAP1 PUSH3 0x112 SWAP3 SWAP2 SWAP1 PUSH3 0x558 JUMP JUMPDEST POP PUSH1 0x40 MLOAD DUP1 PUSH1 0x40 ADD PUSH1 0x40 MSTORE DUP1 PUSH1 0x7 DUP2 MSTORE PUSH1 0x20 ADD PUSH32 0x4D4F4445524E4100000000000000000000000000000000000000000000000000 DUP2 MSTORE POP PUSH1 0x3 PUSH1 0x0 PUSH1 0x1 PUSH1 0xFF AND DUP2 MSTORE PUSH1 0x20 ADD SWAP1 DUP2 MSTORE PUSH1 0x20 ADD PUSH1 0x0 KECCAK256 SWAP1 DUP1 MLOAD SWAP1 PUSH1 0x20 ADD SWAP1 PUSH3 0x175 SWAP3 SWAP2 SWAP1 PUSH3 0x558 JUMP JUMPDEST POP PUSH1 0x40 MLOAD DUP1 PUSH1 0x40 ADD PUSH1 0x40 MSTORE DUP1 PUSH1 0x7 DUP2 MSTORE PUSH1 0x20 ADD PUSH32 0x4A414E5353454E00000000000000000000000000000000000000000000000000 DUP2 MSTORE POP PUSH1 0x3 PUSH1 0x0 PUSH1 0x2 PUSH1 0xFF AND DUP2 MSTORE PUSH1 0x20 ADD SWAP1 DUP2 MSTORE PUSH1 0x20 ADD PUSH1 0x0 KECCAK256 SWAP1 DUP1 MLOAD SWAP1 PUSH1 0x20 ADD SWAP1 PUSH3 0x1D8 SWAP3 SWAP2 SWAP1 PUSH3 0x558 JUMP JUMPDEST POP PUSH1 0x40 MLOAD DUP1 PUSH1 0x40 ADD PUSH1 0x40 MSTORE DUP1 PUSH1 0xB DUP2 MSTORE PUSH1 0x20 ADD PUSH32 0x41535452415A454E454341000000000000000000000000000000000000000000 DUP2 MSTORE POP PUSH1 0x3 PUSH1 0x0 PUSH1 0x3 PUSH1 0xFF AND DUP2 MSTORE PUSH1 0x20 ADD SWAP1 DUP2 MSTORE PUSH1 0x20 ADD PUSH1 0x0 KECCAK256 SWAP1 DUP1 MLOAD SWAP1 PUSH1 0x20 ADD SWAP1 PUSH3 0x23B SWAP3 SWAP2 SWAP1 PUSH3 0x558 JUMP JUMPDEST POP PUSH1 0x40 MLOAD DUP1 PUSH1 0x40 ADD PUSH1 0x40 MSTORE DUP1 PUSH1 0x4 DUP2 MSTORE PUSH1 0x20 ADD PUSH32 0x4E6F6E6500000000000000000000000000000000000000000000000000000000 DUP2 MSTORE POP PUSH1 0x4 PUSH1 0x0 DUP1 PUSH1 0xFF AND DUP2 MSTORE PUSH1 0x20 ADD SWAP1 DUP2 MSTORE PUSH1 0x20 ADD PUSH1 0x0 KECCAK256 SWAP1 DUP1 MLOAD SWAP1 PUSH1 0x20 ADD SWAP1 PUSH3 0x29D SWAP3 SWAP2 SWAP1 PUSH3 0x558 JUMP JUMPDEST POP PUSH1 0x40 MLOAD DUP1 PUSH1 0x40 ADD PUSH1 0x40 MSTORE DUP1 PUSH1 0xA DUP2 MSTORE PUSH1 0x20 ADD PUSH32 0x66697273742073686F7400000000000000000000000000000000000000000000 DUP2 MSTORE POP PUSH1 0x4 PUSH1 0x0 PUSH1 0x1 PUSH1 0xFF AND DUP2 MSTORE PUSH1 0x20 ADD SWAP1 DUP2 MSTORE PUSH1 0x20 ADD PUSH1 0x0 KECCAK256 SWAP1 DUP1 MLOAD SWAP1 PUSH1 0x20 ADD SWAP1 PUSH3 0x300 SWAP3 SWAP2 SWAP1 PUSH3 0x558 JUMP JUMPDEST POP PUSH1 0x40 MLOAD DUP1 PUSH1 0x40 ADD PUSH1 0x40 MSTORE DUP1 PUSH1 0xB DUP2 MSTORE PUSH1 0x20 ADD PUSH32 0x7365636F6E642073686F74000000000000000000000000000000000000000000 DUP2 MSTORE POP PUSH1 0x4 PUSH1 0x0 PUSH1 0x2 PUSH1 0xFF AND DUP2 MSTORE PUSH1 0x20 ADD SWAP1 DUP2 MSTORE PUSH1 0x20 ADD PUSH1 0x0 KECCAK256 SWAP1 DUP1 MLOAD SWAP1 PUSH1 0x20 ADD SWAP1 PUSH3 0x363 SWAP3 SWAP2 SWAP1 PUSH3 0x558 JUMP JUMPDEST POP PUSH1 0x40 MLOAD DUP1 PUSH1 0x40 ADD PUSH1 0x40 MSTORE DUP1 PUSH1 0xA DUP2 MSTORE PUSH1 0x20 ADD PUSH32 0x74686972642073686F7400000000000000000000000000000000000000000000 DUP2 MSTORE POP PUSH1 0x4 PUSH1 0x0 PUSH1 0x3 PUSH1 0xFF AND DUP2 MSTORE PUSH1 0x20 ADD SWAP1 DUP2 MSTORE PUSH1 0x20 ADD PUSH1 0x0 KECCAK256 SWAP1 DUP1 MLOAD SWAP1 PUSH1 0x20 ADD SWAP1 PUSH3 0x3C6 SWAP3 SWAP2 SWAP1 PUSH3 0x558 JUMP JUMPDEST POP PUSH1 0x40 MLOAD DUP1 PUSH1 0x40 ADD PUSH1 0x40 MSTORE DUP1 PUSH1 0x4 DUP2 MSTORE PUSH1 0x20 ADD PUSH32 0x4E6F6E6500000000000000000000000000000000000000000000000000000000 DUP2 MSTORE POP PUSH1 0x5 PUSH1 0x0 DUP1 PUSH1 0xFF AND DUP2 MSTORE PUSH1 0x20 ADD SWAP1 DUP2 MSTORE PUSH1 0x20 ADD PUSH1 0x0 KECCAK256 SWAP1 DUP1 MLOAD SWAP1 PUSH1 0x20 ADD SWAP1 PUSH3 0x428 SWAP3 SWAP2 SWAP1 PUSH3 0x558 JUMP JUMPDEST POP PUSH1 0x40 MLOAD DUP1 PUSH1 0x40 ADD PUSH1 0x40 MSTORE DUP1 PUSH1 0x1E DUP2 MSTORE PUSH1 0x20 ADD PUSH32 0x76616363696E617465642C2031342064617973206E6F74207061737365640000 DUP2 MSTORE POP PUSH1 0x5 PUSH1 0x0 PUSH1 0x1 PUSH1 0xFF AND DUP2 MSTORE PUSH1 0x20 ADD SWAP1 DUP2 MSTORE PUSH1 0x20 ADD PUSH1 0x0 KECCAK256 SWAP1 DUP1 MLOAD SWAP1 PUSH1 0x20 ADD SWAP1 PUSH3 0x48B SWAP3 SWAP2 SWAP1 PUSH3 0x558 JUMP JUMPDEST POP PUSH1 0x40 MLOAD DUP1 PUSH1 0x40 ADD PUSH1 0x40 MSTORE DUP1 PUSH1 0x1A DUP2 MSTORE PUSH1 0x20 ADD PUSH32 0x76616363696E617465642C203134206461797320706173736564000000000000 DUP2 MSTORE POP PUSH1 0x5 PUSH1 0x0 PUSH1 0x2 PUSH1 0xFF AND DUP2 MSTORE PUSH1 0x20 ADD SWAP1 DUP2 MSTORE PUSH1 0x20 ADD PUSH1 0x0 KECCAK256 SWAP1 DUP1 MLOAD SWAP1 PUSH1 0x20 ADD SWAP1 PUSH3 0x4EE SWAP3 SWAP2 SWAP1 PUSH3 0x558 JUMP JUMPDEST POP PUSH1 0x40 MLOAD DUP1 PUSH1 0x40 ADD PUSH1 0x40 MSTORE DUP1 PUSH1 0x7 DUP2 MSTORE PUSH1 0x20 ADD PUSH32 0x6578706972656400000000000000000000000000000000000000000000000000 DUP2 MSTORE POP PUSH1 0x5 PUSH1 0x0 PUSH1 0x3 PUSH1 0xFF AND DUP2 MSTORE PUSH1 0x20 ADD SWAP1 DUP2 MSTORE PUSH1 0x20 ADD PUSH1 0x0 KECCAK256 SWAP1 DUP1 MLOAD SWAP1 PUSH1 0x20 ADD SWAP1 PUSH3 0x551 SWAP3 SWAP2 SWAP1 PUSH3 0x558 JUMP JUMPDEST POP PUSH3 0x66D JUMP JUMPDEST DUP3 DUP1 SLOAD PUSH3 0x566 SWAP1 PUSH3 0x637 JUMP JUMPDEST SWAP1 PUSH1 0x0 MSTORE PUSH1 0x20 PUSH1 0x0 KECCAK256 SWAP1 PUSH1 0x1F ADD PUSH1 0x20 SWAP1 DIV DUP2 ADD SWAP3 DUP3 PUSH3 0x58A JUMPI PUSH1 0x0 DUP6 SSTORE PUSH3 0x5D6 JUMP JUMPDEST DUP3 PUSH1 0x1F LT PUSH3 0x5A5 JUMPI DUP1 MLOAD PUSH1 0xFF NOT AND DUP4 DUP1 ADD OR DUP6 SSTORE PUSH3 0x5D6 JUMP JUMPDEST DUP3 DUP1 ADD PUSH1 0x1 ADD DUP6 SSTORE DUP3 ISZERO PUSH3 0x5D6 JUMPI SWAP2 DUP3 ADD JUMPDEST DUP3 DUP2 GT ISZERO PUSH3 0x5D5 JUMPI DUP3 MLOAD DUP3 SSTORE SWAP2 PUSH1 0x20 ADD SWAP2 SWAP1 PUSH1 0x1 ADD SWAP1 PUSH3 0x5B8 JUMP JUMPDEST JUMPDEST POP SWAP1 POP PUSH3 0x5E5 SWAP2 SWAP1 PUSH3 0x5E9 JUMP JUMPDEST POP SWAP1 JUMP JUMPDEST JUMPDEST DUP1 DUP3 GT ISZERO PUSH3 0x604 JUMPI PUSH1 0x0 DUP2 PUSH1 0x0 SWAP1 SSTORE POP PUSH1 0x1 ADD PUSH3 0x5EA JUMP JUMPDEST POP SWAP1 JUMP JUMPDEST PUSH32 0x4E487B7100000000000000000000000000000000000000000000000000000000 PUSH1 0x0 MSTORE PUSH1 0x22 PUSH1 0x4 MSTORE PUSH1 0x24 PUSH1 0x0 REVERT JUMPDEST PUSH1 0x0 PUSH1 0x2 DUP3 DIV SWAP1 POP PUSH1 0x1 DUP3 AND DUP1 PUSH3 0x650 JUMPI PUSH1 0x7F DUP3 AND SWAP2 POP JUMPDEST PUSH1 0x20 DUP3 LT DUP2 EQ ISZERO PUSH3 0x667 JUMPI PUSH3 0x666 PUSH3 0x608 JUMP JUMPDEST JUMPDEST POP SWAP2 SWAP1 POP JUMP JUMPDEST PUSH2 0x19FE DUP1 PUSH3 0x67D PUSH1 0x0 CODECOPY PUSH1 0x0 RETURN INVALID PUSH1 0x80 PUSH1 0x40 MSTORE CALLVALUE DUP1 ISZERO PUSH2 0x10 JUMPI PUSH1 0x0 DUP1 REVERT JUMPDEST POP PUSH1 0x4 CALLDATASIZE LT PUSH2 0x10B JUMPI PUSH1 0x0 CALLDATALOAD PUSH1 0xE0 SHR DUP1 PUSH4 0x59A7AEF3 GT PUSH2 0xA2 JUMPI DUP1 PUSH4 0xA30E2E54 GT PUSH2 0x71 JUMPI DUP1 PUSH4 0xA30E2E54 EQ PUSH2 0x350 JUMPI DUP1 PUSH4 0xCCDAD14B EQ PUSH2 0x380 JUMPI DUP1 PUSH4 0xD9C45826 EQ PUSH2 0x3B0 JUMPI DUP1 PUSH4 0xF2FDE38B EQ PUSH2 0x3E0 JUMPI DUP1 PUSH4 0xFF63E7A8 EQ PUSH2 0x3FC JUMPI PUSH2 0x10B JUMP JUMPDEST DUP1 PUSH4 0x59A7AEF3 EQ PUSH2 0x290 JUMPI DUP1 PUSH4 0x7EBB1298 EQ PUSH2 0x2C0 JUMPI DUP1 PUSH4 0x877B9A67 EQ PUSH2 0x2F0 JUMPI DUP1 PUSH4 0x8E8261C3 EQ PUSH2 0x320 JUMPI PUSH2 0x10B JUMP JUMPDEST DUP1 PUSH4 0x34BECFB4 GT PUSH2 0xDE JUMPI DUP1 PUSH4 0x34BECFB4 EQ PUSH2 0x1D0 JUMPI DUP1 PUSH4 0x38A7543E EQ PUSH2 0x200 JUMPI DUP1 PUSH4 0x3F8A37DC EQ PUSH2 0x230 JUMPI DUP1 PUSH4 0x4FEADF41 EQ PUSH2 0x260 JUMPI PUSH2 0x10B JUMP JUMPDEST DUP1 PUSH4 0x5183A29 EQ PUSH2 0x110 JUMPI DUP1 PUSH4 0xF42E6AC EQ PUSH2 0x140 JUMPI DUP1 PUSH4 0x20694DB0 EQ PUSH2 0x170 JUMPI DUP1 PUSH4 0x26827199 EQ PUSH2 0x1A0 JUMPI JUMPDEST PUSH1 0x0 DUP1 REVERT JUMPDEST PUSH2 0x12A PUSH1 0x4 DUP1 CALLDATASIZE SUB DUP2 ADD SWAP1 PUSH2 0x125 SWAP2 SWAP1 PUSH2 0x14AD JUMP JUMPDEST PUSH2 0x42C JUMP JUMPDEST PUSH1 0x40 MLOAD PUSH2 0x137 SWAP2 SWAP1 PUSH2 0x1573 JUMP JUMPDEST PUSH1 0x40 MLOAD DUP1 SWAP2 SUB SWAP1 RETURN JUMPDEST PUSH2 0x15A PUSH1 0x4 DUP1 CALLDATASIZE SUB DUP2 ADD SWAP1 PUSH2 0x155 SWAP2 SWAP1 PUSH2 0x14AD JUMP JUMPDEST PUSH2 0x4D7 JUMP JUMPDEST PUSH1 0x40 MLOAD PUSH2 0x167 SWAP2 SWAP1 PUSH2 0x1573 JUMP JUMPDEST PUSH1 0x40 MLOAD DUP1 SWAP2 SUB SWAP1 RETURN JUMPDEST PUSH2 0x18A PUSH1 0x4 DUP1 CALLDATASIZE SUB DUP2 ADD SWAP1 PUSH2 0x185 SWAP2 SWAP1 PUSH2 0x15F3 JUMP JUMPDEST PUSH2 0x582 JUMP JUMPDEST PUSH1 0x40 MLOAD PUSH2 0x197 SWAP2 SWAP1 PUSH2 0x163B JUMP JUMPDEST PUSH1 0x40 MLOAD DUP1 SWAP2 SUB SWAP1 RETURN JUMPDEST PUSH2 0x1BA PUSH1 0x4 DUP1 CALLDATASIZE SUB DUP2 ADD SWAP1 PUSH2 0x1B5 SWAP2 SWAP1 PUSH2 0x1656 JUMP JUMPDEST PUSH2 0x6DD JUMP JUMPDEST PUSH1 0x40 MLOAD PUSH2 0x1C7 SWAP2 SWAP1 PUSH2 0x163B JUMP JUMPDEST PUSH1 0x40 MLOAD DUP1 SWAP2 SUB SWAP1 RETURN JUMPDEST PUSH2 0x1EA PUSH1 0x4 DUP1 CALLDATASIZE SUB DUP2 ADD SWAP1 PUSH2 0x1E5 SWAP2 SWAP1 PUSH2 0x15F3 JUMP JUMPDEST PUSH2 0x821 JUMP JUMPDEST PUSH1 0x40 MLOAD PUSH2 0x1F7 SWAP2 SWAP1 PUSH2 0x163B JUMP JUMPDEST PUSH1 0x40 MLOAD DUP1 SWAP2 SUB SWAP1 RETURN JUMPDEST PUSH2 0x21A PUSH1 0x4 DUP1 CALLDATASIZE SUB DUP2 ADD SWAP1 PUSH2 0x215 SWAP2 SWAP1 PUSH2 0x15F3 JUMP JUMPDEST PUSH2 0x97D JUMP JUMPDEST PUSH1 0x40 MLOAD PUSH2 0x227 SWAP2 SWAP1 PUSH2 0x163B JUMP JUMPDEST PUSH1 0x40 MLOAD DUP1 SWAP2 SUB SWAP1 RETURN JUMPDEST PUSH2 0x24A PUSH1 0x4 DUP1 CALLDATASIZE SUB DUP2 ADD SWAP1 PUSH2 0x245 SWAP2 SWAP1 PUSH2 0x14AD JUMP JUMPDEST PUSH2 0x99D JUMP JUMPDEST PUSH1 0x40 MLOAD PUSH2 0x257 SWAP2 SWAP1 PUSH2 0x1573 JUMP JUMPDEST PUSH1 0x40 MLOAD DUP1 SWAP2 SUB SWAP1 RETURN JUMPDEST PUSH2 0x27A PUSH1 0x4 DUP1 CALLDATASIZE SUB DUP2 ADD SWAP1 PUSH2 0x275 SWAP2 SWAP1 PUSH2 0x16BD JUMP JUMPDEST PUSH2 0xA48 JUMP JUMPDEST PUSH1 0x40 MLOAD PUSH2 0x287 SWAP2 SWAP1 PUSH2 0x163B JUMP JUMPDEST PUSH1 0x40 MLOAD DUP1 SWAP2 SUB SWAP1 RETURN JUMPDEST PUSH2 0x2AA PUSH1 0x4 DUP1 CALLDATASIZE SUB DUP2 ADD SWAP1 PUSH2 0x2A5 SWAP2 SWAP1 PUSH2 0x1762 JUMP JUMPDEST PUSH2 0xB4B JUMP JUMPDEST PUSH1 0x40 MLOAD PUSH2 0x2B7 SWAP2 SWAP1 PUSH2 0x163B JUMP JUMPDEST PUSH1 0x40 MLOAD DUP1 SWAP2 SUB SWAP1 RETURN JUMPDEST PUSH2 0x2DA PUSH1 0x4 DUP1 CALLDATASIZE SUB DUP2 ADD SWAP1 PUSH2 0x2D5 SWAP2 SWAP1 PUSH2 0x16BD JUMP JUMPDEST PUSH2 0xBCC JUMP JUMPDEST PUSH1 0x40 MLOAD PUSH2 0x2E7 SWAP2 SWAP1 PUSH2 0x163B JUMP JUMPDEST PUSH1 0x40 MLOAD DUP1 SWAP2 SUB SWAP1 RETURN JUMPDEST PUSH2 0x30A PUSH1 0x4 DUP1 CALLDATASIZE SUB DUP2 ADD SWAP1 PUSH2 0x305 SWAP2 SWAP1 PUSH2 0x15F3 JUMP JUMPDEST PUSH2 0xCCF JUMP JUMPDEST PUSH1 0x40 MLOAD PUSH2 0x317 SWAP2 SWAP1 PUSH2 0x163B JUMP JUMPDEST PUSH1 0x40 MLOAD DUP1 SWAP2 SUB SWAP1 RETURN JUMPDEST PUSH2 0x33A PUSH1 0x4 DUP1 CALLDATASIZE SUB DUP2 ADD SWAP1 PUSH2 0x335 SWAP2 SWAP1 PUSH2 0x1762 JUMP JUMPDEST PUSH2 0xD25 JUMP JUMPDEST PUSH1 0x40 MLOAD PUSH2 0x347 SWAP2 SWAP1 PUSH2 0x163B JUMP JUMPDEST PUSH1 0x40 MLOAD DUP1 SWAP2 SUB SWAP1 RETURN JUMPDEST PUSH2 0x36A PUSH1 0x4 DUP1 CALLDATASIZE SUB DUP2 ADD SWAP1 PUSH2 0x365 SWAP2 SWAP1 PUSH2 0x1762 JUMP JUMPDEST PUSH2 0xDA6 JUMP JUMPDEST PUSH1 0x40 MLOAD PUSH2 0x377 SWAP2 SWAP1 PUSH2 0x163B JUMP JUMPDEST PUSH1 0x40 MLOAD DUP1 SWAP2 SUB SWAP1 RETURN JUMPDEST PUSH2 0x39A PUSH1 0x4 DUP1 CALLDATASIZE SUB DUP2 ADD SWAP1 PUSH2 0x395 SWAP2 SWAP1 PUSH2 0x15F3 JUMP JUMPDEST PUSH2 0xE27 JUMP JUMPDEST PUSH1 0x40 MLOAD PUSH2 0x3A7 SWAP2 SWAP1 PUSH2 0x1874 JUMP JUMPDEST PUSH1 0x40 MLOAD DUP1 SWAP2 SUB SWAP1 RETURN JUMPDEST PUSH2 0x3CA PUSH1 0x4 DUP1 CALLDATASIZE SUB DUP2 ADD SWAP1 PUSH2 0x3C5 SWAP2 SWAP1 PUSH2 0x188F JUMP JUMPDEST PUSH2 0xF41 JUMP JUMPDEST PUSH1 0x40 MLOAD PUSH2 0x3D7 SWAP2 SWAP1 PUSH2 0x163B JUMP JUMPDEST PUSH1 0x40 MLOAD DUP1 SWAP2 SUB SWAP1 RETURN JUMPDEST PUSH2 0x3FA PUSH1 0x4 DUP1 CALLDATASIZE SUB DUP2 ADD SWAP1 PUSH2 0x3F5 SWAP2 SWAP1 PUSH2 0x15F3 JUMP JUMPDEST PUSH2 0x10C7 JUMP JUMPDEST STOP JUMPDEST PUSH2 0x416 PUSH1 0x4 DUP1 CALLDATASIZE SUB DUP2 ADD SWAP1 PUSH2 0x411 SWAP2 SWAP1 PUSH2 0x16BD JUMP JUMPDEST PUSH2 0x126F JUMP JUMPDEST PUSH1 0x40 MLOAD PUSH2 0x423 SWAP2 SWAP1 PUSH2 0x163B JUMP JUMPDEST PUSH1 0x40 MLOAD DUP1 SWAP2 SUB SWAP1 RETURN JUMPDEST PUSH1 0x60 PUSH1 0x4 PUSH1 0x0 DUP4 PUSH1 0xFF AND PUSH1 0xFF AND DUP2 MSTORE PUSH1 0x20 ADD SWAP1 DUP2 MSTORE PUSH1 0x20 ADD PUSH1 0x0 KECCAK256 DUP1 SLOAD PUSH2 0x452 SWAP1 PUSH2 0x1911 JUMP JUMPDEST DUP1 PUSH1 0x1F ADD PUSH1 0x20 DUP1 SWAP2 DIV MUL PUSH1 0x20 ADD PUSH1 0x40 MLOAD SWAP1 DUP2 ADD PUSH1 0x40 MSTORE DUP1 SWAP3 SWAP2 SWAP1 DUP2 DUP2 MSTORE PUSH1 0x20 ADD DUP3 DUP1 SLOAD PUSH2 0x47E SWAP1 PUSH2 0x1911 JUMP JUMPDEST DUP1 ISZERO PUSH2 0x4CB JUMPI DUP1 PUSH1 0x1F LT PUSH2 0x4A0 JUMPI PUSH2 0x100 DUP1 DUP4 SLOAD DIV MUL DUP4 MSTORE SWAP2 PUSH1 0x20 ADD SWAP2 PUSH2 0x4CB JUMP JUMPDEST DUP3 ADD SWAP2 SWAP1 PUSH1 0x0 MSTORE PUSH1 0x20 PUSH1 0x0 KECCAK256 SWAP1 JUMPDEST DUP2 SLOAD DUP2 MSTORE SWAP1 PUSH1 0x1 ADD SWAP1 PUSH1 0x20 ADD DUP1 DUP4 GT PUSH2 0x4AE JUMPI DUP3 SWAP1 SUB PUSH1 0x1F AND DUP3 ADD SWAP2 JUMPDEST POP POP POP POP POP SWAP1 POP SWAP2 SWAP1 POP JUMP JUMPDEST PUSH1 0x60 PUSH1 0x5 PUSH1 0x0 DUP4 PUSH1 0xFF AND PUSH1 0xFF AND DUP2 MSTORE PUSH1 0x20 ADD SWAP1 DUP2 MSTORE PUSH1 0x20 ADD PUSH1 0x0 KECCAK256 DUP1 SLOAD PUSH2 0x4FD SWAP1 PUSH2 0x1911 JUMP JUMPDEST DUP1 PUSH1 0x1F ADD PUSH1 0x20 DUP1 SWAP2 DIV MUL PUSH1 0x20 ADD PUSH1 0x40 MLOAD SWAP1 DUP2 ADD PUSH1 0x40 MSTORE DUP1 SWAP3 SWAP2 SWAP1 DUP2 DUP2 MSTORE PUSH1 0x20 ADD DUP3 DUP1 SLOAD PUSH2 0x529 SWAP1 PUSH2 0x1911 JUMP JUMPDEST DUP1 ISZERO PUSH2 0x576 JUMPI DUP1 PUSH1 0x1F LT PUSH2 0x54B JUMPI PUSH2 0x100 DUP1 DUP4 SLOAD DIV MUL DUP4 MSTORE SWAP2 PUSH1 0x20 ADD SWAP2 PUSH2 0x576 JUMP JUMPDEST DUP3 ADD SWAP2 SWAP1 PUSH1 0x0 MSTORE PUSH1 0x20 PUSH1 0x0 KECCAK256 SWAP1 JUMPDEST DUP2 SLOAD DUP2 MSTORE SWAP1 PUSH1 0x1 ADD SWAP1 PUSH1 0x20 ADD DUP1 DUP4 GT PUSH2 0x559 JUMPI DUP3 SWAP1 SUB PUSH1 0x1F AND DUP3 ADD SWAP2 JUMPDEST POP POP POP POP POP SWAP1 POP SWAP2 SWAP1 POP JUMP JUMPDEST PUSH1 0x0 DUP1 PUSH1 0x0 SWAP1 SLOAD SWAP1 PUSH2 0x100 EXP SWAP1 DIV PUSH20 0xFFFFFFFFFFFFFFFFFFFFFFFFFFFFFFFFFFFFFFFF AND PUSH20 0xFFFFFFFFFFFFFFFFFFFFFFFFFFFFFFFFFFFFFFFF AND CALLER PUSH20 0xFFFFFFFFFFFFFFFFFFFFFFFFFFFFFFFFFFFFFFFF AND EQ PUSH2 0x5DD JUMPI PUSH1 0x0 DUP1 REVERT JUMPDEST PUSH1 0x0 ISZERO ISZERO PUSH1 0x1 PUSH1 0x0 DUP5 PUSH20 0xFFFFFFFFFFFFFFFFFFFFFFFFFFFFFFFFFFFFFFFF AND PUSH20 0xFFFFFFFFFFFFFFFFFFFFFFFFFFFFFFFFFFFFFFFF AND DUP2 MSTORE PUSH1 0x20 ADD SWAP1 DUP2 MSTORE PUSH1 0x20 ADD PUSH1 0x0 KECCAK256 PUSH1 0x0 SWAP1 SLOAD SWAP1 PUSH2 0x100 EXP SWAP1 DIV PUSH1 0xFF AND ISZERO ISZERO EQ PUSH2 0x63A JUMPI PUSH1 0x0 DUP1 REVERT JUMPDEST PUSH1 0x1 DUP1 PUSH1 0x0 DUP5 PUSH20 0xFFFFFFFFFFFFFFFFFFFFFFFFFFFFFFFFFFFFFFFF AND PUSH20 0xFFFFFFFFFFFFFFFFFFFFFFFFFFFFFFFFFFFFFFFF AND DUP2 MSTORE PUSH1 0x20 ADD SWAP1 DUP2 MSTORE PUSH1 0x20 ADD PUSH1 0x0 KECCAK256 PUSH1 0x0 PUSH2 0x100 EXP DUP2 SLOAD DUP2 PUSH1 0xFF MUL NOT AND SWAP1 DUP4 ISZERO ISZERO MUL OR SWAP1 SSTORE POP DUP2 PUSH20 0xFFFFFFFFFFFFFFFFFFFFFFFFFFFFFFFFFFFFFFFF AND PUSH32 0x27AA0506E4DA65B95BD4F61C697076F8C7DCB69B2C0937D11EFA9CEAA3BF5A95 PUSH1 0x40 MLOAD PUSH1 0x40 MLOAD DUP1 SWAP2 SUB SWAP1 LOG2 PUSH1 0x1 SWAP1 POP SWAP2 SWAP1 POP JUMP JUMPDEST PUSH1 0x0 PUSH1 0x1 ISZERO ISZERO PUSH2 0x6EC CALLER PUSH2 0xCCF JUMP JUMPDEST ISZERO ISZERO EQ PUSH2 0x6F8 JUMPI PUSH1 0x0 DUP1 REVERT JUMPDEST PUSH1 0x0 PUSH1 0x6 PUSH1 0x0 DUP8 PUSH20 0xFFFFFFFFFFFFFFFFFFFFFFFFFFFFFFFFFFFFFFFF AND PUSH20 0xFFFFFFFFFFFFFFFFFFFFFFFFFFFFFFFFFFFFFFFF AND DUP2 MSTORE PUSH1 0x20 ADD SWAP1 DUP2 MSTORE PUSH1 0x20 ADD PUSH1 0x0 KECCAK256 SWAP1 POP PUSH1 0x0 DUP2 PUSH1 0x0 ADD SLOAD EQ PUSH2 0x74C JUMPI PUSH1 0x0 DUP1 REVERT JUMPDEST PUSH1 0x2 SLOAD DUP2 PUSH1 0x0 ADD DUP2 SWAP1 SSTORE POP CALLER DUP2 PUSH1 0x1 ADD PUSH1 0x0 PUSH2 0x100 EXP DUP2 SLOAD DUP2 PUSH20 0xFFFFFFFFFFFFFFFFFFFFFFFFFFFFFFFFFFFFFFFF MUL NOT AND SWAP1 DUP4 PUSH20 0xFFFFFFFFFFFFFFFFFFFFFFFFFFFFFFFFFFFFFFFF AND MUL OR SWAP1 SSTORE POP DUP5 DUP2 PUSH1 0x1 ADD PUSH1 0x14 PUSH2 0x100 EXP DUP2 SLOAD DUP2 PUSH1 0xFF MUL NOT AND SWAP1 DUP4 PUSH1 0xFF AND MUL OR SWAP1 SSTORE POP DUP4 DUP2 PUSH1 0x1 ADD PUSH1 0x15 PUSH2 0x100 EXP DUP2 SLOAD DUP2 PUSH1 0xFF MUL NOT AND SWAP1 DUP4 PUSH1 0xFF AND MUL OR SWAP1 SSTORE POP DUP3 DUP2 PUSH1 0x1 ADD PUSH1 0x16 PUSH2 0x100 EXP DUP2 SLOAD DUP2 PUSH1 0xFF MUL NOT AND SWAP1 DUP4 PUSH1 0xFF AND MUL OR SWAP1 SSTORE POP TIMESTAMP DUP2 PUSH1 0x2 ADD DUP2 SWAP1 SSTORE POP PUSH1 0x1 PUSH1 0x2 PUSH1 0x0 DUP3 DUP3 SLOAD PUSH2 0x80D SWAP2 SWAP1 PUSH2 0x1972 JUMP JUMPDEST SWAP3 POP POP DUP2 SWAP1 SSTORE POP PUSH1 0x1 SWAP2 POP POP SWAP5 SWAP4 POP POP POP POP JUMP JUMPDEST PUSH1 0x0 DUP1 PUSH1 0x0 SWAP1 SLOAD SWAP1 PUSH2 0x100 EXP SWAP1 DIV PUSH20 0xFFFFFFFFFFFFFFFFFFFFFFFFFFFFFFFFFFFFFFFF AND PUSH20 0xFFFFFFFFFFFFFFFFFFFFFFFFFFFFFFFFFFFFFFFF AND CALLER PUSH20 0xFFFFFFFFFFFFFFFFFFFFFFFFFFFFFFFFFFFFFFFF AND EQ PUSH2 0x87C JUMPI PUSH1 0x0 DUP1 REVERT JUMPDEST PUSH1 0x1 ISZERO ISZERO PUSH1 0x1 PUSH1 0x0 DUP5 PUSH20 0xFFFFFFFFFFFFFFFFFFFFFFFFFFFFFFFFFFFFFFFF AND PUSH20 0xFFFFFFFFFFFFFFFFFFFFFFFFFFFFFFFFFFFFFFFF AND DUP2 MSTORE PUSH1 0x20 ADD SWAP1 DUP2 MSTORE PUSH1 0x20 ADD PUSH1 0x0 KECCAK256 PUSH1 0x0 SWAP1 SLOAD SWAP1 PUSH2 0x100 EXP SWAP1 DIV PUSH1 0xFF AND ISZERO ISZERO EQ PUSH2 0x8D9 JUMPI PUSH1 0x0 DUP1 REVERT JUMPDEST PUSH1 0x0 PUSH1 0x1 PUSH1 0x0 DUP5 PUSH20 0xFFFFFFFFFFFFFFFFFFFFFFFFFFFFFFFFFFFFFFFF AND PUSH20 0xFFFFFFFFFFFFFFFFFFFFFFFFFFFFFFFFFFFFFFFF AND DUP2 MSTORE PUSH1 0x20 ADD SWAP1 DUP2 MSTORE PUSH1 0x20 ADD PUSH1 0x0 KECCAK256 PUSH1 0x0 PUSH2 0x100 EXP DUP2 SLOAD DUP2 PUSH1 0xFF MUL NOT AND SWAP1 DUP4 ISZERO ISZERO MUL OR SWAP1 SSTORE POP DUP2 PUSH20 0xFFFFFFFFFFFFFFFFFFFFFFFFFFFFFFFFFFFFFFFF AND PUSH32 0xEE5D7D94405E51EEC1BD7F59C36572787D25AFB6C85E3A897BB782F08AAC7D44 PUSH1 0x40 MLOAD PUSH1 0x40 MLOAD DUP1 SWAP2 SUB SWAP1 LOG2 PUSH1 0x1 SWAP1 POP SWAP2 SWAP1 POP JUMP JUMPDEST PUSH1 0x1 PUSH1 0x20 MSTORE DUP1 PUSH1 0x0 MSTORE PUSH1 0x40 PUSH1 0x0 KECCAK256 PUSH1 0x0 SWAP2 POP SLOAD SWAP1 PUSH2 0x100 EXP SWAP1 DIV PUSH1 0xFF AND DUP2 JUMP JUMPDEST PUSH1 0x60 PUSH1 0x3 PUSH1 0x0 DUP4 PUSH1 0xFF AND PUSH1 0xFF AND DUP2 MSTORE PUSH1 0x20 ADD SWAP1 DUP2 MSTORE PUSH1 0x20 ADD PUSH1 0x0 KECCAK256 DUP1 SLOAD PUSH2 0x9C3 SWAP1 PUSH2 0x1911 JUMP JUMPDEST DUP1 PUSH1 0x1F ADD PUSH1 0x20 DUP1 SWAP2 DIV MUL PUSH1 0x20 ADD PUSH1 0x40 MLOAD SWAP1 DUP2 ADD PUSH1 0x40 MSTORE DUP1 SWAP3 SWAP2 SWAP1 DUP2 DUP2 MSTORE PUSH1 0x20 ADD DUP3 DUP1 SLOAD PUSH2 0x9EF SWAP1 PUSH2 0x1911 JUMP JUMPDEST DUP1 ISZERO PUSH2 0xA3C JUMPI DUP1 PUSH1 0x1F LT PUSH2 0xA11 JUMPI PUSH2 0x100 DUP1 DUP4 SLOAD DIV MUL DUP4 MSTORE SWAP2 PUSH1 0x20 ADD SWAP2 PUSH2 0xA3C JUMP JUMPDEST DUP3 ADD SWAP2 SWAP1 PUSH1 0x0 MSTORE PUSH1 0x20 PUSH1 0x0 KECCAK256 SWAP1 JUMPDEST DUP2 SLOAD DUP2 MSTORE SWAP1 PUSH1 0x1 ADD SWAP1 PUSH1 0x20 ADD DUP1 DUP4 GT PUSH2 0xA1F JUMPI DUP3 SWAP1 SUB PUSH1 0x1F AND DUP3 ADD SWAP2 JUMPDEST POP POP POP POP POP SWAP1 POP SWAP2 SWAP1 POP JUMP JUMPDEST PUSH1 0x0 PUSH1 0x1 ISZERO ISZERO PUSH2 0xA57 CALLER PUSH2 0xCCF JUMP JUMPDEST ISZERO ISZERO EQ PUSH2 0xA63 JUMPI PUSH1 0x0 DUP1 REVERT JUMPDEST PUSH1 0x0 PUSH1 0x6 PUSH1 0x0 DUP6 PUSH20 0xFFFFFFFFFFFFFFFFFFFFFFFFFFFFFFFFFFFFFFFF AND PUSH20 0xFFFFFFFFFFFFFFFFFFFFFFFFFFFFFFFFFFFFFFFF AND DUP2 MSTORE PUSH1 0x20 ADD SWAP1 DUP2 MSTORE PUSH1 0x20 ADD PUSH1 0x0 KECCAK256 PUSH1 0x0 ADD SLOAD EQ ISZERO PUSH2 0xAB3 JUMPI PUSH1 0x0 DUP1 REVERT JUMPDEST PUSH1 0x0 PUSH1 0x5 PUSH1 0x0 DUP5 PUSH1 0xFF AND PUSH1 0xFF AND DUP2 MSTORE PUSH1 0x20 ADD SWAP1 DUP2 MSTORE PUSH1 0x20 ADD PUSH1 0x0 KECCAK256 DUP1 SLOAD PUSH2 0xAD9 SWAP1 PUSH2 0x1911 JUMP JUMPDEST SWAP1 POP EQ ISZERO PUSH2 0xAE6 JUMPI PUSH1 0x0 DUP1 REVERT JUMPDEST DUP2 PUSH1 0x6 PUSH1 0x0 DUP6 PUSH20 0xFFFFFFFFFFFFFFFFFFFFFFFFFFFFFFFFFFFFFFFF AND PUSH20 0xFFFFFFFFFFFFFFFFFFFFFFFFFFFFFFFFFFFFFFFF AND DUP2 MSTORE PUSH1 0x20 ADD SWAP1 DUP2 MSTORE PUSH1 0x20 ADD PUSH1 0x0 KECCAK256 PUSH1 0x1 ADD PUSH1 0x16 PUSH2 0x100 EXP DUP2 SLOAD DUP2 PUSH1 0xFF MUL NOT AND SWAP1 DUP4 PUSH1 0xFF AND MUL OR SWAP1 SSTORE POP PUSH1 0x1 SWAP1 POP SWAP3 SWAP2 POP POP JUMP JUMPDEST PUSH1 0x0 PUSH1 0x1 ISZERO ISZERO PUSH2 0xB5A CALLER PUSH2 0xCCF JUMP JUMPDEST ISZERO ISZERO EQ PUSH2 0xB66 JUMPI PUSH1 0x0 DUP1 REVERT JUMPDEST PUSH1 0x0 PUSH1 0x3 PUSH1 0x0 DUP7 PUSH1 0xFF AND PUSH1 0xFF AND DUP2 MSTORE PUSH1 0x20 ADD SWAP1 DUP2 MSTORE PUSH1 0x20 ADD PUSH1 0x0 KECCAK256 DUP1 SLOAD PUSH2 0xB8C SWAP1 PUSH2 0x1911 JUMP JUMPDEST SWAP1 POP EQ PUSH2 0xB98 JUMPI PUSH1 0x0 DUP1 REVERT JUMPDEST DUP3 DUP3 PUSH1 0x3 PUSH1 0x0 DUP8 PUSH1 0xFF AND PUSH1 0xFF AND DUP2 MSTORE PUSH1 0x20 ADD SWAP1 DUP2 MSTORE PUSH1 0x20 ADD PUSH1 0x0 KECCAK256 SWAP2 SWAP1 PUSH2 0xBC0 SWAP3 SWAP2 SWAP1 PUSH2 0x1372 JUMP JUMPDEST POP PUSH1 0x1 SWAP1 POP SWAP4 SWAP3 POP POP POP JUMP JUMPDEST PUSH1 0x0 PUSH1 0x1 ISZERO ISZERO PUSH2 0xBDB CALLER PUSH2 0xCCF JUMP JUMPDEST ISZERO ISZERO EQ PUSH2 0xBE7 JUMPI PUSH1 0x0 DUP1 REVERT JUMPDEST PUSH1 0x0 PUSH1 0x6 PUSH1 0x0 DUP6 PUSH20 0xFFFFFFFFFFFFFFFFFFFFFFFFFFFFFFFFFFFFFFFF AND PUSH20 0xFFFFFFFFFFFFFFFFFFFFFFFFFFFFFFFFFFFFFFFF AND DUP2 MSTORE PUSH1 0x20 ADD SWAP1 DUP2 MSTORE PUSH1 0x20 ADD PUSH1 0x0 KECCAK256 PUSH1 0x0 ADD SLOAD EQ ISZERO PUSH2 0xC37 JUMPI PUSH1 0x0 DUP1 REVERT JUMPDEST PUSH1 0x0 PUSH1 0x3 PUSH1 0x0 DUP5 PUSH1 0xFF AND PUSH1 0xFF AND DUP2 MSTORE PUSH1 0x20 ADD SWAP1 DUP2 MSTORE PUSH1 0x20 ADD PUSH1 0x0 KECCAK256 DUP1 SLOAD PUSH2 0xC5D SWAP1 PUSH2 0x1911 JUMP JUMPDEST SWAP1 POP EQ ISZERO PUSH2 0xC6A JUMPI PUSH1 0x0 DUP1 REVERT JUMPDEST DUP2 PUSH1 0x6 PUSH1 0x0 DUP6 PUSH20 0xFFFFFFFFFFFFFFFFFFFFFFFFFFFFFFFFFFFFFFFF AND PUSH20 0xFFFFFFFFFFFFFFFFFFFFFFFFFFFFFFFFFFFFFFFF AND DUP2 MSTORE PUSH1 0x20 ADD SWAP1 DUP2 MSTORE PUSH1 0x20 ADD PUSH1 0x0 KECCAK256 PUSH1 0x1 ADD PUSH1 0x14 PUSH2 0x100 EXP DUP2 SLOAD DUP2 PUSH1 0xFF MUL NOT AND SWAP1 DUP4 PUSH1 0xFF AND MUL OR SWAP1 SSTORE POP PUSH1 0x1 SWAP1 POP SWAP3 SWAP2 POP POP JUMP JUMPDEST PUSH1 0x0 PUSH1 0x1 PUSH1 0x0 DUP4 PUSH20 0xFFFFFFFFFFFFFFFFFFFFFFFFFFFFFFFFFFFFFFFF AND PUSH20 0xFFFFFFFFFFFFFFFFFFFFFFFFFFFFFFFFFFFFFFFF AND DUP2 MSTORE PUSH1 0x20 ADD SWAP1 DUP2 MSTORE PUSH1 0x20 ADD PUSH1 0x0 KECCAK256 PUSH1 0x0 SWAP1 SLOAD SWAP1 PUSH2 0x100 EXP SWAP1 DIV PUSH1 0xFF AND SWAP1 POP SWAP2 SWAP1 POP JUMP JUMPDEST PUSH1 0x0 PUSH1 0x1 ISZERO ISZERO PUSH2 0xD34 CALLER PUSH2 0xCCF JUMP JUMPDEST ISZERO ISZERO EQ PUSH2 0xD40 JUMPI PUSH1 0x0 DUP1 REVERT JUMPDEST PUSH1 0x0 PUSH1 0x5 PUSH1 0x0 DUP7 PUSH1 0xFF AND PUSH1 0xFF AND DUP2 MSTORE PUSH1 0x20 ADD SWAP1 DUP2 MSTORE PUSH1 0x20 ADD PUSH1 0x0 KECCAK256 DUP1 SLOAD PUSH2 0xD66 SWAP1 PUSH2 0x1911 JUMP JUMPDEST SWAP1 POP EQ PUSH2 0xD72 JUMPI PUSH1 0x0 DUP1 REVERT JUMPDEST DUP3 DUP3 PUSH1 0x5 PUSH1 0x0 DUP8 PUSH1 0xFF AND PUSH1 0xFF AND DUP2 MSTORE PUSH1 0x20 ADD SWAP1 DUP2 MSTORE PUSH1 0x20 ADD PUSH1 0x0 KECCAK256 SWAP2 SWAP1 PUSH2 0xD9A SWAP3 SWAP2 SWAP1 PUSH2 0x1372 JUMP JUMPDEST POP PUSH1 0x1 SWAP1 POP SWAP4 SWAP3 POP POP POP JUMP JUMPDEST PUSH1 0x0 PUSH1 0x1 ISZERO ISZERO PUSH2 0xDB5 CALLER PUSH2 0xCCF JUMP JUMPDEST ISZERO ISZERO EQ PUSH2 0xDC1 JUMPI PUSH1 0x0 DUP1 REVERT JUMPDEST PUSH1 0x0 PUSH1 0x4 PUSH1 0x0 DUP7 PUSH1 0xFF AND PUSH1 0xFF AND DUP2 MSTORE PUSH1 0x20 ADD SWAP1 DUP2 MSTORE PUSH1 0x20 ADD PUSH1 0x0 KECCAK256 DUP1 SLOAD PUSH2 0xDE7 SWAP1 PUSH2 0x1911 JUMP JUMPDEST SWAP1 POP EQ PUSH2 0xDF3 JUMPI PUSH1 0x0 DUP1 REVERT JUMPDEST DUP3 DUP3 PUSH1 0x4 PUSH1 0x0 DUP8 PUSH1 0xFF AND PUSH1 0xFF AND DUP2 MSTORE PUSH1 0x20 ADD SWAP1 DUP2 MSTORE PUSH1 0x20 ADD PUSH1 0x0 KECCAK256 SWAP2 SWAP1 PUSH2 0xE1B SWAP3 SWAP2 SWAP1 PUSH2 0x1372 JUMP JUMPDEST POP PUSH1 0x1 SWAP1 POP SWAP4 SWAP3 POP POP POP JUMP JUMPDEST PUSH2 0xE2F PUSH2 0x13F8 JUMP JUMPDEST PUSH1 0x6 PUSH1 0x0 DUP4 PUSH20 0xFFFFFFFFFFFFFFFFFFFFFFFFFFFFFFFFFFFFFFFF AND PUSH20 0xFFFFFFFFFFFFFFFFFFFFFFFFFFFFFFFFFFFFFFFF AND DUP2 MSTORE PUSH1 0x20 ADD SWAP1 DUP2 MSTORE PUSH1 0x20 ADD PUSH1 0x0 KECCAK256 PUSH1 0x40 MLOAD DUP1 PUSH1 0xC0 ADD PUSH1 0x40 MSTORE SWAP1 DUP2 PUSH1 0x0 DUP3 ADD SLOAD DUP2 MSTORE PUSH1 0x20 ADD PUSH1 0x1 DUP3 ADD PUSH1 0x0 SWAP1 SLOAD SWAP1 PUSH2 0x100 EXP SWAP1 DIV PUSH20 0xFFFFFFFFFFFFFFFFFFFFFFFFFFFFFFFFFFFFFFFF AND PUSH20 0xFFFFFFFFFFFFFFFFFFFFFFFFFFFFFFFFFFFFFFFF AND PUSH20 0xFFFFFFFFFFFFFFFFFFFFFFFFFFFFFFFFFFFFFFFF AND DUP2 MSTORE PUSH1 0x20 ADD PUSH1 0x1 DUP3 ADD PUSH1 0x14 SWAP1 SLOAD SWAP1 PUSH2 0x100 EXP SWAP1 DIV PUSH1 0xFF AND PUSH1 0xFF AND PUSH1 0xFF AND DUP2 MSTORE PUSH1 0x20 ADD PUSH1 0x1 DUP3 ADD PUSH1 0x15 SWAP1 SLOAD SWAP1 PUSH2 0x100 EXP SWAP1 DIV PUSH1 0xFF AND PUSH1 0xFF AND PUSH1 0xFF AND DUP2 MSTORE PUSH1 0x20 ADD PUSH1 0x1 DUP3 ADD PUSH1 0x16 SWAP1 SLOAD SWAP1 PUSH2 0x100 EXP SWAP1 DIV PUSH1 0xFF AND PUSH1 0xFF AND PUSH1 0xFF AND DUP2 MSTORE PUSH1 0x20 ADD PUSH1 0x2 DUP3 ADD SLOAD DUP2 MSTORE POP POP SWAP1 POP SWAP2 SWAP1 POP JUMP JUMPDEST PUSH1 0x0 DUP1 PUSH1 0x6 PUSH1 0x0 DUP7 PUSH20 0xFFFFFFFFFFFFFFFFFFFFFFFFFFFFFFFFFFFFFFFF AND PUSH20 0xFFFFFFFFFFFFFFFFFFFFFFFFFFFFFFFFFFFFFFFF AND DUP2 MSTORE PUSH1 0x20 ADD SWAP1 DUP2 MSTORE PUSH1 0x20 ADD PUSH1 0x0 KECCAK256 PUSH1 0x0 ADD SLOAD EQ ISZERO PUSH2 0xF96 JUMPI PUSH1 0x0 SWAP1 POP PUSH2 0x10C0 JUMP JUMPDEST DUP3 PUSH1 0xFF AND PUSH1 0x6 PUSH1 0x0 DUP7 PUSH20 0xFFFFFFFFFFFFFFFFFFFFFFFFFFFFFFFFFFFFFFFF AND PUSH20 0xFFFFFFFFFFFFFFFFFFFFFFFFFFFFFFFFFFFFFFFF AND DUP2 MSTORE PUSH1 0x20 ADD SWAP1 DUP2 MSTORE PUSH1 0x20 ADD PUSH1 0x0 KECCAK256 PUSH1 0x1 ADD PUSH1 0x14 SWAP1 SLOAD SWAP1 PUSH2 0x100 EXP SWAP1 DIV PUSH1 0xFF AND PUSH1 0xFF AND EQ DUP1 ISZERO PUSH2 0x104F JUMPI POP DUP2 PUSH1 0xFF AND PUSH1 0x6 PUSH1 0x0 DUP7 PUSH20 0xFFFFFFFFFFFFFFFFFFFFFFFFFFFFFFFFFFFFFFFF AND PUSH20 0xFFFFFFFFFFFFFFFFFFFFFFFFFFFFFFFFFFFFFFFF AND DUP2 MSTORE PUSH1 0x20 ADD SWAP1 DUP2 MSTORE PUSH1 0x20 ADD PUSH1 0x0 KECCAK256 PUSH1 0x1 ADD PUSH1 0x15 SWAP1 SLOAD SWAP1 PUSH2 0x100 EXP SWAP1 DIV PUSH1 0xFF AND PUSH1 0xFF AND LT ISZERO JUMPDEST DUP1 ISZERO PUSH2 0x10AD JUMPI POP PUSH1 0x2 PUSH1 0x6 PUSH1 0x0 DUP7 PUSH20 0xFFFFFFFFFFFFFFFFFFFFFFFFFFFFFFFFFFFFFFFF AND PUSH20 0xFFFFFFFFFFFFFFFFFFFFFFFFFFFFFFFFFFFFFFFF AND DUP2 MSTORE PUSH1 0x20 ADD SWAP1 DUP2 MSTORE PUSH1 0x20 ADD PUSH1 0x0 KECCAK256 PUSH1 0x1 ADD PUSH1 0x16 SWAP1 SLOAD SWAP1 PUSH2 0x100 EXP SWAP1 DIV PUSH1 0xFF AND PUSH1 0xFF AND EQ JUMPDEST ISZERO PUSH2 0x10BB JUMPI PUSH1 0x1 SWAP1 POP PUSH2 0x10C0 JUMP JUMPDEST PUSH1 0x0 SWAP1 POP JUMPDEST SWAP4 SWAP3 POP POP POP JUMP JUMPDEST PUSH1 0x0 DUP1 SLOAD SWAP1 PUSH2 0x100 EXP SWAP1 DIV PUSH20 0xFFFFFFFFFFFFFFFFFFFFFFFFFFFFFFFFFFFFFFFF AND PUSH20 0xFFFFFFFFFFFFFFFFFFFFFFFFFFFFFFFFFFFFFFFF AND CALLER PUSH20 0xFFFFFFFFFFFFFFFFFFFFFFFFFFFFFFFFFFFFFFFF AND EQ PUSH2 0x111F JUMPI PUSH1 0x0 DUP1 REVERT JUMPDEST PUSH1 0x0 DUP1 SLOAD SWAP1 PUSH2 0x100 EXP SWAP1 DIV PUSH20 0xFFFFFFFFFFFFFFFFFFFFFFFFFFFFFFFFFFFFFFFF AND PUSH20 0xFFFFFFFFFFFFFFFFFFFFFFFFFFFFFFFFFFFFFFFF AND DUP2 PUSH20 0xFFFFFFFFFFFFFFFFFFFFFFFFFFFFFFFFFFFFFFFF AND EQ ISZERO PUSH2 0x1178 JUMPI PUSH1 0x0 DUP1 REVERT JUMPDEST PUSH1 0x0 PUSH20 0xFFFFFFFFFFFFFFFFFFFFFFFFFFFFFFFFFFFFFFFF AND DUP2 PUSH20 0xFFFFFFFFFFFFFFFFFFFFFFFFFFFFFFFFFFFFFFFF AND EQ ISZERO PUSH2 0x11B2 JUMPI PUSH1 0x0 DUP1 REVERT JUMPDEST DUP1 PUSH1 0x0 DUP1 PUSH2 0x100 EXP DUP2 SLOAD DUP2 PUSH20 0xFFFFFFFFFFFFFFFFFFFFFFFFFFFFFFFFFFFFFFFF MUL NOT AND SWAP1 DUP4 PUSH20 0xFFFFFFFFFFFFFFFFFFFFFFFFFFFFFFFFFFFFFFFF AND MUL OR SWAP1 SSTORE POP DUP1 PUSH20 0xFFFFFFFFFFFFFFFFFFFFFFFFFFFFFFFFFFFFFFFF AND PUSH1 0x0 DUP1 SLOAD SWAP1 PUSH2 0x100 EXP SWAP1 DIV PUSH20 0xFFFFFFFFFFFFFFFFFFFFFFFFFFFFFFFFFFFFFFFF AND PUSH20 0xFFFFFFFFFFFFFFFFFFFFFFFFFFFFFFFFFFFFFFFF AND PUSH32 0x2AE143016ADC0AA482E6BA5D9A350F3E3122AEB005CA4BF47D1D7B8221BCE472 PUSH1 0x40 MLOAD PUSH1 0x40 MLOAD DUP1 SWAP2 SUB SWAP1 LOG3 POP JUMP JUMPDEST PUSH1 0x0 PUSH1 0x1 ISZERO ISZERO PUSH2 0x127E CALLER PUSH2 0xCCF JUMP JUMPDEST ISZERO ISZERO EQ PUSH2 0x128A JUMPI PUSH1 0x0 DUP1 REVERT JUMPDEST PUSH1 0x0 PUSH1 0x6 PUSH1 0x0 DUP6 PUSH20 0xFFFFFFFFFFFFFFFFFFFFFFFFFFFFFFFFFFFFFFFF AND PUSH20 0xFFFFFFFFFFFFFFFFFFFFFFFFFFFFFFFFFFFFFFFF AND DUP2 MSTORE PUSH1 0x20 ADD SWAP1 DUP2 MSTORE PUSH1 0x20 ADD PUSH1 0x0 KECCAK256 PUSH1 0x0 ADD SLOAD EQ ISZERO PUSH2 0x12DA JUMPI PUSH1 0x0 DUP1 REVERT JUMPDEST PUSH1 0x0 PUSH1 0x4 PUSH1 0x0 DUP5 PUSH1 0xFF AND PUSH1 0xFF AND DUP2 MSTORE PUSH1 0x20 ADD SWAP1 DUP2 MSTORE PUSH1 0x20 ADD PUSH1 0x0 KECCAK256 DUP1 SLOAD PUSH2 0x1300 SWAP1 PUSH2 0x1911 JUMP JUMPDEST SWAP1 POP EQ ISZERO PUSH2 0x130D JUMPI PUSH1 0x0 DUP1 REVERT JUMPDEST DUP2 PUSH1 0x6 PUSH1 0x0 DUP6 PUSH20 0xFFFFFFFFFFFFFFFFFFFFFFFFFFFFFFFFFFFFFFFF AND PUSH20 0xFFFFFFFFFFFFFFFFFFFFFFFFFFFFFFFFFFFFFFFF AND DUP2 MSTORE PUSH1 0x20 ADD SWAP1 DUP2 MSTORE PUSH1 0x20 ADD PUSH1 0x0 KECCAK256 PUSH1 0x1 ADD PUSH1 0x15 PUSH2 0x100 EXP DUP2 SLOAD DUP2 PUSH1 0xFF MUL NOT AND SWAP1 DUP4 PUSH1 0xFF AND MUL OR SWAP1 SSTORE POP PUSH1 0x1 SWAP1 POP SWAP3 SWAP2 POP POP JUMP JUMPDEST DUP3 DUP1 SLOAD PUSH2 0x137E SWAP1 PUSH2 0x1911 JUMP JUMPDEST SWAP1 PUSH1 0x0 MSTORE PUSH1 0x20 PUSH1 0x0 KECCAK256 SWAP1 PUSH1 0x1F ADD PUSH1 0x20 SWAP1 DIV DUP2 ADD SWAP3 DUP3 PUSH2 0x13A0 JUMPI PUSH1 0x0 DUP6 SSTORE PUSH2 0x13E7 JUMP JUMPDEST DUP3 PUSH1 0x1F LT PUSH2 0x13B9 JUMPI DUP1 CALLDATALOAD PUSH1 0xFF NOT AND DUP4 DUP1 ADD OR DUP6 SSTORE PUSH2 0x13E7 JUMP JUMPDEST DUP3 DUP1 ADD PUSH1 0x1 ADD DUP6 SSTORE DUP3 ISZERO PUSH2 0x13E7 JUMPI SWAP2 DUP3 ADD JUMPDEST DUP3 DUP2 GT ISZERO PUSH2 0x13E6 JUMPI DUP3 CALLDATALOAD DUP3 SSTORE SWAP2 PUSH1 0x20 ADD SWAP2 SWAP1 PUSH1 0x1 ADD SWAP1 PUSH2 0x13CB JUMP JUMPDEST JUMPDEST POP SWAP1 POP PUSH2 0x13F4 SWAP2 SWAP1 PUSH2 0x144D JUMP JUMPDEST POP SWAP1 JUMP JUMPDEST PUSH1 0x40 MLOAD DUP1 PUSH1 0xC0 ADD PUSH1 0x40 MSTORE DUP1 PUSH1 0x0 DUP2 MSTORE PUSH1 0x20 ADD PUSH1 0x0 PUSH20 0xFFFFFFFFFFFFFFFFFFFFFFFFFFFFFFFFFFFFFFFF AND DUP2 MSTORE PUSH1 0x20 ADD PUSH1 0x0 PUSH1 0xFF AND DUP2 MSTORE PUSH1 0x20 ADD PUSH1 0x0 PUSH1 0xFF AND DUP2 MSTORE PUSH1 0x20 ADD PUSH1 0x0 PUSH1 0xFF AND DUP2 MSTORE PUSH1 0x20 ADD PUSH1 0x0 DUP2 MSTORE POP SWAP1 JUMP JUMPDEST JUMPDEST DUP1 DUP3 GT ISZERO PUSH2 0x1466 JUMPI PUSH1 0x0 DUP2 PUSH1 0x0 SWAP1 SSTORE POP PUSH1 0x1 ADD PUSH2 0x144E JUMP JUMPDEST POP SWAP1 JUMP JUMPDEST PUSH1 0x0 DUP1 REVERT JUMPDEST PUSH1 0x0 DUP1 REVERT JUMPDEST PUSH1 0x0 PUSH1 0xFF DUP3 AND SWAP1 POP SWAP2 SWAP1 POP JUMP JUMPDEST PUSH2 0x148A DUP2 PUSH2 0x1474 JUMP JUMPDEST DUP2 EQ PUSH2 0x1495 JUMPI PUSH1 0x0 DUP1 REVERT JUMPDEST POP JUMP JUMPDEST PUSH1 0x0 DUP2 CALLDATALOAD SWAP1 POP PUSH2 0x14A7 DUP2 PUSH2 0x1481 JUMP JUMPDEST SWAP3 SWAP2 POP POP JUMP JUMPDEST PUSH1 0x0 PUSH1 0x20 DUP3 DUP5 SUB SLT ISZERO PUSH2 0x14C3 JUMPI PUSH2 0x14C2 PUSH2 0x146A JUMP JUMPDEST JUMPDEST PUSH1 0x0 PUSH2 0x14D1 DUP5 DUP3 DUP6 ADD PUSH2 0x1498 JUMP JUMPDEST SWAP2 POP POP SWAP3 SWAP2 POP POP JUMP JUMPDEST PUSH1 0x0 DUP2 MLOAD SWAP1 POP SWAP2 SWAP1 POP JUMP JUMPDEST PUSH1 0x0 DUP3 DUP3 MSTORE PUSH1 0x20 DUP3 ADD SWAP1 POP SWAP3 SWAP2 POP POP JUMP JUMPDEST PUSH1 0x0 JUMPDEST DUP4 DUP2 LT ISZERO PUSH2 0x1514 JUMPI DUP1 DUP3 ADD MLOAD DUP2 DUP5 ADD MSTORE PUSH1 0x20 DUP2 ADD SWAP1 POP PUSH2 0x14F9 JUMP JUMPDEST DUP4 DUP2 GT ISZERO PUSH2 0x1523 JUMPI PUSH1 0x0 DUP5 DUP5 ADD MSTORE JUMPDEST POP POP POP POP JUMP JUMPDEST PUSH1 0x0 PUSH1 0x1F NOT PUSH1 0x1F DUP4 ADD AND SWAP1 POP SWAP2 SWAP1 POP JUMP JUMPDEST PUSH1 0x0 PUSH2 0x1545 DUP3 PUSH2 0x14DA JUMP JUMPDEST PUSH2 0x154F DUP2 DUP6 PUSH2 0x14E5 JUMP JUMPDEST SWAP4 POP PUSH2 0x155F DUP2 DUP6 PUSH1 0x20 DUP7 ADD PUSH2 0x14F6 JUMP JUMPDEST PUSH2 0x1568 DUP2 PUSH2 0x1529 JUMP JUMPDEST DUP5 ADD SWAP2 POP POP SWAP3 SWAP2 POP POP JUMP JUMPDEST PUSH1 0x0 PUSH1 0x20 DUP3 ADD SWAP1 POP DUP2 DUP2 SUB PUSH1 0x0 DUP4 ADD MSTORE PUSH2 0x158D DUP2 DUP5 PUSH2 0x153A JUMP JUMPDEST SWAP1 POP SWAP3 SWAP2 POP POP JUMP JUMPDEST PUSH1 0x0 PUSH20 0xFFFFFFFFFFFFFFFFFFFFFFFFFFFFFFFFFFFFFFFF DUP3 AND SWAP1 POP SWAP2 SWAP1 POP JUMP JUMPDEST PUSH1 0x0 PUSH2 0x15C0 DUP3 PUSH2 0x1595 JUMP JUMPDEST SWAP1 POP SWAP2 SWAP1 POP JUMP JUMPDEST PUSH2 0x15D0 DUP2 PUSH2 0x15B5 JUMP JUMPDEST DUP2 EQ PUSH2 0x15DB JUMPI PUSH1 0x0 DUP1 REVERT JUMPDEST POP JUMP JUMPDEST PUSH1 0x0 DUP2 CALLDATALOAD SWAP1 POP PUSH2 0x15ED DUP2 PUSH2 0x15C7 JUMP JUMPDEST SWAP3 SWAP2 POP POP JUMP JUMPDEST PUSH1 0x0 PUSH1 0x20 DUP3 DUP5 SUB SLT ISZERO PUSH2 0x1609 JUMPI PUSH2 0x1608 PUSH2 0x146A JUMP JUMPDEST JUMPDEST PUSH1 0x0 PUSH2 0x1617 DUP5 DUP3 DUP6 ADD PUSH2 0x15DE JUMP JUMPDEST SWAP2 POP POP SWAP3 SWAP2 POP POP JUMP JUMPDEST PUSH1 0x0 DUP2 ISZERO ISZERO SWAP1 POP SWAP2 SWAP1 POP JUMP JUMPDEST PUSH2 0x1635 DUP2 PUSH2 0x1620 JUMP JUMPDEST DUP3 MSTORE POP POP JUMP JUMPDEST PUSH1 0x0 PUSH1 0x20 DUP3 ADD SWAP1 POP PUSH2 0x1650 PUSH1 0x0 DUP4 ADD DUP5 PUSH2 0x162C JUMP JUMPDEST SWAP3 SWAP2 POP POP JUMP JUMPDEST PUSH1 0x0 DUP1 PUSH1 0x0 DUP1 PUSH1 0x80 DUP6 DUP8 SUB SLT ISZERO PUSH2 0x1670 JUMPI PUSH2 0x166F PUSH2 0x146A JUMP JUMPDEST JUMPDEST PUSH1 0x0 PUSH2 0x167E DUP8 DUP3 DUP9 ADD PUSH2 0x15DE JUMP JUMPDEST SWAP5 POP POP PUSH1 0x20 PUSH2 0x168F DUP8 DUP3 DUP9 ADD PUSH2 0x1498 JUMP JUMPDEST SWAP4 POP POP PUSH1 0x40 PUSH2 0x16A0 DUP8 DUP3 DUP9 ADD PUSH2 0x1498 JUMP JUMPDEST SWAP3 POP POP PUSH1 0x60 PUSH2 0x16B1 DUP8 DUP3 DUP9 ADD PUSH2 0x1498 JUMP JUMPDEST SWAP2 POP POP SWAP3 SWAP6 SWAP2 SWAP5 POP SWAP3 POP JUMP JUMPDEST PUSH1 0x0 DUP1 PUSH1 0x40 DUP4 DUP6 SUB SLT ISZERO PUSH2 0x16D4 JUMPI PUSH2 0x16D3 PUSH2 0x146A JUMP JUMPDEST JUMPDEST PUSH1 0x0 PUSH2 0x16E2 DUP6 DUP3 DUP7 ADD PUSH2 0x15DE JUMP JUMPDEST SWAP3 POP POP PUSH1 0x20 PUSH2 0x16F3 DUP6 DUP3 DUP7 ADD PUSH2 0x1498 JUMP JUMPDEST SWAP2 POP POP SWAP3 POP SWAP3 SWAP1 POP JUMP JUMPDEST PUSH1 0x0 DUP1 REVERT JUMPDEST PUSH1 0x0 DUP1 REVERT JUMPDEST PUSH1 0x0 DUP1 REVERT JUMPDEST PUSH1 0x0 DUP1 DUP4 PUSH1 0x1F DUP5 ADD SLT PUSH2 0x1722 JUMPI PUSH2 0x1721 PUSH2 0x16FD JUMP JUMPDEST JUMPDEST DUP3 CALLDATALOAD SWAP1 POP PUSH8 0xFFFFFFFFFFFFFFFF DUP2 GT ISZERO PUSH2 0x173F JUMPI PUSH2 0x173E PUSH2 0x1702 JUMP JUMPDEST JUMPDEST PUSH1 0x20 DUP4 ADD SWAP2 POP DUP4 PUSH1 0x1 DUP3 MUL DUP4 ADD GT ISZERO PUSH2 0x175B JUMPI PUSH2 0x175A PUSH2 0x1707 JUMP JUMPDEST JUMPDEST SWAP3 POP SWAP3 SWAP1 POP JUMP JUMPDEST PUSH1 0x0 DUP1 PUSH1 0x0 PUSH1 0x40 DUP5 DUP7 SUB SLT ISZERO PUSH2 0x177B JUMPI PUSH2 0x177A PUSH2 0x146A JUMP JUMPDEST JUMPDEST PUSH1 0x0 PUSH2 0x1789 DUP7 DUP3 DUP8 ADD PUSH2 0x1498 JUMP JUMPDEST SWAP4 POP POP PUSH1 0x20 DUP5 ADD CALLDATALOAD PUSH8 0xFFFFFFFFFFFFFFFF DUP2 GT ISZERO PUSH2 0x17AA JUMPI PUSH2 0x17A9 PUSH2 0x146F JUMP JUMPDEST JUMPDEST PUSH2 0x17B6 DUP7 DUP3 DUP8 ADD PUSH2 0x170C JUMP JUMPDEST SWAP3 POP SWAP3 POP POP SWAP3 POP SWAP3 POP SWAP3 JUMP JUMPDEST PUSH1 0x0 DUP2 SWAP1 POP SWAP2 SWAP1 POP JUMP JUMPDEST PUSH2 0x17D5 DUP2 PUSH2 0x17C2 JUMP JUMPDEST DUP3 MSTORE POP POP JUMP JUMPDEST PUSH2 0x17E4 DUP2 PUSH2 0x15B5 JUMP JUMPDEST DUP3 MSTORE POP POP JUMP JUMPDEST PUSH2 0x17F3 DUP2 PUSH2 0x1474 JUMP JUMPDEST DUP3 MSTORE POP POP JUMP JUMPDEST PUSH1 0xC0 DUP3 ADD PUSH1 0x0 DUP3 ADD MLOAD PUSH2 0x180F PUSH1 0x0 DUP6 ADD DUP3 PUSH2 0x17CC JUMP JUMPDEST POP PUSH1 0x20 DUP3 ADD MLOAD PUSH2 0x1822 PUSH1 0x20 DUP6 ADD DUP3 PUSH2 0x17DB JUMP JUMPDEST POP PUSH1 0x40 DUP3 ADD MLOAD PUSH2 0x1835 PUSH1 0x40 DUP6 ADD DUP3 PUSH2 0x17EA JUMP JUMPDEST POP PUSH1 0x60 DUP3 ADD MLOAD PUSH2 0x1848 PUSH1 0x60 DUP6 ADD DUP3 PUSH2 0x17EA JUMP JUMPDEST POP PUSH1 0x80 DUP3 ADD MLOAD PUSH2 0x185B PUSH1 0x80 DUP6 ADD DUP3 PUSH2 0x17EA JUMP JUMPDEST POP PUSH1 0xA0 DUP3 ADD MLOAD PUSH2 0x186E PUSH1 0xA0 DUP6 ADD DUP3 PUSH2 0x17CC JUMP JUMPDEST POP POP POP POP JUMP JUMPDEST PUSH1 0x0 PUSH1 0xC0 DUP3 ADD SWAP1 POP PUSH2 0x1889 PUSH1 0x0 DUP4 ADD DUP5 PUSH2 0x17F9 JUMP JUMPDEST SWAP3 SWAP2 POP POP JUMP JUMPDEST PUSH1 0x0 DUP1 PUSH1 0x0 PUSH1 0x60 DUP5 DUP7 SUB SLT ISZERO PUSH2 0x18A8 JUMPI PUSH2 0x18A7 PUSH2 0x146A JUMP JUMPDEST JUMPDEST PUSH1 0x0 PUSH2 0x18B6 DUP7 DUP3 DUP8 ADD PUSH2 0x15DE JUMP JUMPDEST SWAP4 POP POP PUSH1 0x20 PUSH2 0x18C7 DUP7 DUP3 DUP8 ADD PUSH2 0x1498 JUMP JUMPDEST SWAP3 POP POP PUSH1 0x40 PUSH2 0x18D8 DUP7 DUP3 DUP8 ADD PUSH2 0x1498 JUMP JUMPDEST SWAP2 POP POP SWAP3 POP SWAP3 POP SWAP3 JUMP JUMPDEST PUSH32 0x4E487B7100000000000000000000000000000000000000000000000000000000 PUSH1 0x0 MSTORE PUSH1 0x22 PUSH1 0x4 MSTORE PUSH1 0x24 PUSH1 0x0 REVERT JUMPDEST PUSH1 0x0 PUSH1 0x2 DUP3 DIV SWAP1 POP PUSH1 0x1 DUP3 AND DUP1 PUSH2 0x1929 JUMPI PUSH1 0x7F DUP3 AND SWAP2 POP JUMPDEST PUSH1 0x20 DUP3 LT DUP2 EQ ISZERO PUSH2 0x193D JUMPI PUSH2 0x193C PUSH2 0x18E2 JUMP JUMPDEST JUMPDEST POP SWAP2 SWAP1 POP JUMP JUMPDEST PUSH32 0x4E487B7100000000000000000000000000000000000000000000000000000000 PUSH1 0x0 MSTORE PUSH1 0x11 PUSH1 0x4 MSTORE PUSH1 0x24 PUSH1 0x0 REVERT JUMPDEST PUSH1 0x0 PUSH2 0x197D DUP3 PUSH2 0x17C2 JUMP JUMPDEST SWAP2 POP PUSH2 0x1988 DUP4 PUSH2 0x17C2 JUMP JUMPDEST SWAP3 POP DUP3 PUSH32 0xFFFFFFFFFFFFFFFFFFFFFFFFFFFFFFFFFFFFFFFFFFFFFFFFFFFFFFFFFFFFFFFF SUB DUP3 GT ISZERO PUSH2 0x19BD JUMPI PUSH2 0x19BC PUSH2 0x1943 JUMP JUMPDEST JUMPDEST DUP3 DUP3 ADD SWAP1 POP SWAP3 SWAP2 POP POP JUMP INVALID LOG2 PUSH5 0x6970667358 0x22 SLT KECCAK256 0xD MLOAD SWAP6 0x1E COINBASE NUMBER MOD DUP9 SWAP5 0xDE 0x2F 0xF PUSH3 0x360807 0xA7 0xBE 0xBB CALLDATASIZE 0x27 CALLVALUE 0xEA DUP12 BYTE 0x1F SGT SWAP5 XOR 0xC1 0xBB DIV PUSH5 0x736F6C6343 STOP ADDMOD EXP STOP CALLER "
				},
				"gasEstimates": {
					"creation": {
						"codeDepositCost": "1330800",
						"executionCost": "infinite",
						"totalCost": "infinite"
					},
					"external": {
						"addIssuer(address)": "30674",
						"addNoteType(uint8,string)": "infinite",
						"addStatusType(uint8,string)": "infinite",
						"addVaccineType(uint8,string)": "infinite",
						"changeNote(address,uint8)": "32215",
						"changeStatus(address,uint8)": "32236",
						"changeVaccine(address,uint8)": "32171",
						"claimCredential(address,uint8,uint8,uint8)": "infinite",
						"delIssuer(address)": "30629",
						"getCredential(address)": "infinite",
						"getNoteType(uint8)": "infinite",
						"getStatusType(uint8)": "infinite",
						"getVaccineType(uint8)": "infinite",
						"isIssuer(address)": "2950",
						"issuers(address)": "2890",
						"passOrNot(address,uint8,uint8)": "infinite",
						"transferOwnership(address)": "32864"
					}
				},
				"methodIdentifiers": {
					"addIssuer(address)": "20694db0",
					"addNoteType(uint8,string)": "8e8261c3",
					"addStatusType(uint8,string)": "a30e2e54",
					"addVaccineType(uint8,string)": "59a7aef3",
					"changeNote(address,uint8)": "4feadf41",
					"changeStatus(address,uint8)": "ff63e7a8",
					"changeVaccine(address,uint8)": "7ebb1298",
					"claimCredential(address,uint8,uint8,uint8)": "26827199",
					"delIssuer(address)": "34becfb4",
					"getCredential(address)": "ccdad14b",
					"getNoteType(uint8)": "0f42e6ac",
					"getStatusType(uint8)": "05183a29",
					"getVaccineType(uint8)": "3f8a37dc",
					"isIssuer(address)": "877b9a67",
					"issuers(address)": "38a7543e",
					"passOrNot(address,uint8,uint8)": "d9c45826",
					"transferOwnership(address)": "f2fde38b"
				}
			},
			"userdoc": {
				"kind": "user",
				"methods": {},
				"version": 1
			}
		}
	}
}