{
	"system.sol": {
		"CredentialBox": {
			"abi": [
				{
					"inputs": [],
					"stateMutability": "nonpayable",
					"type": "constructor"
				},
				{
					"anonymous": false,
					"inputs": [
						{
							"indexed": true,
							"internalType": "address",
							"name": "_issuer",
							"type": "address"
						}
					],
					"name": "AddIssuer",
					"type": "event"
				},
				{
					"anonymous": false,
					"inputs": [
						{
							"indexed": true,
							"internalType": "address",
							"name": "_issuer",
							"type": "address"
						}
					],
					"name": "DelIssuer",
					"type": "event"
				},
				{
					"anonymous": false,
					"inputs": [
						{
							"indexed": true,
							"internalType": "address",
							"name": "_from",
							"type": "address"
						},
						{
							"indexed": true,
							"internalType": "address",
							"name": "_to",
							"type": "address"
						}
					],
					"name": "OwnerTransferPropose",
					"type": "event"
				},
				{
					"inputs": [
						{
							"internalType": "uint8",
							"name": "_type",
							"type": "uint8"
						},
						{
							"internalType": "string",
							"name": "_value",
							"type": "string"
						}
					],
					"name": "addAlumniType",
					"outputs": [
						{
							"internalType": "bool",
							"name": "",
							"type": "bool"
						}
					],
					"stateMutability": "nonpayable",
					"type": "function"
				},
				{
					"inputs": [
						{
							"internalType": "address",
							"name": "_addr",
							"type": "address"
						}
					],
					"name": "addIssuer",
					"outputs": [
						{
							"internalType": "bool",
							"name": "",
							"type": "bool"
						}
					],
					"stateMutability": "nonpayable",
					"type": "function"
				},
				{
					"inputs": [
						{
							"internalType": "uint8",
							"name": "_type",
							"type": "uint8"
						},
						{
							"internalType": "string",
							"name": "_value",
							"type": "string"
						}
					],
					"name": "addStatusType",
					"outputs": [
						{
							"internalType": "bool",
							"name": "",
							"type": "bool"
						}
					],
					"stateMutability": "nonpayable",
					"type": "function"
				},
				{
					"inputs": [
						{
							"internalType": "address",
							"name": "_alumni",
							"type": "address"
						},
						{
							"internalType": "uint8",
							"name": "_type",
							"type": "uint8"
						}
					],
					"name": "changeStatus",
					"outputs": [
						{
							"internalType": "bool",
							"name": "",
							"type": "bool"
						}
					],
					"stateMutability": "nonpayable",
					"type": "function"
				},
				{
					"inputs": [
						{
							"internalType": "address",
							"name": "_alumniAddress",
							"type": "address"
						},
						{
							"internalType": "uint8",
							"name": "_alumniType",
							"type": "uint8"
						},
						{
							"internalType": "string",
							"name": "_value",
							"type": "string"
						}
					],
					"name": "claimCredential",
					"outputs": [
						{
							"internalType": "bool",
							"name": "",
							"type": "bool"
						}
					],
					"stateMutability": "nonpayable",
					"type": "function"
				},
				{
					"inputs": [
						{
							"internalType": "address",
							"name": "_addr",
							"type": "address"
						}
					],
					"name": "delIssuer",
					"outputs": [
						{
							"internalType": "bool",
							"name": "",
							"type": "bool"
						}
					],
					"stateMutability": "nonpayable",
					"type": "function"
				},
				{
					"inputs": [
						{
							"internalType": "uint8",
							"name": "_type",
							"type": "uint8"
						}
					],
					"name": "getAlumniType",
					"outputs": [
						{
							"internalType": "string",
							"name": "",
							"type": "string"
						}
					],
					"stateMutability": "view",
					"type": "function"
				},
				{
					"inputs": [
						{
							"internalType": "address",
							"name": "_alumniAddress",
							"type": "address"
						}
					],
					"name": "getCredential",
					"outputs": [
						{
							"components": [
								{
									"internalType": "uint256",
									"name": "id",
									"type": "uint256"
								},
								{
									"internalType": "address",
									"name": "issuer",
									"type": "address"
								},
								{
									"internalType": "uint8",
									"name": "alumniType",
									"type": "uint8"
								},
								{
									"internalType": "uint8",
									"name": "statusType",
									"type": "uint8"
								},
								{
									"internalType": "string",
									"name": "value",
									"type": "string"
								},
								{
									"internalType": "uint256",
									"name": "createDate",
									"type": "uint256"
								}
							],
							"internalType": "struct CredentialBox.Credential",
							"name": "",
							"type": "tuple"
						}
					],
					"stateMutability": "view",
					"type": "function"
				},
				{
					"inputs": [
						{
							"internalType": "uint8",
							"name": "_type",
							"type": "uint8"
						}
					],
					"name": "getStatusType",
					"outputs": [
						{
							"internalType": "string",
							"name": "",
							"type": "string"
						}
					],
					"stateMutability": "view",
					"type": "function"
				},
				{
					"inputs": [
						{
							"internalType": "address",
							"name": "_addr",
							"type": "address"
						}
					],
					"name": "isIssuer",
					"outputs": [
						{
							"internalType": "bool",
							"name": "",
							"type": "bool"
						}
					],
					"stateMutability": "view",
					"type": "function"
				},
				{
					"inputs": [
						{
							"internalType": "address",
							"name": "",
							"type": "address"
						}
					],
					"name": "issuers",
					"outputs": [
						{
							"internalType": "bool",
							"name": "",
							"type": "bool"
						}
					],
					"stateMutability": "view",
					"type": "function"
				},
				{
					"inputs": [
						{
							"internalType": "address",
							"name": "_to",
							"type": "address"
						}
					],
					"name": "transferOwnership",
					"outputs": [],
					"stateMutability": "nonpayable",
					"type": "function"
				}
			],
			"devdoc": {
				"kind": "dev",
				"methods": {},
				"version": 1
			},
			"evm": {
				"assembly": "    /* \"system.sol\":1367:3521  contract CredentialBox is IssuerHelper {... */\n  mstore(0x40, 0x80)\n    /* \"system.sol\":1773:1908  constructor() {... */\n  callvalue\n  dup1\n  iszero\n  tag_1\n  jumpi\n  0x00\n  dup1\n  revert\ntag_1:\n  pop\n    /* \"system.sol\":293:303  msg.sender */\n  caller\n    /* \"system.sol\":285:290  owner */\n  0x00\n  dup1\n    /* \"system.sol\":285:303  owner = msg.sender */\n  0x0100\n  exp\n  dup2\n  sload\n  dup2\n  0xffffffffffffffffffffffffffffffffffffffff\n  mul\n  not\n  and\n  swap1\n  dup4\n  0xffffffffffffffffffffffffffffffffffffffff\n  and\n  mul\n  or\n  swap1\n  sstore\n  pop\n    /* \"system.sol\":840:844  true */\n  0x01\n    /* \"system.sol\":818:825  issuers */\n  dup1\n    /* \"system.sol\":818:837  issuers[msg.sender] */\n  0x00\n    /* \"system.sol\":826:836  msg.sender */\n  caller\n    /* \"system.sol\":818:837  issuers[msg.sender] */\n  0xffffffffffffffffffffffffffffffffffffffff\n  and\n  0xffffffffffffffffffffffffffffffffffffffff\n  and\n  dup2\n  mstore\n  0x20\n  add\n  swap1\n  dup2\n  mstore\n  0x20\n  add\n  0x00\n  keccak256\n  0x00\n    /* \"system.sol\":818:844  issuers[msg.sender] = true */\n  0x0100\n  exp\n  dup2\n  sload\n  dup2\n  0xff\n  mul\n  not\n  and\n  swap1\n  dup4\n  iszero\n  iszero\n  mul\n  or\n  swap1\n  sstore\n  pop\n    /* \"system.sol\":1807:1808  1 */\n  0x01\n    /* \"system.sol\":1797:1804  idCount */\n  0x02\n    /* \"system.sol\":1797:1808  idCount = 1 */\n  dup2\n  swap1\n  sstore\n  pop\n    /* \"system.sol\":1818:1839  alumniEnum[0] = \"SEB\" */\n  mload(0x40)\n  dup1\n  0x40\n  add\n  0x40\n  mstore\n  dup1\n  0x03\n  dup2\n  mstore\n  0x20\n  add\n  0x5345420000000000000000000000000000000000000000000000000000000000\n  dup2\n  mstore\n  pop\n    /* \"system.sol\":1818:1828  alumniEnum */\n  0x03\n    /* \"system.sol\":1818:1831  alumniEnum[0] */\n  0x00\n    /* \"system.sol\":1829:1830  0 */\n  dup1\n    /* \"system.sol\":1818:1831  alumniEnum[0] */\n  0xff\n  and\n  dup2\n  mstore\n  0x20\n  add\n  swap1\n  dup2\n  mstore\n  0x20\n  add\n  0x00\n  keccak256\n    /* \"system.sol\":1818:1839  alumniEnum[0] = \"SEB\" */\n  swap1\n  dup1\n  mload\n  swap1\n  0x20\n  add\n  swap1\n  tag_8\n  swap3\n  swap2\n  swap1\n  tag_9\n  jump\t// in\ntag_8:\n  pop\n    /* \"system.sol\":1849:1870  alumniEnum[1] = \"BEB\" */\n  mload(0x40)\n  dup1\n  0x40\n  add\n  0x40\n  mstore\n  dup1\n  0x03\n  dup2\n  mstore\n  0x20\n  add\n  0x4245420000000000000000000000000000000000000000000000000000000000\n  dup2\n  mstore\n  pop\n    /* \"system.sol\":1849:1859  alumniEnum */\n  0x03\n    /* \"system.sol\":1849:1862  alumniEnum[1] */\n  0x00\n    /* \"system.sol\":1860:1861  1 */\n  0x01\n    /* \"system.sol\":1849:1862  alumniEnum[1] */\n  0xff\n  and\n  dup2\n  mstore\n  0x20\n  add\n  swap1\n  dup2\n  mstore\n  0x20\n  add\n  0x00\n  keccak256\n    /* \"system.sol\":1849:1870  alumniEnum[1] = \"BEB\" */\n  swap1\n  dup1\n  mload\n  swap1\n  0x20\n  add\n  swap1\n  tag_10\n  swap3\n  swap2\n  swap1\n  tag_9\n  jump\t// in\ntag_10:\n  pop\n    /* \"system.sol\":1880:1901  alumniEnum[2] = \"AIB\" */\n  mload(0x40)\n  dup1\n  0x40\n  add\n  0x40\n  mstore\n  dup1\n  0x03\n  dup2\n  mstore\n  0x20\n  add\n  0x4149420000000000000000000000000000000000000000000000000000000000\n  dup2\n  mstore\n  pop\n    /* \"system.sol\":1880:1890  alumniEnum */\n  0x03\n    /* \"system.sol\":1880:1893  alumniEnum[2] */\n  0x00\n    /* \"system.sol\":1891:1892  2 */\n  0x02\n    /* \"system.sol\":1880:1893  alumniEnum[2] */\n  0xff\n  and\n  dup2\n  mstore\n  0x20\n  add\n  swap1\n  dup2\n  mstore\n  0x20\n  add\n  0x00\n  keccak256\n    /* \"system.sol\":1880:1901  alumniEnum[2] = \"AIB\" */\n  swap1\n  dup1\n  mload\n  swap1\n  0x20\n  add\n  swap1\n  tag_11\n  swap3\n  swap2\n  swap1\n  tag_9\n  jump\t// in\ntag_11:\n  pop\n    /* \"system.sol\":1367:3521  contract CredentialBox is IssuerHelper {... */\n  jump(tag_12)\ntag_9:\n  dup3\n  dup1\n  sload\n  tag_13\n  swap1\n  tag_14\n  jump\t// in\ntag_13:\n  swap1\n  0x00\n  mstore\n  keccak256(0x00, 0x20)\n  swap1\n  0x1f\n  add\n  0x20\n  swap1\n  div\n  dup2\n  add\n  swap3\n  dup3\n  tag_16\n  jumpi\n  0x00\n  dup6\n  sstore\n  jump(tag_15)\ntag_16:\n  dup3\n  0x1f\n  lt\n  tag_17\n  jumpi\n  dup1\n  mload\n  not(0xff)\n  and\n  dup4\n  dup1\n  add\n  or\n  dup6\n  sstore\n  jump(tag_15)\ntag_17:\n  dup3\n  dup1\n  add\n  0x01\n  add\n  dup6\n  sstore\n  dup3\n  iszero\n  tag_15\n  jumpi\n  swap2\n  dup3\n  add\ntag_18:\n  dup3\n  dup2\n  gt\n  iszero\n  tag_19\n  jumpi\n  dup3\n  mload\n  dup3\n  sstore\n  swap2\n  0x20\n  add\n  swap2\n  swap1\n  0x01\n  add\n  swap1\n  jump(tag_18)\ntag_19:\ntag_15:\n  pop\n  swap1\n  pop\n  tag_20\n  swap2\n  swap1\n  tag_21\n  jump\t// in\ntag_20:\n  pop\n  swap1\n  jump\t// out\ntag_21:\ntag_22:\n  dup1\n  dup3\n  gt\n  iszero\n  tag_23\n  jumpi\n  0x00\n  dup2\n  0x00\n  swap1\n  sstore\n  pop\n  0x01\n  add\n  jump(tag_22)\ntag_23:\n  pop\n  swap1\n  jump\t// out\n    /* \"#utility.yul\":7:187   */\ntag_24:\n    /* \"#utility.yul\":55:132   */\n  0x4e487b7100000000000000000000000000000000000000000000000000000000\n    /* \"#utility.yul\":52:53   */\n  0x00\n    /* \"#utility.yul\":45:133   */\n  mstore\n    /* \"#utility.yul\":152:156   */\n  0x22\n    /* \"#utility.yul\":149:150   */\n  0x04\n    /* \"#utility.yul\":142:157   */\n  mstore\n    /* \"#utility.yul\":176:180   */\n  0x24\n    /* \"#utility.yul\":173:174   */\n  0x00\n    /* \"#utility.yul\":166:181   */\n  revert\n    /* \"#utility.yul\":193:513   */\ntag_14:\n    /* \"#utility.yul\":237:243   */\n  0x00\n    /* \"#utility.yul\":274:275   */\n  0x02\n    /* \"#utility.yul\":268:272   */\n  dup3\n    /* \"#utility.yul\":264:276   */\n  div\n    /* \"#utility.yul\":254:276   */\n  swap1\n  pop\n    /* \"#utility.yul\":321:322   */\n  0x01\n    /* \"#utility.yul\":315:319   */\n  dup3\n    /* \"#utility.yul\":311:323   */\n  and\n    /* \"#utility.yul\":342:360   */\n  dup1\n    /* \"#utility.yul\":332:413   */\n  tag_28\n  jumpi\n    /* \"#utility.yul\":398:402   */\n  0x7f\n    /* \"#utility.yul\":390:396   */\n  dup3\n    /* \"#utility.yul\":386:403   */\n  and\n    /* \"#utility.yul\":376:403   */\n  swap2\n  pop\n    /* \"#utility.yul\":332:413   */\ntag_28:\n    /* \"#utility.yul\":460:462   */\n  0x20\n    /* \"#utility.yul\":452:458   */\n  dup3\n    /* \"#utility.yul\":449:463   */\n  lt\n    /* \"#utility.yul\":429:447   */\n  dup2\n    /* \"#utility.yul\":426:464   */\n  eq\n    /* \"#utility.yul\":423:507   */\n  iszero\n  tag_29\n  jumpi\n    /* \"#utility.yul\":479:497   */\n  tag_30\n  tag_24\n  jump\t// in\ntag_30:\n    /* \"#utility.yul\":423:507   */\ntag_29:\n    /* \"#utility.yul\":244:513   */\n  pop\n    /* \"#utility.yul\":193:513   */\n  swap2\n  swap1\n  pop\n  jump\t// out\n    /* \"system.sol\":1367:3521  contract CredentialBox is IssuerHelper {... */\ntag_12:\n  dataSize(sub_0)\n  dup1\n  dataOffset(sub_0)\n  0x00\n  codecopy\n  0x00\n  return\nstop\n\nsub_0: assembly {\n        /* \"system.sol\":1367:3521  contract CredentialBox is IssuerHelper {... */\n      mstore(0x40, 0x80)\n      callvalue\n      dup1\n      iszero\n      tag_1\n      jumpi\n      0x00\n      dup1\n      revert\n    tag_1:\n      pop\n      jumpi(tag_2, lt(calldatasize, 0x04))\n      shr(0xe0, calldataload(0x00))\n      dup1\n      0xa30e2e54\n      gt\n      tag_15\n      jumpi\n      dup1\n      0xa30e2e54\n      eq\n      tag_9\n      jumpi\n      dup1\n      0xb4c18e32\n      eq\n      tag_10\n      jumpi\n      dup1\n      0xccdad14b\n      eq\n      tag_11\n      jumpi\n      dup1\n      0xf2fde38b\n      eq\n      tag_12\n      jumpi\n      dup1\n      0xfe4fa40d\n      eq\n      tag_13\n      jumpi\n      dup1\n      0xff63e7a8\n      eq\n      tag_14\n      jumpi\n      jump(tag_2)\n    tag_15:\n      dup1\n      0x05183a29\n      eq\n      tag_3\n      jumpi\n      dup1\n      0x20694db0\n      eq\n      tag_4\n      jumpi\n      dup1\n      0x34becfb4\n      eq\n      tag_5\n      jumpi\n      dup1\n      0x38a7543e\n      eq\n      tag_6\n      jumpi\n      dup1\n      0x617ae364\n      eq\n      tag_7\n      jumpi\n      dup1\n      0x877b9a67\n      eq\n      tag_8\n      jumpi\n    tag_2:\n      0x00\n      dup1\n      revert\n        /* \"system.sol\":3135:3248  function getStatusType(uint8 _type) public view returns (string memory) {... */\n    tag_3:\n      tag_16\n      0x04\n      dup1\n      calldatasize\n      sub\n      dup2\n      add\n      swap1\n      tag_17\n      swap2\n      swap1\n      tag_18\n      jump\t// in\n    tag_17:\n      tag_19\n      jump\t// in\n    tag_16:\n      mload(0x40)\n      tag_20\n      swap2\n      swap1\n      tag_21\n      jump\t// in\n    tag_20:\n      mload(0x40)\n      dup1\n      swap2\n      sub\n      swap1\n      return\n        /* \"system.sol\":961:1159  function addIssuer(address _addr) onlyOwner public returns (bool) {... */\n    tag_4:\n      tag_22\n      0x04\n      dup1\n      calldatasize\n      sub\n      dup2\n      add\n      swap1\n      tag_23\n      swap2\n      swap1\n      tag_24\n      jump\t// in\n    tag_23:\n      tag_25\n      jump\t// in\n    tag_22:\n      mload(0x40)\n      tag_26\n      swap2\n      swap1\n      tag_27\n      jump\t// in\n    tag_26:\n      mload(0x40)\n      dup1\n      swap2\n      sub\n      swap1\n      return\n        /* \"system.sol\":1165:1363  function delIssuer(address _addr) onlyOwner public returns (bool) {... */\n    tag_5:\n      tag_28\n      0x04\n      dup1\n      calldatasize\n      sub\n      dup2\n      add\n      swap1\n      tag_29\n      swap2\n      swap1\n      tag_24\n      jump\t// in\n    tag_29:\n      tag_30\n      jump\t// in\n    tag_28:\n      mload(0x40)\n      tag_31\n      swap2\n      swap1\n      tag_27\n      jump\t// in\n    tag_31:\n      mload(0x40)\n      dup1\n      swap2\n      sub\n      swap1\n      return\n        /* \"system.sol\":564:603  mapping(address => bool) public issuers */\n    tag_6:\n      tag_32\n      0x04\n      dup1\n      calldatasize\n      sub\n      dup2\n      add\n      swap1\n      tag_33\n      swap2\n      swap1\n      tag_24\n      jump\t// in\n    tag_33:\n      tag_34\n      jump\t// in\n    tag_32:\n      mload(0x40)\n      tag_35\n      swap2\n      swap1\n      tag_27\n      jump\t// in\n    tag_35:\n      mload(0x40)\n      dup1\n      swap2\n      sub\n      swap1\n      return\n        /* \"system.sol\":1914:2432  function claimCredential(address _alumniAddress, uint8 _alumniType, string calldata _value) onlyIssuer public returns(bool){... */\n    tag_7:\n      tag_36\n      0x04\n      dup1\n      calldatasize\n      sub\n      dup2\n      add\n      swap1\n      tag_37\n      swap2\n      swap1\n      tag_38\n      jump\t// in\n    tag_37:\n      tag_39\n      jump\t// in\n    tag_36:\n      mload(0x40)\n      tag_40\n      swap2\n      swap1\n      tag_27\n      jump\t// in\n    tag_40:\n      mload(0x40)\n      dup1\n      swap2\n      sub\n      swap1\n      return\n        /* \"system.sol\":857:955  function isIssuer(address _addr) public view returns (bool) {... */\n    tag_8:\n      tag_41\n      0x04\n      dup1\n      calldatasize\n      sub\n      dup2\n      add\n      swap1\n      tag_42\n      swap2\n      swap1\n      tag_24\n      jump\t// in\n    tag_42:\n      tag_43\n      jump\t// in\n    tag_41:\n      mload(0x40)\n      tag_44\n      swap2\n      swap1\n      tag_27\n      jump\t// in\n    tag_44:\n      mload(0x40)\n      dup1\n      swap2\n      sub\n      swap1\n      return\n        /* \"system.sol\":2918:3129  function addStatusType(uint8 _type, string calldata _value) onlyIssuer public returns (bool){... */\n    tag_9:\n      tag_45\n      0x04\n      dup1\n      calldatasize\n      sub\n      dup2\n      add\n      swap1\n      tag_46\n      swap2\n      swap1\n      tag_47\n      jump\t// in\n    tag_46:\n      tag_48\n      jump\t// in\n    tag_45:\n      mload(0x40)\n      tag_49\n      swap2\n      swap1\n      tag_27\n      jump\t// in\n    tag_49:\n      mload(0x40)\n      dup1\n      swap2\n      sub\n      swap1\n      return\n        /* \"system.sol\":2581:2793  function addAlumniType(uint8 _type, string calldata _value) onlyIssuer public returns (bool) {... */\n    tag_10:\n      tag_50\n      0x04\n      dup1\n      calldatasize\n      sub\n      dup2\n      add\n      swap1\n      tag_51\n      swap2\n      swap1\n      tag_47\n      jump\t// in\n    tag_51:\n      tag_52\n      jump\t// in\n    tag_50:\n      mload(0x40)\n      tag_53\n      swap2\n      swap1\n      tag_27\n      jump\t// in\n    tag_53:\n      mload(0x40)\n      dup1\n      swap2\n      sub\n      swap1\n      return\n        /* \"system.sol\":2438:2575  function getCredential(address _alumniAddress) public view returns (Credential memory){... */\n    tag_11:\n      tag_54\n      0x04\n      dup1\n      calldatasize\n      sub\n      dup2\n      add\n      swap1\n      tag_55\n      swap2\n      swap1\n      tag_24\n      jump\t// in\n    tag_55:\n      tag_56\n      jump\t// in\n    tag_54:\n      mload(0x40)\n      tag_57\n      swap2\n      swap1\n      tag_58\n      jump\t// in\n    tag_57:\n      mload(0x40)\n      dup1\n      swap2\n      sub\n      swap1\n      return\n        /* \"system.sol\":314:508  function transferOwnership(address _to) onlyOwner public {... */\n    tag_12:\n      tag_59\n      0x04\n      dup1\n      calldatasize\n      sub\n      dup2\n      add\n      swap1\n      tag_60\n      swap2\n      swap1\n      tag_24\n      jump\t// in\n    tag_60:\n      tag_61\n      jump\t// in\n    tag_59:\n      stop\n        /* \"system.sol\":2799:2912  function getAlumniType(uint8 _type) public view returns (string memory) {... */\n    tag_13:\n      tag_62\n      0x04\n      dup1\n      calldatasize\n      sub\n      dup2\n      add\n      swap1\n      tag_63\n      swap2\n      swap1\n      tag_18\n      jump\t// in\n    tag_63:\n      tag_64\n      jump\t// in\n    tag_62:\n      mload(0x40)\n      tag_65\n      swap2\n      swap1\n      tag_21\n      jump\t// in\n    tag_65:\n      mload(0x40)\n      dup1\n      swap2\n      sub\n      swap1\n      return\n        /* \"system.sol\":3254:3518  function changeStatus(address _alumni, uint8 _type) onlyIssuer public returns (bool) {... */\n    tag_14:\n      tag_66\n      0x04\n      dup1\n      calldatasize\n      sub\n      dup2\n      add\n      swap1\n      tag_67\n      swap2\n      swap1\n      tag_68\n      jump\t// in\n    tag_67:\n      tag_69\n      jump\t// in\n    tag_66:\n      mload(0x40)\n      tag_70\n      swap2\n      swap1\n      tag_27\n      jump\t// in\n    tag_70:\n      mload(0x40)\n      dup1\n      swap2\n      sub\n      swap1\n      return\n        /* \"system.sol\":3135:3248  function getStatusType(uint8 _type) public view returns (string memory) {... */\n    tag_19:\n        /* \"system.sol\":3192:3205  string memory */\n      0x60\n        /* \"system.sol\":3224:3234  statusEnum */\n      0x04\n        /* \"system.sol\":3224:3241  statusEnum[_type] */\n      0x00\n        /* \"system.sol\":3235:3240  _type */\n      dup4\n        /* \"system.sol\":3224:3241  statusEnum[_type] */\n      0xff\n      and\n      0xff\n      and\n      dup2\n      mstore\n      0x20\n      add\n      swap1\n      dup2\n      mstore\n      0x20\n      add\n      0x00\n      keccak256\n        /* \"system.sol\":3217:3241  return statusEnum[_type] */\n      dup1\n      sload\n      tag_72\n      swap1\n      tag_73\n      jump\t// in\n    tag_72:\n      dup1\n      0x1f\n      add\n      0x20\n      dup1\n      swap2\n      div\n      mul\n      0x20\n      add\n      mload(0x40)\n      swap1\n      dup2\n      add\n      0x40\n      mstore\n      dup1\n      swap3\n      swap2\n      swap1\n      dup2\n      dup2\n      mstore\n      0x20\n      add\n      dup3\n      dup1\n      sload\n      tag_74\n      swap1\n      tag_73\n      jump\t// in\n    tag_74:\n      dup1\n      iszero\n      tag_75\n      jumpi\n      dup1\n      0x1f\n      lt\n      tag_76\n      jumpi\n      0x0100\n      dup1\n      dup4\n      sload\n      div\n      mul\n      dup4\n      mstore\n      swap2\n      0x20\n      add\n      swap2\n      jump(tag_75)\n    tag_76:\n      dup3\n      add\n      swap2\n      swap1\n      0x00\n      mstore\n      keccak256(0x00, 0x20)\n      swap1\n    tag_77:\n      dup2\n      sload\n      dup2\n      mstore\n      swap1\n      0x01\n      add\n      swap1\n      0x20\n      add\n      dup1\n      dup4\n      gt\n      tag_77\n      jumpi\n      dup3\n      swap1\n      sub\n      0x1f\n      and\n      dup3\n      add\n      swap2\n    tag_75:\n      pop\n      pop\n      pop\n      pop\n      pop\n      swap1\n      pop\n        /* \"system.sol\":3135:3248  function getStatusType(uint8 _type) public view returns (string memory) {... */\n      swap2\n      swap1\n      pop\n      jump\t// out\n        /* \"system.sol\":961:1159  function addIssuer(address _addr) onlyOwner public returns (bool) {... */\n    tag_25:\n        /* \"system.sol\":1021:1025  bool */\n      0x00\n        /* \"system.sol\":245:250  owner */\n      dup1\n      0x00\n      swap1\n      sload\n      swap1\n      0x0100\n      exp\n      swap1\n      div\n      0xffffffffffffffffffffffffffffffffffffffff\n      and\n        /* \"system.sol\":231:250  msg.sender == owner */\n      0xffffffffffffffffffffffffffffffffffffffff\n      and\n        /* \"system.sol\":231:241  msg.sender */\n      caller\n        /* \"system.sol\":231:250  msg.sender == owner */\n      0xffffffffffffffffffffffffffffffffffffffff\n      and\n      eq\n        /* \"system.sol\":223:251  require(msg.sender == owner) */\n      tag_79\n      jumpi\n      0x00\n      dup1\n      revert\n    tag_79:\n        /* \"system.sol\":1063:1068  false */\n      0x00\n        /* \"system.sol\":1045:1068  issuers[_addr] == false */\n      iszero\n      iszero\n        /* \"system.sol\":1045:1052  issuers */\n      0x01\n        /* \"system.sol\":1045:1059  issuers[_addr] */\n      0x00\n        /* \"system.sol\":1053:1058  _addr */\n      dup5\n        /* \"system.sol\":1045:1059  issuers[_addr] */\n      0xffffffffffffffffffffffffffffffffffffffff\n      and\n      0xffffffffffffffffffffffffffffffffffffffff\n      and\n      dup2\n      mstore\n      0x20\n      add\n      swap1\n      dup2\n      mstore\n      0x20\n      add\n      0x00\n      keccak256\n      0x00\n      swap1\n      sload\n      swap1\n      0x0100\n      exp\n      swap1\n      div\n      0xff\n      and\n        /* \"system.sol\":1045:1068  issuers[_addr] == false */\n      iszero\n      iszero\n      eq\n        /* \"system.sol\":1037:1069  require(issuers[_addr] == false) */\n      tag_81\n      jumpi\n      0x00\n      dup1\n      revert\n    tag_81:\n        /* \"system.sol\":1096:1100  true */\n      0x01\n        /* \"system.sol\":1079:1086  issuers */\n      dup1\n        /* \"system.sol\":1079:1093  issuers[_addr] */\n      0x00\n        /* \"system.sol\":1087:1092  _addr */\n      dup5\n        /* \"system.sol\":1079:1093  issuers[_addr] */\n      0xffffffffffffffffffffffffffffffffffffffff\n      and\n      0xffffffffffffffffffffffffffffffffffffffff\n      and\n      dup2\n      mstore\n      0x20\n      add\n      swap1\n      dup2\n      mstore\n      0x20\n      add\n      0x00\n      keccak256\n      0x00\n        /* \"system.sol\":1079:1100  issuers[_addr] = true */\n      0x0100\n      exp\n      dup2\n      sload\n      dup2\n      0xff\n      mul\n      not\n      and\n      swap1\n      dup4\n      iszero\n      iszero\n      mul\n      or\n      swap1\n      sstore\n      pop\n        /* \"system.sol\":1125:1130  _addr */\n      dup2\n        /* \"system.sol\":1115:1131  AddIssuer(_addr) */\n      0xffffffffffffffffffffffffffffffffffffffff\n      and\n      0x27aa0506e4da65b95bd4f61c697076f8c7dcb69b2c0937d11efa9ceaa3bf5a95\n      mload(0x40)\n      mload(0x40)\n      dup1\n      swap2\n      sub\n      swap1\n      log2\n        /* \"system.sol\":1148:1152  true */\n      0x01\n        /* \"system.sol\":1141:1152  return true */\n      swap1\n      pop\n        /* \"system.sol\":961:1159  function addIssuer(address _addr) onlyOwner public returns (bool) {... */\n      swap2\n      swap1\n      pop\n      jump\t// out\n        /* \"system.sol\":1165:1363  function delIssuer(address _addr) onlyOwner public returns (bool) {... */\n    tag_30:\n        /* \"system.sol\":1225:1229  bool */\n      0x00\n        /* \"system.sol\":245:250  owner */\n      dup1\n      0x00\n      swap1\n      sload\n      swap1\n      0x0100\n      exp\n      swap1\n      div\n      0xffffffffffffffffffffffffffffffffffffffff\n      and\n        /* \"system.sol\":231:250  msg.sender == owner */\n      0xffffffffffffffffffffffffffffffffffffffff\n      and\n        /* \"system.sol\":231:241  msg.sender */\n      caller\n        /* \"system.sol\":231:250  msg.sender == owner */\n      0xffffffffffffffffffffffffffffffffffffffff\n      and\n      eq\n        /* \"system.sol\":223:251  require(msg.sender == owner) */\n      tag_83\n      jumpi\n      0x00\n      dup1\n      revert\n    tag_83:\n        /* \"system.sol\":1267:1271  true */\n      0x01\n        /* \"system.sol\":1249:1271  issuers[_addr] == true */\n      iszero\n      iszero\n        /* \"system.sol\":1249:1256  issuers */\n      0x01\n        /* \"system.sol\":1249:1263  issuers[_addr] */\n      0x00\n        /* \"system.sol\":1257:1262  _addr */\n      dup5\n        /* \"system.sol\":1249:1263  issuers[_addr] */\n      0xffffffffffffffffffffffffffffffffffffffff\n      and\n      0xffffffffffffffffffffffffffffffffffffffff\n      and\n      dup2\n      mstore\n      0x20\n      add\n      swap1\n      dup2\n      mstore\n      0x20\n      add\n      0x00\n      keccak256\n      0x00\n      swap1\n      sload\n      swap1\n      0x0100\n      exp\n      swap1\n      div\n      0xff\n      and\n        /* \"system.sol\":1249:1271  issuers[_addr] == true */\n      iszero\n      iszero\n      eq\n        /* \"system.sol\":1241:1272  require(issuers[_addr] == true) */\n      tag_85\n      jumpi\n      0x00\n      dup1\n      revert\n    tag_85:\n        /* \"system.sol\":1299:1304  false */\n      0x00\n        /* \"system.sol\":1282:1289  issuers */\n      0x01\n        /* \"system.sol\":1282:1296  issuers[_addr] */\n      0x00\n        /* \"system.sol\":1290:1295  _addr */\n      dup5\n        /* \"system.sol\":1282:1296  issuers[_addr] */\n      0xffffffffffffffffffffffffffffffffffffffff\n      and\n      0xffffffffffffffffffffffffffffffffffffffff\n      and\n      dup2\n      mstore\n      0x20\n      add\n      swap1\n      dup2\n      mstore\n      0x20\n      add\n      0x00\n      keccak256\n      0x00\n        /* \"system.sol\":1282:1304  issuers[_addr] = false */\n      0x0100\n      exp\n      dup2\n      sload\n      dup2\n      0xff\n      mul\n      not\n      and\n      swap1\n      dup4\n      iszero\n      iszero\n      mul\n      or\n      swap1\n      sstore\n      pop\n        /* \"system.sol\":1329:1334  _addr */\n      dup2\n        /* \"system.sol\":1319:1335  DelIssuer(_addr) */\n      0xffffffffffffffffffffffffffffffffffffffff\n      and\n      0xee5d7d94405e51eec1bd7f59c36572787d25afb6c85e3a897bb782f08aac7d44\n      mload(0x40)\n      mload(0x40)\n      dup1\n      swap2\n      sub\n      swap1\n      log2\n        /* \"system.sol\":1352:1356  true */\n      0x01\n        /* \"system.sol\":1345:1356  return true */\n      swap1\n      pop\n        /* \"system.sol\":1165:1363  function delIssuer(address _addr) onlyOwner public returns (bool) {... */\n      swap2\n      swap1\n      pop\n      jump\t// out\n        /* \"system.sol\":564:603  mapping(address => bool) public issuers */\n    tag_34:\n      mstore(0x20, 0x01)\n      dup1\n      0x00\n      mstore\n      keccak256(0x00, 0x40)\n      0x00\n      swap2\n      pop\n      sload\n      swap1\n      0x0100\n      exp\n      swap1\n      div\n      0xff\n      and\n      dup2\n      jump\t// out\n        /* \"system.sol\":1914:2432  function claimCredential(address _alumniAddress, uint8 _alumniType, string calldata _value) onlyIssuer public returns(bool){... */\n    tag_39:\n        /* \"system.sol\":2032:2036  bool */\n      0x00\n        /* \"system.sol\":765:769  true */\n      0x01\n        /* \"system.sol\":741:769  isIssuer(msg.sender) == true */\n      iszero\n      iszero\n        /* \"system.sol\":741:761  isIssuer(msg.sender) */\n      tag_87\n        /* \"system.sol\":750:760  msg.sender */\n      caller\n        /* \"system.sol\":741:749  isIssuer */\n      tag_43\n        /* \"system.sol\":741:761  isIssuer(msg.sender) */\n      jump\t// in\n    tag_87:\n        /* \"system.sol\":741:769  isIssuer(msg.sender) == true */\n      iszero\n      iszero\n      eq\n        /* \"system.sol\":733:770  require(isIssuer(msg.sender) == true) */\n      tag_88\n      jumpi\n      0x00\n      dup1\n      revert\n    tag_88:\n        /* \"system.sol\":2047:2076  Credential storage credential */\n      0x00\n        /* \"system.sol\":2079:2090  credentials */\n      0x05\n        /* \"system.sol\":2079:2106  credentials[_alumniAddress] */\n      0x00\n        /* \"system.sol\":2091:2105  _alumniAddress */\n      dup8\n        /* \"system.sol\":2079:2106  credentials[_alumniAddress] */\n      0xffffffffffffffffffffffffffffffffffffffff\n      and\n      0xffffffffffffffffffffffffffffffffffffffff\n      and\n      dup2\n      mstore\n      0x20\n      add\n      swap1\n      dup2\n      mstore\n      0x20\n      add\n      0x00\n      keccak256\n        /* \"system.sol\":2047:2106  Credential storage credential = credentials[_alumniAddress] */\n      swap1\n      pop\n        /* \"system.sol\":2141:2142  0 */\n      0x00\n        /* \"system.sol\":2124:2134  credential */\n      dup2\n        /* \"system.sol\":2124:2137  credential.id */\n      0x00\n      add\n      sload\n        /* \"system.sol\":2124:2142  credential.id == 0 */\n      eq\n        /* \"system.sol\":2116:2143  require(credential.id == 0) */\n      tag_90\n      jumpi\n      0x00\n      dup1\n      revert\n    tag_90:\n        /* \"system.sol\":2169:2176  idCount */\n      sload(0x02)\n        /* \"system.sol\":2153:2163  credential */\n      dup2\n        /* \"system.sol\":2153:2166  credential.id */\n      0x00\n      add\n        /* \"system.sol\":2153:2176  credential.id = idCount */\n      dup2\n      swap1\n      sstore\n      pop\n        /* \"system.sol\":2206:2216  msg.sender */\n      caller\n        /* \"system.sol\":2186:2196  credential */\n      dup2\n        /* \"system.sol\":2186:2203  credential.issuer */\n      0x01\n      add\n      0x00\n        /* \"system.sol\":2186:2216  credential.issuer = msg.sender */\n      0x0100\n      exp\n      dup2\n      sload\n      dup2\n      0xffffffffffffffffffffffffffffffffffffffff\n      mul\n      not\n      and\n      swap1\n      dup4\n      0xffffffffffffffffffffffffffffffffffffffff\n      and\n      mul\n      or\n      swap1\n      sstore\n      pop\n        /* \"system.sol\":2250:2261  _alumniType */\n      dup5\n        /* \"system.sol\":2226:2236  credential */\n      dup2\n        /* \"system.sol\":2226:2247  credential.alumniType */\n      0x01\n      add\n      0x14\n        /* \"system.sol\":2226:2261  credential.alumniType = _alumniType */\n      0x0100\n      exp\n      dup2\n      sload\n      dup2\n      0xff\n      mul\n      not\n      and\n      swap1\n      dup4\n      0xff\n      and\n      mul\n      or\n      swap1\n      sstore\n      pop\n        /* \"system.sol\":2295:2296  0 */\n      0x00\n        /* \"system.sol\":2271:2281  credential */\n      dup2\n        /* \"system.sol\":2271:2292  credential.statusType */\n      0x01\n      add\n      0x15\n        /* \"system.sol\":2271:2296  credential.statusType = 0 */\n      0x0100\n      exp\n      dup2\n      sload\n      dup2\n      0xff\n      mul\n      not\n      and\n      swap1\n      dup4\n      0xff\n      and\n      mul\n      or\n      swap1\n      sstore\n      pop\n        /* \"system.sol\":2325:2331  _value */\n      dup4\n      dup4\n        /* \"system.sol\":2306:2316  credential */\n      dup3\n        /* \"system.sol\":2306:2322  credential.value */\n      0x02\n      add\n        /* \"system.sol\":2306:2331  credential.value = _value */\n      swap2\n      swap1\n      tag_91\n      swap3\n      swap2\n      swap1\n      tag_92\n      jump\t// in\n    tag_91:\n      pop\n        /* \"system.sol\":2365:2380  block.timestamp */\n      timestamp\n        /* \"system.sol\":2341:2351  credential */\n      dup2\n        /* \"system.sol\":2341:2362  credential.createDate */\n      0x03\n      add\n        /* \"system.sol\":2341:2380  credential.createDate = block.timestamp */\n      dup2\n      swap1\n      sstore\n      pop\n        /* \"system.sol\":2402:2403  1 */\n      0x01\n        /* \"system.sol\":2391:2398  idCount */\n      0x02\n      0x00\n        /* \"system.sol\":2391:2403  idCount += 1 */\n      dup3\n      dup3\n      sload\n      tag_93\n      swap2\n      swap1\n      tag_94\n      jump\t// in\n    tag_93:\n      swap3\n      pop\n      pop\n      dup2\n      swap1\n      sstore\n      pop\n        /* \"system.sol\":2421:2425  true */\n      0x01\n        /* \"system.sol\":2414:2425  return true */\n      swap2\n      pop\n      pop\n        /* \"system.sol\":1914:2432  function claimCredential(address _alumniAddress, uint8 _alumniType, string calldata _value) onlyIssuer public returns(bool){... */\n      swap5\n      swap4\n      pop\n      pop\n      pop\n      pop\n      jump\t// out\n        /* \"system.sol\":857:955  function isIssuer(address _addr) public view returns (bool) {... */\n    tag_43:\n        /* \"system.sol\":911:915  bool */\n      0x00\n        /* \"system.sol\":934:941  issuers */\n      0x01\n        /* \"system.sol\":934:948  issuers[_addr] */\n      0x00\n        /* \"system.sol\":942:947  _addr */\n      dup4\n        /* \"system.sol\":934:948  issuers[_addr] */\n      0xffffffffffffffffffffffffffffffffffffffff\n      and\n      0xffffffffffffffffffffffffffffffffffffffff\n      and\n      dup2\n      mstore\n      0x20\n      add\n      swap1\n      dup2\n      mstore\n      0x20\n      add\n      0x00\n      keccak256\n      0x00\n      swap1\n      sload\n      swap1\n      0x0100\n      exp\n      swap1\n      div\n      0xff\n      and\n        /* \"system.sol\":927:948  return issuers[_addr] */\n      swap1\n      pop\n        /* \"system.sol\":857:955  function isIssuer(address _addr) public view returns (bool) {... */\n      swap2\n      swap1\n      pop\n      jump\t// out\n        /* \"system.sol\":2918:3129  function addStatusType(uint8 _type, string calldata _value) onlyIssuer public returns (bool){... */\n    tag_48:\n        /* \"system.sol\":3005:3009  bool */\n      0x00\n        /* \"system.sol\":765:769  true */\n      0x01\n        /* \"system.sol\":741:769  isIssuer(msg.sender) == true */\n      iszero\n      iszero\n        /* \"system.sol\":741:761  isIssuer(msg.sender) */\n      tag_97\n        /* \"system.sol\":750:760  msg.sender */\n      caller\n        /* \"system.sol\":741:749  isIssuer */\n      tag_43\n        /* \"system.sol\":741:761  isIssuer(msg.sender) */\n      jump\t// in\n    tag_97:\n        /* \"system.sol\":741:769  isIssuer(msg.sender) == true */\n      iszero\n      iszero\n      eq\n        /* \"system.sol\":733:770  require(isIssuer(msg.sender) == true) */\n      tag_98\n      jumpi\n      0x00\n      dup1\n      revert\n    tag_98:\n        /* \"system.sol\":3063:3064  0 */\n      0x00\n        /* \"system.sol\":3034:3044  statusEnum */\n      0x04\n        /* \"system.sol\":3034:3051  statusEnum[_type] */\n      0x00\n        /* \"system.sol\":3045:3050  _type */\n      dup7\n        /* \"system.sol\":3034:3051  statusEnum[_type] */\n      0xff\n      and\n      0xff\n      and\n      dup2\n      mstore\n      0x20\n      add\n      swap1\n      dup2\n      mstore\n      0x20\n      add\n      0x00\n      keccak256\n        /* \"system.sol\":3028:3059  bytes(statusEnum[_type]).length */\n      dup1\n      sload\n      tag_100\n      swap1\n      tag_73\n      jump\t// in\n    tag_100:\n      swap1\n      pop\n        /* \"system.sol\":3028:3064  bytes(statusEnum[_type]).length == 0 */\n      eq\n        /* \"system.sol\":3020:3065  require(bytes(statusEnum[_type]).length == 0) */\n      tag_101\n      jumpi\n      0x00\n      dup1\n      revert\n    tag_101:\n        /* \"system.sol\":3095:3101  _value */\n      dup3\n      dup3\n        /* \"system.sol\":3075:3085  statusEnum */\n      0x04\n        /* \"system.sol\":3075:3092  statusEnum[_type] */\n      0x00\n        /* \"system.sol\":3086:3091  _type */\n      dup8\n        /* \"system.sol\":3075:3092  statusEnum[_type] */\n      0xff\n      and\n      0xff\n      and\n      dup2\n      mstore\n      0x20\n      add\n      swap1\n      dup2\n      mstore\n      0x20\n      add\n      0x00\n      keccak256\n        /* \"system.sol\":3075:3101  statusEnum[_type] = _value */\n      swap2\n      swap1\n      tag_102\n      swap3\n      swap2\n      swap1\n      tag_92\n      jump\t// in\n    tag_102:\n      pop\n        /* \"system.sol\":3118:3122  true */\n      0x01\n        /* \"system.sol\":3111:3122  return true */\n      swap1\n      pop\n        /* \"system.sol\":2918:3129  function addStatusType(uint8 _type, string calldata _value) onlyIssuer public returns (bool){... */\n      swap4\n      swap3\n      pop\n      pop\n      pop\n      jump\t// out\n        /* \"system.sol\":2581:2793  function addAlumniType(uint8 _type, string calldata _value) onlyIssuer public returns (bool) {... */\n    tag_52:\n        /* \"system.sol\":2668:2672  bool */\n      0x00\n        /* \"system.sol\":765:769  true */\n      0x01\n        /* \"system.sol\":741:769  isIssuer(msg.sender) == true */\n      iszero\n      iszero\n        /* \"system.sol\":741:761  isIssuer(msg.sender) */\n      tag_104\n        /* \"system.sol\":750:760  msg.sender */\n      caller\n        /* \"system.sol\":741:749  isIssuer */\n      tag_43\n        /* \"system.sol\":741:761  isIssuer(msg.sender) */\n      jump\t// in\n    tag_104:\n        /* \"system.sol\":741:769  isIssuer(msg.sender) == true */\n      iszero\n      iszero\n      eq\n        /* \"system.sol\":733:770  require(isIssuer(msg.sender) == true) */\n      tag_105\n      jumpi\n      0x00\n      dup1\n      revert\n    tag_105:\n        /* \"system.sol\":2727:2728  0 */\n      0x00\n        /* \"system.sol\":2698:2708  alumniEnum */\n      0x03\n        /* \"system.sol\":2698:2715  alumniEnum[_type] */\n      0x00\n        /* \"system.sol\":2709:2714  _type */\n      dup7\n        /* \"system.sol\":2698:2715  alumniEnum[_type] */\n      0xff\n      and\n      0xff\n      and\n      dup2\n      mstore\n      0x20\n      add\n      swap1\n      dup2\n      mstore\n      0x20\n      add\n      0x00\n      keccak256\n        /* \"system.sol\":2692:2723  bytes(alumniEnum[_type]).length */\n      dup1\n      sload\n      tag_107\n      swap1\n      tag_73\n      jump\t// in\n    tag_107:\n      swap1\n      pop\n        /* \"system.sol\":2692:2728  bytes(alumniEnum[_type]).length == 0 */\n      eq\n        /* \"system.sol\":2684:2729  require(bytes(alumniEnum[_type]).length == 0) */\n      tag_108\n      jumpi\n      0x00\n      dup1\n      revert\n    tag_108:\n        /* \"system.sol\":2759:2765  _value */\n      dup3\n      dup3\n        /* \"system.sol\":2739:2749  alumniEnum */\n      0x03\n        /* \"system.sol\":2739:2756  alumniEnum[_type] */\n      0x00\n        /* \"system.sol\":2750:2755  _type */\n      dup8\n        /* \"system.sol\":2739:2756  alumniEnum[_type] */\n      0xff\n      and\n      0xff\n      and\n      dup2\n      mstore\n      0x20\n      add\n      swap1\n      dup2\n      mstore\n      0x20\n      add\n      0x00\n      keccak256\n        /* \"system.sol\":2739:2765  alumniEnum[_type] = _value */\n      swap2\n      swap1\n      tag_109\n      swap3\n      swap2\n      swap1\n      tag_92\n      jump\t// in\n    tag_109:\n      pop\n        /* \"system.sol\":2782:2786  true */\n      0x01\n        /* \"system.sol\":2775:2786  return true */\n      swap1\n      pop\n        /* \"system.sol\":2581:2793  function addAlumniType(uint8 _type, string calldata _value) onlyIssuer public returns (bool) {... */\n      swap4\n      swap3\n      pop\n      pop\n      pop\n      jump\t// out\n        /* \"system.sol\":2438:2575  function getCredential(address _alumniAddress) public view returns (Credential memory){... */\n    tag_56:\n        /* \"system.sol\":2506:2523  Credential memory */\n      tag_110\n      tag_111\n      jump\t// in\n    tag_110:\n        /* \"system.sol\":2541:2552  credentials */\n      0x05\n        /* \"system.sol\":2541:2568  credentials[_alumniAddress] */\n      0x00\n        /* \"system.sol\":2553:2567  _alumniAddress */\n      dup4\n        /* \"system.sol\":2541:2568  credentials[_alumniAddress] */\n      0xffffffffffffffffffffffffffffffffffffffff\n      and\n      0xffffffffffffffffffffffffffffffffffffffff\n      and\n      dup2\n      mstore\n      0x20\n      add\n      swap1\n      dup2\n      mstore\n      0x20\n      add\n      0x00\n      keccak256\n        /* \"system.sol\":2534:2568  return credentials[_alumniAddress] */\n      mload(0x40)\n      dup1\n      0xc0\n      add\n      0x40\n      mstore\n      swap1\n      dup2\n      0x00\n      dup3\n      add\n      sload\n      dup2\n      mstore\n      0x20\n      add\n      0x01\n      dup3\n      add\n      0x00\n      swap1\n      sload\n      swap1\n      0x0100\n      exp\n      swap1\n      div\n      0xffffffffffffffffffffffffffffffffffffffff\n      and\n      0xffffffffffffffffffffffffffffffffffffffff\n      and\n      0xffffffffffffffffffffffffffffffffffffffff\n      and\n      dup2\n      mstore\n      0x20\n      add\n      0x01\n      dup3\n      add\n      0x14\n      swap1\n      sload\n      swap1\n      0x0100\n      exp\n      swap1\n      div\n      0xff\n      and\n      0xff\n      and\n      0xff\n      and\n      dup2\n      mstore\n      0x20\n      add\n      0x01\n      dup3\n      add\n      0x15\n      swap1\n      sload\n      swap1\n      0x0100\n      exp\n      swap1\n      div\n      0xff\n      and\n      0xff\n      and\n      0xff\n      and\n      dup2\n      mstore\n      0x20\n      add\n      0x02\n      dup3\n      add\n      dup1\n      sload\n      tag_113\n      swap1\n      tag_73\n      jump\t// in\n    tag_113:\n      dup1\n      0x1f\n      add\n      0x20\n      dup1\n      swap2\n      div\n      mul\n      0x20\n      add\n      mload(0x40)\n      swap1\n      dup2\n      add\n      0x40\n      mstore\n      dup1\n      swap3\n      swap2\n      swap1\n      dup2\n      dup2\n      mstore\n      0x20\n      add\n      dup3\n      dup1\n      sload\n      tag_114\n      swap1\n      tag_73\n      jump\t// in\n    tag_114:\n      dup1\n      iszero\n      tag_115\n      jumpi\n      dup1\n      0x1f\n      lt\n      tag_116\n      jumpi\n      0x0100\n      dup1\n      dup4\n      sload\n      div\n      mul\n      dup4\n      mstore\n      swap2\n      0x20\n      add\n      swap2\n      jump(tag_115)\n    tag_116:\n      dup3\n      add\n      swap2\n      swap1\n      0x00\n      mstore\n      keccak256(0x00, 0x20)\n      swap1\n    tag_117:\n      dup2\n      sload\n      dup2\n      mstore\n      swap1\n      0x01\n      add\n      swap1\n      0x20\n      add\n      dup1\n      dup4\n      gt\n      tag_117\n      jumpi\n      dup3\n      swap1\n      sub\n      0x1f\n      and\n      dup3\n      add\n      swap2\n    tag_115:\n      pop\n      pop\n      pop\n      pop\n      pop\n      dup2\n      mstore\n      0x20\n      add\n      0x03\n      dup3\n      add\n      sload\n      dup2\n      mstore\n      pop\n      pop\n      swap1\n      pop\n        /* \"system.sol\":2438:2575  function getCredential(address _alumniAddress) public view returns (Credential memory){... */\n      swap2\n      swap1\n      pop\n      jump\t// out\n        /* \"system.sol\":314:508  function transferOwnership(address _to) onlyOwner public {... */\n    tag_61:\n        /* \"system.sol\":245:250  owner */\n      0x00\n      dup1\n      sload\n      swap1\n      0x0100\n      exp\n      swap1\n      div\n      0xffffffffffffffffffffffffffffffffffffffff\n      and\n        /* \"system.sol\":231:250  msg.sender == owner */\n      0xffffffffffffffffffffffffffffffffffffffff\n      and\n        /* \"system.sol\":231:241  msg.sender */\n      caller\n        /* \"system.sol\":231:250  msg.sender == owner */\n      0xffffffffffffffffffffffffffffffffffffffff\n      and\n      eq\n        /* \"system.sol\":223:251  require(msg.sender == owner) */\n      tag_119\n      jumpi\n      0x00\n      dup1\n      revert\n    tag_119:\n        /* \"system.sol\":396:401  owner */\n      0x00\n      dup1\n      sload\n      swap1\n      0x0100\n      exp\n      swap1\n      div\n      0xffffffffffffffffffffffffffffffffffffffff\n      and\n        /* \"system.sol\":389:401  _to != owner */\n      0xffffffffffffffffffffffffffffffffffffffff\n      and\n        /* \"system.sol\":389:392  _to */\n      dup2\n        /* \"system.sol\":389:401  _to != owner */\n      0xffffffffffffffffffffffffffffffffffffffff\n      and\n      eq\n      iszero\n        /* \"system.sol\":381:402  require(_to != owner) */\n      tag_121\n      jumpi\n      0x00\n      dup1\n      revert\n    tag_121:\n        /* \"system.sol\":435:438  0x0 */\n      0x00\n        /* \"system.sol\":420:439  _to != address(0x0) */\n      0xffffffffffffffffffffffffffffffffffffffff\n      and\n        /* \"system.sol\":420:423  _to */\n      dup2\n        /* \"system.sol\":420:439  _to != address(0x0) */\n      0xffffffffffffffffffffffffffffffffffffffff\n      and\n      eq\n      iszero\n        /* \"system.sol\":412:440  require(_to != address(0x0)) */\n      tag_122\n      jumpi\n      0x00\n      dup1\n      revert\n    tag_122:\n        /* \"system.sol\":455:458  _to */\n      dup1\n        /* \"system.sol\":447:452  owner */\n      0x00\n      dup1\n        /* \"system.sol\":447:458  owner = _to */\n      0x0100\n      exp\n      dup2\n      sload\n      dup2\n      0xffffffffffffffffffffffffffffffffffffffff\n      mul\n      not\n      and\n      swap1\n      dup4\n      0xffffffffffffffffffffffffffffffffffffffff\n      and\n      mul\n      or\n      swap1\n      sstore\n      pop\n        /* \"system.sol\":498:501  _to */\n      dup1\n        /* \"system.sol\":470:502  OwnerTransferPropose(owner, _to) */\n      0xffffffffffffffffffffffffffffffffffffffff\n      and\n        /* \"system.sol\":491:496  owner */\n      0x00\n      dup1\n      sload\n      swap1\n      0x0100\n      exp\n      swap1\n      div\n      0xffffffffffffffffffffffffffffffffffffffff\n      and\n        /* \"system.sol\":470:502  OwnerTransferPropose(owner, _to) */\n      0xffffffffffffffffffffffffffffffffffffffff\n      and\n      0x2ae143016adc0aa482e6ba5d9a350f3e3122aeb005ca4bf47d1d7b8221bce472\n      mload(0x40)\n      mload(0x40)\n      dup1\n      swap2\n      sub\n      swap1\n      log3\n        /* \"system.sol\":314:508  function transferOwnership(address _to) onlyOwner public {... */\n      pop\n      jump\t// out\n        /* \"system.sol\":2799:2912  function getAlumniType(uint8 _type) public view returns (string memory) {... */\n    tag_64:\n        /* \"system.sol\":2856:2869  string memory */\n      0x60\n        /* \"system.sol\":2888:2898  alumniEnum */\n      0x03\n        /* \"system.sol\":2888:2905  alumniEnum[_type] */\n      0x00\n        /* \"system.sol\":2899:2904  _type */\n      dup4\n        /* \"system.sol\":2888:2905  alumniEnum[_type] */\n      0xff\n      and\n      0xff\n      and\n      dup2\n      mstore\n      0x20\n      add\n      swap1\n      dup2\n      mstore\n      0x20\n      add\n      0x00\n      keccak256\n        /* \"system.sol\":2881:2905  return alumniEnum[_type] */\n      dup1\n      sload\n      tag_124\n      swap1\n      tag_73\n      jump\t// in\n    tag_124:\n      dup1\n      0x1f\n      add\n      0x20\n      dup1\n      swap2\n      div\n      mul\n      0x20\n      add\n      mload(0x40)\n      swap1\n      dup2\n      add\n      0x40\n      mstore\n      dup1\n      swap3\n      swap2\n      swap1\n      dup2\n      dup2\n      mstore\n      0x20\n      add\n      dup3\n      dup1\n      sload\n      tag_125\n      swap1\n      tag_73\n      jump\t// in\n    tag_125:\n      dup1\n      iszero\n      tag_126\n      jumpi\n      dup1\n      0x1f\n      lt\n      tag_127\n      jumpi\n      0x0100\n      dup1\n      dup4\n      sload\n      div\n      mul\n      dup4\n      mstore\n      swap2\n      0x20\n      add\n      swap2\n      jump(tag_126)\n    tag_127:\n      dup3\n      add\n      swap2\n      swap1\n      0x00\n      mstore\n      keccak256(0x00, 0x20)\n      swap1\n    tag_128:\n      dup2\n      sload\n      dup2\n      mstore\n      swap1\n      0x01\n      add\n      swap1\n      0x20\n      add\n      dup1\n      dup4\n      gt\n      tag_128\n      jumpi\n      dup3\n      swap1\n      sub\n      0x1f\n      and\n      dup3\n      add\n      swap2\n    tag_126:\n      pop\n      pop\n      pop\n      pop\n      pop\n      swap1\n      pop\n        /* \"system.sol\":2799:2912  function getAlumniType(uint8 _type) public view returns (string memory) {... */\n      swap2\n      swap1\n      pop\n      jump\t// out\n        /* \"system.sol\":3254:3518  function changeStatus(address _alumni, uint8 _type) onlyIssuer public returns (bool) {... */\n    tag_69:\n        /* \"system.sol\":3333:3337  bool */\n      0x00\n        /* \"system.sol\":765:769  true */\n      0x01\n        /* \"system.sol\":741:769  isIssuer(msg.sender) == true */\n      iszero\n      iszero\n        /* \"system.sol\":741:761  isIssuer(msg.sender) */\n      tag_130\n        /* \"system.sol\":750:760  msg.sender */\n      caller\n        /* \"system.sol\":741:749  isIssuer */\n      tag_43\n        /* \"system.sol\":741:761  isIssuer(msg.sender) */\n      jump\t// in\n    tag_130:\n        /* \"system.sol\":741:769  isIssuer(msg.sender) == true */\n      iszero\n      iszero\n      eq\n        /* \"system.sol\":733:770  require(isIssuer(msg.sender) == true) */\n      tag_131\n      jumpi\n      0x00\n      dup1\n      revert\n    tag_131:\n        /* \"system.sol\":3384:3385  0 */\n      0x00\n        /* \"system.sol\":3357:3368  credentials */\n      0x05\n        /* \"system.sol\":3357:3377  credentials[_alumni] */\n      0x00\n        /* \"system.sol\":3369:3376  _alumni */\n      dup6\n        /* \"system.sol\":3357:3377  credentials[_alumni] */\n      0xffffffffffffffffffffffffffffffffffffffff\n      and\n      0xffffffffffffffffffffffffffffffffffffffff\n      and\n      dup2\n      mstore\n      0x20\n      add\n      swap1\n      dup2\n      mstore\n      0x20\n      add\n      0x00\n      keccak256\n        /* \"system.sol\":3357:3380  credentials[_alumni].id */\n      0x00\n      add\n      sload\n        /* \"system.sol\":3357:3385  credentials[_alumni].id != 0 */\n      eq\n      iszero\n        /* \"system.sol\":3349:3386  require(credentials[_alumni].id != 0) */\n      tag_133\n      jumpi\n      0x00\n      dup1\n      revert\n    tag_133:\n        /* \"system.sol\":3439:3440  0 */\n      0x00\n        /* \"system.sol\":3410:3420  statusEnum */\n      0x04\n        /* \"system.sol\":3410:3427  statusEnum[_type] */\n      0x00\n        /* \"system.sol\":3421:3426  _type */\n      dup5\n        /* \"system.sol\":3410:3427  statusEnum[_type] */\n      0xff\n      and\n      0xff\n      and\n      dup2\n      mstore\n      0x20\n      add\n      swap1\n      dup2\n      mstore\n      0x20\n      add\n      0x00\n      keccak256\n        /* \"system.sol\":3404:3435  bytes(statusEnum[_type]).length */\n      dup1\n      sload\n      tag_134\n      swap1\n      tag_73\n      jump\t// in\n    tag_134:\n      swap1\n      pop\n        /* \"system.sol\":3404:3440  bytes(statusEnum[_type]).length != 0 */\n      eq\n      iszero\n        /* \"system.sol\":3396:3441  require(bytes(statusEnum[_type]).length != 0) */\n      tag_135\n      jumpi\n      0x00\n      dup1\n      revert\n    tag_135:\n        /* \"system.sol\":3485:3490  _type */\n      dup2\n        /* \"system.sol\":3451:3462  credentials */\n      0x05\n        /* \"system.sol\":3451:3471  credentials[_alumni] */\n      0x00\n        /* \"system.sol\":3463:3470  _alumni */\n      dup6\n        /* \"system.sol\":3451:3471  credentials[_alumni] */\n      0xffffffffffffffffffffffffffffffffffffffff\n      and\n      0xffffffffffffffffffffffffffffffffffffffff\n      and\n      dup2\n      mstore\n      0x20\n      add\n      swap1\n      dup2\n      mstore\n      0x20\n      add\n      0x00\n      keccak256\n        /* \"system.sol\":3451:3482  credentials[_alumni].statusType */\n      0x01\n      add\n      0x15\n        /* \"system.sol\":3451:3490  credentials[_alumni].statusType = _type */\n      0x0100\n      exp\n      dup2\n      sload\n      dup2\n      0xff\n      mul\n      not\n      and\n      swap1\n      dup4\n      0xff\n      and\n      mul\n      or\n      swap1\n      sstore\n      pop\n        /* \"system.sol\":3507:3511  true */\n      0x01\n        /* \"system.sol\":3500:3511  return true */\n      swap1\n      pop\n        /* \"system.sol\":3254:3518  function changeStatus(address _alumni, uint8 _type) onlyIssuer public returns (bool) {... */\n      swap3\n      swap2\n      pop\n      pop\n      jump\t// out\n    tag_92:\n      dup3\n      dup1\n      sload\n      tag_136\n      swap1\n      tag_73\n      jump\t// in\n    tag_136:\n      swap1\n      0x00\n      mstore\n      keccak256(0x00, 0x20)\n      swap1\n      0x1f\n      add\n      0x20\n      swap1\n      div\n      dup2\n      add\n      swap3\n      dup3\n      tag_138\n      jumpi\n      0x00\n      dup6\n      sstore\n      jump(tag_137)\n    tag_138:\n      dup3\n      0x1f\n      lt\n      tag_139\n      jumpi\n      dup1\n      calldataload\n      not(0xff)\n      and\n      dup4\n      dup1\n      add\n      or\n      dup6\n      sstore\n      jump(tag_137)\n    tag_139:\n      dup3\n      dup1\n      add\n      0x01\n      add\n      dup6\n      sstore\n      dup3\n      iszero\n      tag_137\n      jumpi\n      swap2\n      dup3\n      add\n    tag_140:\n      dup3\n      dup2\n      gt\n      iszero\n      tag_141\n      jumpi\n      dup3\n      calldataload\n      dup3\n      sstore\n      swap2\n      0x20\n      add\n      swap2\n      swap1\n      0x01\n      add\n      swap1\n      jump(tag_140)\n    tag_141:\n    tag_137:\n      pop\n      swap1\n      pop\n      tag_142\n      swap2\n      swap1\n      tag_143\n      jump\t// in\n    tag_142:\n      pop\n      swap1\n      jump\t// out\n    tag_111:\n      mload(0x40)\n      dup1\n      0xc0\n      add\n      0x40\n      mstore\n      dup1\n      0x00\n      dup2\n      mstore\n      0x20\n      add\n      and(0xffffffffffffffffffffffffffffffffffffffff, 0x00)\n      dup2\n      mstore\n      0x20\n      add\n      and(0xff, 0x00)\n      dup2\n      mstore\n      0x20\n      add\n      and(0xff, 0x00)\n      dup2\n      mstore\n      0x20\n      add\n      0x60\n      dup2\n      mstore\n      0x20\n      add\n      0x00\n      dup2\n      mstore\n      pop\n      swap1\n      jump\t// out\n    tag_143:\n    tag_144:\n      dup1\n      dup3\n      gt\n      iszero\n      tag_145\n      jumpi\n      0x00\n      dup2\n      0x00\n      swap1\n      sstore\n      pop\n      0x01\n      add\n      jump(tag_144)\n    tag_145:\n      pop\n      swap1\n      jump\t// out\n        /* \"#utility.yul\":88:205   */\n    tag_147:\n        /* \"#utility.yul\":197:198   */\n      0x00\n        /* \"#utility.yul\":194:195   */\n      dup1\n        /* \"#utility.yul\":187:199   */\n      revert\n        /* \"#utility.yul\":211:328   */\n    tag_148:\n        /* \"#utility.yul\":320:321   */\n      0x00\n        /* \"#utility.yul\":317:318   */\n      dup1\n        /* \"#utility.yul\":310:322   */\n      revert\n        /* \"#utility.yul\":334:420   */\n    tag_149:\n        /* \"#utility.yul\":369:376   */\n      0x00\n        /* \"#utility.yul\":409:413   */\n      0xff\n        /* \"#utility.yul\":402:407   */\n      dup3\n        /* \"#utility.yul\":398:414   */\n      and\n        /* \"#utility.yul\":387:414   */\n      swap1\n      pop\n        /* \"#utility.yul\":334:420   */\n      swap2\n      swap1\n      pop\n      jump\t// out\n        /* \"#utility.yul\":426:544   */\n    tag_150:\n        /* \"#utility.yul\":497:519   */\n      tag_182\n        /* \"#utility.yul\":513:518   */\n      dup2\n        /* \"#utility.yul\":497:519   */\n      tag_149\n      jump\t// in\n    tag_182:\n        /* \"#utility.yul\":490:495   */\n      dup2\n        /* \"#utility.yul\":487:520   */\n      eq\n        /* \"#utility.yul\":477:538   */\n      tag_183\n      jumpi\n        /* \"#utility.yul\":534:535   */\n      0x00\n        /* \"#utility.yul\":531:532   */\n      dup1\n        /* \"#utility.yul\":524:536   */\n      revert\n        /* \"#utility.yul\":477:538   */\n    tag_183:\n        /* \"#utility.yul\":426:544   */\n      pop\n      jump\t// out\n        /* \"#utility.yul\":550:685   */\n    tag_151:\n        /* \"#utility.yul\":594:599   */\n      0x00\n        /* \"#utility.yul\":632:638   */\n      dup2\n        /* \"#utility.yul\":619:639   */\n      calldataload\n        /* \"#utility.yul\":610:639   */\n      swap1\n      pop\n        /* \"#utility.yul\":648:679   */\n      tag_185\n        /* \"#utility.yul\":673:678   */\n      dup2\n        /* \"#utility.yul\":648:679   */\n      tag_150\n      jump\t// in\n    tag_185:\n        /* \"#utility.yul\":550:685   */\n      swap3\n      swap2\n      pop\n      pop\n      jump\t// out\n        /* \"#utility.yul\":691:1016   */\n    tag_18:\n        /* \"#utility.yul\":748:754   */\n      0x00\n        /* \"#utility.yul\":797:799   */\n      0x20\n        /* \"#utility.yul\":785:794   */\n      dup3\n        /* \"#utility.yul\":776:783   */\n      dup5\n        /* \"#utility.yul\":772:795   */\n      sub\n        /* \"#utility.yul\":768:800   */\n      slt\n        /* \"#utility.yul\":765:884   */\n      iszero\n      tag_187\n      jumpi\n        /* \"#utility.yul\":803:882   */\n      tag_188\n      tag_147\n      jump\t// in\n    tag_188:\n        /* \"#utility.yul\":765:884   */\n    tag_187:\n        /* \"#utility.yul\":923:924   */\n      0x00\n        /* \"#utility.yul\":948:999   */\n      tag_189\n        /* \"#utility.yul\":991:998   */\n      dup5\n        /* \"#utility.yul\":982:988   */\n      dup3\n        /* \"#utility.yul\":971:980   */\n      dup6\n        /* \"#utility.yul\":967:989   */\n      add\n        /* \"#utility.yul\":948:999   */\n      tag_151\n      jump\t// in\n    tag_189:\n        /* \"#utility.yul\":938:999   */\n      swap2\n      pop\n        /* \"#utility.yul\":894:1009   */\n      pop\n        /* \"#utility.yul\":691:1016   */\n      swap3\n      swap2\n      pop\n      pop\n      jump\t// out\n        /* \"#utility.yul\":1022:1121   */\n    tag_152:\n        /* \"#utility.yul\":1074:1080   */\n      0x00\n        /* \"#utility.yul\":1108:1113   */\n      dup2\n        /* \"#utility.yul\":1102:1114   */\n      mload\n        /* \"#utility.yul\":1092:1114   */\n      swap1\n      pop\n        /* \"#utility.yul\":1022:1121   */\n      swap2\n      swap1\n      pop\n      jump\t// out\n        /* \"#utility.yul\":1127:1296   */\n    tag_153:\n        /* \"#utility.yul\":1211:1222   */\n      0x00\n        /* \"#utility.yul\":1245:1251   */\n      dup3\n        /* \"#utility.yul\":1240:1243   */\n      dup3\n        /* \"#utility.yul\":1233:1252   */\n      mstore\n        /* \"#utility.yul\":1285:1289   */\n      0x20\n        /* \"#utility.yul\":1280:1283   */\n      dup3\n        /* \"#utility.yul\":1276:1290   */\n      add\n        /* \"#utility.yul\":1261:1290   */\n      swap1\n      pop\n        /* \"#utility.yul\":1127:1296   */\n      swap3\n      swap2\n      pop\n      pop\n      jump\t// out\n        /* \"#utility.yul\":1302:1609   */\n    tag_154:\n        /* \"#utility.yul\":1370:1371   */\n      0x00\n        /* \"#utility.yul\":1380:1493   */\n    tag_193:\n        /* \"#utility.yul\":1394:1400   */\n      dup4\n        /* \"#utility.yul\":1391:1392   */\n      dup2\n        /* \"#utility.yul\":1388:1401   */\n      lt\n        /* \"#utility.yul\":1380:1493   */\n      iszero\n      tag_195\n      jumpi\n        /* \"#utility.yul\":1479:1480   */\n      dup1\n        /* \"#utility.yul\":1474:1477   */\n      dup3\n        /* \"#utility.yul\":1470:1481   */\n      add\n        /* \"#utility.yul\":1464:1482   */\n      mload\n        /* \"#utility.yul\":1460:1461   */\n      dup2\n        /* \"#utility.yul\":1455:1458   */\n      dup5\n        /* \"#utility.yul\":1451:1462   */\n      add\n        /* \"#utility.yul\":1444:1483   */\n      mstore\n        /* \"#utility.yul\":1416:1418   */\n      0x20\n        /* \"#utility.yul\":1413:1414   */\n      dup2\n        /* \"#utility.yul\":1409:1419   */\n      add\n        /* \"#utility.yul\":1404:1419   */\n      swap1\n      pop\n        /* \"#utility.yul\":1380:1493   */\n      jump(tag_193)\n    tag_195:\n        /* \"#utility.yul\":1511:1517   */\n      dup4\n        /* \"#utility.yul\":1508:1509   */\n      dup2\n        /* \"#utility.yul\":1505:1518   */\n      gt\n        /* \"#utility.yul\":1502:1603   */\n      iszero\n      tag_196\n      jumpi\n        /* \"#utility.yul\":1591:1592   */\n      0x00\n        /* \"#utility.yul\":1582:1588   */\n      dup5\n        /* \"#utility.yul\":1577:1580   */\n      dup5\n        /* \"#utility.yul\":1573:1589   */\n      add\n        /* \"#utility.yul\":1566:1593   */\n      mstore\n        /* \"#utility.yul\":1502:1603   */\n    tag_196:\n        /* \"#utility.yul\":1351:1609   */\n      pop\n        /* \"#utility.yul\":1302:1609   */\n      pop\n      pop\n      pop\n      jump\t// out\n        /* \"#utility.yul\":1615:1717   */\n    tag_155:\n        /* \"#utility.yul\":1656:1662   */\n      0x00\n        /* \"#utility.yul\":1707:1709   */\n      0x1f\n        /* \"#utility.yul\":1703:1710   */\n      not\n        /* \"#utility.yul\":1698:1700   */\n      0x1f\n        /* \"#utility.yul\":1691:1696   */\n      dup4\n        /* \"#utility.yul\":1687:1701   */\n      add\n        /* \"#utility.yul\":1683:1711   */\n      and\n        /* \"#utility.yul\":1673:1711   */\n      swap1\n      pop\n        /* \"#utility.yul\":1615:1717   */\n      swap2\n      swap1\n      pop\n      jump\t// out\n        /* \"#utility.yul\":1723:2087   */\n    tag_156:\n        /* \"#utility.yul\":1811:1814   */\n      0x00\n        /* \"#utility.yul\":1839:1878   */\n      tag_199\n        /* \"#utility.yul\":1872:1877   */\n      dup3\n        /* \"#utility.yul\":1839:1878   */\n      tag_152\n      jump\t// in\n    tag_199:\n        /* \"#utility.yul\":1894:1965   */\n      tag_200\n        /* \"#utility.yul\":1958:1964   */\n      dup2\n        /* \"#utility.yul\":1953:1956   */\n      dup6\n        /* \"#utility.yul\":1894:1965   */\n      tag_153\n      jump\t// in\n    tag_200:\n        /* \"#utility.yul\":1887:1965   */\n      swap4\n      pop\n        /* \"#utility.yul\":1974:2026   */\n      tag_201\n        /* \"#utility.yul\":2019:2025   */\n      dup2\n        /* \"#utility.yul\":2014:2017   */\n      dup6\n        /* \"#utility.yul\":2007:2011   */\n      0x20\n        /* \"#utility.yul\":2000:2005   */\n      dup7\n        /* \"#utility.yul\":1996:2012   */\n      add\n        /* \"#utility.yul\":1974:2026   */\n      tag_154\n      jump\t// in\n    tag_201:\n        /* \"#utility.yul\":2051:2080   */\n      tag_202\n        /* \"#utility.yul\":2073:2079   */\n      dup2\n        /* \"#utility.yul\":2051:2080   */\n      tag_155\n      jump\t// in\n    tag_202:\n        /* \"#utility.yul\":2046:2049   */\n      dup5\n        /* \"#utility.yul\":2042:2081   */\n      add\n        /* \"#utility.yul\":2035:2081   */\n      swap2\n      pop\n        /* \"#utility.yul\":1815:2087   */\n      pop\n        /* \"#utility.yul\":1723:2087   */\n      swap3\n      swap2\n      pop\n      pop\n      jump\t// out\n        /* \"#utility.yul\":2093:2406   */\n    tag_21:\n        /* \"#utility.yul\":2206:2210   */\n      0x00\n        /* \"#utility.yul\":2244:2246   */\n      0x20\n        /* \"#utility.yul\":2233:2242   */\n      dup3\n        /* \"#utility.yul\":2229:2247   */\n      add\n        /* \"#utility.yul\":2221:2247   */\n      swap1\n      pop\n        /* \"#utility.yul\":2293:2302   */\n      dup2\n        /* \"#utility.yul\":2287:2291   */\n      dup2\n        /* \"#utility.yul\":2283:2303   */\n      sub\n        /* \"#utility.yul\":2279:2280   */\n      0x00\n        /* \"#utility.yul\":2268:2277   */\n      dup4\n        /* \"#utility.yul\":2264:2281   */\n      add\n        /* \"#utility.yul\":2257:2304   */\n      mstore\n        /* \"#utility.yul\":2321:2399   */\n      tag_204\n        /* \"#utility.yul\":2394:2398   */\n      dup2\n        /* \"#utility.yul\":2385:2391   */\n      dup5\n        /* \"#utility.yul\":2321:2399   */\n      tag_156\n      jump\t// in\n    tag_204:\n        /* \"#utility.yul\":2313:2399   */\n      swap1\n      pop\n        /* \"#utility.yul\":2093:2406   */\n      swap3\n      swap2\n      pop\n      pop\n      jump\t// out\n        /* \"#utility.yul\":2412:2538   */\n    tag_157:\n        /* \"#utility.yul\":2449:2456   */\n      0x00\n        /* \"#utility.yul\":2489:2531   */\n      0xffffffffffffffffffffffffffffffffffffffff\n        /* \"#utility.yul\":2482:2487   */\n      dup3\n        /* \"#utility.yul\":2478:2532   */\n      and\n        /* \"#utility.yul\":2467:2532   */\n      swap1\n      pop\n        /* \"#utility.yul\":2412:2538   */\n      swap2\n      swap1\n      pop\n      jump\t// out\n        /* \"#utility.yul\":2544:2640   */\n    tag_158:\n        /* \"#utility.yul\":2581:2588   */\n      0x00\n        /* \"#utility.yul\":2610:2634   */\n      tag_207\n        /* \"#utility.yul\":2628:2633   */\n      dup3\n        /* \"#utility.yul\":2610:2634   */\n      tag_157\n      jump\t// in\n    tag_207:\n        /* \"#utility.yul\":2599:2634   */\n      swap1\n      pop\n        /* \"#utility.yul\":2544:2640   */\n      swap2\n      swap1\n      pop\n      jump\t// out\n        /* \"#utility.yul\":2646:2768   */\n    tag_159:\n        /* \"#utility.yul\":2719:2743   */\n      tag_209\n        /* \"#utility.yul\":2737:2742   */\n      dup2\n        /* \"#utility.yul\":2719:2743   */\n      tag_158\n      jump\t// in\n    tag_209:\n        /* \"#utility.yul\":2712:2717   */\n      dup2\n        /* \"#utility.yul\":2709:2744   */\n      eq\n        /* \"#utility.yul\":2699:2762   */\n      tag_210\n      jumpi\n        /* \"#utility.yul\":2758:2759   */\n      0x00\n        /* \"#utility.yul\":2755:2756   */\n      dup1\n        /* \"#utility.yul\":2748:2760   */\n      revert\n        /* \"#utility.yul\":2699:2762   */\n    tag_210:\n        /* \"#utility.yul\":2646:2768   */\n      pop\n      jump\t// out\n        /* \"#utility.yul\":2774:2913   */\n    tag_160:\n        /* \"#utility.yul\":2820:2825   */\n      0x00\n        /* \"#utility.yul\":2858:2864   */\n      dup2\n        /* \"#utility.yul\":2845:2865   */\n      calldataload\n        /* \"#utility.yul\":2836:2865   */\n      swap1\n      pop\n        /* \"#utility.yul\":2874:2907   */\n      tag_212\n        /* \"#utility.yul\":2901:2906   */\n      dup2\n        /* \"#utility.yul\":2874:2907   */\n      tag_159\n      jump\t// in\n    tag_212:\n        /* \"#utility.yul\":2774:2913   */\n      swap3\n      swap2\n      pop\n      pop\n      jump\t// out\n        /* \"#utility.yul\":2919:3248   */\n    tag_24:\n        /* \"#utility.yul\":2978:2984   */\n      0x00\n        /* \"#utility.yul\":3027:3029   */\n      0x20\n        /* \"#utility.yul\":3015:3024   */\n      dup3\n        /* \"#utility.yul\":3006:3013   */\n      dup5\n        /* \"#utility.yul\":3002:3025   */\n      sub\n        /* \"#utility.yul\":2998:3030   */\n      slt\n        /* \"#utility.yul\":2995:3114   */\n      iszero\n      tag_214\n      jumpi\n        /* \"#utility.yul\":3033:3112   */\n      tag_215\n      tag_147\n      jump\t// in\n    tag_215:\n        /* \"#utility.yul\":2995:3114   */\n    tag_214:\n        /* \"#utility.yul\":3153:3154   */\n      0x00\n        /* \"#utility.yul\":3178:3231   */\n      tag_216\n        /* \"#utility.yul\":3223:3230   */\n      dup5\n        /* \"#utility.yul\":3214:3220   */\n      dup3\n        /* \"#utility.yul\":3203:3212   */\n      dup6\n        /* \"#utility.yul\":3199:3221   */\n      add\n        /* \"#utility.yul\":3178:3231   */\n      tag_160\n      jump\t// in\n    tag_216:\n        /* \"#utility.yul\":3168:3231   */\n      swap2\n      pop\n        /* \"#utility.yul\":3124:3241   */\n      pop\n        /* \"#utility.yul\":2919:3248   */\n      swap3\n      swap2\n      pop\n      pop\n      jump\t// out\n        /* \"#utility.yul\":3254:3344   */\n    tag_161:\n        /* \"#utility.yul\":3288:3295   */\n      0x00\n        /* \"#utility.yul\":3331:3336   */\n      dup2\n        /* \"#utility.yul\":3324:3337   */\n      iszero\n        /* \"#utility.yul\":3317:3338   */\n      iszero\n        /* \"#utility.yul\":3306:3338   */\n      swap1\n      pop\n        /* \"#utility.yul\":3254:3344   */\n      swap2\n      swap1\n      pop\n      jump\t// out\n        /* \"#utility.yul\":3350:3459   */\n    tag_162:\n        /* \"#utility.yul\":3431:3452   */\n      tag_219\n        /* \"#utility.yul\":3446:3451   */\n      dup2\n        /* \"#utility.yul\":3431:3452   */\n      tag_161\n      jump\t// in\n    tag_219:\n        /* \"#utility.yul\":3426:3429   */\n      dup3\n        /* \"#utility.yul\":3419:3453   */\n      mstore\n        /* \"#utility.yul\":3350:3459   */\n      pop\n      pop\n      jump\t// out\n        /* \"#utility.yul\":3465:3675   */\n    tag_27:\n        /* \"#utility.yul\":3552:3556   */\n      0x00\n        /* \"#utility.yul\":3590:3592   */\n      0x20\n        /* \"#utility.yul\":3579:3588   */\n      dup3\n        /* \"#utility.yul\":3575:3593   */\n      add\n        /* \"#utility.yul\":3567:3593   */\n      swap1\n      pop\n        /* \"#utility.yul\":3603:3668   */\n      tag_221\n        /* \"#utility.yul\":3665:3666   */\n      0x00\n        /* \"#utility.yul\":3654:3663   */\n      dup4\n        /* \"#utility.yul\":3650:3667   */\n      add\n        /* \"#utility.yul\":3641:3647   */\n      dup5\n        /* \"#utility.yul\":3603:3668   */\n      tag_162\n      jump\t// in\n    tag_221:\n        /* \"#utility.yul\":3465:3675   */\n      swap3\n      swap2\n      pop\n      pop\n      jump\t// out\n        /* \"#utility.yul\":3681:3798   */\n    tag_163:\n        /* \"#utility.yul\":3790:3791   */\n      0x00\n        /* \"#utility.yul\":3787:3788   */\n      dup1\n        /* \"#utility.yul\":3780:3792   */\n      revert\n        /* \"#utility.yul\":3804:3921   */\n    tag_164:\n        /* \"#utility.yul\":3913:3914   */\n      0x00\n        /* \"#utility.yul\":3910:3911   */\n      dup1\n        /* \"#utility.yul\":3903:3915   */\n      revert\n        /* \"#utility.yul\":3927:4044   */\n    tag_165:\n        /* \"#utility.yul\":4036:4037   */\n      0x00\n        /* \"#utility.yul\":4033:4034   */\n      dup1\n        /* \"#utility.yul\":4026:4038   */\n      revert\n        /* \"#utility.yul\":4064:4617   */\n    tag_166:\n        /* \"#utility.yul\":4122:4130   */\n      0x00\n        /* \"#utility.yul\":4132:4138   */\n      dup1\n        /* \"#utility.yul\":4182:4185   */\n      dup4\n        /* \"#utility.yul\":4175:4179   */\n      0x1f\n        /* \"#utility.yul\":4167:4173   */\n      dup5\n        /* \"#utility.yul\":4163:4180   */\n      add\n        /* \"#utility.yul\":4159:4186   */\n      slt\n        /* \"#utility.yul\":4149:4271   */\n      tag_226\n      jumpi\n        /* \"#utility.yul\":4190:4269   */\n      tag_227\n      tag_163\n      jump\t// in\n    tag_227:\n        /* \"#utility.yul\":4149:4271   */\n    tag_226:\n        /* \"#utility.yul\":4303:4309   */\n      dup3\n        /* \"#utility.yul\":4290:4310   */\n      calldataload\n        /* \"#utility.yul\":4280:4310   */\n      swap1\n      pop\n        /* \"#utility.yul\":4333:4351   */\n      0xffffffffffffffff\n        /* \"#utility.yul\":4325:4331   */\n      dup2\n        /* \"#utility.yul\":4322:4352   */\n      gt\n        /* \"#utility.yul\":4319:4436   */\n      iszero\n      tag_228\n      jumpi\n        /* \"#utility.yul\":4355:4434   */\n      tag_229\n      tag_164\n      jump\t// in\n    tag_229:\n        /* \"#utility.yul\":4319:4436   */\n    tag_228:\n        /* \"#utility.yul\":4469:4473   */\n      0x20\n        /* \"#utility.yul\":4461:4467   */\n      dup4\n        /* \"#utility.yul\":4457:4474   */\n      add\n        /* \"#utility.yul\":4445:4474   */\n      swap2\n      pop\n        /* \"#utility.yul\":4523:4526   */\n      dup4\n        /* \"#utility.yul\":4515:4519   */\n      0x01\n        /* \"#utility.yul\":4507:4513   */\n      dup3\n        /* \"#utility.yul\":4503:4520   */\n      mul\n        /* \"#utility.yul\":4493:4501   */\n      dup4\n        /* \"#utility.yul\":4489:4521   */\n      add\n        /* \"#utility.yul\":4486:4527   */\n      gt\n        /* \"#utility.yul\":4483:4611   */\n      iszero\n      tag_230\n      jumpi\n        /* \"#utility.yul\":4530:4609   */\n      tag_231\n      tag_165\n      jump\t// in\n    tag_231:\n        /* \"#utility.yul\":4483:4611   */\n    tag_230:\n        /* \"#utility.yul\":4064:4617   */\n      swap3\n      pop\n      swap3\n      swap1\n      pop\n      jump\t// out\n        /* \"#utility.yul\":4623:5438   */\n    tag_38:\n        /* \"#utility.yul\":4710:4716   */\n      0x00\n        /* \"#utility.yul\":4718:4724   */\n      dup1\n        /* \"#utility.yul\":4726:4732   */\n      0x00\n        /* \"#utility.yul\":4734:4740   */\n      dup1\n        /* \"#utility.yul\":4783:4785   */\n      0x60\n        /* \"#utility.yul\":4771:4780   */\n      dup6\n        /* \"#utility.yul\":4762:4769   */\n      dup8\n        /* \"#utility.yul\":4758:4781   */\n      sub\n        /* \"#utility.yul\":4754:4786   */\n      slt\n        /* \"#utility.yul\":4751:4870   */\n      iszero\n      tag_233\n      jumpi\n        /* \"#utility.yul\":4789:4868   */\n      tag_234\n      tag_147\n      jump\t// in\n    tag_234:\n        /* \"#utility.yul\":4751:4870   */\n    tag_233:\n        /* \"#utility.yul\":4909:4910   */\n      0x00\n        /* \"#utility.yul\":4934:4987   */\n      tag_235\n        /* \"#utility.yul\":4979:4986   */\n      dup8\n        /* \"#utility.yul\":4970:4976   */\n      dup3\n        /* \"#utility.yul\":4959:4968   */\n      dup9\n        /* \"#utility.yul\":4955:4977   */\n      add\n        /* \"#utility.yul\":4934:4987   */\n      tag_160\n      jump\t// in\n    tag_235:\n        /* \"#utility.yul\":4924:4987   */\n      swap5\n      pop\n        /* \"#utility.yul\":4880:4997   */\n      pop\n        /* \"#utility.yul\":5036:5038   */\n      0x20\n        /* \"#utility.yul\":5062:5113   */\n      tag_236\n        /* \"#utility.yul\":5105:5112   */\n      dup8\n        /* \"#utility.yul\":5096:5102   */\n      dup3\n        /* \"#utility.yul\":5085:5094   */\n      dup9\n        /* \"#utility.yul\":5081:5103   */\n      add\n        /* \"#utility.yul\":5062:5113   */\n      tag_151\n      jump\t// in\n    tag_236:\n        /* \"#utility.yul\":5052:5113   */\n      swap4\n      pop\n        /* \"#utility.yul\":5007:5123   */\n      pop\n        /* \"#utility.yul\":5190:5192   */\n      0x40\n        /* \"#utility.yul\":5179:5188   */\n      dup6\n        /* \"#utility.yul\":5175:5193   */\n      add\n        /* \"#utility.yul\":5162:5194   */\n      calldataload\n        /* \"#utility.yul\":5221:5239   */\n      0xffffffffffffffff\n        /* \"#utility.yul\":5213:5219   */\n      dup2\n        /* \"#utility.yul\":5210:5240   */\n      gt\n        /* \"#utility.yul\":5207:5324   */\n      iszero\n      tag_237\n      jumpi\n        /* \"#utility.yul\":5243:5322   */\n      tag_238\n      tag_148\n      jump\t// in\n    tag_238:\n        /* \"#utility.yul\":5207:5324   */\n    tag_237:\n        /* \"#utility.yul\":5356:5421   */\n      tag_239\n        /* \"#utility.yul\":5413:5420   */\n      dup8\n        /* \"#utility.yul\":5404:5410   */\n      dup3\n        /* \"#utility.yul\":5393:5402   */\n      dup9\n        /* \"#utility.yul\":5389:5411   */\n      add\n        /* \"#utility.yul\":5356:5421   */\n      tag_166\n      jump\t// in\n    tag_239:\n        /* \"#utility.yul\":5338:5421   */\n      swap3\n      pop\n      swap3\n      pop\n        /* \"#utility.yul\":5133:5431   */\n      pop\n        /* \"#utility.yul\":4623:5438   */\n      swap3\n      swap6\n      swap2\n      swap5\n      pop\n      swap3\n      pop\n      jump\t// out\n        /* \"#utility.yul\":5444:6114   */\n    tag_47:\n        /* \"#utility.yul\":5522:5528   */\n      0x00\n        /* \"#utility.yul\":5530:5536   */\n      dup1\n        /* \"#utility.yul\":5538:5544   */\n      0x00\n        /* \"#utility.yul\":5587:5589   */\n      0x40\n        /* \"#utility.yul\":5575:5584   */\n      dup5\n        /* \"#utility.yul\":5566:5573   */\n      dup7\n        /* \"#utility.yul\":5562:5585   */\n      sub\n        /* \"#utility.yul\":5558:5590   */\n      slt\n        /* \"#utility.yul\":5555:5674   */\n      iszero\n      tag_241\n      jumpi\n        /* \"#utility.yul\":5593:5672   */\n      tag_242\n      tag_147\n      jump\t// in\n    tag_242:\n        /* \"#utility.yul\":5555:5674   */\n    tag_241:\n        /* \"#utility.yul\":5713:5714   */\n      0x00\n        /* \"#utility.yul\":5738:5789   */\n      tag_243\n        /* \"#utility.yul\":5781:5788   */\n      dup7\n        /* \"#utility.yul\":5772:5778   */\n      dup3\n        /* \"#utility.yul\":5761:5770   */\n      dup8\n        /* \"#utility.yul\":5757:5779   */\n      add\n        /* \"#utility.yul\":5738:5789   */\n      tag_151\n      jump\t// in\n    tag_243:\n        /* \"#utility.yul\":5728:5789   */\n      swap4\n      pop\n        /* \"#utility.yul\":5684:5799   */\n      pop\n        /* \"#utility.yul\":5866:5868   */\n      0x20\n        /* \"#utility.yul\":5855:5864   */\n      dup5\n        /* \"#utility.yul\":5851:5869   */\n      add\n        /* \"#utility.yul\":5838:5870   */\n      calldataload\n        /* \"#utility.yul\":5897:5915   */\n      0xffffffffffffffff\n        /* \"#utility.yul\":5889:5895   */\n      dup2\n        /* \"#utility.yul\":5886:5916   */\n      gt\n        /* \"#utility.yul\":5883:6000   */\n      iszero\n      tag_244\n      jumpi\n        /* \"#utility.yul\":5919:5998   */\n      tag_245\n      tag_148\n      jump\t// in\n    tag_245:\n        /* \"#utility.yul\":5883:6000   */\n    tag_244:\n        /* \"#utility.yul\":6032:6097   */\n      tag_246\n        /* \"#utility.yul\":6089:6096   */\n      dup7\n        /* \"#utility.yul\":6080:6086   */\n      dup3\n        /* \"#utility.yul\":6069:6078   */\n      dup8\n        /* \"#utility.yul\":6065:6087   */\n      add\n        /* \"#utility.yul\":6032:6097   */\n      tag_166\n      jump\t// in\n    tag_246:\n        /* \"#utility.yul\":6014:6097   */\n      swap3\n      pop\n      swap3\n      pop\n        /* \"#utility.yul\":5809:6107   */\n      pop\n        /* \"#utility.yul\":5444:6114   */\n      swap3\n      pop\n      swap3\n      pop\n      swap3\n      jump\t// out\n        /* \"#utility.yul\":6120:6197   */\n    tag_167:\n        /* \"#utility.yul\":6157:6164   */\n      0x00\n        /* \"#utility.yul\":6186:6191   */\n      dup2\n        /* \"#utility.yul\":6175:6191   */\n      swap1\n      pop\n        /* \"#utility.yul\":6120:6197   */\n      swap2\n      swap1\n      pop\n      jump\t// out\n        /* \"#utility.yul\":6203:6311   */\n    tag_168:\n        /* \"#utility.yul\":6280:6304   */\n      tag_249\n        /* \"#utility.yul\":6298:6303   */\n      dup2\n        /* \"#utility.yul\":6280:6304   */\n      tag_167\n      jump\t// in\n    tag_249:\n        /* \"#utility.yul\":6275:6278   */\n      dup3\n        /* \"#utility.yul\":6268:6305   */\n      mstore\n        /* \"#utility.yul\":6203:6311   */\n      pop\n      pop\n      jump\t// out\n        /* \"#utility.yul\":6317:6425   */\n    tag_169:\n        /* \"#utility.yul\":6394:6418   */\n      tag_251\n        /* \"#utility.yul\":6412:6417   */\n      dup2\n        /* \"#utility.yul\":6394:6418   */\n      tag_158\n      jump\t// in\n    tag_251:\n        /* \"#utility.yul\":6389:6392   */\n      dup3\n        /* \"#utility.yul\":6382:6419   */\n      mstore\n        /* \"#utility.yul\":6317:6425   */\n      pop\n      pop\n      jump\t// out\n        /* \"#utility.yul\":6431:6533   */\n    tag_170:\n        /* \"#utility.yul\":6504:6526   */\n      tag_253\n        /* \"#utility.yul\":6520:6525   */\n      dup2\n        /* \"#utility.yul\":6504:6526   */\n      tag_149\n      jump\t// in\n    tag_253:\n        /* \"#utility.yul\":6499:6502   */\n      dup3\n        /* \"#utility.yul\":6492:6527   */\n      mstore\n        /* \"#utility.yul\":6431:6533   */\n      pop\n      pop\n      jump\t// out\n        /* \"#utility.yul\":6539:6698   */\n    tag_171:\n        /* \"#utility.yul\":6613:6624   */\n      0x00\n        /* \"#utility.yul\":6647:6653   */\n      dup3\n        /* \"#utility.yul\":6642:6645   */\n      dup3\n        /* \"#utility.yul\":6635:6654   */\n      mstore\n        /* \"#utility.yul\":6687:6691   */\n      0x20\n        /* \"#utility.yul\":6682:6685   */\n      dup3\n        /* \"#utility.yul\":6678:6692   */\n      add\n        /* \"#utility.yul\":6663:6692   */\n      swap1\n      pop\n        /* \"#utility.yul\":6539:6698   */\n      swap3\n      swap2\n      pop\n      pop\n      jump\t// out\n        /* \"#utility.yul\":6704:7048   */\n    tag_172:\n        /* \"#utility.yul\":6782:6785   */\n      0x00\n        /* \"#utility.yul\":6810:6849   */\n      tag_256\n        /* \"#utility.yul\":6843:6848   */\n      dup3\n        /* \"#utility.yul\":6810:6849   */\n      tag_152\n      jump\t// in\n    tag_256:\n        /* \"#utility.yul\":6865:6926   */\n      tag_257\n        /* \"#utility.yul\":6919:6925   */\n      dup2\n        /* \"#utility.yul\":6914:6917   */\n      dup6\n        /* \"#utility.yul\":6865:6926   */\n      tag_171\n      jump\t// in\n    tag_257:\n        /* \"#utility.yul\":6858:6926   */\n      swap4\n      pop\n        /* \"#utility.yul\":6935:6987   */\n      tag_258\n        /* \"#utility.yul\":6980:6986   */\n      dup2\n        /* \"#utility.yul\":6975:6978   */\n      dup6\n        /* \"#utility.yul\":6968:6972   */\n      0x20\n        /* \"#utility.yul\":6961:6966   */\n      dup7\n        /* \"#utility.yul\":6957:6973   */\n      add\n        /* \"#utility.yul\":6935:6987   */\n      tag_154\n      jump\t// in\n    tag_258:\n        /* \"#utility.yul\":7012:7041   */\n      tag_259\n        /* \"#utility.yul\":7034:7040   */\n      dup2\n        /* \"#utility.yul\":7012:7041   */\n      tag_155\n      jump\t// in\n    tag_259:\n        /* \"#utility.yul\":7007:7010   */\n      dup5\n        /* \"#utility.yul\":7003:7042   */\n      add\n        /* \"#utility.yul\":6996:7042   */\n      swap2\n      pop\n        /* \"#utility.yul\":6786:7048   */\n      pop\n        /* \"#utility.yul\":6704:7048   */\n      swap3\n      swap2\n      pop\n      pop\n      jump\t// out\n        /* \"#utility.yul\":7128:8445   */\n    tag_173:\n        /* \"#utility.yul\":7251:7254   */\n      0x00\n        /* \"#utility.yul\":7287:7291   */\n      0xc0\n        /* \"#utility.yul\":7282:7285   */\n      dup4\n        /* \"#utility.yul\":7278:7292   */\n      add\n        /* \"#utility.yul\":7372:7376   */\n      0x00\n        /* \"#utility.yul\":7365:7370   */\n      dup4\n        /* \"#utility.yul\":7361:7377   */\n      add\n        /* \"#utility.yul\":7355:7378   */\n      mload\n        /* \"#utility.yul\":7391:7454   */\n      tag_261\n        /* \"#utility.yul\":7448:7452   */\n      0x00\n        /* \"#utility.yul\":7443:7446   */\n      dup7\n        /* \"#utility.yul\":7439:7453   */\n      add\n        /* \"#utility.yul\":7425:7437   */\n      dup3\n        /* \"#utility.yul\":7391:7454   */\n      tag_168\n      jump\t// in\n    tag_261:\n        /* \"#utility.yul\":7302:7464   */\n      pop\n        /* \"#utility.yul\":7548:7552   */\n      0x20\n        /* \"#utility.yul\":7541:7546   */\n      dup4\n        /* \"#utility.yul\":7537:7553   */\n      add\n        /* \"#utility.yul\":7531:7554   */\n      mload\n        /* \"#utility.yul\":7567:7630   */\n      tag_262\n        /* \"#utility.yul\":7624:7628   */\n      0x20\n        /* \"#utility.yul\":7619:7622   */\n      dup7\n        /* \"#utility.yul\":7615:7629   */\n      add\n        /* \"#utility.yul\":7601:7613   */\n      dup3\n        /* \"#utility.yul\":7567:7630   */\n      tag_169\n      jump\t// in\n    tag_262:\n        /* \"#utility.yul\":7474:7640   */\n      pop\n        /* \"#utility.yul\":7728:7732   */\n      0x40\n        /* \"#utility.yul\":7721:7726   */\n      dup4\n        /* \"#utility.yul\":7717:7733   */\n      add\n        /* \"#utility.yul\":7711:7734   */\n      mload\n        /* \"#utility.yul\":7747:7806   */\n      tag_263\n        /* \"#utility.yul\":7800:7804   */\n      0x40\n        /* \"#utility.yul\":7795:7798   */\n      dup7\n        /* \"#utility.yul\":7791:7805   */\n      add\n        /* \"#utility.yul\":7777:7789   */\n      dup3\n        /* \"#utility.yul\":7747:7806   */\n      tag_170\n      jump\t// in\n    tag_263:\n        /* \"#utility.yul\":7650:7816   */\n      pop\n        /* \"#utility.yul\":7904:7908   */\n      0x60\n        /* \"#utility.yul\":7897:7902   */\n      dup4\n        /* \"#utility.yul\":7893:7909   */\n      add\n        /* \"#utility.yul\":7887:7910   */\n      mload\n        /* \"#utility.yul\":7923:7982   */\n      tag_264\n        /* \"#utility.yul\":7976:7980   */\n      0x60\n        /* \"#utility.yul\":7971:7974   */\n      dup7\n        /* \"#utility.yul\":7967:7981   */\n      add\n        /* \"#utility.yul\":7953:7965   */\n      dup3\n        /* \"#utility.yul\":7923:7982   */\n      tag_170\n      jump\t// in\n    tag_264:\n        /* \"#utility.yul\":7826:7992   */\n      pop\n        /* \"#utility.yul\":8075:8079   */\n      0x80\n        /* \"#utility.yul\":8068:8073   */\n      dup4\n        /* \"#utility.yul\":8064:8080   */\n      add\n        /* \"#utility.yul\":8058:8081   */\n      mload\n        /* \"#utility.yul\":8128:8131   */\n      dup5\n        /* \"#utility.yul\":8122:8126   */\n      dup3\n        /* \"#utility.yul\":8118:8132   */\n      sub\n        /* \"#utility.yul\":8111:8115   */\n      0x80\n        /* \"#utility.yul\":8106:8109   */\n      dup7\n        /* \"#utility.yul\":8102:8116   */\n      add\n        /* \"#utility.yul\":8095:8133   */\n      mstore\n        /* \"#utility.yul\":8154:8227   */\n      tag_265\n        /* \"#utility.yul\":8222:8226   */\n      dup3\n        /* \"#utility.yul\":8208:8220   */\n      dup3\n        /* \"#utility.yul\":8154:8227   */\n      tag_172\n      jump\t// in\n    tag_265:\n        /* \"#utility.yul\":8146:8227   */\n      swap2\n      pop\n        /* \"#utility.yul\":8002:8238   */\n      pop\n        /* \"#utility.yul\":8326:8330   */\n      0xa0\n        /* \"#utility.yul\":8319:8324   */\n      dup4\n        /* \"#utility.yul\":8315:8331   */\n      add\n        /* \"#utility.yul\":8309:8332   */\n      mload\n        /* \"#utility.yul\":8345:8408   */\n      tag_266\n        /* \"#utility.yul\":8402:8406   */\n      0xa0\n        /* \"#utility.yul\":8397:8400   */\n      dup7\n        /* \"#utility.yul\":8393:8407   */\n      add\n        /* \"#utility.yul\":8379:8391   */\n      dup3\n        /* \"#utility.yul\":8345:8408   */\n      tag_168\n      jump\t// in\n    tag_266:\n        /* \"#utility.yul\":8248:8418   */\n      pop\n        /* \"#utility.yul\":8435:8439   */\n      dup1\n        /* \"#utility.yul\":8428:8439   */\n      swap2\n      pop\n        /* \"#utility.yul\":7256:8445   */\n      pop\n        /* \"#utility.yul\":7128:8445   */\n      swap3\n      swap2\n      pop\n      pop\n      jump\t// out\n        /* \"#utility.yul\":8451:8832   */\n    tag_58:\n        /* \"#utility.yul\":8598:8602   */\n      0x00\n        /* \"#utility.yul\":8636:8638   */\n      0x20\n        /* \"#utility.yul\":8625:8634   */\n      dup3\n        /* \"#utility.yul\":8621:8639   */\n      add\n        /* \"#utility.yul\":8613:8639   */\n      swap1\n      pop\n        /* \"#utility.yul\":8685:8694   */\n      dup2\n        /* \"#utility.yul\":8679:8683   */\n      dup2\n        /* \"#utility.yul\":8675:8695   */\n      sub\n        /* \"#utility.yul\":8671:8672   */\n      0x00\n        /* \"#utility.yul\":8660:8669   */\n      dup4\n        /* \"#utility.yul\":8656:8673   */\n      add\n        /* \"#utility.yul\":8649:8696   */\n      mstore\n        /* \"#utility.yul\":8713:8825   */\n      tag_268\n        /* \"#utility.yul\":8820:8824   */\n      dup2\n        /* \"#utility.yul\":8811:8817   */\n      dup5\n        /* \"#utility.yul\":8713:8825   */\n      tag_173\n      jump\t// in\n    tag_268:\n        /* \"#utility.yul\":8705:8825   */\n      swap1\n      pop\n        /* \"#utility.yul\":8451:8832   */\n      swap3\n      swap2\n      pop\n      pop\n      jump\t// out\n        /* \"#utility.yul\":8838:9308   */\n    tag_68:\n        /* \"#utility.yul\":8904:8910   */\n      0x00\n        /* \"#utility.yul\":8912:8918   */\n      dup1\n        /* \"#utility.yul\":8961:8963   */\n      0x40\n        /* \"#utility.yul\":8949:8958   */\n      dup4\n        /* \"#utility.yul\":8940:8947   */\n      dup6\n        /* \"#utility.yul\":8936:8959   */\n      sub\n        /* \"#utility.yul\":8932:8964   */\n      slt\n        /* \"#utility.yul\":8929:9048   */\n      iszero\n      tag_270\n      jumpi\n        /* \"#utility.yul\":8967:9046   */\n      tag_271\n      tag_147\n      jump\t// in\n    tag_271:\n        /* \"#utility.yul\":8929:9048   */\n    tag_270:\n        /* \"#utility.yul\":9087:9088   */\n      0x00\n        /* \"#utility.yul\":9112:9165   */\n      tag_272\n        /* \"#utility.yul\":9157:9164   */\n      dup6\n        /* \"#utility.yul\":9148:9154   */\n      dup3\n        /* \"#utility.yul\":9137:9146   */\n      dup7\n        /* \"#utility.yul\":9133:9155   */\n      add\n        /* \"#utility.yul\":9112:9165   */\n      tag_160\n      jump\t// in\n    tag_272:\n        /* \"#utility.yul\":9102:9165   */\n      swap3\n      pop\n        /* \"#utility.yul\":9058:9175   */\n      pop\n        /* \"#utility.yul\":9214:9216   */\n      0x20\n        /* \"#utility.yul\":9240:9291   */\n      tag_273\n        /* \"#utility.yul\":9283:9290   */\n      dup6\n        /* \"#utility.yul\":9274:9280   */\n      dup3\n        /* \"#utility.yul\":9263:9272   */\n      dup7\n        /* \"#utility.yul\":9259:9281   */\n      add\n        /* \"#utility.yul\":9240:9291   */\n      tag_151\n      jump\t// in\n    tag_273:\n        /* \"#utility.yul\":9230:9291   */\n      swap2\n      pop\n        /* \"#utility.yul\":9185:9301   */\n      pop\n        /* \"#utility.yul\":8838:9308   */\n      swap3\n      pop\n      swap3\n      swap1\n      pop\n      jump\t// out\n        /* \"#utility.yul\":9314:9494   */\n    tag_174:\n        /* \"#utility.yul\":9362:9439   */\n      0x4e487b7100000000000000000000000000000000000000000000000000000000\n        /* \"#utility.yul\":9359:9360   */\n      0x00\n        /* \"#utility.yul\":9352:9440   */\n      mstore\n        /* \"#utility.yul\":9459:9463   */\n      0x22\n        /* \"#utility.yul\":9456:9457   */\n      0x04\n        /* \"#utility.yul\":9449:9464   */\n      mstore\n        /* \"#utility.yul\":9483:9487   */\n      0x24\n        /* \"#utility.yul\":9480:9481   */\n      0x00\n        /* \"#utility.yul\":9473:9488   */\n      revert\n        /* \"#utility.yul\":9500:9820   */\n    tag_73:\n        /* \"#utility.yul\":9544:9550   */\n      0x00\n        /* \"#utility.yul\":9581:9582   */\n      0x02\n        /* \"#utility.yul\":9575:9579   */\n      dup3\n        /* \"#utility.yul\":9571:9583   */\n      div\n        /* \"#utility.yul\":9561:9583   */\n      swap1\n      pop\n        /* \"#utility.yul\":9628:9629   */\n      0x01\n        /* \"#utility.yul\":9622:9626   */\n      dup3\n        /* \"#utility.yul\":9618:9630   */\n      and\n        /* \"#utility.yul\":9649:9667   */\n      dup1\n        /* \"#utility.yul\":9639:9720   */\n      tag_276\n      jumpi\n        /* \"#utility.yul\":9705:9709   */\n      0x7f\n        /* \"#utility.yul\":9697:9703   */\n      dup3\n        /* \"#utility.yul\":9693:9710   */\n      and\n        /* \"#utility.yul\":9683:9710   */\n      swap2\n      pop\n        /* \"#utility.yul\":9639:9720   */\n    tag_276:\n        /* \"#utility.yul\":9767:9769   */\n      0x20\n        /* \"#utility.yul\":9759:9765   */\n      dup3\n        /* \"#utility.yul\":9756:9770   */\n      lt\n        /* \"#utility.yul\":9736:9754   */\n      dup2\n        /* \"#utility.yul\":9733:9771   */\n      eq\n        /* \"#utility.yul\":9730:9814   */\n      iszero\n      tag_277\n      jumpi\n        /* \"#utility.yul\":9786:9804   */\n      tag_278\n      tag_174\n      jump\t// in\n    tag_278:\n        /* \"#utility.yul\":9730:9814   */\n    tag_277:\n        /* \"#utility.yul\":9551:9820   */\n      pop\n        /* \"#utility.yul\":9500:9820   */\n      swap2\n      swap1\n      pop\n      jump\t// out\n        /* \"#utility.yul\":9826:10006   */\n    tag_175:\n        /* \"#utility.yul\":9874:9951   */\n      0x4e487b7100000000000000000000000000000000000000000000000000000000\n        /* \"#utility.yul\":9871:9872   */\n      0x00\n        /* \"#utility.yul\":9864:9952   */\n      mstore\n        /* \"#utility.yul\":9971:9975   */\n      0x11\n        /* \"#utility.yul\":9968:9969   */\n      0x04\n        /* \"#utility.yul\":9961:9976   */\n      mstore\n        /* \"#utility.yul\":9995:9999   */\n      0x24\n        /* \"#utility.yul\":9992:9993   */\n      0x00\n        /* \"#utility.yul\":9985:10000   */\n      revert\n        /* \"#utility.yul\":10012:10317   */\n    tag_94:\n        /* \"#utility.yul\":10052:10055   */\n      0x00\n        /* \"#utility.yul\":10071:10091   */\n      tag_281\n        /* \"#utility.yul\":10089:10090   */\n      dup3\n        /* \"#utility.yul\":10071:10091   */\n      tag_167\n      jump\t// in\n    tag_281:\n        /* \"#utility.yul\":10066:10091   */\n      swap2\n      pop\n        /* \"#utility.yul\":10105:10125   */\n      tag_282\n        /* \"#utility.yul\":10123:10124   */\n      dup4\n        /* \"#utility.yul\":10105:10125   */\n      tag_167\n      jump\t// in\n    tag_282:\n        /* \"#utility.yul\":10100:10125   */\n      swap3\n      pop\n        /* \"#utility.yul\":10259:10260   */\n      dup3\n        /* \"#utility.yul\":10191:10257   */\n      0xffffffffffffffffffffffffffffffffffffffffffffffffffffffffffffffff\n        /* \"#utility.yul\":10187:10261   */\n      sub\n        /* \"#utility.yul\":10184:10185   */\n      dup3\n        /* \"#utility.yul\":10181:10262   */\n      gt\n        /* \"#utility.yul\":10178:10285   */\n      iszero\n      tag_283\n      jumpi\n        /* \"#utility.yul\":10265:10283   */\n      tag_284\n      tag_175\n      jump\t// in\n    tag_284:\n        /* \"#utility.yul\":10178:10285   */\n    tag_283:\n        /* \"#utility.yul\":10309:10310   */\n      dup3\n        /* \"#utility.yul\":10306:10307   */\n      dup3\n        /* \"#utility.yul\":10302:10311   */\n      add\n        /* \"#utility.yul\":10295:10311   */\n      swap1\n      pop\n        /* \"#utility.yul\":10012:10317   */\n      swap3\n      swap2\n      pop\n      pop\n      jump\t// out\n\n    auxdata: 0xa26469706673582212204b16b0d2d4f745866ccb355ec2ecad808b4ba075face434c8434e9108edc3be364736f6c634300080a0033\n}\n",
				"bytecode": {
					"linkReferences": {},
					"object": "60806040523480156200001157600080fd5b50336000806101000a81548173ffffffffffffffffffffffffffffffffffffffff021916908373ffffffffffffffffffffffffffffffffffffffff16021790555060018060003373ffffffffffffffffffffffffffffffffffffffff1673ffffffffffffffffffffffffffffffffffffffff16815260200190815260200160002060006101000a81548160ff02191690831515021790555060016002819055506040518060400160405280600381526020017f5345420000000000000000000000000000000000000000000000000000000000815250600360008060ff168152602001908152602001600020908051906020019062000112929190620001df565b506040518060400160405280600381526020017f424542000000000000000000000000000000000000000000000000000000000081525060036000600160ff168152602001908152602001600020908051906020019062000175929190620001df565b506040518060400160405280600381526020017f414942000000000000000000000000000000000000000000000000000000000081525060036000600260ff1681526020019081526020016000209080519060200190620001d8929190620001df565b50620002f4565b828054620001ed90620002be565b90600052602060002090601f0160209004810192826200021157600085556200025d565b82601f106200022c57805160ff19168380011785556200025d565b828001600101855582156200025d579182015b828111156200025c5782518255916020019190600101906200023f565b5b5090506200026c919062000270565b5090565b5b808211156200028b57600081600090555060010162000271565b5090565b7f4e487b7100000000000000000000000000000000000000000000000000000000600052602260045260246000fd5b60006002820490506001821680620002d757607f821691505b60208210811415620002ee57620002ed6200028f565b5b50919050565b61148280620003046000396000f3fe608060405234801561001057600080fd5b50600436106100b45760003560e01c8063a30e2e5411610071578063a30e2e54146101d9578063b4c18e3214610209578063ccdad14b14610239578063f2fde38b14610269578063fe4fa40d14610285578063ff63e7a8146102b5576100b4565b806305183a29146100b957806320694db0146100e957806334becfb41461011957806338a7543e14610149578063617ae36414610179578063877b9a67146101a9575b600080fd5b6100d360048036038101906100ce9190610f18565b6102e5565b6040516100e09190610fde565b60405180910390f35b61010360048036038101906100fe919061105e565b610390565b60405161011091906110a6565b60405180910390f35b610133600480360381019061012e919061105e565b6104eb565b60405161014091906110a6565b60405180910390f35b610163600480360381019061015e919061105e565b610647565b60405161017091906110a6565b60405180910390f35b610193600480360381019061018e9190611126565b610667565b6040516101a091906110a6565b60405180910390f35b6101c360048036038101906101be919061105e565b6107a3565b6040516101d091906110a6565b60405180910390f35b6101f360048036038101906101ee919061119a565b6107f9565b60405161020091906110a6565b60405180910390f35b610223600480360381019061021e919061119a565b61087a565b60405161023091906110a6565b60405180910390f35b610253600480360381019061024e919061105e565b6108fb565b6040516102609190611304565b60405180910390f35b610283600480360381019061027e919061105e565b610a8a565b005b61029f600480360381019061029a9190610f18565b610c32565b6040516102ac9190610fde565b60405180910390f35b6102cf60048036038101906102ca9190611326565b610cdd565b6040516102dc91906110a6565b60405180910390f35b6060600460008360ff1660ff168152602001908152602001600020805461030b90611395565b80601f016020809104026020016040519081016040528092919081815260200182805461033790611395565b80156103845780601f1061035957610100808354040283529160200191610384565b820191906000526020600020905b81548152906001019060200180831161036757829003601f168201915b50505050509050919050565b60008060009054906101000a900473ffffffffffffffffffffffffffffffffffffffff1673ffffffffffffffffffffffffffffffffffffffff163373ffffffffffffffffffffffffffffffffffffffff16146103eb57600080fd5b60001515600160008473ffffffffffffffffffffffffffffffffffffffff1673ffffffffffffffffffffffffffffffffffffffff16815260200190815260200160002060009054906101000a900460ff1615151461044857600080fd5b60018060008473ffffffffffffffffffffffffffffffffffffffff1673ffffffffffffffffffffffffffffffffffffffff16815260200190815260200160002060006101000a81548160ff0219169083151502179055508173ffffffffffffffffffffffffffffffffffffffff167f27aa0506e4da65b95bd4f61c697076f8c7dcb69b2c0937d11efa9ceaa3bf5a9560405160405180910390a260019050919050565b60008060009054906101000a900473ffffffffffffffffffffffffffffffffffffffff1673ffffffffffffffffffffffffffffffffffffffff163373ffffffffffffffffffffffffffffffffffffffff161461054657600080fd5b60011515600160008473ffffffffffffffffffffffffffffffffffffffff1673ffffffffffffffffffffffffffffffffffffffff16815260200190815260200160002060009054906101000a900460ff161515146105a357600080fd5b6000600160008473ffffffffffffffffffffffffffffffffffffffff1673ffffffffffffffffffffffffffffffffffffffff16815260200190815260200160002060006101000a81548160ff0219169083151502179055508173ffffffffffffffffffffffffffffffffffffffff167fee5d7d94405e51eec1bd7f59c36572787d25afb6c85e3a897bb782f08aac7d4460405160405180910390a260019050919050565b60016020528060005260406000206000915054906101000a900460ff1681565b600060011515610676336107a3565b15151461068257600080fd5b6000600560008773ffffffffffffffffffffffffffffffffffffffff1673ffffffffffffffffffffffffffffffffffffffff168152602001908152602001600020905060008160000154146106d657600080fd5b6002548160000181905550338160010160006101000a81548173ffffffffffffffffffffffffffffffffffffffff021916908373ffffffffffffffffffffffffffffffffffffffff160217905550848160010160146101000a81548160ff021916908360ff16021790555060008160010160156101000a81548160ff021916908360ff1602179055508383826002019190610772929190610de0565b5042816003018190555060016002600082825461078f91906113f6565b925050819055506001915050949350505050565b6000600160008373ffffffffffffffffffffffffffffffffffffffff1673ffffffffffffffffffffffffffffffffffffffff16815260200190815260200160002060009054906101000a900460ff169050919050565b600060011515610808336107a3565b15151461081457600080fd5b6000600460008660ff1660ff168152602001908152602001600020805461083a90611395565b90501461084657600080fd5b8282600460008760ff1660ff168152602001908152602001600020919061086e929190610de0565b50600190509392505050565b600060011515610889336107a3565b15151461089557600080fd5b6000600360008660ff1660ff16815260200190815260200160002080546108bb90611395565b9050146108c757600080fd5b8282600360008760ff1660ff16815260200190815260200160002091906108ef929190610de0565b50600190509392505050565b610903610e66565b600560008373ffffffffffffffffffffffffffffffffffffffff1673ffffffffffffffffffffffffffffffffffffffff1681526020019081526020016000206040518060c0016040529081600082015481526020016001820160009054906101000a900473ffffffffffffffffffffffffffffffffffffffff1673ffffffffffffffffffffffffffffffffffffffff1673ffffffffffffffffffffffffffffffffffffffff1681526020016001820160149054906101000a900460ff1660ff1660ff1681526020016001820160159054906101000a900460ff1660ff1660ff1681526020016002820180546109f790611395565b80601f0160208091040260200160405190810160405280929190818152602001828054610a2390611395565b8015610a705780601f10610a4557610100808354040283529160200191610a70565b820191906000526020600020905b815481529060010190602001808311610a5357829003601f168201915b505050505081526020016003820154815250509050919050565b60008054906101000a900473ffffffffffffffffffffffffffffffffffffffff1673ffffffffffffffffffffffffffffffffffffffff163373ffffffffffffffffffffffffffffffffffffffff1614610ae257600080fd5b60008054906101000a900473ffffffffffffffffffffffffffffffffffffffff1673ffffffffffffffffffffffffffffffffffffffff168173ffffffffffffffffffffffffffffffffffffffff161415610b3b57600080fd5b600073ffffffffffffffffffffffffffffffffffffffff168173ffffffffffffffffffffffffffffffffffffffff161415610b7557600080fd5b806000806101000a81548173ffffffffffffffffffffffffffffffffffffffff021916908373ffffffffffffffffffffffffffffffffffffffff1602179055508073ffffffffffffffffffffffffffffffffffffffff1660008054906101000a900473ffffffffffffffffffffffffffffffffffffffff1673ffffffffffffffffffffffffffffffffffffffff167f2ae143016adc0aa482e6ba5d9a350f3e3122aeb005ca4bf47d1d7b8221bce47260405160405180910390a350565b6060600360008360ff1660ff1681526020019081526020016000208054610c5890611395565b80601f0160208091040260200160405190810160405280929190818152602001828054610c8490611395565b8015610cd15780601f10610ca657610100808354040283529160200191610cd1565b820191906000526020600020905b815481529060010190602001808311610cb457829003601f168201915b50505050509050919050565b600060011515610cec336107a3565b151514610cf857600080fd5b6000600560008573ffffffffffffffffffffffffffffffffffffffff1673ffffffffffffffffffffffffffffffffffffffff168152602001908152602001600020600001541415610d4857600080fd5b6000600460008460ff1660ff1681526020019081526020016000208054610d6e90611395565b90501415610d7b57600080fd5b81600560008573ffffffffffffffffffffffffffffffffffffffff1673ffffffffffffffffffffffffffffffffffffffff16815260200190815260200160002060010160156101000a81548160ff021916908360ff1602179055506001905092915050565b828054610dec90611395565b90600052602060002090601f016020900481019282610e0e5760008555610e55565b82601f10610e2757803560ff1916838001178555610e55565b82800160010185558215610e55579182015b82811115610e54578235825591602001919060010190610e39565b5b509050610e629190610eb8565b5090565b6040518060c0016040528060008152602001600073ffffffffffffffffffffffffffffffffffffffff168152602001600060ff168152602001600060ff16815260200160608152602001600081525090565b5b80821115610ed1576000816000905550600101610eb9565b5090565b600080fd5b600080fd5b600060ff82169050919050565b610ef581610edf565b8114610f0057600080fd5b50565b600081359050610f1281610eec565b92915050565b600060208284031215610f2e57610f2d610ed5565b5b6000610f3c84828501610f03565b91505092915050565b600081519050919050565b600082825260208201905092915050565b60005b83811015610f7f578082015181840152602081019050610f64565b83811115610f8e576000848401525b50505050565b6000601f19601f8301169050919050565b6000610fb082610f45565b610fba8185610f50565b9350610fca818560208601610f61565b610fd381610f94565b840191505092915050565b60006020820190508181036000830152610ff88184610fa5565b905092915050565b600073ffffffffffffffffffffffffffffffffffffffff82169050919050565b600061102b82611000565b9050919050565b61103b81611020565b811461104657600080fd5b50565b60008135905061105881611032565b92915050565b60006020828403121561107457611073610ed5565b5b600061108284828501611049565b91505092915050565b60008115159050919050565b6110a08161108b565b82525050565b60006020820190506110bb6000830184611097565b92915050565b600080fd5b600080fd5b600080fd5b60008083601f8401126110e6576110e56110c1565b5b8235905067ffffffffffffffff811115611103576111026110c6565b5b60208301915083600182028301111561111f5761111e6110cb565b5b9250929050565b600080600080606085870312156111405761113f610ed5565b5b600061114e87828801611049565b945050602061115f87828801610f03565b935050604085013567ffffffffffffffff8111156111805761117f610eda565b5b61118c878288016110d0565b925092505092959194509250565b6000806000604084860312156111b3576111b2610ed5565b5b60006111c186828701610f03565b935050602084013567ffffffffffffffff8111156111e2576111e1610eda565b5b6111ee868287016110d0565b92509250509250925092565b6000819050919050565b61120d816111fa565b82525050565b61121c81611020565b82525050565b61122b81610edf565b82525050565b600082825260208201905092915050565b600061124d82610f45565b6112578185611231565b9350611267818560208601610f61565b61127081610f94565b840191505092915050565b600060c0830160008301516112936000860182611204565b5060208301516112a66020860182611213565b5060408301516112b96040860182611222565b5060608301516112cc6060860182611222565b50608083015184820360808601526112e48282611242565b91505060a08301516112f960a0860182611204565b508091505092915050565b6000602082019050818103600083015261131e818461127b565b905092915050565b6000806040838503121561133d5761133c610ed5565b5b600061134b85828601611049565b925050602061135c85828601610f03565b9150509250929050565b7f4e487b7100000000000000000000000000000000000000000000000000000000600052602260045260246000fd5b600060028204905060018216806113ad57607f821691505b602082108114156113c1576113c0611366565b5b50919050565b7f4e487b7100000000000000000000000000000000000000000000000000000000600052601160045260246000fd5b6000611401826111fa565b915061140c836111fa565b9250827fffffffffffffffffffffffffffffffffffffffffffffffffffffffffffffffff03821115611441576114406113c7565b5b82820190509291505056fea26469706673582212204b16b0d2d4f745866ccb355ec2ecad808b4ba075face434c8434e9108edc3be364736f6c634300080a0033",
					"opcodes": "PUSH1 0x80 PUSH1 0x40 MSTORE CALLVALUE DUP1 ISZERO PUSH3 0x11 JUMPI PUSH1 0x0 DUP1 REVERT JUMPDEST POP CALLER PUSH1 0x0 DUP1 PUSH2 0x100 EXP DUP2 SLOAD DUP2 PUSH20 0xFFFFFFFFFFFFFFFFFFFFFFFFFFFFFFFFFFFFFFFF MUL NOT AND SWAP1 DUP4 PUSH20 0xFFFFFFFFFFFFFFFFFFFFFFFFFFFFFFFFFFFFFFFF AND MUL OR SWAP1 SSTORE POP PUSH1 0x1 DUP1 PUSH1 0x0 CALLER PUSH20 0xFFFFFFFFFFFFFFFFFFFFFFFFFFFFFFFFFFFFFFFF AND PUSH20 0xFFFFFFFFFFFFFFFFFFFFFFFFFFFFFFFFFFFFFFFF AND DUP2 MSTORE PUSH1 0x20 ADD SWAP1 DUP2 MSTORE PUSH1 0x20 ADD PUSH1 0x0 KECCAK256 PUSH1 0x0 PUSH2 0x100 EXP DUP2 SLOAD DUP2 PUSH1 0xFF MUL NOT AND SWAP1 DUP4 ISZERO ISZERO MUL OR SWAP1 SSTORE POP PUSH1 0x1 PUSH1 0x2 DUP2 SWAP1 SSTORE POP PUSH1 0x40 MLOAD DUP1 PUSH1 0x40 ADD PUSH1 0x40 MSTORE DUP1 PUSH1 0x3 DUP2 MSTORE PUSH1 0x20 ADD PUSH32 0x5345420000000000000000000000000000000000000000000000000000000000 DUP2 MSTORE POP PUSH1 0x3 PUSH1 0x0 DUP1 PUSH1 0xFF AND DUP2 MSTORE PUSH1 0x20 ADD SWAP1 DUP2 MSTORE PUSH1 0x20 ADD PUSH1 0x0 KECCAK256 SWAP1 DUP1 MLOAD SWAP1 PUSH1 0x20 ADD SWAP1 PUSH3 0x112 SWAP3 SWAP2 SWAP1 PUSH3 0x1DF JUMP JUMPDEST POP PUSH1 0x40 MLOAD DUP1 PUSH1 0x40 ADD PUSH1 0x40 MSTORE DUP1 PUSH1 0x3 DUP2 MSTORE PUSH1 0x20 ADD PUSH32 0x4245420000000000000000000000000000000000000000000000000000000000 DUP2 MSTORE POP PUSH1 0x3 PUSH1 0x0 PUSH1 0x1 PUSH1 0xFF AND DUP2 MSTORE PUSH1 0x20 ADD SWAP1 DUP2 MSTORE PUSH1 0x20 ADD PUSH1 0x0 KECCAK256 SWAP1 DUP1 MLOAD SWAP1 PUSH1 0x20 ADD SWAP1 PUSH3 0x175 SWAP3 SWAP2 SWAP1 PUSH3 0x1DF JUMP JUMPDEST POP PUSH1 0x40 MLOAD DUP1 PUSH1 0x40 ADD PUSH1 0x40 MSTORE DUP1 PUSH1 0x3 DUP2 MSTORE PUSH1 0x20 ADD PUSH32 0x4149420000000000000000000000000000000000000000000000000000000000 DUP2 MSTORE POP PUSH1 0x3 PUSH1 0x0 PUSH1 0x2 PUSH1 0xFF AND DUP2 MSTORE PUSH1 0x20 ADD SWAP1 DUP2 MSTORE PUSH1 0x20 ADD PUSH1 0x0 KECCAK256 SWAP1 DUP1 MLOAD SWAP1 PUSH1 0x20 ADD SWAP1 PUSH3 0x1D8 SWAP3 SWAP2 SWAP1 PUSH3 0x1DF JUMP JUMPDEST POP PUSH3 0x2F4 JUMP JUMPDEST DUP3 DUP1 SLOAD PUSH3 0x1ED SWAP1 PUSH3 0x2BE JUMP JUMPDEST SWAP1 PUSH1 0x0 MSTORE PUSH1 0x20 PUSH1 0x0 KECCAK256 SWAP1 PUSH1 0x1F ADD PUSH1 0x20 SWAP1 DIV DUP2 ADD SWAP3 DUP3 PUSH3 0x211 JUMPI PUSH1 0x0 DUP6 SSTORE PUSH3 0x25D JUMP JUMPDEST DUP3 PUSH1 0x1F LT PUSH3 0x22C JUMPI DUP1 MLOAD PUSH1 0xFF NOT AND DUP4 DUP1 ADD OR DUP6 SSTORE PUSH3 0x25D JUMP JUMPDEST DUP3 DUP1 ADD PUSH1 0x1 ADD DUP6 SSTORE DUP3 ISZERO PUSH3 0x25D JUMPI SWAP2 DUP3 ADD JUMPDEST DUP3 DUP2 GT ISZERO PUSH3 0x25C JUMPI DUP3 MLOAD DUP3 SSTORE SWAP2 PUSH1 0x20 ADD SWAP2 SWAP1 PUSH1 0x1 ADD SWAP1 PUSH3 0x23F JUMP JUMPDEST JUMPDEST POP SWAP1 POP PUSH3 0x26C SWAP2 SWAP1 PUSH3 0x270 JUMP JUMPDEST POP SWAP1 JUMP JUMPDEST JUMPDEST DUP1 DUP3 GT ISZERO PUSH3 0x28B JUMPI PUSH1 0x0 DUP2 PUSH1 0x0 SWAP1 SSTORE POP PUSH1 0x1 ADD PUSH3 0x271 JUMP JUMPDEST POP SWAP1 JUMP JUMPDEST PUSH32 0x4E487B7100000000000000000000000000000000000000000000000000000000 PUSH1 0x0 MSTORE PUSH1 0x22 PUSH1 0x4 MSTORE PUSH1 0x24 PUSH1 0x0 REVERT JUMPDEST PUSH1 0x0 PUSH1 0x2 DUP3 DIV SWAP1 POP PUSH1 0x1 DUP3 AND DUP1 PUSH3 0x2D7 JUMPI PUSH1 0x7F DUP3 AND SWAP2 POP JUMPDEST PUSH1 0x20 DUP3 LT DUP2 EQ ISZERO PUSH3 0x2EE JUMPI PUSH3 0x2ED PUSH3 0x28F JUMP JUMPDEST JUMPDEST POP SWAP2 SWAP1 POP JUMP JUMPDEST PUSH2 0x1482 DUP1 PUSH3 0x304 PUSH1 0x0 CODECOPY PUSH1 0x0 RETURN INVALID PUSH1 0x80 PUSH1 0x40 MSTORE CALLVALUE DUP1 ISZERO PUSH2 0x10 JUMPI PUSH1 0x0 DUP1 REVERT JUMPDEST POP PUSH1 0x4 CALLDATASIZE LT PUSH2 0xB4 JUMPI PUSH1 0x0 CALLDATALOAD PUSH1 0xE0 SHR DUP1 PUSH4 0xA30E2E54 GT PUSH2 0x71 JUMPI DUP1 PUSH4 0xA30E2E54 EQ PUSH2 0x1D9 JUMPI DUP1 PUSH4 0xB4C18E32 EQ PUSH2 0x209 JUMPI DUP1 PUSH4 0xCCDAD14B EQ PUSH2 0x239 JUMPI DUP1 PUSH4 0xF2FDE38B EQ PUSH2 0x269 JUMPI DUP1 PUSH4 0xFE4FA40D EQ PUSH2 0x285 JUMPI DUP1 PUSH4 0xFF63E7A8 EQ PUSH2 0x2B5 JUMPI PUSH2 0xB4 JUMP JUMPDEST DUP1 PUSH4 0x5183A29 EQ PUSH2 0xB9 JUMPI DUP1 PUSH4 0x20694DB0 EQ PUSH2 0xE9 JUMPI DUP1 PUSH4 0x34BECFB4 EQ PUSH2 0x119 JUMPI DUP1 PUSH4 0x38A7543E EQ PUSH2 0x149 JUMPI DUP1 PUSH4 0x617AE364 EQ PUSH2 0x179 JUMPI DUP1 PUSH4 0x877B9A67 EQ PUSH2 0x1A9 JUMPI JUMPDEST PUSH1 0x0 DUP1 REVERT JUMPDEST PUSH2 0xD3 PUSH1 0x4 DUP1 CALLDATASIZE SUB DUP2 ADD SWAP1 PUSH2 0xCE SWAP2 SWAP1 PUSH2 0xF18 JUMP JUMPDEST PUSH2 0x2E5 JUMP JUMPDEST PUSH1 0x40 MLOAD PUSH2 0xE0 SWAP2 SWAP1 PUSH2 0xFDE JUMP JUMPDEST PUSH1 0x40 MLOAD DUP1 SWAP2 SUB SWAP1 RETURN JUMPDEST PUSH2 0x103 PUSH1 0x4 DUP1 CALLDATASIZE SUB DUP2 ADD SWAP1 PUSH2 0xFE SWAP2 SWAP1 PUSH2 0x105E JUMP JUMPDEST PUSH2 0x390 JUMP JUMPDEST PUSH1 0x40 MLOAD PUSH2 0x110 SWAP2 SWAP1 PUSH2 0x10A6 JUMP JUMPDEST PUSH1 0x40 MLOAD DUP1 SWAP2 SUB SWAP1 RETURN JUMPDEST PUSH2 0x133 PUSH1 0x4 DUP1 CALLDATASIZE SUB DUP2 ADD SWAP1 PUSH2 0x12E SWAP2 SWAP1 PUSH2 0x105E JUMP JUMPDEST PUSH2 0x4EB JUMP JUMPDEST PUSH1 0x40 MLOAD PUSH2 0x140 SWAP2 SWAP1 PUSH2 0x10A6 JUMP JUMPDEST PUSH1 0x40 MLOAD DUP1 SWAP2 SUB SWAP1 RETURN JUMPDEST PUSH2 0x163 PUSH1 0x4 DUP1 CALLDATASIZE SUB DUP2 ADD SWAP1 PUSH2 0x15E SWAP2 SWAP1 PUSH2 0x105E JUMP JUMPDEST PUSH2 0x647 JUMP JUMPDEST PUSH1 0x40 MLOAD PUSH2 0x170 SWAP2 SWAP1 PUSH2 0x10A6 JUMP JUMPDEST PUSH1 0x40 MLOAD DUP1 SWAP2 SUB SWAP1 RETURN JUMPDEST PUSH2 0x193 PUSH1 0x4 DUP1 CALLDATASIZE SUB DUP2 ADD SWAP1 PUSH2 0x18E SWAP2 SWAP1 PUSH2 0x1126 JUMP JUMPDEST PUSH2 0x667 JUMP JUMPDEST PUSH1 0x40 MLOAD PUSH2 0x1A0 SWAP2 SWAP1 PUSH2 0x10A6 JUMP JUMPDEST PUSH1 0x40 MLOAD DUP1 SWAP2 SUB SWAP1 RETURN JUMPDEST PUSH2 0x1C3 PUSH1 0x4 DUP1 CALLDATASIZE SUB DUP2 ADD SWAP1 PUSH2 0x1BE SWAP2 SWAP1 PUSH2 0x105E JUMP JUMPDEST PUSH2 0x7A3 JUMP JUMPDEST PUSH1 0x40 MLOAD PUSH2 0x1D0 SWAP2 SWAP1 PUSH2 0x10A6 JUMP JUMPDEST PUSH1 0x40 MLOAD DUP1 SWAP2 SUB SWAP1 RETURN JUMPDEST PUSH2 0x1F3 PUSH1 0x4 DUP1 CALLDATASIZE SUB DUP2 ADD SWAP1 PUSH2 0x1EE SWAP2 SWAP1 PUSH2 0x119A JUMP JUMPDEST PUSH2 0x7F9 JUMP JUMPDEST PUSH1 0x40 MLOAD PUSH2 0x200 SWAP2 SWAP1 PUSH2 0x10A6 JUMP JUMPDEST PUSH1 0x40 MLOAD DUP1 SWAP2 SUB SWAP1 RETURN JUMPDEST PUSH2 0x223 PUSH1 0x4 DUP1 CALLDATASIZE SUB DUP2 ADD SWAP1 PUSH2 0x21E SWAP2 SWAP1 PUSH2 0x119A JUMP JUMPDEST PUSH2 0x87A JUMP JUMPDEST PUSH1 0x40 MLOAD PUSH2 0x230 SWAP2 SWAP1 PUSH2 0x10A6 JUMP JUMPDEST PUSH1 0x40 MLOAD DUP1 SWAP2 SUB SWAP1 RETURN JUMPDEST PUSH2 0x253 PUSH1 0x4 DUP1 CALLDATASIZE SUB DUP2 ADD SWAP1 PUSH2 0x24E SWAP2 SWAP1 PUSH2 0x105E JUMP JUMPDEST PUSH2 0x8FB JUMP JUMPDEST PUSH1 0x40 MLOAD PUSH2 0x260 SWAP2 SWAP1 PUSH2 0x1304 JUMP JUMPDEST PUSH1 0x40 MLOAD DUP1 SWAP2 SUB SWAP1 RETURN JUMPDEST PUSH2 0x283 PUSH1 0x4 DUP1 CALLDATASIZE SUB DUP2 ADD SWAP1 PUSH2 0x27E SWAP2 SWAP1 PUSH2 0x105E JUMP JUMPDEST PUSH2 0xA8A JUMP JUMPDEST STOP JUMPDEST PUSH2 0x29F PUSH1 0x4 DUP1 CALLDATASIZE SUB DUP2 ADD SWAP1 PUSH2 0x29A SWAP2 SWAP1 PUSH2 0xF18 JUMP JUMPDEST PUSH2 0xC32 JUMP JUMPDEST PUSH1 0x40 MLOAD PUSH2 0x2AC SWAP2 SWAP1 PUSH2 0xFDE JUMP JUMPDEST PUSH1 0x40 MLOAD DUP1 SWAP2 SUB SWAP1 RETURN JUMPDEST PUSH2 0x2CF PUSH1 0x4 DUP1 CALLDATASIZE SUB DUP2 ADD SWAP1 PUSH2 0x2CA SWAP2 SWAP1 PUSH2 0x1326 JUMP JUMPDEST PUSH2 0xCDD JUMP JUMPDEST PUSH1 0x40 MLOAD PUSH2 0x2DC SWAP2 SWAP1 PUSH2 0x10A6 JUMP JUMPDEST PUSH1 0x40 MLOAD DUP1 SWAP2 SUB SWAP1 RETURN JUMPDEST PUSH1 0x60 PUSH1 0x4 PUSH1 0x0 DUP4 PUSH1 0xFF AND PUSH1 0xFF AND DUP2 MSTORE PUSH1 0x20 ADD SWAP1 DUP2 MSTORE PUSH1 0x20 ADD PUSH1 0x0 KECCAK256 DUP1 SLOAD PUSH2 0x30B SWAP1 PUSH2 0x1395 JUMP JUMPDEST DUP1 PUSH1 0x1F ADD PUSH1 0x20 DUP1 SWAP2 DIV MUL PUSH1 0x20 ADD PUSH1 0x40 MLOAD SWAP1 DUP2 ADD PUSH1 0x40 MSTORE DUP1 SWAP3 SWAP2 SWAP1 DUP2 DUP2 MSTORE PUSH1 0x20 ADD DUP3 DUP1 SLOAD PUSH2 0x337 SWAP1 PUSH2 0x1395 JUMP JUMPDEST DUP1 ISZERO PUSH2 0x384 JUMPI DUP1 PUSH1 0x1F LT PUSH2 0x359 JUMPI PUSH2 0x100 DUP1 DUP4 SLOAD DIV MUL DUP4 MSTORE SWAP2 PUSH1 0x20 ADD SWAP2 PUSH2 0x384 JUMP JUMPDEST DUP3 ADD SWAP2 SWAP1 PUSH1 0x0 MSTORE PUSH1 0x20 PUSH1 0x0 KECCAK256 SWAP1 JUMPDEST DUP2 SLOAD DUP2 MSTORE SWAP1 PUSH1 0x1 ADD SWAP1 PUSH1 0x20 ADD DUP1 DUP4 GT PUSH2 0x367 JUMPI DUP3 SWAP1 SUB PUSH1 0x1F AND DUP3 ADD SWAP2 JUMPDEST POP POP POP POP POP SWAP1 POP SWAP2 SWAP1 POP JUMP JUMPDEST PUSH1 0x0 DUP1 PUSH1 0x0 SWAP1 SLOAD SWAP1 PUSH2 0x100 EXP SWAP1 DIV PUSH20 0xFFFFFFFFFFFFFFFFFFFFFFFFFFFFFFFFFFFFFFFF AND PUSH20 0xFFFFFFFFFFFFFFFFFFFFFFFFFFFFFFFFFFFFFFFF AND CALLER PUSH20 0xFFFFFFFFFFFFFFFFFFFFFFFFFFFFFFFFFFFFFFFF AND EQ PUSH2 0x3EB JUMPI PUSH1 0x0 DUP1 REVERT JUMPDEST PUSH1 0x0 ISZERO ISZERO PUSH1 0x1 PUSH1 0x0 DUP5 PUSH20 0xFFFFFFFFFFFFFFFFFFFFFFFFFFFFFFFFFFFFFFFF AND PUSH20 0xFFFFFFFFFFFFFFFFFFFFFFFFFFFFFFFFFFFFFFFF AND DUP2 MSTORE PUSH1 0x20 ADD SWAP1 DUP2 MSTORE PUSH1 0x20 ADD PUSH1 0x0 KECCAK256 PUSH1 0x0 SWAP1 SLOAD SWAP1 PUSH2 0x100 EXP SWAP1 DIV PUSH1 0xFF AND ISZERO ISZERO EQ PUSH2 0x448 JUMPI PUSH1 0x0 DUP1 REVERT JUMPDEST PUSH1 0x1 DUP1 PUSH1 0x0 DUP5 PUSH20 0xFFFFFFFFFFFFFFFFFFFFFFFFFFFFFFFFFFFFFFFF AND PUSH20 0xFFFFFFFFFFFFFFFFFFFFFFFFFFFFFFFFFFFFFFFF AND DUP2 MSTORE PUSH1 0x20 ADD SWAP1 DUP2 MSTORE PUSH1 0x20 ADD PUSH1 0x0 KECCAK256 PUSH1 0x0 PUSH2 0x100 EXP DUP2 SLOAD DUP2 PUSH1 0xFF MUL NOT AND SWAP1 DUP4 ISZERO ISZERO MUL OR SWAP1 SSTORE POP DUP2 PUSH20 0xFFFFFFFFFFFFFFFFFFFFFFFFFFFFFFFFFFFFFFFF AND PUSH32 0x27AA0506E4DA65B95BD4F61C697076F8C7DCB69B2C0937D11EFA9CEAA3BF5A95 PUSH1 0x40 MLOAD PUSH1 0x40 MLOAD DUP1 SWAP2 SUB SWAP1 LOG2 PUSH1 0x1 SWAP1 POP SWAP2 SWAP1 POP JUMP JUMPDEST PUSH1 0x0 DUP1 PUSH1 0x0 SWAP1 SLOAD SWAP1 PUSH2 0x100 EXP SWAP1 DIV PUSH20 0xFFFFFFFFFFFFFFFFFFFFFFFFFFFFFFFFFFFFFFFF AND PUSH20 0xFFFFFFFFFFFFFFFFFFFFFFFFFFFFFFFFFFFFFFFF AND CALLER PUSH20 0xFFFFFFFFFFFFFFFFFFFFFFFFFFFFFFFFFFFFFFFF AND EQ PUSH2 0x546 JUMPI PUSH1 0x0 DUP1 REVERT JUMPDEST PUSH1 0x1 ISZERO ISZERO PUSH1 0x1 PUSH1 0x0 DUP5 PUSH20 0xFFFFFFFFFFFFFFFFFFFFFFFFFFFFFFFFFFFFFFFF AND PUSH20 0xFFFFFFFFFFFFFFFFFFFFFFFFFFFFFFFFFFFFFFFF AND DUP2 MSTORE PUSH1 0x20 ADD SWAP1 DUP2 MSTORE PUSH1 0x20 ADD PUSH1 0x0 KECCAK256 PUSH1 0x0 SWAP1 SLOAD SWAP1 PUSH2 0x100 EXP SWAP1 DIV PUSH1 0xFF AND ISZERO ISZERO EQ PUSH2 0x5A3 JUMPI PUSH1 0x0 DUP1 REVERT JUMPDEST PUSH1 0x0 PUSH1 0x1 PUSH1 0x0 DUP5 PUSH20 0xFFFFFFFFFFFFFFFFFFFFFFFFFFFFFFFFFFFFFFFF AND PUSH20 0xFFFFFFFFFFFFFFFFFFFFFFFFFFFFFFFFFFFFFFFF AND DUP2 MSTORE PUSH1 0x20 ADD SWAP1 DUP2 MSTORE PUSH1 0x20 ADD PUSH1 0x0 KECCAK256 PUSH1 0x0 PUSH2 0x100 EXP DUP2 SLOAD DUP2 PUSH1 0xFF MUL NOT AND SWAP1 DUP4 ISZERO ISZERO MUL OR SWAP1 SSTORE POP DUP2 PUSH20 0xFFFFFFFFFFFFFFFFFFFFFFFFFFFFFFFFFFFFFFFF AND PUSH32 0xEE5D7D94405E51EEC1BD7F59C36572787D25AFB6C85E3A897BB782F08AAC7D44 PUSH1 0x40 MLOAD PUSH1 0x40 MLOAD DUP1 SWAP2 SUB SWAP1 LOG2 PUSH1 0x1 SWAP1 POP SWAP2 SWAP1 POP JUMP JUMPDEST PUSH1 0x1 PUSH1 0x20 MSTORE DUP1 PUSH1 0x0 MSTORE PUSH1 0x40 PUSH1 0x0 KECCAK256 PUSH1 0x0 SWAP2 POP SLOAD SWAP1 PUSH2 0x100 EXP SWAP1 DIV PUSH1 0xFF AND DUP2 JUMP JUMPDEST PUSH1 0x0 PUSH1 0x1 ISZERO ISZERO PUSH2 0x676 CALLER PUSH2 0x7A3 JUMP JUMPDEST ISZERO ISZERO EQ PUSH2 0x682 JUMPI PUSH1 0x0 DUP1 REVERT JUMPDEST PUSH1 0x0 PUSH1 0x5 PUSH1 0x0 DUP8 PUSH20 0xFFFFFFFFFFFFFFFFFFFFFFFFFFFFFFFFFFFFFFFF AND PUSH20 0xFFFFFFFFFFFFFFFFFFFFFFFFFFFFFFFFFFFFFFFF AND DUP2 MSTORE PUSH1 0x20 ADD SWAP1 DUP2 MSTORE PUSH1 0x20 ADD PUSH1 0x0 KECCAK256 SWAP1 POP PUSH1 0x0 DUP2 PUSH1 0x0 ADD SLOAD EQ PUSH2 0x6D6 JUMPI PUSH1 0x0 DUP1 REVERT JUMPDEST PUSH1 0x2 SLOAD DUP2 PUSH1 0x0 ADD DUP2 SWAP1 SSTORE POP CALLER DUP2 PUSH1 0x1 ADD PUSH1 0x0 PUSH2 0x100 EXP DUP2 SLOAD DUP2 PUSH20 0xFFFFFFFFFFFFFFFFFFFFFFFFFFFFFFFFFFFFFFFF MUL NOT AND SWAP1 DUP4 PUSH20 0xFFFFFFFFFFFFFFFFFFFFFFFFFFFFFFFFFFFFFFFF AND MUL OR SWAP1 SSTORE POP DUP5 DUP2 PUSH1 0x1 ADD PUSH1 0x14 PUSH2 0x100 EXP DUP2 SLOAD DUP2 PUSH1 0xFF MUL NOT AND SWAP1 DUP4 PUSH1 0xFF AND MUL OR SWAP1 SSTORE POP PUSH1 0x0 DUP2 PUSH1 0x1 ADD PUSH1 0x15 PUSH2 0x100 EXP DUP2 SLOAD DUP2 PUSH1 0xFF MUL NOT AND SWAP1 DUP4 PUSH1 0xFF AND MUL OR SWAP1 SSTORE POP DUP4 DUP4 DUP3 PUSH1 0x2 ADD SWAP2 SWAP1 PUSH2 0x772 SWAP3 SWAP2 SWAP1 PUSH2 0xDE0 JUMP JUMPDEST POP TIMESTAMP DUP2 PUSH1 0x3 ADD DUP2 SWAP1 SSTORE POP PUSH1 0x1 PUSH1 0x2 PUSH1 0x0 DUP3 DUP3 SLOAD PUSH2 0x78F SWAP2 SWAP1 PUSH2 0x13F6 JUMP JUMPDEST SWAP3 POP POP DUP2 SWAP1 SSTORE POP PUSH1 0x1 SWAP2 POP POP SWAP5 SWAP4 POP POP POP POP JUMP JUMPDEST PUSH1 0x0 PUSH1 0x1 PUSH1 0x0 DUP4 PUSH20 0xFFFFFFFFFFFFFFFFFFFFFFFFFFFFFFFFFFFFFFFF AND PUSH20 0xFFFFFFFFFFFFFFFFFFFFFFFFFFFFFFFFFFFFFFFF AND DUP2 MSTORE PUSH1 0x20 ADD SWAP1 DUP2 MSTORE PUSH1 0x20 ADD PUSH1 0x0 KECCAK256 PUSH1 0x0 SWAP1 SLOAD SWAP1 PUSH2 0x100 EXP SWAP1 DIV PUSH1 0xFF AND SWAP1 POP SWAP2 SWAP1 POP JUMP JUMPDEST PUSH1 0x0 PUSH1 0x1 ISZERO ISZERO PUSH2 0x808 CALLER PUSH2 0x7A3 JUMP JUMPDEST ISZERO ISZERO EQ PUSH2 0x814 JUMPI PUSH1 0x0 DUP1 REVERT JUMPDEST PUSH1 0x0 PUSH1 0x4 PUSH1 0x0 DUP7 PUSH1 0xFF AND PUSH1 0xFF AND DUP2 MSTORE PUSH1 0x20 ADD SWAP1 DUP2 MSTORE PUSH1 0x20 ADD PUSH1 0x0 KECCAK256 DUP1 SLOAD PUSH2 0x83A SWAP1 PUSH2 0x1395 JUMP JUMPDEST SWAP1 POP EQ PUSH2 0x846 JUMPI PUSH1 0x0 DUP1 REVERT JUMPDEST DUP3 DUP3 PUSH1 0x4 PUSH1 0x0 DUP8 PUSH1 0xFF AND PUSH1 0xFF AND DUP2 MSTORE PUSH1 0x20 ADD SWAP1 DUP2 MSTORE PUSH1 0x20 ADD PUSH1 0x0 KECCAK256 SWAP2 SWAP1 PUSH2 0x86E SWAP3 SWAP2 SWAP1 PUSH2 0xDE0 JUMP JUMPDEST POP PUSH1 0x1 SWAP1 POP SWAP4 SWAP3 POP POP POP JUMP JUMPDEST PUSH1 0x0 PUSH1 0x1 ISZERO ISZERO PUSH2 0x889 CALLER PUSH2 0x7A3 JUMP JUMPDEST ISZERO ISZERO EQ PUSH2 0x895 JUMPI PUSH1 0x0 DUP1 REVERT JUMPDEST PUSH1 0x0 PUSH1 0x3 PUSH1 0x0 DUP7 PUSH1 0xFF AND PUSH1 0xFF AND DUP2 MSTORE PUSH1 0x20 ADD SWAP1 DUP2 MSTORE PUSH1 0x20 ADD PUSH1 0x0 KECCAK256 DUP1 SLOAD PUSH2 0x8BB SWAP1 PUSH2 0x1395 JUMP JUMPDEST SWAP1 POP EQ PUSH2 0x8C7 JUMPI PUSH1 0x0 DUP1 REVERT JUMPDEST DUP3 DUP3 PUSH1 0x3 PUSH1 0x0 DUP8 PUSH1 0xFF AND PUSH1 0xFF AND DUP2 MSTORE PUSH1 0x20 ADD SWAP1 DUP2 MSTORE PUSH1 0x20 ADD PUSH1 0x0 KECCAK256 SWAP2 SWAP1 PUSH2 0x8EF SWAP3 SWAP2 SWAP1 PUSH2 0xDE0 JUMP JUMPDEST POP PUSH1 0x1 SWAP1 POP SWAP4 SWAP3 POP POP POP JUMP JUMPDEST PUSH2 0x903 PUSH2 0xE66 JUMP JUMPDEST PUSH1 0x5 PUSH1 0x0 DUP4 PUSH20 0xFFFFFFFFFFFFFFFFFFFFFFFFFFFFFFFFFFFFFFFF AND PUSH20 0xFFFFFFFFFFFFFFFFFFFFFFFFFFFFFFFFFFFFFFFF AND DUP2 MSTORE PUSH1 0x20 ADD SWAP1 DUP2 MSTORE PUSH1 0x20 ADD PUSH1 0x0 KECCAK256 PUSH1 0x40 MLOAD DUP1 PUSH1 0xC0 ADD PUSH1 0x40 MSTORE SWAP1 DUP2 PUSH1 0x0 DUP3 ADD SLOAD DUP2 MSTORE PUSH1 0x20 ADD PUSH1 0x1 DUP3 ADD PUSH1 0x0 SWAP1 SLOAD SWAP1 PUSH2 0x100 EXP SWAP1 DIV PUSH20 0xFFFFFFFFFFFFFFFFFFFFFFFFFFFFFFFFFFFFFFFF AND PUSH20 0xFFFFFFFFFFFFFFFFFFFFFFFFFFFFFFFFFFFFFFFF AND PUSH20 0xFFFFFFFFFFFFFFFFFFFFFFFFFFFFFFFFFFFFFFFF AND DUP2 MSTORE PUSH1 0x20 ADD PUSH1 0x1 DUP3 ADD PUSH1 0x14 SWAP1 SLOAD SWAP1 PUSH2 0x100 EXP SWAP1 DIV PUSH1 0xFF AND PUSH1 0xFF AND PUSH1 0xFF AND DUP2 MSTORE PUSH1 0x20 ADD PUSH1 0x1 DUP3 ADD PUSH1 0x15 SWAP1 SLOAD SWAP1 PUSH2 0x100 EXP SWAP1 DIV PUSH1 0xFF AND PUSH1 0xFF AND PUSH1 0xFF AND DUP2 MSTORE PUSH1 0x20 ADD PUSH1 0x2 DUP3 ADD DUP1 SLOAD PUSH2 0x9F7 SWAP1 PUSH2 0x1395 JUMP JUMPDEST DUP1 PUSH1 0x1F ADD PUSH1 0x20 DUP1 SWAP2 DIV MUL PUSH1 0x20 ADD PUSH1 0x40 MLOAD SWAP1 DUP2 ADD PUSH1 0x40 MSTORE DUP1 SWAP3 SWAP2 SWAP1 DUP2 DUP2 MSTORE PUSH1 0x20 ADD DUP3 DUP1 SLOAD PUSH2 0xA23 SWAP1 PUSH2 0x1395 JUMP JUMPDEST DUP1 ISZERO PUSH2 0xA70 JUMPI DUP1 PUSH1 0x1F LT PUSH2 0xA45 JUMPI PUSH2 0x100 DUP1 DUP4 SLOAD DIV MUL DUP4 MSTORE SWAP2 PUSH1 0x20 ADD SWAP2 PUSH2 0xA70 JUMP JUMPDEST DUP3 ADD SWAP2 SWAP1 PUSH1 0x0 MSTORE PUSH1 0x20 PUSH1 0x0 KECCAK256 SWAP1 JUMPDEST DUP2 SLOAD DUP2 MSTORE SWAP1 PUSH1 0x1 ADD SWAP1 PUSH1 0x20 ADD DUP1 DUP4 GT PUSH2 0xA53 JUMPI DUP3 SWAP1 SUB PUSH1 0x1F AND DUP3 ADD SWAP2 JUMPDEST POP POP POP POP POP DUP2 MSTORE PUSH1 0x20 ADD PUSH1 0x3 DUP3 ADD SLOAD DUP2 MSTORE POP POP SWAP1 POP SWAP2 SWAP1 POP JUMP JUMPDEST PUSH1 0x0 DUP1 SLOAD SWAP1 PUSH2 0x100 EXP SWAP1 DIV PUSH20 0xFFFFFFFFFFFFFFFFFFFFFFFFFFFFFFFFFFFFFFFF AND PUSH20 0xFFFFFFFFFFFFFFFFFFFFFFFFFFFFFFFFFFFFFFFF AND CALLER PUSH20 0xFFFFFFFFFFFFFFFFFFFFFFFFFFFFFFFFFFFFFFFF AND EQ PUSH2 0xAE2 JUMPI PUSH1 0x0 DUP1 REVERT JUMPDEST PUSH1 0x0 DUP1 SLOAD SWAP1 PUSH2 0x100 EXP SWAP1 DIV PUSH20 0xFFFFFFFFFFFFFFFFFFFFFFFFFFFFFFFFFFFFFFFF AND PUSH20 0xFFFFFFFFFFFFFFFFFFFFFFFFFFFFFFFFFFFFFFFF AND DUP2 PUSH20 0xFFFFFFFFFFFFFFFFFFFFFFFFFFFFFFFFFFFFFFFF AND EQ ISZERO PUSH2 0xB3B JUMPI PUSH1 0x0 DUP1 REVERT JUMPDEST PUSH1 0x0 PUSH20 0xFFFFFFFFFFFFFFFFFFFFFFFFFFFFFFFFFFFFFFFF AND DUP2 PUSH20 0xFFFFFFFFFFFFFFFFFFFFFFFFFFFFFFFFFFFFFFFF AND EQ ISZERO PUSH2 0xB75 JUMPI PUSH1 0x0 DUP1 REVERT JUMPDEST DUP1 PUSH1 0x0 DUP1 PUSH2 0x100 EXP DUP2 SLOAD DUP2 PUSH20 0xFFFFFFFFFFFFFFFFFFFFFFFFFFFFFFFFFFFFFFFF MUL NOT AND SWAP1 DUP4 PUSH20 0xFFFFFFFFFFFFFFFFFFFFFFFFFFFFFFFFFFFFFFFF AND MUL OR SWAP1 SSTORE POP DUP1 PUSH20 0xFFFFFFFFFFFFFFFFFFFFFFFFFFFFFFFFFFFFFFFF AND PUSH1 0x0 DUP1 SLOAD SWAP1 PUSH2 0x100 EXP SWAP1 DIV PUSH20 0xFFFFFFFFFFFFFFFFFFFFFFFFFFFFFFFFFFFFFFFF AND PUSH20 0xFFFFFFFFFFFFFFFFFFFFFFFFFFFFFFFFFFFFFFFF AND PUSH32 0x2AE143016ADC0AA482E6BA5D9A350F3E3122AEB005CA4BF47D1D7B8221BCE472 PUSH1 0x40 MLOAD PUSH1 0x40 MLOAD DUP1 SWAP2 SUB SWAP1 LOG3 POP JUMP JUMPDEST PUSH1 0x60 PUSH1 0x3 PUSH1 0x0 DUP4 PUSH1 0xFF AND PUSH1 0xFF AND DUP2 MSTORE PUSH1 0x20 ADD SWAP1 DUP2 MSTORE PUSH1 0x20 ADD PUSH1 0x0 KECCAK256 DUP1 SLOAD PUSH2 0xC58 SWAP1 PUSH2 0x1395 JUMP JUMPDEST DUP1 PUSH1 0x1F ADD PUSH1 0x20 DUP1 SWAP2 DIV MUL PUSH1 0x20 ADD PUSH1 0x40 MLOAD SWAP1 DUP2 ADD PUSH1 0x40 MSTORE DUP1 SWAP3 SWAP2 SWAP1 DUP2 DUP2 MSTORE PUSH1 0x20 ADD DUP3 DUP1 SLOAD PUSH2 0xC84 SWAP1 PUSH2 0x1395 JUMP JUMPDEST DUP1 ISZERO PUSH2 0xCD1 JUMPI DUP1 PUSH1 0x1F LT PUSH2 0xCA6 JUMPI PUSH2 0x100 DUP1 DUP4 SLOAD DIV MUL DUP4 MSTORE SWAP2 PUSH1 0x20 ADD SWAP2 PUSH2 0xCD1 JUMP JUMPDEST DUP3 ADD SWAP2 SWAP1 PUSH1 0x0 MSTORE PUSH1 0x20 PUSH1 0x0 KECCAK256 SWAP1 JUMPDEST DUP2 SLOAD DUP2 MSTORE SWAP1 PUSH1 0x1 ADD SWAP1 PUSH1 0x20 ADD DUP1 DUP4 GT PUSH2 0xCB4 JUMPI DUP3 SWAP1 SUB PUSH1 0x1F AND DUP3 ADD SWAP2 JUMPDEST POP POP POP POP POP SWAP1 POP SWAP2 SWAP1 POP JUMP JUMPDEST PUSH1 0x0 PUSH1 0x1 ISZERO ISZERO PUSH2 0xCEC CALLER PUSH2 0x7A3 JUMP JUMPDEST ISZERO ISZERO EQ PUSH2 0xCF8 JUMPI PUSH1 0x0 DUP1 REVERT JUMPDEST PUSH1 0x0 PUSH1 0x5 PUSH1 0x0 DUP6 PUSH20 0xFFFFFFFFFFFFFFFFFFFFFFFFFFFFFFFFFFFFFFFF AND PUSH20 0xFFFFFFFFFFFFFFFFFFFFFFFFFFFFFFFFFFFFFFFF AND DUP2 MSTORE PUSH1 0x20 ADD SWAP1 DUP2 MSTORE PUSH1 0x20 ADD PUSH1 0x0 KECCAK256 PUSH1 0x0 ADD SLOAD EQ ISZERO PUSH2 0xD48 JUMPI PUSH1 0x0 DUP1 REVERT JUMPDEST PUSH1 0x0 PUSH1 0x4 PUSH1 0x0 DUP5 PUSH1 0xFF AND PUSH1 0xFF AND DUP2 MSTORE PUSH1 0x20 ADD SWAP1 DUP2 MSTORE PUSH1 0x20 ADD PUSH1 0x0 KECCAK256 DUP1 SLOAD PUSH2 0xD6E SWAP1 PUSH2 0x1395 JUMP JUMPDEST SWAP1 POP EQ ISZERO PUSH2 0xD7B JUMPI PUSH1 0x0 DUP1 REVERT JUMPDEST DUP2 PUSH1 0x5 PUSH1 0x0 DUP6 PUSH20 0xFFFFFFFFFFFFFFFFFFFFFFFFFFFFFFFFFFFFFFFF AND PUSH20 0xFFFFFFFFFFFFFFFFFFFFFFFFFFFFFFFFFFFFFFFF AND DUP2 MSTORE PUSH1 0x20 ADD SWAP1 DUP2 MSTORE PUSH1 0x20 ADD PUSH1 0x0 KECCAK256 PUSH1 0x1 ADD PUSH1 0x15 PUSH2 0x100 EXP DUP2 SLOAD DUP2 PUSH1 0xFF MUL NOT AND SWAP1 DUP4 PUSH1 0xFF AND MUL OR SWAP1 SSTORE POP PUSH1 0x1 SWAP1 POP SWAP3 SWAP2 POP POP JUMP JUMPDEST DUP3 DUP1 SLOAD PUSH2 0xDEC SWAP1 PUSH2 0x1395 JUMP JUMPDEST SWAP1 PUSH1 0x0 MSTORE PUSH1 0x20 PUSH1 0x0 KECCAK256 SWAP1 PUSH1 0x1F ADD PUSH1 0x20 SWAP1 DIV DUP2 ADD SWAP3 DUP3 PUSH2 0xE0E JUMPI PUSH1 0x0 DUP6 SSTORE PUSH2 0xE55 JUMP JUMPDEST DUP3 PUSH1 0x1F LT PUSH2 0xE27 JUMPI DUP1 CALLDATALOAD PUSH1 0xFF NOT AND DUP4 DUP1 ADD OR DUP6 SSTORE PUSH2 0xE55 JUMP JUMPDEST DUP3 DUP1 ADD PUSH1 0x1 ADD DUP6 SSTORE DUP3 ISZERO PUSH2 0xE55 JUMPI SWAP2 DUP3 ADD JUMPDEST DUP3 DUP2 GT ISZERO PUSH2 0xE54 JUMPI DUP3 CALLDATALOAD DUP3 SSTORE SWAP2 PUSH1 0x20 ADD SWAP2 SWAP1 PUSH1 0x1 ADD SWAP1 PUSH2 0xE39 JUMP JUMPDEST JUMPDEST POP SWAP1 POP PUSH2 0xE62 SWAP2 SWAP1 PUSH2 0xEB8 JUMP JUMPDEST POP SWAP1 JUMP JUMPDEST PUSH1 0x40 MLOAD DUP1 PUSH1 0xC0 ADD PUSH1 0x40 MSTORE DUP1 PUSH1 0x0 DUP2 MSTORE PUSH1 0x20 ADD PUSH1 0x0 PUSH20 0xFFFFFFFFFFFFFFFFFFFFFFFFFFFFFFFFFFFFFFFF AND DUP2 MSTORE PUSH1 0x20 ADD PUSH1 0x0 PUSH1 0xFF AND DUP2 MSTORE PUSH1 0x20 ADD PUSH1 0x0 PUSH1 0xFF AND DUP2 MSTORE PUSH1 0x20 ADD PUSH1 0x60 DUP2 MSTORE PUSH1 0x20 ADD PUSH1 0x0 DUP2 MSTORE POP SWAP1 JUMP JUMPDEST JUMPDEST DUP1 DUP3 GT ISZERO PUSH2 0xED1 JUMPI PUSH1 0x0 DUP2 PUSH1 0x0 SWAP1 SSTORE POP PUSH1 0x1 ADD PUSH2 0xEB9 JUMP JUMPDEST POP SWAP1 JUMP JUMPDEST PUSH1 0x0 DUP1 REVERT JUMPDEST PUSH1 0x0 DUP1 REVERT JUMPDEST PUSH1 0x0 PUSH1 0xFF DUP3 AND SWAP1 POP SWAP2 SWAP1 POP JUMP JUMPDEST PUSH2 0xEF5 DUP2 PUSH2 0xEDF JUMP JUMPDEST DUP2 EQ PUSH2 0xF00 JUMPI PUSH1 0x0 DUP1 REVERT JUMPDEST POP JUMP JUMPDEST PUSH1 0x0 DUP2 CALLDATALOAD SWAP1 POP PUSH2 0xF12 DUP2 PUSH2 0xEEC JUMP JUMPDEST SWAP3 SWAP2 POP POP JUMP JUMPDEST PUSH1 0x0 PUSH1 0x20 DUP3 DUP5 SUB SLT ISZERO PUSH2 0xF2E JUMPI PUSH2 0xF2D PUSH2 0xED5 JUMP JUMPDEST JUMPDEST PUSH1 0x0 PUSH2 0xF3C DUP5 DUP3 DUP6 ADD PUSH2 0xF03 JUMP JUMPDEST SWAP2 POP POP SWAP3 SWAP2 POP POP JUMP JUMPDEST PUSH1 0x0 DUP2 MLOAD SWAP1 POP SWAP2 SWAP1 POP JUMP JUMPDEST PUSH1 0x0 DUP3 DUP3 MSTORE PUSH1 0x20 DUP3 ADD SWAP1 POP SWAP3 SWAP2 POP POP JUMP JUMPDEST PUSH1 0x0 JUMPDEST DUP4 DUP2 LT ISZERO PUSH2 0xF7F JUMPI DUP1 DUP3 ADD MLOAD DUP2 DUP5 ADD MSTORE PUSH1 0x20 DUP2 ADD SWAP1 POP PUSH2 0xF64 JUMP JUMPDEST DUP4 DUP2 GT ISZERO PUSH2 0xF8E JUMPI PUSH1 0x0 DUP5 DUP5 ADD MSTORE JUMPDEST POP POP POP POP JUMP JUMPDEST PUSH1 0x0 PUSH1 0x1F NOT PUSH1 0x1F DUP4 ADD AND SWAP1 POP SWAP2 SWAP1 POP JUMP JUMPDEST PUSH1 0x0 PUSH2 0xFB0 DUP3 PUSH2 0xF45 JUMP JUMPDEST PUSH2 0xFBA DUP2 DUP6 PUSH2 0xF50 JUMP JUMPDEST SWAP4 POP PUSH2 0xFCA DUP2 DUP6 PUSH1 0x20 DUP7 ADD PUSH2 0xF61 JUMP JUMPDEST PUSH2 0xFD3 DUP2 PUSH2 0xF94 JUMP JUMPDEST DUP5 ADD SWAP2 POP POP SWAP3 SWAP2 POP POP JUMP JUMPDEST PUSH1 0x0 PUSH1 0x20 DUP3 ADD SWAP1 POP DUP2 DUP2 SUB PUSH1 0x0 DUP4 ADD MSTORE PUSH2 0xFF8 DUP2 DUP5 PUSH2 0xFA5 JUMP JUMPDEST SWAP1 POP SWAP3 SWAP2 POP POP JUMP JUMPDEST PUSH1 0x0 PUSH20 0xFFFFFFFFFFFFFFFFFFFFFFFFFFFFFFFFFFFFFFFF DUP3 AND SWAP1 POP SWAP2 SWAP1 POP JUMP JUMPDEST PUSH1 0x0 PUSH2 0x102B DUP3 PUSH2 0x1000 JUMP JUMPDEST SWAP1 POP SWAP2 SWAP1 POP JUMP JUMPDEST PUSH2 0x103B DUP2 PUSH2 0x1020 JUMP JUMPDEST DUP2 EQ PUSH2 0x1046 JUMPI PUSH1 0x0 DUP1 REVERT JUMPDEST POP JUMP JUMPDEST PUSH1 0x0 DUP2 CALLDATALOAD SWAP1 POP PUSH2 0x1058 DUP2 PUSH2 0x1032 JUMP JUMPDEST SWAP3 SWAP2 POP POP JUMP JUMPDEST PUSH1 0x0 PUSH1 0x20 DUP3 DUP5 SUB SLT ISZERO PUSH2 0x1074 JUMPI PUSH2 0x1073 PUSH2 0xED5 JUMP JUMPDEST JUMPDEST PUSH1 0x0 PUSH2 0x1082 DUP5 DUP3 DUP6 ADD PUSH2 0x1049 JUMP JUMPDEST SWAP2 POP POP SWAP3 SWAP2 POP POP JUMP JUMPDEST PUSH1 0x0 DUP2 ISZERO ISZERO SWAP1 POP SWAP2 SWAP1 POP JUMP JUMPDEST PUSH2 0x10A0 DUP2 PUSH2 0x108B JUMP JUMPDEST DUP3 MSTORE POP POP JUMP JUMPDEST PUSH1 0x0 PUSH1 0x20 DUP3 ADD SWAP1 POP PUSH2 0x10BB PUSH1 0x0 DUP4 ADD DUP5 PUSH2 0x1097 JUMP JUMPDEST SWAP3 SWAP2 POP POP JUMP JUMPDEST PUSH1 0x0 DUP1 REVERT JUMPDEST PUSH1 0x0 DUP1 REVERT JUMPDEST PUSH1 0x0 DUP1 REVERT JUMPDEST PUSH1 0x0 DUP1 DUP4 PUSH1 0x1F DUP5 ADD SLT PUSH2 0x10E6 JUMPI PUSH2 0x10E5 PUSH2 0x10C1 JUMP JUMPDEST JUMPDEST DUP3 CALLDATALOAD SWAP1 POP PUSH8 0xFFFFFFFFFFFFFFFF DUP2 GT ISZERO PUSH2 0x1103 JUMPI PUSH2 0x1102 PUSH2 0x10C6 JUMP JUMPDEST JUMPDEST PUSH1 0x20 DUP4 ADD SWAP2 POP DUP4 PUSH1 0x1 DUP3 MUL DUP4 ADD GT ISZERO PUSH2 0x111F JUMPI PUSH2 0x111E PUSH2 0x10CB JUMP JUMPDEST JUMPDEST SWAP3 POP SWAP3 SWAP1 POP JUMP JUMPDEST PUSH1 0x0 DUP1 PUSH1 0x0 DUP1 PUSH1 0x60 DUP6 DUP8 SUB SLT ISZERO PUSH2 0x1140 JUMPI PUSH2 0x113F PUSH2 0xED5 JUMP JUMPDEST JUMPDEST PUSH1 0x0 PUSH2 0x114E DUP8 DUP3 DUP9 ADD PUSH2 0x1049 JUMP JUMPDEST SWAP5 POP POP PUSH1 0x20 PUSH2 0x115F DUP8 DUP3 DUP9 ADD PUSH2 0xF03 JUMP JUMPDEST SWAP4 POP POP PUSH1 0x40 DUP6 ADD CALLDATALOAD PUSH8 0xFFFFFFFFFFFFFFFF DUP2 GT ISZERO PUSH2 0x1180 JUMPI PUSH2 0x117F PUSH2 0xEDA JUMP JUMPDEST JUMPDEST PUSH2 0x118C DUP8 DUP3 DUP9 ADD PUSH2 0x10D0 JUMP JUMPDEST SWAP3 POP SWAP3 POP POP SWAP3 SWAP6 SWAP2 SWAP5 POP SWAP3 POP JUMP JUMPDEST PUSH1 0x0 DUP1 PUSH1 0x0 PUSH1 0x40 DUP5 DUP7 SUB SLT ISZERO PUSH2 0x11B3 JUMPI PUSH2 0x11B2 PUSH2 0xED5 JUMP JUMPDEST JUMPDEST PUSH1 0x0 PUSH2 0x11C1 DUP7 DUP3 DUP8 ADD PUSH2 0xF03 JUMP JUMPDEST SWAP4 POP POP PUSH1 0x20 DUP5 ADD CALLDATALOAD PUSH8 0xFFFFFFFFFFFFFFFF DUP2 GT ISZERO PUSH2 0x11E2 JUMPI PUSH2 0x11E1 PUSH2 0xEDA JUMP JUMPDEST JUMPDEST PUSH2 0x11EE DUP7 DUP3 DUP8 ADD PUSH2 0x10D0 JUMP JUMPDEST SWAP3 POP SWAP3 POP POP SWAP3 POP SWAP3 POP SWAP3 JUMP JUMPDEST PUSH1 0x0 DUP2 SWAP1 POP SWAP2 SWAP1 POP JUMP JUMPDEST PUSH2 0x120D DUP2 PUSH2 0x11FA JUMP JUMPDEST DUP3 MSTORE POP POP JUMP JUMPDEST PUSH2 0x121C DUP2 PUSH2 0x1020 JUMP JUMPDEST DUP3 MSTORE POP POP JUMP JUMPDEST PUSH2 0x122B DUP2 PUSH2 0xEDF JUMP JUMPDEST DUP3 MSTORE POP POP JUMP JUMPDEST PUSH1 0x0 DUP3 DUP3 MSTORE PUSH1 0x20 DUP3 ADD SWAP1 POP SWAP3 SWAP2 POP POP JUMP JUMPDEST PUSH1 0x0 PUSH2 0x124D DUP3 PUSH2 0xF45 JUMP JUMPDEST PUSH2 0x1257 DUP2 DUP6 PUSH2 0x1231 JUMP JUMPDEST SWAP4 POP PUSH2 0x1267 DUP2 DUP6 PUSH1 0x20 DUP7 ADD PUSH2 0xF61 JUMP JUMPDEST PUSH2 0x1270 DUP2 PUSH2 0xF94 JUMP JUMPDEST DUP5 ADD SWAP2 POP POP SWAP3 SWAP2 POP POP JUMP JUMPDEST PUSH1 0x0 PUSH1 0xC0 DUP4 ADD PUSH1 0x0 DUP4 ADD MLOAD PUSH2 0x1293 PUSH1 0x0 DUP7 ADD DUP3 PUSH2 0x1204 JUMP JUMPDEST POP PUSH1 0x20 DUP4 ADD MLOAD PUSH2 0x12A6 PUSH1 0x20 DUP7 ADD DUP3 PUSH2 0x1213 JUMP JUMPDEST POP PUSH1 0x40 DUP4 ADD MLOAD PUSH2 0x12B9 PUSH1 0x40 DUP7 ADD DUP3 PUSH2 0x1222 JUMP JUMPDEST POP PUSH1 0x60 DUP4 ADD MLOAD PUSH2 0x12CC PUSH1 0x60 DUP7 ADD DUP3 PUSH2 0x1222 JUMP JUMPDEST POP PUSH1 0x80 DUP4 ADD MLOAD DUP5 DUP3 SUB PUSH1 0x80 DUP7 ADD MSTORE PUSH2 0x12E4 DUP3 DUP3 PUSH2 0x1242 JUMP JUMPDEST SWAP2 POP POP PUSH1 0xA0 DUP4 ADD MLOAD PUSH2 0x12F9 PUSH1 0xA0 DUP7 ADD DUP3 PUSH2 0x1204 JUMP JUMPDEST POP DUP1 SWAP2 POP POP SWAP3 SWAP2 POP POP JUMP JUMPDEST PUSH1 0x0 PUSH1 0x20 DUP3 ADD SWAP1 POP DUP2 DUP2 SUB PUSH1 0x0 DUP4 ADD MSTORE PUSH2 0x131E DUP2 DUP5 PUSH2 0x127B JUMP JUMPDEST SWAP1 POP SWAP3 SWAP2 POP POP JUMP JUMPDEST PUSH1 0x0 DUP1 PUSH1 0x40 DUP4 DUP6 SUB SLT ISZERO PUSH2 0x133D JUMPI PUSH2 0x133C PUSH2 0xED5 JUMP JUMPDEST JUMPDEST PUSH1 0x0 PUSH2 0x134B DUP6 DUP3 DUP7 ADD PUSH2 0x1049 JUMP JUMPDEST SWAP3 POP POP PUSH1 0x20 PUSH2 0x135C DUP6 DUP3 DUP7 ADD PUSH2 0xF03 JUMP JUMPDEST SWAP2 POP POP SWAP3 POP SWAP3 SWAP1 POP JUMP JUMPDEST PUSH32 0x4E487B7100000000000000000000000000000000000000000000000000000000 PUSH1 0x0 MSTORE PUSH1 0x22 PUSH1 0x4 MSTORE PUSH1 0x24 PUSH1 0x0 REVERT JUMPDEST PUSH1 0x0 PUSH1 0x2 DUP3 DIV SWAP1 POP PUSH1 0x1 DUP3 AND DUP1 PUSH2 0x13AD JUMPI PUSH1 0x7F DUP3 AND SWAP2 POP JUMPDEST PUSH1 0x20 DUP3 LT DUP2 EQ ISZERO PUSH2 0x13C1 JUMPI PUSH2 0x13C0 PUSH2 0x1366 JUMP JUMPDEST JUMPDEST POP SWAP2 SWAP1 POP JUMP JUMPDEST PUSH32 0x4E487B7100000000000000000000000000000000000000000000000000000000 PUSH1 0x0 MSTORE PUSH1 0x11 PUSH1 0x4 MSTORE PUSH1 0x24 PUSH1 0x0 REVERT JUMPDEST PUSH1 0x0 PUSH2 0x1401 DUP3 PUSH2 0x11FA JUMP JUMPDEST SWAP2 POP PUSH2 0x140C DUP4 PUSH2 0x11FA JUMP JUMPDEST SWAP3 POP DUP3 PUSH32 0xFFFFFFFFFFFFFFFFFFFFFFFFFFFFFFFFFFFFFFFFFFFFFFFFFFFFFFFFFFFFFFFF SUB DUP3 GT ISZERO PUSH2 0x1441 JUMPI PUSH2 0x1440 PUSH2 0x13C7 JUMP JUMPDEST JUMPDEST DUP3 DUP3 ADD SWAP1 POP SWAP3 SWAP2 POP POP JUMP INVALID LOG2 PUSH5 0x6970667358 0x22 SLT KECCAK256 0x4B AND 0xB0 0xD2 0xD4 0xF7 GASLIMIT DUP7 PUSH13 0xCB355EC2ECAD808B4BA075FACE NUMBER 0x4C DUP5 CALLVALUE 0xE9 LT DUP15 0xDC EXTCODESIZE 0xE3 PUSH5 0x736F6C6343 STOP ADDMOD EXP STOP CALLER "
				},
				"gasEstimates": {
					"creation": {
						"codeDepositCost": "1050000",
						"executionCost": "infinite",
						"totalCost": "infinite"
					},
					"external": {
						"addAlumniType(uint8,string)": "infinite",
						"addIssuer(address)": "30629",
						"addStatusType(uint8,string)": "infinite",
						"changeStatus(address,uint8)": "32236",
						"claimCredential(address,uint8,string)": "infinite",
						"delIssuer(address)": "30651",
						"getAlumniType(uint8)": "infinite",
						"getCredential(address)": "infinite",
						"getStatusType(uint8)": "infinite",
						"isIssuer(address)": "2994",
						"issuers(address)": "2912",
						"transferOwnership(address)": "32842"
					}
				},
				"methodIdentifiers": {
					"addAlumniType(uint8,string)": "b4c18e32",
					"addIssuer(address)": "20694db0",
					"addStatusType(uint8,string)": "a30e2e54",
					"changeStatus(address,uint8)": "ff63e7a8",
					"claimCredential(address,uint8,string)": "617ae364",
					"delIssuer(address)": "34becfb4",
					"getAlumniType(uint8)": "fe4fa40d",
					"getCredential(address)": "ccdad14b",
					"getStatusType(uint8)": "05183a29",
					"isIssuer(address)": "877b9a67",
					"issuers(address)": "38a7543e",
					"transferOwnership(address)": "f2fde38b"
				}
			},
			"userdoc": {
				"kind": "user",
				"methods": {},
				"version": 1
			}
		}
	}
}